{
	"contracts/CustomStaking.sol": {
		"CustomStaking": {
			"abi": [
				{
					"inputs": [
						{
							"internalType": "contract IERC20",
							"name": "_lpToken",
							"type": "address"
						},
						{
							"internalType": "contract IERC20",
							"name": "_rewardToken",
							"type": "address"
						}
					],
					"stateMutability": "nonpayable",
					"type": "constructor"
				},
				{
					"inputs": [],
					"name": "ReentrancyGuardReentrantCall",
					"type": "error"
				},
				{
					"inputs": [
						{
							"internalType": "address",
							"name": "_user",
							"type": "address"
						}
					],
					"name": "balanceOf",
					"outputs": [
						{
							"internalType": "uint256",
							"name": "",
							"type": "uint256"
						}
					],
					"stateMutability": "view",
					"type": "function"
				},
				{
					"inputs": [
						{
							"internalType": "address",
							"name": "_user",
							"type": "address"
						}
					],
					"name": "calculateReward",
					"outputs": [
						{
							"internalType": "uint256",
							"name": "",
							"type": "uint256"
						}
					],
					"stateMutability": "view",
					"type": "function"
				},
				{
					"inputs": [],
					"name": "claimRewards",
					"outputs": [
						{
							"internalType": "uint256",
							"name": "",
							"type": "uint256"
						}
					],
					"stateMutability": "nonpayable",
					"type": "function"
				},
				{
					"inputs": [],
					"name": "getTotalRewards",
					"outputs": [
						{
							"internalType": "uint256",
							"name": "",
							"type": "uint256"
						}
					],
					"stateMutability": "view",
					"type": "function"
				},
				{
					"inputs": [],
					"name": "lpToken",
					"outputs": [
						{
							"internalType": "contract IERC20",
							"name": "",
							"type": "address"
						}
					],
					"stateMutability": "view",
					"type": "function"
				},
				{
					"inputs": [],
					"name": "rewardRate",
					"outputs": [
						{
							"internalType": "uint256",
							"name": "",
							"type": "uint256"
						}
					],
					"stateMutability": "view",
					"type": "function"
				},
				{
					"inputs": [],
					"name": "rewardToken",
					"outputs": [
						{
							"internalType": "contract IERC20",
							"name": "",
							"type": "address"
						}
					],
					"stateMutability": "view",
					"type": "function"
				},
				{
					"inputs": [
						{
							"internalType": "address",
							"name": "",
							"type": "address"
						}
					],
					"name": "rewards",
					"outputs": [
						{
							"internalType": "uint256",
							"name": "",
							"type": "uint256"
						}
					],
					"stateMutability": "view",
					"type": "function"
				},
				{
					"inputs": [
						{
							"internalType": "uint256",
							"name": "_amount",
							"type": "uint256"
						}
					],
					"name": "stake",
					"outputs": [],
					"stateMutability": "nonpayable",
					"type": "function"
				},
				{
					"inputs": [
						{
							"internalType": "address",
							"name": "",
							"type": "address"
						}
					],
					"name": "stakedBalances",
					"outputs": [
						{
							"internalType": "uint256",
							"name": "",
							"type": "uint256"
						}
					],
					"stateMutability": "view",
					"type": "function"
				},
				{
					"inputs": [
						{
							"internalType": "uint256",
							"name": "_amount",
							"type": "uint256"
						}
					],
					"name": "unstake",
					"outputs": [],
					"stateMutability": "nonpayable",
					"type": "function"
				}
			],
			"devdoc": {
				"errors": {
					"ReentrancyGuardReentrantCall()": [
						{
							"details": "Unauthorized reentrant call."
						}
					]
				},
				"kind": "dev",
				"methods": {},
				"version": 1
			},
			"evm": {
				"assembly": "    /* \"contracts/CustomStaking.sol\":175:1908  contract CustomStaking is ReentrancyGuard {... */\n  mstore(0x40, 0x80)\n    /* \"contracts/CustomStaking.sol\":306:309  100 */\n  0x64\n    /* \"contracts/CustomStaking.sol\":281:309  uint public rewardRate = 100 */\n  0x03\n  sstore\n    /* \"contracts/CustomStaking.sol\":442:563  constructor(IERC20 _lpToken, IERC20 _rewardToken) {... */\n  callvalue\n  dup1\n  iszero\n  tag_1\n  jumpi\n  0x00\n  dup1\n  revert\ntag_1:\n  pop\n  mload(0x40)\n  sub(codesize, bytecodeSize)\n  dup1\n  bytecodeSize\n  dup4\n  codecopy\n  dup2\n  dup2\n  add\n  0x40\n  mstore\n  dup2\n  add\n  swap1\n  tag_2\n  swap2\n  swap1\n  tag_3\n  jump\t// in\ntag_2:\n    /* \"@openzeppelin/contracts/utils/ReentrancyGuard.sol\":1713:1714  1 */\n  0x01\n    /* \"@openzeppelin/contracts/utils/ReentrancyGuard.sol\":1917:1924  _status */\n  0x00\n    /* \"@openzeppelin/contracts/utils/ReentrancyGuard.sol\":1917:1938  _status = NOT_ENTERED */\n  dup2\n  swap1\n  sstore\n  pop\n    /* \"contracts/CustomStaking.sol\":512:520  _lpToken */\n  dup2\n    /* \"contracts/CustomStaking.sol\":502:509  lpToken */\n  0x01\n  0x00\n    /* \"contracts/CustomStaking.sol\":502:520  lpToken = _lpToken */\n  0x0100\n  exp\n  dup2\n  sload\n  dup2\n  0xffffffffffffffffffffffffffffffffffffffff\n  mul\n  not\n  and\n  swap1\n  dup4\n  0xffffffffffffffffffffffffffffffffffffffff\n  and\n  mul\n  or\n  swap1\n  sstore\n  pop\n    /* \"contracts/CustomStaking.sol\":544:556  _rewardToken */\n  dup1\n    /* \"contracts/CustomStaking.sol\":530:541  rewardToken */\n  0x02\n  0x00\n    /* \"contracts/CustomStaking.sol\":530:556  rewardToken = _rewardToken */\n  0x0100\n  exp\n  dup2\n  sload\n  dup2\n  0xffffffffffffffffffffffffffffffffffffffff\n  mul\n  not\n  and\n  swap1\n  dup4\n  0xffffffffffffffffffffffffffffffffffffffff\n  and\n  mul\n  or\n  swap1\n  sstore\n  pop\n    /* \"contracts/CustomStaking.sol\":442:563  constructor(IERC20 _lpToken, IERC20 _rewardToken) {... */\n  pop\n  pop\n    /* \"contracts/CustomStaking.sol\":175:1908  contract CustomStaking is ReentrancyGuard {... */\n  jump(tag_8)\n    /* \"#utility.yul\":88:205   */\ntag_10:\n    /* \"#utility.yul\":197:198   */\n  0x00\n    /* \"#utility.yul\":194:195   */\n  dup1\n    /* \"#utility.yul\":187:199   */\n  revert\n    /* \"#utility.yul\":334:460   */\ntag_12:\n    /* \"#utility.yul\":371:378   */\n  0x00\n    /* \"#utility.yul\":411:453   */\n  0xffffffffffffffffffffffffffffffffffffffff\n    /* \"#utility.yul\":404:409   */\n  dup3\n    /* \"#utility.yul\":400:454   */\n  and\n    /* \"#utility.yul\":389:454   */\n  swap1\n  pop\n    /* \"#utility.yul\":334:460   */\n  swap2\n  swap1\n  pop\n  jump\t// out\n    /* \"#utility.yul\":466:562   */\ntag_13:\n    /* \"#utility.yul\":503:510   */\n  0x00\n    /* \"#utility.yul\":532:556   */\n  tag_23\n    /* \"#utility.yul\":550:555   */\n  dup3\n    /* \"#utility.yul\":532:556   */\n  tag_12\n  jump\t// in\ntag_23:\n    /* \"#utility.yul\":521:556   */\n  swap1\n  pop\n    /* \"#utility.yul\":466:562   */\n  swap2\n  swap1\n  pop\n  jump\t// out\n    /* \"#utility.yul\":568:677   */\ntag_14:\n    /* \"#utility.yul\":618:625   */\n  0x00\n    /* \"#utility.yul\":647:671   */\n  tag_25\n    /* \"#utility.yul\":665:670   */\n  dup3\n    /* \"#utility.yul\":647:671   */\n  tag_13\n  jump\t// in\ntag_25:\n    /* \"#utility.yul\":636:671   */\n  swap1\n  pop\n    /* \"#utility.yul\":568:677   */\n  swap2\n  swap1\n  pop\n  jump\t// out\n    /* \"#utility.yul\":683:831   */\ntag_15:\n    /* \"#utility.yul\":769:806   */\n  tag_27\n    /* \"#utility.yul\":800:805   */\n  dup2\n    /* \"#utility.yul\":769:806   */\n  tag_14\n  jump\t// in\ntag_27:\n    /* \"#utility.yul\":762:767   */\n  dup2\n    /* \"#utility.yul\":759:807   */\n  eq\n    /* \"#utility.yul\":749:825   */\n  tag_28\n  jumpi\n    /* \"#utility.yul\":821:822   */\n  0x00\n    /* \"#utility.yul\":818:819   */\n  dup1\n    /* \"#utility.yul\":811:823   */\n  revert\n    /* \"#utility.yul\":749:825   */\ntag_28:\n    /* \"#utility.yul\":683:831   */\n  pop\n  jump\t// out\n    /* \"#utility.yul\":837:1006   */\ntag_16:\n    /* \"#utility.yul\":907:912   */\n  0x00\n    /* \"#utility.yul\":938:944   */\n  dup2\n    /* \"#utility.yul\":932:945   */\n  mload\n    /* \"#utility.yul\":923:945   */\n  swap1\n  pop\n    /* \"#utility.yul\":954:1000   */\n  tag_30\n    /* \"#utility.yul\":994:999   */\n  dup2\n    /* \"#utility.yul\":954:1000   */\n  tag_15\n  jump\t// in\ntag_30:\n    /* \"#utility.yul\":837:1006   */\n  swap3\n  swap2\n  pop\n  pop\n  jump\t// out\n    /* \"#utility.yul\":1012:1571   */\ntag_3:\n    /* \"#utility.yul\":1117:1123   */\n  0x00\n    /* \"#utility.yul\":1125:1131   */\n  dup1\n    /* \"#utility.yul\":1174:1176   */\n  0x40\n    /* \"#utility.yul\":1162:1171   */\n  dup4\n    /* \"#utility.yul\":1153:1160   */\n  dup6\n    /* \"#utility.yul\":1149:1172   */\n  sub\n    /* \"#utility.yul\":1145:1177   */\n  slt\n    /* \"#utility.yul\":1142:1261   */\n  iszero\n  tag_32\n  jumpi\n    /* \"#utility.yul\":1180:1259   */\n  tag_33\n  tag_10\n  jump\t// in\ntag_33:\n    /* \"#utility.yul\":1142:1261   */\ntag_32:\n    /* \"#utility.yul\":1300:1301   */\n  0x00\n    /* \"#utility.yul\":1325:1402   */\n  tag_34\n    /* \"#utility.yul\":1394:1401   */\n  dup6\n    /* \"#utility.yul\":1385:1391   */\n  dup3\n    /* \"#utility.yul\":1374:1383   */\n  dup7\n    /* \"#utility.yul\":1370:1392   */\n  add\n    /* \"#utility.yul\":1325:1402   */\n  tag_16\n  jump\t// in\ntag_34:\n    /* \"#utility.yul\":1315:1402   */\n  swap3\n  pop\n    /* \"#utility.yul\":1271:1412   */\n  pop\n    /* \"#utility.yul\":1451:1453   */\n  0x20\n    /* \"#utility.yul\":1477:1554   */\n  tag_35\n    /* \"#utility.yul\":1546:1553   */\n  dup6\n    /* \"#utility.yul\":1537:1543   */\n  dup3\n    /* \"#utility.yul\":1526:1535   */\n  dup7\n    /* \"#utility.yul\":1522:1544   */\n  add\n    /* \"#utility.yul\":1477:1554   */\n  tag_16\n  jump\t// in\ntag_35:\n    /* \"#utility.yul\":1467:1554   */\n  swap2\n  pop\n    /* \"#utility.yul\":1422:1564   */\n  pop\n    /* \"#utility.yul\":1012:1571   */\n  swap3\n  pop\n  swap3\n  swap1\n  pop\n  jump\t// out\n    /* \"contracts/CustomStaking.sol\":175:1908  contract CustomStaking is ReentrancyGuard {... */\ntag_8:\n  dataSize(sub_0)\n  dup1\n  dataOffset(sub_0)\n  0x00\n  codecopy\n  0x00\n  return\nstop\n\nsub_0: assembly {\n        /* \"contracts/CustomStaking.sol\":175:1908  contract CustomStaking is ReentrancyGuard {... */\n      mstore(0x40, 0x80)\n      callvalue\n      dup1\n      iszero\n      tag_1\n      jumpi\n      0x00\n      dup1\n      revert\n    tag_1:\n      pop\n      jumpi(tag_2, lt(calldatasize, 0x04))\n      shr(0xe0, calldataload(0x00))\n      dup1\n      0x70a08231\n      gt\n      tag_14\n      jumpi\n      dup1\n      0x70a08231\n      eq\n      tag_8\n      jumpi\n      dup1\n      0x7b0a47ee\n      eq\n      tag_9\n      jumpi\n      dup1\n      0xa694fc3a\n      eq\n      tag_10\n      jumpi\n      dup1\n      0xd82e3962\n      eq\n      tag_11\n      jumpi\n      dup1\n      0xe627f2db\n      eq\n      tag_12\n      jumpi\n      dup1\n      0xf7c618c1\n      eq\n      tag_13\n      jumpi\n      jump(tag_2)\n    tag_14:\n      dup1\n      0x0700037d\n      eq\n      tag_3\n      jumpi\n      dup1\n      0x1460fa87\n      eq\n      tag_4\n      jumpi\n      dup1\n      0x2e17de78\n      eq\n      tag_5\n      jumpi\n      dup1\n      0x372500ab\n      eq\n      tag_6\n      jumpi\n      dup1\n      0x5fcbd285\n      eq\n      tag_7\n      jumpi\n    tag_2:\n      0x00\n      dup1\n      revert\n        /* \"contracts/CustomStaking.sol\":396:435  mapping(address => uint) public rewards */\n    tag_3:\n      tag_15\n      0x04\n      dup1\n      calldatasize\n      sub\n      dup2\n      add\n      swap1\n      tag_16\n      swap2\n      swap1\n      tag_17\n      jump\t// in\n    tag_16:\n      tag_18\n      jump\t// in\n    tag_15:\n      mload(0x40)\n      tag_19\n      swap2\n      swap1\n      tag_20\n      jump\t// in\n    tag_19:\n      mload(0x40)\n      dup1\n      swap2\n      sub\n      swap1\n      return\n        /* \"contracts/CustomStaking.sol\":344:390  mapping(address => uint) public stakedBalances */\n    tag_4:\n      tag_21\n      0x04\n      dup1\n      calldatasize\n      sub\n      dup2\n      add\n      swap1\n      tag_22\n      swap2\n      swap1\n      tag_17\n      jump\t// in\n    tag_22:\n      tag_23\n      jump\t// in\n    tag_21:\n      mload(0x40)\n      tag_24\n      swap2\n      swap1\n      tag_20\n      jump\t// in\n    tag_24:\n      mload(0x40)\n      dup1\n      swap2\n      sub\n      swap1\n      return\n        /* \"contracts/CustomStaking.sol\":841:1235  function unstake(uint _amount) external nonReentrant {... */\n    tag_5:\n      tag_25\n      0x04\n      dup1\n      calldatasize\n      sub\n      dup2\n      add\n      swap1\n      tag_26\n      swap2\n      swap1\n      tag_27\n      jump\t// in\n    tag_26:\n      tag_28\n      jump\t// in\n    tag_25:\n      stop\n        /* \"contracts/CustomStaking.sol\":1241:1466  function claimRewards() external nonReentrant returns (uint) {... */\n    tag_6:\n      tag_29\n      tag_30\n      jump\t// in\n    tag_29:\n      mload(0x40)\n      tag_31\n      swap2\n      swap1\n      tag_20\n      jump\t// in\n    tag_31:\n      mload(0x40)\n      dup1\n      swap2\n      sub\n      swap1\n      return\n        /* \"contracts/CustomStaking.sol\":223:244  IERC20 public lpToken */\n    tag_7:\n      tag_32\n      tag_33\n      jump\t// in\n    tag_32:\n      mload(0x40)\n      tag_34\n      swap2\n      swap1\n      tag_35\n      jump\t// in\n    tag_34:\n      mload(0x40)\n      dup1\n      swap2\n      sub\n      swap1\n      return\n        /* \"contracts/CustomStaking.sol\":1676:1784  function balanceOf(address _user) external view returns (uint) {... */\n    tag_8:\n      tag_36\n      0x04\n      dup1\n      calldatasize\n      sub\n      dup2\n      add\n      swap1\n      tag_37\n      swap2\n      swap1\n      tag_17\n      jump\t// in\n    tag_37:\n      tag_38\n      jump\t// in\n    tag_36:\n      mload(0x40)\n      tag_39\n      swap2\n      swap1\n      tag_20\n      jump\t// in\n    tag_39:\n      mload(0x40)\n      dup1\n      swap2\n      sub\n      swap1\n      return\n        /* \"contracts/CustomStaking.sol\":281:309  uint public rewardRate = 100 */\n    tag_9:\n      tag_40\n      tag_41\n      jump\t// in\n    tag_40:\n      mload(0x40)\n      tag_42\n      swap2\n      swap1\n      tag_20\n      jump\t// in\n    tag_42:\n      mload(0x40)\n      dup1\n      swap2\n      sub\n      swap1\n      return\n        /* \"contracts/CustomStaking.sol\":569:835  function stake(uint _amount) external nonReentrant {... */\n    tag_10:\n      tag_43\n      0x04\n      dup1\n      calldatasize\n      sub\n      dup2\n      add\n      swap1\n      tag_44\n      swap2\n      swap1\n      tag_27\n      jump\t// in\n    tag_44:\n      tag_45\n      jump\t// in\n    tag_43:\n      stop\n        /* \"contracts/CustomStaking.sol\":1472:1670  function calculateReward(address _user) public view returns (uint) {... */\n    tag_11:\n      tag_46\n      0x04\n      dup1\n      calldatasize\n      sub\n      dup2\n      add\n      swap1\n      tag_47\n      swap2\n      swap1\n      tag_17\n      jump\t// in\n    tag_47:\n      tag_48\n      jump\t// in\n    tag_46:\n      mload(0x40)\n      tag_49\n      swap2\n      swap1\n      tag_20\n      jump\t// in\n    tag_49:\n      mload(0x40)\n      dup1\n      swap2\n      sub\n      swap1\n      return\n        /* \"contracts/CustomStaking.sol\":1790:1906  function getTotalRewards() external view returns (uint) {... */\n    tag_12:\n      tag_50\n      tag_51\n      jump\t// in\n    tag_50:\n      mload(0x40)\n      tag_52\n      swap2\n      swap1\n      tag_20\n      jump\t// in\n    tag_52:\n      mload(0x40)\n      dup1\n      swap2\n      sub\n      swap1\n      return\n        /* \"contracts/CustomStaking.sol\":250:275  IERC20 public rewardToken */\n    tag_13:\n      tag_53\n      tag_54\n      jump\t// in\n    tag_53:\n      mload(0x40)\n      tag_55\n      swap2\n      swap1\n      tag_35\n      jump\t// in\n    tag_55:\n      mload(0x40)\n      dup1\n      swap2\n      sub\n      swap1\n      return\n        /* \"contracts/CustomStaking.sol\":396:435  mapping(address => uint) public rewards */\n    tag_18:\n      mstore(0x20, 0x05)\n      dup1\n      0x00\n      mstore\n      keccak256(0x00, 0x40)\n      0x00\n      swap2\n      pop\n      swap1\n      pop\n      sload\n      dup2\n      jump\t// out\n        /* \"contracts/CustomStaking.sol\":344:390  mapping(address => uint) public stakedBalances */\n    tag_23:\n      mstore(0x20, 0x04)\n      dup1\n      0x00\n      mstore\n      keccak256(0x00, 0x40)\n      0x00\n      swap2\n      pop\n      swap1\n      pop\n      sload\n      dup2\n      jump\t// out\n        /* \"contracts/CustomStaking.sol\":841:1235  function unstake(uint _amount) external nonReentrant {... */\n    tag_28:\n        /* \"@openzeppelin/contracts/utils/ReentrancyGuard.sol\":2356:2377  _nonReentrantBefore() */\n      tag_57\n        /* \"@openzeppelin/contracts/utils/ReentrancyGuard.sol\":2356:2375  _nonReentrantBefore */\n      tag_58\n        /* \"@openzeppelin/contracts/utils/ReentrancyGuard.sol\":2356:2377  _nonReentrantBefore() */\n      jump\t// in\n    tag_57:\n        /* \"contracts/CustomStaking.sol\":942:949  _amount */\n      dup1\n        /* \"contracts/CustomStaking.sol\":912:926  stakedBalances */\n      0x04\n        /* \"contracts/CustomStaking.sol\":912:938  stakedBalances[msg.sender] */\n      0x00\n        /* \"contracts/CustomStaking.sol\":927:937  msg.sender */\n      caller\n        /* \"contracts/CustomStaking.sol\":912:938  stakedBalances[msg.sender] */\n      0xffffffffffffffffffffffffffffffffffffffff\n      and\n      0xffffffffffffffffffffffffffffffffffffffff\n      and\n      dup2\n      mstore\n      0x20\n      add\n      swap1\n      dup2\n      mstore\n      0x20\n      add\n      0x00\n      keccak256\n      sload\n        /* \"contracts/CustomStaking.sol\":912:949  stakedBalances[msg.sender] >= _amount */\n      lt\n      iszero\n        /* \"contracts/CustomStaking.sol\":904:985  require(stakedBalances[msg.sender] >= _amount, \"Insufficient balance to unstake\") */\n      tag_60\n      jumpi\n      mload(0x40)\n      0x08c379a000000000000000000000000000000000000000000000000000000000\n      dup2\n      mstore\n      0x04\n      add\n      tag_61\n      swap1\n      tag_62\n      jump\t// in\n    tag_61:\n      mload(0x40)\n      dup1\n      swap2\n      sub\n      swap1\n      revert\n    tag_60:\n        /* \"contracts/CustomStaking.sol\":1025:1032  _amount */\n      dup1\n        /* \"contracts/CustomStaking.sol\":995:1009  stakedBalances */\n      0x04\n        /* \"contracts/CustomStaking.sol\":995:1021  stakedBalances[msg.sender] */\n      0x00\n        /* \"contracts/CustomStaking.sol\":1010:1020  msg.sender */\n      caller\n        /* \"contracts/CustomStaking.sol\":995:1021  stakedBalances[msg.sender] */\n      0xffffffffffffffffffffffffffffffffffffffff\n      and\n      0xffffffffffffffffffffffffffffffffffffffff\n      and\n      dup2\n      mstore\n      0x20\n      add\n      swap1\n      dup2\n      mstore\n      0x20\n      add\n      0x00\n      keccak256\n      0x00\n        /* \"contracts/CustomStaking.sol\":995:1032  stakedBalances[msg.sender] -= _amount */\n      dup3\n      dup3\n      sload\n      tag_63\n      swap2\n      swap1\n      tag_64\n      jump\t// in\n    tag_63:\n      swap3\n      pop\n      pop\n      dup2\n      swap1\n      sstore\n      pop\n        /* \"contracts/CustomStaking.sol\":1042:1049  lpToken */\n      0x01\n      0x00\n      swap1\n      sload\n      swap1\n      0x0100\n      exp\n      swap1\n      div\n      0xffffffffffffffffffffffffffffffffffffffff\n      and\n        /* \"contracts/CustomStaking.sol\":1042:1058  lpToken.transfer */\n      0xffffffffffffffffffffffffffffffffffffffff\n      and\n      0xa9059cbb\n        /* \"contracts/CustomStaking.sol\":1059:1069  msg.sender */\n      caller\n        /* \"contracts/CustomStaking.sol\":1071:1078  _amount */\n      dup4\n        /* \"contracts/CustomStaking.sol\":1042:1079  lpToken.transfer(msg.sender, _amount) */\n      mload(0x40)\n      dup4\n      0xffffffff\n      and\n      0xe0\n      shl\n      dup2\n      mstore\n      0x04\n      add\n      tag_65\n      swap3\n      swap2\n      swap1\n      tag_66\n      jump\t// in\n    tag_65:\n      0x20\n      mload(0x40)\n      dup1\n      dup4\n      sub\n      dup2\n      0x00\n      dup8\n      gas\n      call\n      iszero\n      dup1\n      iszero\n      tag_68\n      jumpi\n      returndatasize\n      0x00\n      dup1\n      returndatacopy\n      revert(0x00, returndatasize)\n    tag_68:\n      pop\n      pop\n      pop\n      pop\n      mload(0x40)\n      returndatasize\n      not(0x1f)\n      0x1f\n      dup3\n      add\n      and\n      dup3\n      add\n      dup1\n      0x40\n      mstore\n      pop\n      dup2\n      add\n      swap1\n      tag_69\n      swap2\n      swap1\n      tag_70\n      jump\t// in\n    tag_69:\n      pop\n        /* \"contracts/CustomStaking.sol\":1090:1101  uint reward */\n      0x00\n        /* \"contracts/CustomStaking.sol\":1104:1131  calculateReward(msg.sender) */\n      tag_71\n        /* \"contracts/CustomStaking.sol\":1120:1130  msg.sender */\n      caller\n        /* \"contracts/CustomStaking.sol\":1104:1119  calculateReward */\n      tag_48\n        /* \"contracts/CustomStaking.sol\":1104:1131  calculateReward(msg.sender) */\n      jump\t// in\n    tag_71:\n        /* \"contracts/CustomStaking.sol\":1090:1131  uint reward = calculateReward(msg.sender) */\n      swap1\n      pop\n        /* \"contracts/CustomStaking.sol\":1163:1178  block.timestamp */\n      timestamp\n        /* \"contracts/CustomStaking.sol\":1141:1148  rewards */\n      0x05\n        /* \"contracts/CustomStaking.sol\":1141:1160  rewards[msg.sender] */\n      0x00\n        /* \"contracts/CustomStaking.sol\":1149:1159  msg.sender */\n      caller\n        /* \"contracts/CustomStaking.sol\":1141:1160  rewards[msg.sender] */\n      0xffffffffffffffffffffffffffffffffffffffff\n      and\n      0xffffffffffffffffffffffffffffffffffffffff\n      and\n      dup2\n      mstore\n      0x20\n      add\n      swap1\n      dup2\n      mstore\n      0x20\n      add\n      0x00\n      keccak256\n        /* \"contracts/CustomStaking.sol\":1141:1178  rewards[msg.sender] = block.timestamp */\n      dup2\n      swap1\n      sstore\n      pop\n        /* \"contracts/CustomStaking.sol\":1188:1199  rewardToken */\n      0x02\n      0x00\n      swap1\n      sload\n      swap1\n      0x0100\n      exp\n      swap1\n      div\n      0xffffffffffffffffffffffffffffffffffffffff\n      and\n        /* \"contracts/CustomStaking.sol\":1188:1208  rewardToken.transfer */\n      0xffffffffffffffffffffffffffffffffffffffff\n      and\n      0xa9059cbb\n        /* \"contracts/CustomStaking.sol\":1209:1219  msg.sender */\n      caller\n        /* \"contracts/CustomStaking.sol\":1221:1227  reward */\n      dup4\n        /* \"contracts/CustomStaking.sol\":1188:1228  rewardToken.transfer(msg.sender, reward) */\n      mload(0x40)\n      dup4\n      0xffffffff\n      and\n      0xe0\n      shl\n      dup2\n      mstore\n      0x04\n      add\n      tag_72\n      swap3\n      swap2\n      swap1\n      tag_66\n      jump\t// in\n    tag_72:\n      0x20\n      mload(0x40)\n      dup1\n      dup4\n      sub\n      dup2\n      0x00\n      dup8\n      gas\n      call\n      iszero\n      dup1\n      iszero\n      tag_74\n      jumpi\n      returndatasize\n      0x00\n      dup1\n      returndatacopy\n      revert(0x00, returndatasize)\n    tag_74:\n      pop\n      pop\n      pop\n      pop\n      mload(0x40)\n      returndatasize\n      not(0x1f)\n      0x1f\n      dup3\n      add\n      and\n      dup3\n      add\n      dup1\n      0x40\n      mstore\n      pop\n      dup2\n      add\n      swap1\n      tag_75\n      swap2\n      swap1\n      tag_70\n      jump\t// in\n    tag_75:\n      pop\n        /* \"contracts/CustomStaking.sol\":894:1235  {... */\n      pop\n        /* \"@openzeppelin/contracts/utils/ReentrancyGuard.sol\":2398:2418  _nonReentrantAfter() */\n      tag_76\n        /* \"@openzeppelin/contracts/utils/ReentrancyGuard.sol\":2398:2416  _nonReentrantAfter */\n      tag_77\n        /* \"@openzeppelin/contracts/utils/ReentrancyGuard.sol\":2398:2418  _nonReentrantAfter() */\n      jump\t// in\n    tag_76:\n        /* \"contracts/CustomStaking.sol\":841:1235  function unstake(uint _amount) external nonReentrant {... */\n      pop\n      jump\t// out\n        /* \"contracts/CustomStaking.sol\":1241:1466  function claimRewards() external nonReentrant returns (uint) {... */\n    tag_30:\n        /* \"contracts/CustomStaking.sol\":1296:1300  uint */\n      0x00\n        /* \"@openzeppelin/contracts/utils/ReentrancyGuard.sol\":2356:2377  _nonReentrantBefore() */\n      tag_79\n        /* \"@openzeppelin/contracts/utils/ReentrancyGuard.sol\":2356:2375  _nonReentrantBefore */\n      tag_58\n        /* \"@openzeppelin/contracts/utils/ReentrancyGuard.sol\":2356:2377  _nonReentrantBefore() */\n      jump\t// in\n    tag_79:\n        /* \"contracts/CustomStaking.sol\":1312:1323  uint reward */\n      0x00\n        /* \"contracts/CustomStaking.sol\":1326:1353  calculateReward(msg.sender) */\n      tag_81\n        /* \"contracts/CustomStaking.sol\":1342:1352  msg.sender */\n      caller\n        /* \"contracts/CustomStaking.sol\":1326:1341  calculateReward */\n      tag_48\n        /* \"contracts/CustomStaking.sol\":1326:1353  calculateReward(msg.sender) */\n      jump\t// in\n    tag_81:\n        /* \"contracts/CustomStaking.sol\":1312:1353  uint reward = calculateReward(msg.sender) */\n      swap1\n      pop\n        /* \"contracts/CustomStaking.sol\":1385:1386  0 */\n      0x00\n        /* \"contracts/CustomStaking.sol\":1363:1370  rewards */\n      0x05\n        /* \"contracts/CustomStaking.sol\":1363:1382  rewards[msg.sender] */\n      0x00\n        /* \"contracts/CustomStaking.sol\":1371:1381  msg.sender */\n      caller\n        /* \"contracts/CustomStaking.sol\":1363:1382  rewards[msg.sender] */\n      0xffffffffffffffffffffffffffffffffffffffff\n      and\n      0xffffffffffffffffffffffffffffffffffffffff\n      and\n      dup2\n      mstore\n      0x20\n      add\n      swap1\n      dup2\n      mstore\n      0x20\n      add\n      0x00\n      keccak256\n        /* \"contracts/CustomStaking.sol\":1363:1386  rewards[msg.sender] = 0 */\n      dup2\n      swap1\n      sstore\n      pop\n        /* \"contracts/CustomStaking.sol\":1396:1407  rewardToken */\n      0x02\n      0x00\n      swap1\n      sload\n      swap1\n      0x0100\n      exp\n      swap1\n      div\n      0xffffffffffffffffffffffffffffffffffffffff\n      and\n        /* \"contracts/CustomStaking.sol\":1396:1416  rewardToken.transfer */\n      0xffffffffffffffffffffffffffffffffffffffff\n      and\n      0xa9059cbb\n        /* \"contracts/CustomStaking.sol\":1417:1427  msg.sender */\n      caller\n        /* \"contracts/CustomStaking.sol\":1429:1435  reward */\n      dup4\n        /* \"contracts/CustomStaking.sol\":1396:1436  rewardToken.transfer(msg.sender, reward) */\n      mload(0x40)\n      dup4\n      0xffffffff\n      and\n      0xe0\n      shl\n      dup2\n      mstore\n      0x04\n      add\n      tag_82\n      swap3\n      swap2\n      swap1\n      tag_66\n      jump\t// in\n    tag_82:\n      0x20\n      mload(0x40)\n      dup1\n      dup4\n      sub\n      dup2\n      0x00\n      dup8\n      gas\n      call\n      iszero\n      dup1\n      iszero\n      tag_84\n      jumpi\n      returndatasize\n      0x00\n      dup1\n      returndatacopy\n      revert(0x00, returndatasize)\n    tag_84:\n      pop\n      pop\n      pop\n      pop\n      mload(0x40)\n      returndatasize\n      not(0x1f)\n      0x1f\n      dup3\n      add\n      and\n      dup3\n      add\n      dup1\n      0x40\n      mstore\n      pop\n      dup2\n      add\n      swap1\n      tag_85\n      swap2\n      swap1\n      tag_70\n      jump\t// in\n    tag_85:\n      pop\n        /* \"contracts/CustomStaking.sol\":1453:1459  reward */\n      dup1\n        /* \"contracts/CustomStaking.sol\":1446:1459  return reward */\n      swap2\n      pop\n      pop\n        /* \"@openzeppelin/contracts/utils/ReentrancyGuard.sol\":2398:2418  _nonReentrantAfter() */\n      tag_86\n        /* \"@openzeppelin/contracts/utils/ReentrancyGuard.sol\":2398:2416  _nonReentrantAfter */\n      tag_77\n        /* \"@openzeppelin/contracts/utils/ReentrancyGuard.sol\":2398:2418  _nonReentrantAfter() */\n      jump\t// in\n    tag_86:\n        /* \"contracts/CustomStaking.sol\":1241:1466  function claimRewards() external nonReentrant returns (uint) {... */\n      swap1\n      jump\t// out\n        /* \"contracts/CustomStaking.sol\":223:244  IERC20 public lpToken */\n    tag_33:\n      0x01\n      0x00\n      swap1\n      sload\n      swap1\n      0x0100\n      exp\n      swap1\n      div\n      0xffffffffffffffffffffffffffffffffffffffff\n      and\n      dup2\n      jump\t// out\n        /* \"contracts/CustomStaking.sol\":1676:1784  function balanceOf(address _user) external view returns (uint) {... */\n    tag_38:\n        /* \"contracts/CustomStaking.sol\":1733:1737  uint */\n      0x00\n        /* \"contracts/CustomStaking.sol\":1756:1770  stakedBalances */\n      0x04\n        /* \"contracts/CustomStaking.sol\":1756:1777  stakedBalances[_user] */\n      0x00\n        /* \"contracts/CustomStaking.sol\":1771:1776  _user */\n      dup4\n        /* \"contracts/CustomStaking.sol\":1756:1777  stakedBalances[_user] */\n      0xffffffffffffffffffffffffffffffffffffffff\n      and\n      0xffffffffffffffffffffffffffffffffffffffff\n      and\n      dup2\n      mstore\n      0x20\n      add\n      swap1\n      dup2\n      mstore\n      0x20\n      add\n      0x00\n      keccak256\n      sload\n        /* \"contracts/CustomStaking.sol\":1749:1777  return stakedBalances[_user] */\n      swap1\n      pop\n        /* \"contracts/CustomStaking.sol\":1676:1784  function balanceOf(address _user) external view returns (uint) {... */\n      swap2\n      swap1\n      pop\n      jump\t// out\n        /* \"contracts/CustomStaking.sol\":281:309  uint public rewardRate = 100 */\n    tag_41:\n      sload(0x03)\n      dup2\n      jump\t// out\n        /* \"contracts/CustomStaking.sol\":569:835  function stake(uint _amount) external nonReentrant {... */\n    tag_45:\n        /* \"@openzeppelin/contracts/utils/ReentrancyGuard.sol\":2356:2377  _nonReentrantBefore() */\n      tag_89\n        /* \"@openzeppelin/contracts/utils/ReentrancyGuard.sol\":2356:2375  _nonReentrantBefore */\n      tag_58\n        /* \"@openzeppelin/contracts/utils/ReentrancyGuard.sol\":2356:2377  _nonReentrantBefore() */\n      jump\t// in\n    tag_89:\n        /* \"contracts/CustomStaking.sol\":648:649  0 */\n      0x00\n        /* \"contracts/CustomStaking.sol\":638:645  _amount */\n      dup2\n        /* \"contracts/CustomStaking.sol\":638:649  _amount > 0 */\n      gt\n        /* \"contracts/CustomStaking.sol\":630:668  require(_amount > 0, \"Cannot stake 0\") */\n      tag_91\n      jumpi\n      mload(0x40)\n      0x08c379a000000000000000000000000000000000000000000000000000000000\n      dup2\n      mstore\n      0x04\n      add\n      tag_92\n      swap1\n      tag_93\n      jump\t// in\n    tag_92:\n      mload(0x40)\n      dup1\n      swap2\n      sub\n      swap1\n      revert\n    tag_91:\n        /* \"contracts/CustomStaking.sol\":678:685  lpToken */\n      0x01\n      0x00\n      swap1\n      sload\n      swap1\n      0x0100\n      exp\n      swap1\n      div\n      0xffffffffffffffffffffffffffffffffffffffff\n      and\n        /* \"contracts/CustomStaking.sol\":678:698  lpToken.transferFrom */\n      0xffffffffffffffffffffffffffffffffffffffff\n      and\n      0x23b872dd\n        /* \"contracts/CustomStaking.sol\":699:709  msg.sender */\n      caller\n        /* \"contracts/CustomStaking.sol\":719:723  this */\n      address\n        /* \"contracts/CustomStaking.sol\":726:733  _amount */\n      dup5\n        /* \"contracts/CustomStaking.sol\":678:734  lpToken.transferFrom(msg.sender, address(this), _amount) */\n      mload(0x40)\n      dup5\n      0xffffffff\n      and\n      0xe0\n      shl\n      dup2\n      mstore\n      0x04\n      add\n      tag_94\n      swap4\n      swap3\n      swap2\n      swap1\n      tag_95\n      jump\t// in\n    tag_94:\n      0x20\n      mload(0x40)\n      dup1\n      dup4\n      sub\n      dup2\n      0x00\n      dup8\n      gas\n      call\n      iszero\n      dup1\n      iszero\n      tag_97\n      jumpi\n      returndatasize\n      0x00\n      dup1\n      returndatacopy\n      revert(0x00, returndatasize)\n    tag_97:\n      pop\n      pop\n      pop\n      pop\n      mload(0x40)\n      returndatasize\n      not(0x1f)\n      0x1f\n      dup3\n      add\n      and\n      dup3\n      add\n      dup1\n      0x40\n      mstore\n      pop\n      dup2\n      add\n      swap1\n      tag_98\n      swap2\n      swap1\n      tag_70\n      jump\t// in\n    tag_98:\n      pop\n        /* \"contracts/CustomStaking.sol\":774:781  _amount */\n      dup1\n        /* \"contracts/CustomStaking.sol\":744:758  stakedBalances */\n      0x04\n        /* \"contracts/CustomStaking.sol\":744:770  stakedBalances[msg.sender] */\n      0x00\n        /* \"contracts/CustomStaking.sol\":759:769  msg.sender */\n      caller\n        /* \"contracts/CustomStaking.sol\":744:770  stakedBalances[msg.sender] */\n      0xffffffffffffffffffffffffffffffffffffffff\n      and\n      0xffffffffffffffffffffffffffffffffffffffff\n      and\n      dup2\n      mstore\n      0x20\n      add\n      swap1\n      dup2\n      mstore\n      0x20\n      add\n      0x00\n      keccak256\n      0x00\n        /* \"contracts/CustomStaking.sol\":744:781  stakedBalances[msg.sender] += _amount */\n      dup3\n      dup3\n      sload\n      tag_99\n      swap2\n      swap1\n      tag_100\n      jump\t// in\n    tag_99:\n      swap3\n      pop\n      pop\n      dup2\n      swap1\n      sstore\n      pop\n        /* \"contracts/CustomStaking.sol\":813:828  block.timestamp */\n      timestamp\n        /* \"contracts/CustomStaking.sol\":791:798  rewards */\n      0x05\n        /* \"contracts/CustomStaking.sol\":791:810  rewards[msg.sender] */\n      0x00\n        /* \"contracts/CustomStaking.sol\":799:809  msg.sender */\n      caller\n        /* \"contracts/CustomStaking.sol\":791:810  rewards[msg.sender] */\n      0xffffffffffffffffffffffffffffffffffffffff\n      and\n      0xffffffffffffffffffffffffffffffffffffffff\n      and\n      dup2\n      mstore\n      0x20\n      add\n      swap1\n      dup2\n      mstore\n      0x20\n      add\n      0x00\n      keccak256\n        /* \"contracts/CustomStaking.sol\":791:828  rewards[msg.sender] = block.timestamp */\n      dup2\n      swap1\n      sstore\n      pop\n        /* \"@openzeppelin/contracts/utils/ReentrancyGuard.sol\":2398:2418  _nonReentrantAfter() */\n      tag_101\n        /* \"@openzeppelin/contracts/utils/ReentrancyGuard.sol\":2398:2416  _nonReentrantAfter */\n      tag_77\n        /* \"@openzeppelin/contracts/utils/ReentrancyGuard.sol\":2398:2418  _nonReentrantAfter() */\n      jump\t// in\n    tag_101:\n        /* \"contracts/CustomStaking.sol\":569:835  function stake(uint _amount) external nonReentrant {... */\n      pop\n      jump\t// out\n        /* \"contracts/CustomStaking.sol\":1472:1670  function calculateReward(address _user) public view returns (uint) {... */\n    tag_48:\n        /* \"contracts/CustomStaking.sol\":1533:1537  uint */\n      0x00\n        /* \"contracts/CustomStaking.sol\":1549:1564  uint timeStaked */\n      dup1\n        /* \"contracts/CustomStaking.sol\":1585:1592  rewards */\n      0x05\n        /* \"contracts/CustomStaking.sol\":1585:1599  rewards[_user] */\n      0x00\n        /* \"contracts/CustomStaking.sol\":1593:1598  _user */\n      dup5\n        /* \"contracts/CustomStaking.sol\":1585:1599  rewards[_user] */\n      0xffffffffffffffffffffffffffffffffffffffff\n      and\n      0xffffffffffffffffffffffffffffffffffffffff\n      and\n      dup2\n      mstore\n      0x20\n      add\n      swap1\n      dup2\n      mstore\n      0x20\n      add\n      0x00\n      keccak256\n      sload\n        /* \"contracts/CustomStaking.sol\":1567:1582  block.timestamp */\n      timestamp\n        /* \"contracts/CustomStaking.sol\":1567:1599  block.timestamp - rewards[_user] */\n      tag_103\n      swap2\n      swap1\n      tag_64\n      jump\t// in\n    tag_103:\n        /* \"contracts/CustomStaking.sol\":1549:1599  uint timeStaked = block.timestamp - rewards[_user] */\n      swap1\n      pop\n        /* \"contracts/CustomStaking.sol\":1653:1663  timeStaked */\n      dup1\n        /* \"contracts/CustomStaking.sol\":1640:1650  rewardRate */\n      sload(0x03)\n        /* \"contracts/CustomStaking.sol\":1616:1630  stakedBalances */\n      0x04\n        /* \"contracts/CustomStaking.sol\":1616:1637  stakedBalances[_user] */\n      0x00\n        /* \"contracts/CustomStaking.sol\":1631:1636  _user */\n      dup7\n        /* \"contracts/CustomStaking.sol\":1616:1637  stakedBalances[_user] */\n      0xffffffffffffffffffffffffffffffffffffffff\n      and\n      0xffffffffffffffffffffffffffffffffffffffff\n      and\n      dup2\n      mstore\n      0x20\n      add\n      swap1\n      dup2\n      mstore\n      0x20\n      add\n      0x00\n      keccak256\n      sload\n        /* \"contracts/CustomStaking.sol\":1616:1650  stakedBalances[_user] * rewardRate */\n      tag_104\n      swap2\n      swap1\n      tag_105\n      jump\t// in\n    tag_104:\n        /* \"contracts/CustomStaking.sol\":1616:1663  stakedBalances[_user] * rewardRate * timeStaked */\n      tag_106\n      swap2\n      swap1\n      tag_105\n      jump\t// in\n    tag_106:\n        /* \"contracts/CustomStaking.sol\":1609:1663  return stakedBalances[_user] * rewardRate * timeStaked */\n      swap2\n      pop\n      pop\n        /* \"contracts/CustomStaking.sol\":1472:1670  function calculateReward(address _user) public view returns (uint) {... */\n      swap2\n      swap1\n      pop\n      jump\t// out\n        /* \"contracts/CustomStaking.sol\":1790:1906  function getTotalRewards() external view returns (uint) {... */\n    tag_51:\n        /* \"contracts/CustomStaking.sol\":1840:1844  uint */\n      0x00\n        /* \"contracts/CustomStaking.sol\":1863:1874  rewardToken */\n      0x02\n      0x00\n      swap1\n      sload\n      swap1\n      0x0100\n      exp\n      swap1\n      div\n      0xffffffffffffffffffffffffffffffffffffffff\n      and\n        /* \"contracts/CustomStaking.sol\":1863:1884  rewardToken.balanceOf */\n      0xffffffffffffffffffffffffffffffffffffffff\n      and\n      0x70a08231\n        /* \"contracts/CustomStaking.sol\":1893:1897  this */\n      address\n        /* \"contracts/CustomStaking.sol\":1863:1899  rewardToken.balanceOf(address(this)) */\n      mload(0x40)\n      dup3\n      0xffffffff\n      and\n      0xe0\n      shl\n      dup2\n      mstore\n      0x04\n      add\n      tag_108\n      swap2\n      swap1\n      tag_109\n      jump\t// in\n    tag_108:\n      0x20\n      mload(0x40)\n      dup1\n      dup4\n      sub\n      dup2\n      dup7\n      gas\n      staticcall\n      iszero\n      dup1\n      iszero\n      tag_111\n      jumpi\n      returndatasize\n      0x00\n      dup1\n      returndatacopy\n      revert(0x00, returndatasize)\n    tag_111:\n      pop\n      pop\n      pop\n      pop\n      mload(0x40)\n      returndatasize\n      not(0x1f)\n      0x1f\n      dup3\n      add\n      and\n      dup3\n      add\n      dup1\n      0x40\n      mstore\n      pop\n      dup2\n      add\n      swap1\n      tag_112\n      swap2\n      swap1\n      tag_113\n      jump\t// in\n    tag_112:\n        /* \"contracts/CustomStaking.sol\":1856:1899  return rewardToken.balanceOf(address(this)) */\n      swap1\n      pop\n        /* \"contracts/CustomStaking.sol\":1790:1906  function getTotalRewards() external view returns (uint) {... */\n      swap1\n      jump\t// out\n        /* \"contracts/CustomStaking.sol\":250:275  IERC20 public rewardToken */\n    tag_54:\n      0x02\n      0x00\n      swap1\n      sload\n      swap1\n      0x0100\n      exp\n      swap1\n      div\n      0xffffffffffffffffffffffffffffffffffffffff\n      and\n      dup2\n      jump\t// out\n        /* \"@openzeppelin/contracts/utils/ReentrancyGuard.sol\":2431:2738  function _nonReentrantBefore() private {... */\n    tag_58:\n        /* \"@openzeppelin/contracts/utils/ReentrancyGuard.sol\":1755:1756  2 */\n      0x02\n        /* \"@openzeppelin/contracts/utils/ReentrancyGuard.sol\":2558:2565  _status */\n      sload(0x00)\n        /* \"@openzeppelin/contracts/utils/ReentrancyGuard.sol\":2558:2576  _status == ENTERED */\n      sub\n        /* \"@openzeppelin/contracts/utils/ReentrancyGuard.sol\":2554:2640  if (_status == ENTERED) {... */\n      tag_115\n      jumpi\n        /* \"@openzeppelin/contracts/utils/ReentrancyGuard.sol\":2599:2629  ReentrancyGuardReentrantCall() */\n      mload(0x40)\n      0x3ee5aeb500000000000000000000000000000000000000000000000000000000\n      dup2\n      mstore\n      0x04\n      add\n      mload(0x40)\n      dup1\n      swap2\n      sub\n      swap1\n      revert\n        /* \"@openzeppelin/contracts/utils/ReentrancyGuard.sol\":2554:2640  if (_status == ENTERED) {... */\n    tag_115:\n        /* \"@openzeppelin/contracts/utils/ReentrancyGuard.sol\":1755:1756  2 */\n      0x02\n        /* \"@openzeppelin/contracts/utils/ReentrancyGuard.sol\":2714:2721  _status */\n      0x00\n        /* \"@openzeppelin/contracts/utils/ReentrancyGuard.sol\":2714:2731  _status = ENTERED */\n      dup2\n      swap1\n      sstore\n      pop\n        /* \"@openzeppelin/contracts/utils/ReentrancyGuard.sol\":2431:2738  function _nonReentrantBefore() private {... */\n      jump\t// out\n        /* \"@openzeppelin/contracts/utils/ReentrancyGuard.sol\":2744:2952  function _nonReentrantAfter() private {... */\n    tag_77:\n        /* \"@openzeppelin/contracts/utils/ReentrancyGuard.sol\":1713:1714  1 */\n      0x01\n        /* \"@openzeppelin/contracts/utils/ReentrancyGuard.sol\":2924:2931  _status */\n      0x00\n        /* \"@openzeppelin/contracts/utils/ReentrancyGuard.sol\":2924:2945  _status = NOT_ENTERED */\n      dup2\n      swap1\n      sstore\n      pop\n        /* \"@openzeppelin/contracts/utils/ReentrancyGuard.sol\":2744:2952  function _nonReentrantAfter() private {... */\n      jump\t// out\n        /* \"#utility.yul\":88:205   */\n    tag_118:\n        /* \"#utility.yul\":197:198   */\n      0x00\n        /* \"#utility.yul\":194:195   */\n      dup1\n        /* \"#utility.yul\":187:199   */\n      revert\n        /* \"#utility.yul\":334:460   */\n    tag_120:\n        /* \"#utility.yul\":371:378   */\n      0x00\n        /* \"#utility.yul\":411:453   */\n      0xffffffffffffffffffffffffffffffffffffffff\n        /* \"#utility.yul\":404:409   */\n      dup3\n        /* \"#utility.yul\":400:454   */\n      and\n        /* \"#utility.yul\":389:454   */\n      swap1\n      pop\n        /* \"#utility.yul\":334:460   */\n      swap2\n      swap1\n      pop\n      jump\t// out\n        /* \"#utility.yul\":466:562   */\n    tag_121:\n        /* \"#utility.yul\":503:510   */\n      0x00\n        /* \"#utility.yul\":532:556   */\n      tag_150\n        /* \"#utility.yul\":550:555   */\n      dup3\n        /* \"#utility.yul\":532:556   */\n      tag_120\n      jump\t// in\n    tag_150:\n        /* \"#utility.yul\":521:556   */\n      swap1\n      pop\n        /* \"#utility.yul\":466:562   */\n      swap2\n      swap1\n      pop\n      jump\t// out\n        /* \"#utility.yul\":568:690   */\n    tag_122:\n        /* \"#utility.yul\":641:665   */\n      tag_152\n        /* \"#utility.yul\":659:664   */\n      dup2\n        /* \"#utility.yul\":641:665   */\n      tag_121\n      jump\t// in\n    tag_152:\n        /* \"#utility.yul\":634:639   */\n      dup2\n        /* \"#utility.yul\":631:666   */\n      eq\n        /* \"#utility.yul\":621:684   */\n      tag_153\n      jumpi\n        /* \"#utility.yul\":680:681   */\n      0x00\n        /* \"#utility.yul\":677:678   */\n      dup1\n        /* \"#utility.yul\":670:682   */\n      revert\n        /* \"#utility.yul\":621:684   */\n    tag_153:\n        /* \"#utility.yul\":568:690   */\n      pop\n      jump\t// out\n        /* \"#utility.yul\":696:835   */\n    tag_123:\n        /* \"#utility.yul\":742:747   */\n      0x00\n        /* \"#utility.yul\":780:786   */\n      dup2\n        /* \"#utility.yul\":767:787   */\n      calldataload\n        /* \"#utility.yul\":758:787   */\n      swap1\n      pop\n        /* \"#utility.yul\":796:829   */\n      tag_155\n        /* \"#utility.yul\":823:828   */\n      dup2\n        /* \"#utility.yul\":796:829   */\n      tag_122\n      jump\t// in\n    tag_155:\n        /* \"#utility.yul\":696:835   */\n      swap3\n      swap2\n      pop\n      pop\n      jump\t// out\n        /* \"#utility.yul\":841:1170   */\n    tag_17:\n        /* \"#utility.yul\":900:906   */\n      0x00\n        /* \"#utility.yul\":949:951   */\n      0x20\n        /* \"#utility.yul\":937:946   */\n      dup3\n        /* \"#utility.yul\":928:935   */\n      dup5\n        /* \"#utility.yul\":924:947   */\n      sub\n        /* \"#utility.yul\":920:952   */\n      slt\n        /* \"#utility.yul\":917:1036   */\n      iszero\n      tag_157\n      jumpi\n        /* \"#utility.yul\":955:1034   */\n      tag_158\n      tag_118\n      jump\t// in\n    tag_158:\n        /* \"#utility.yul\":917:1036   */\n    tag_157:\n        /* \"#utility.yul\":1075:1076   */\n      0x00\n        /* \"#utility.yul\":1100:1153   */\n      tag_159\n        /* \"#utility.yul\":1145:1152   */\n      dup5\n        /* \"#utility.yul\":1136:1142   */\n      dup3\n        /* \"#utility.yul\":1125:1134   */\n      dup6\n        /* \"#utility.yul\":1121:1143   */\n      add\n        /* \"#utility.yul\":1100:1153   */\n      tag_123\n      jump\t// in\n    tag_159:\n        /* \"#utility.yul\":1090:1153   */\n      swap2\n      pop\n        /* \"#utility.yul\":1046:1163   */\n      pop\n        /* \"#utility.yul\":841:1170   */\n      swap3\n      swap2\n      pop\n      pop\n      jump\t// out\n        /* \"#utility.yul\":1176:1253   */\n    tag_124:\n        /* \"#utility.yul\":1213:1220   */\n      0x00\n        /* \"#utility.yul\":1242:1247   */\n      dup2\n        /* \"#utility.yul\":1231:1247   */\n      swap1\n      pop\n        /* \"#utility.yul\":1176:1253   */\n      swap2\n      swap1\n      pop\n      jump\t// out\n        /* \"#utility.yul\":1259:1377   */\n    tag_125:\n        /* \"#utility.yul\":1346:1370   */\n      tag_162\n        /* \"#utility.yul\":1364:1369   */\n      dup2\n        /* \"#utility.yul\":1346:1370   */\n      tag_124\n      jump\t// in\n    tag_162:\n        /* \"#utility.yul\":1341:1344   */\n      dup3\n        /* \"#utility.yul\":1334:1371   */\n      mstore\n        /* \"#utility.yul\":1259:1377   */\n      pop\n      pop\n      jump\t// out\n        /* \"#utility.yul\":1383:1605   */\n    tag_20:\n        /* \"#utility.yul\":1476:1480   */\n      0x00\n        /* \"#utility.yul\":1514:1516   */\n      0x20\n        /* \"#utility.yul\":1503:1512   */\n      dup3\n        /* \"#utility.yul\":1499:1517   */\n      add\n        /* \"#utility.yul\":1491:1517   */\n      swap1\n      pop\n        /* \"#utility.yul\":1527:1598   */\n      tag_164\n        /* \"#utility.yul\":1595:1596   */\n      0x00\n        /* \"#utility.yul\":1584:1593   */\n      dup4\n        /* \"#utility.yul\":1580:1597   */\n      add\n        /* \"#utility.yul\":1571:1577   */\n      dup5\n        /* \"#utility.yul\":1527:1598   */\n      tag_125\n      jump\t// in\n    tag_164:\n        /* \"#utility.yul\":1383:1605   */\n      swap3\n      swap2\n      pop\n      pop\n      jump\t// out\n        /* \"#utility.yul\":1611:1733   */\n    tag_126:\n        /* \"#utility.yul\":1684:1708   */\n      tag_166\n        /* \"#utility.yul\":1702:1707   */\n      dup2\n        /* \"#utility.yul\":1684:1708   */\n      tag_124\n      jump\t// in\n    tag_166:\n        /* \"#utility.yul\":1677:1682   */\n      dup2\n        /* \"#utility.yul\":1674:1709   */\n      eq\n        /* \"#utility.yul\":1664:1727   */\n      tag_167\n      jumpi\n        /* \"#utility.yul\":1723:1724   */\n      0x00\n        /* \"#utility.yul\":1720:1721   */\n      dup1\n        /* \"#utility.yul\":1713:1725   */\n      revert\n        /* \"#utility.yul\":1664:1727   */\n    tag_167:\n        /* \"#utility.yul\":1611:1733   */\n      pop\n      jump\t// out\n        /* \"#utility.yul\":1739:1878   */\n    tag_127:\n        /* \"#utility.yul\":1785:1790   */\n      0x00\n        /* \"#utility.yul\":1823:1829   */\n      dup2\n        /* \"#utility.yul\":1810:1830   */\n      calldataload\n        /* \"#utility.yul\":1801:1830   */\n      swap1\n      pop\n        /* \"#utility.yul\":1839:1872   */\n      tag_169\n        /* \"#utility.yul\":1866:1871   */\n      dup2\n        /* \"#utility.yul\":1839:1872   */\n      tag_126\n      jump\t// in\n    tag_169:\n        /* \"#utility.yul\":1739:1878   */\n      swap3\n      swap2\n      pop\n      pop\n      jump\t// out\n        /* \"#utility.yul\":1884:2213   */\n    tag_27:\n        /* \"#utility.yul\":1943:1949   */\n      0x00\n        /* \"#utility.yul\":1992:1994   */\n      0x20\n        /* \"#utility.yul\":1980:1989   */\n      dup3\n        /* \"#utility.yul\":1971:1978   */\n      dup5\n        /* \"#utility.yul\":1967:1990   */\n      sub\n        /* \"#utility.yul\":1963:1995   */\n      slt\n        /* \"#utility.yul\":1960:2079   */\n      iszero\n      tag_171\n      jumpi\n        /* \"#utility.yul\":1998:2077   */\n      tag_172\n      tag_118\n      jump\t// in\n    tag_172:\n        /* \"#utility.yul\":1960:2079   */\n    tag_171:\n        /* \"#utility.yul\":2118:2119   */\n      0x00\n        /* \"#utility.yul\":2143:2196   */\n      tag_173\n        /* \"#utility.yul\":2188:2195   */\n      dup5\n        /* \"#utility.yul\":2179:2185   */\n      dup3\n        /* \"#utility.yul\":2168:2177   */\n      dup6\n        /* \"#utility.yul\":2164:2186   */\n      add\n        /* \"#utility.yul\":2143:2196   */\n      tag_127\n      jump\t// in\n    tag_173:\n        /* \"#utility.yul\":2133:2196   */\n      swap2\n      pop\n        /* \"#utility.yul\":2089:2206   */\n      pop\n        /* \"#utility.yul\":1884:2213   */\n      swap3\n      swap2\n      pop\n      pop\n      jump\t// out\n        /* \"#utility.yul\":2219:2279   */\n    tag_128:\n        /* \"#utility.yul\":2247:2250   */\n      0x00\n        /* \"#utility.yul\":2268:2273   */\n      dup2\n        /* \"#utility.yul\":2261:2273   */\n      swap1\n      pop\n        /* \"#utility.yul\":2219:2279   */\n      swap2\n      swap1\n      pop\n      jump\t// out\n        /* \"#utility.yul\":2285:2427   */\n    tag_129:\n        /* \"#utility.yul\":2335:2344   */\n      0x00\n        /* \"#utility.yul\":2368:2421   */\n      tag_176\n        /* \"#utility.yul\":2386:2420   */\n      tag_177\n        /* \"#utility.yul\":2395:2419   */\n      tag_178\n        /* \"#utility.yul\":2413:2418   */\n      dup5\n        /* \"#utility.yul\":2395:2419   */\n      tag_120\n      jump\t// in\n    tag_178:\n        /* \"#utility.yul\":2386:2420   */\n      tag_128\n      jump\t// in\n    tag_177:\n        /* \"#utility.yul\":2368:2421   */\n      tag_120\n      jump\t// in\n    tag_176:\n        /* \"#utility.yul\":2355:2421   */\n      swap1\n      pop\n        /* \"#utility.yul\":2285:2427   */\n      swap2\n      swap1\n      pop\n      jump\t// out\n        /* \"#utility.yul\":2433:2559   */\n    tag_130:\n        /* \"#utility.yul\":2483:2492   */\n      0x00\n        /* \"#utility.yul\":2516:2553   */\n      tag_180\n        /* \"#utility.yul\":2547:2552   */\n      dup3\n        /* \"#utility.yul\":2516:2553   */\n      tag_129\n      jump\t// in\n    tag_180:\n        /* \"#utility.yul\":2503:2553   */\n      swap1\n      pop\n        /* \"#utility.yul\":2433:2559   */\n      swap2\n      swap1\n      pop\n      jump\t// out\n        /* \"#utility.yul\":2565:2704   */\n    tag_131:\n        /* \"#utility.yul\":2628:2637   */\n      0x00\n        /* \"#utility.yul\":2661:2698   */\n      tag_182\n        /* \"#utility.yul\":2692:2697   */\n      dup3\n        /* \"#utility.yul\":2661:2698   */\n      tag_130\n      jump\t// in\n    tag_182:\n        /* \"#utility.yul\":2648:2698   */\n      swap1\n      pop\n        /* \"#utility.yul\":2565:2704   */\n      swap2\n      swap1\n      pop\n      jump\t// out\n        /* \"#utility.yul\":2710:2867   */\n    tag_132:\n        /* \"#utility.yul\":2810:2860   */\n      tag_184\n        /* \"#utility.yul\":2854:2859   */\n      dup2\n        /* \"#utility.yul\":2810:2860   */\n      tag_131\n      jump\t// in\n    tag_184:\n        /* \"#utility.yul\":2805:2808   */\n      dup3\n        /* \"#utility.yul\":2798:2861   */\n      mstore\n        /* \"#utility.yul\":2710:2867   */\n      pop\n      pop\n      jump\t// out\n        /* \"#utility.yul\":2873:3121   */\n    tag_35:\n        /* \"#utility.yul\":2979:2983   */\n      0x00\n        /* \"#utility.yul\":3017:3019   */\n      0x20\n        /* \"#utility.yul\":3006:3015   */\n      dup3\n        /* \"#utility.yul\":3002:3020   */\n      add\n        /* \"#utility.yul\":2994:3020   */\n      swap1\n      pop\n        /* \"#utility.yul\":3030:3114   */\n      tag_186\n        /* \"#utility.yul\":3111:3112   */\n      0x00\n        /* \"#utility.yul\":3100:3109   */\n      dup4\n        /* \"#utility.yul\":3096:3113   */\n      add\n        /* \"#utility.yul\":3087:3093   */\n      dup5\n        /* \"#utility.yul\":3030:3114   */\n      tag_132\n      jump\t// in\n    tag_186:\n        /* \"#utility.yul\":2873:3121   */\n      swap3\n      swap2\n      pop\n      pop\n      jump\t// out\n        /* \"#utility.yul\":3127:3296   */\n    tag_133:\n        /* \"#utility.yul\":3211:3222   */\n      0x00\n        /* \"#utility.yul\":3245:3251   */\n      dup3\n        /* \"#utility.yul\":3240:3243   */\n      dup3\n        /* \"#utility.yul\":3233:3252   */\n      mstore\n        /* \"#utility.yul\":3285:3289   */\n      0x20\n        /* \"#utility.yul\":3280:3283   */\n      dup3\n        /* \"#utility.yul\":3276:3290   */\n      add\n        /* \"#utility.yul\":3261:3290   */\n      swap1\n      pop\n        /* \"#utility.yul\":3127:3296   */\n      swap3\n      swap2\n      pop\n      pop\n      jump\t// out\n        /* \"#utility.yul\":3302:3483   */\n    tag_134:\n        /* \"#utility.yul\":3442:3475   */\n      0x496e73756666696369656e742062616c616e636520746f20756e7374616b6500\n        /* \"#utility.yul\":3438:3439   */\n      0x00\n        /* \"#utility.yul\":3430:3436   */\n      dup3\n        /* \"#utility.yul\":3426:3440   */\n      add\n        /* \"#utility.yul\":3419:3476   */\n      mstore\n        /* \"#utility.yul\":3302:3483   */\n      pop\n      jump\t// out\n        /* \"#utility.yul\":3489:3855   */\n    tag_135:\n        /* \"#utility.yul\":3631:3634   */\n      0x00\n        /* \"#utility.yul\":3652:3719   */\n      tag_190\n        /* \"#utility.yul\":3716:3718   */\n      0x1f\n        /* \"#utility.yul\":3711:3714   */\n      dup4\n        /* \"#utility.yul\":3652:3719   */\n      tag_133\n      jump\t// in\n    tag_190:\n        /* \"#utility.yul\":3645:3719   */\n      swap2\n      pop\n        /* \"#utility.yul\":3728:3821   */\n      tag_191\n        /* \"#utility.yul\":3817:3820   */\n      dup3\n        /* \"#utility.yul\":3728:3821   */\n      tag_134\n      jump\t// in\n    tag_191:\n        /* \"#utility.yul\":3846:3848   */\n      0x20\n        /* \"#utility.yul\":3841:3844   */\n      dup3\n        /* \"#utility.yul\":3837:3849   */\n      add\n        /* \"#utility.yul\":3830:3849   */\n      swap1\n      pop\n        /* \"#utility.yul\":3489:3855   */\n      swap2\n      swap1\n      pop\n      jump\t// out\n        /* \"#utility.yul\":3861:4280   */\n    tag_62:\n        /* \"#utility.yul\":4027:4031   */\n      0x00\n        /* \"#utility.yul\":4065:4067   */\n      0x20\n        /* \"#utility.yul\":4054:4063   */\n      dup3\n        /* \"#utility.yul\":4050:4068   */\n      add\n        /* \"#utility.yul\":4042:4068   */\n      swap1\n      pop\n        /* \"#utility.yul\":4114:4123   */\n      dup2\n        /* \"#utility.yul\":4108:4112   */\n      dup2\n        /* \"#utility.yul\":4104:4124   */\n      sub\n        /* \"#utility.yul\":4100:4101   */\n      0x00\n        /* \"#utility.yul\":4089:4098   */\n      dup4\n        /* \"#utility.yul\":4085:4102   */\n      add\n        /* \"#utility.yul\":4078:4125   */\n      mstore\n        /* \"#utility.yul\":4142:4273   */\n      tag_193\n        /* \"#utility.yul\":4268:4272   */\n      dup2\n        /* \"#utility.yul\":4142:4273   */\n      tag_135\n      jump\t// in\n    tag_193:\n        /* \"#utility.yul\":4134:4273   */\n      swap1\n      pop\n        /* \"#utility.yul\":3861:4280   */\n      swap2\n      swap1\n      pop\n      jump\t// out\n        /* \"#utility.yul\":4286:4466   */\n    tag_136:\n        /* \"#utility.yul\":4334:4411   */\n      0x4e487b7100000000000000000000000000000000000000000000000000000000\n        /* \"#utility.yul\":4331:4332   */\n      0x00\n        /* \"#utility.yul\":4324:4412   */\n      mstore\n        /* \"#utility.yul\":4431:4435   */\n      0x11\n        /* \"#utility.yul\":4428:4429   */\n      0x04\n        /* \"#utility.yul\":4421:4436   */\n      mstore\n        /* \"#utility.yul\":4455:4459   */\n      0x24\n        /* \"#utility.yul\":4452:4453   */\n      0x00\n        /* \"#utility.yul\":4445:4460   */\n      revert\n        /* \"#utility.yul\":4472:4666   */\n    tag_64:\n        /* \"#utility.yul\":4512:4516   */\n      0x00\n        /* \"#utility.yul\":4532:4552   */\n      tag_196\n        /* \"#utility.yul\":4550:4551   */\n      dup3\n        /* \"#utility.yul\":4532:4552   */\n      tag_124\n      jump\t// in\n    tag_196:\n        /* \"#utility.yul\":4527:4552   */\n      swap2\n      pop\n        /* \"#utility.yul\":4566:4586   */\n      tag_197\n        /* \"#utility.yul\":4584:4585   */\n      dup4\n        /* \"#utility.yul\":4566:4586   */\n      tag_124\n      jump\t// in\n    tag_197:\n        /* \"#utility.yul\":4561:4586   */\n      swap3\n      pop\n        /* \"#utility.yul\":4610:4611   */\n      dup3\n        /* \"#utility.yul\":4607:4608   */\n      dup3\n        /* \"#utility.yul\":4603:4612   */\n      sub\n        /* \"#utility.yul\":4595:4612   */\n      swap1\n      pop\n        /* \"#utility.yul\":4634:4635   */\n      dup2\n        /* \"#utility.yul\":4628:4632   */\n      dup2\n        /* \"#utility.yul\":4625:4636   */\n      gt\n        /* \"#utility.yul\":4622:4659   */\n      iszero\n      tag_198\n      jumpi\n        /* \"#utility.yul\":4639:4657   */\n      tag_199\n      tag_136\n      jump\t// in\n    tag_199:\n        /* \"#utility.yul\":4622:4659   */\n    tag_198:\n        /* \"#utility.yul\":4472:4666   */\n      swap3\n      swap2\n      pop\n      pop\n      jump\t// out\n        /* \"#utility.yul\":4672:4790   */\n    tag_137:\n        /* \"#utility.yul\":4759:4783   */\n      tag_201\n        /* \"#utility.yul\":4777:4782   */\n      dup2\n        /* \"#utility.yul\":4759:4783   */\n      tag_121\n      jump\t// in\n    tag_201:\n        /* \"#utility.yul\":4754:4757   */\n      dup3\n        /* \"#utility.yul\":4747:4784   */\n      mstore\n        /* \"#utility.yul\":4672:4790   */\n      pop\n      pop\n      jump\t// out\n        /* \"#utility.yul\":4796:5128   */\n    tag_66:\n        /* \"#utility.yul\":4917:4921   */\n      0x00\n        /* \"#utility.yul\":4955:4957   */\n      0x40\n        /* \"#utility.yul\":4944:4953   */\n      dup3\n        /* \"#utility.yul\":4940:4958   */\n      add\n        /* \"#utility.yul\":4932:4958   */\n      swap1\n      pop\n        /* \"#utility.yul\":4968:5039   */\n      tag_203\n        /* \"#utility.yul\":5036:5037   */\n      0x00\n        /* \"#utility.yul\":5025:5034   */\n      dup4\n        /* \"#utility.yul\":5021:5038   */\n      add\n        /* \"#utility.yul\":5012:5018   */\n      dup6\n        /* \"#utility.yul\":4968:5039   */\n      tag_137\n      jump\t// in\n    tag_203:\n        /* \"#utility.yul\":5049:5121   */\n      tag_204\n        /* \"#utility.yul\":5117:5119   */\n      0x20\n        /* \"#utility.yul\":5106:5115   */\n      dup4\n        /* \"#utility.yul\":5102:5120   */\n      add\n        /* \"#utility.yul\":5093:5099   */\n      dup5\n        /* \"#utility.yul\":5049:5121   */\n      tag_125\n      jump\t// in\n    tag_204:\n        /* \"#utility.yul\":4796:5128   */\n      swap4\n      swap3\n      pop\n      pop\n      pop\n      jump\t// out\n        /* \"#utility.yul\":5134:5224   */\n    tag_138:\n        /* \"#utility.yul\":5168:5175   */\n      0x00\n        /* \"#utility.yul\":5211:5216   */\n      dup2\n        /* \"#utility.yul\":5204:5217   */\n      iszero\n        /* \"#utility.yul\":5197:5218   */\n      iszero\n        /* \"#utility.yul\":5186:5218   */\n      swap1\n      pop\n        /* \"#utility.yul\":5134:5224   */\n      swap2\n      swap1\n      pop\n      jump\t// out\n        /* \"#utility.yul\":5230:5346   */\n    tag_139:\n        /* \"#utility.yul\":5300:5321   */\n      tag_207\n        /* \"#utility.yul\":5315:5320   */\n      dup2\n        /* \"#utility.yul\":5300:5321   */\n      tag_138\n      jump\t// in\n    tag_207:\n        /* \"#utility.yul\":5293:5298   */\n      dup2\n        /* \"#utility.yul\":5290:5322   */\n      eq\n        /* \"#utility.yul\":5280:5340   */\n      tag_208\n      jumpi\n        /* \"#utility.yul\":5336:5337   */\n      0x00\n        /* \"#utility.yul\":5333:5334   */\n      dup1\n        /* \"#utility.yul\":5326:5338   */\n      revert\n        /* \"#utility.yul\":5280:5340   */\n    tag_208:\n        /* \"#utility.yul\":5230:5346   */\n      pop\n      jump\t// out\n        /* \"#utility.yul\":5352:5489   */\n    tag_140:\n        /* \"#utility.yul\":5406:5411   */\n      0x00\n        /* \"#utility.yul\":5437:5443   */\n      dup2\n        /* \"#utility.yul\":5431:5444   */\n      mload\n        /* \"#utility.yul\":5422:5444   */\n      swap1\n      pop\n        /* \"#utility.yul\":5453:5483   */\n      tag_210\n        /* \"#utility.yul\":5477:5482   */\n      dup2\n        /* \"#utility.yul\":5453:5483   */\n      tag_139\n      jump\t// in\n    tag_210:\n        /* \"#utility.yul\":5352:5489   */\n      swap3\n      swap2\n      pop\n      pop\n      jump\t// out\n        /* \"#utility.yul\":5495:5840   */\n    tag_70:\n        /* \"#utility.yul\":5562:5568   */\n      0x00\n        /* \"#utility.yul\":5611:5613   */\n      0x20\n        /* \"#utility.yul\":5599:5608   */\n      dup3\n        /* \"#utility.yul\":5590:5597   */\n      dup5\n        /* \"#utility.yul\":5586:5609   */\n      sub\n        /* \"#utility.yul\":5582:5614   */\n      slt\n        /* \"#utility.yul\":5579:5698   */\n      iszero\n      tag_212\n      jumpi\n        /* \"#utility.yul\":5617:5696   */\n      tag_213\n      tag_118\n      jump\t// in\n    tag_213:\n        /* \"#utility.yul\":5579:5698   */\n    tag_212:\n        /* \"#utility.yul\":5737:5738   */\n      0x00\n        /* \"#utility.yul\":5762:5823   */\n      tag_214\n        /* \"#utility.yul\":5815:5822   */\n      dup5\n        /* \"#utility.yul\":5806:5812   */\n      dup3\n        /* \"#utility.yul\":5795:5804   */\n      dup6\n        /* \"#utility.yul\":5791:5813   */\n      add\n        /* \"#utility.yul\":5762:5823   */\n      tag_140\n      jump\t// in\n    tag_214:\n        /* \"#utility.yul\":5752:5823   */\n      swap2\n      pop\n        /* \"#utility.yul\":5708:5833   */\n      pop\n        /* \"#utility.yul\":5495:5840   */\n      swap3\n      swap2\n      pop\n      pop\n      jump\t// out\n        /* \"#utility.yul\":5846:6010   */\n    tag_141:\n        /* \"#utility.yul\":5986:6002   */\n      0x43616e6e6f74207374616b652030000000000000000000000000000000000000\n        /* \"#utility.yul\":5982:5983   */\n      0x00\n        /* \"#utility.yul\":5974:5980   */\n      dup3\n        /* \"#utility.yul\":5970:5984   */\n      add\n        /* \"#utility.yul\":5963:6003   */\n      mstore\n        /* \"#utility.yul\":5846:6010   */\n      pop\n      jump\t// out\n        /* \"#utility.yul\":6016:6382   */\n    tag_142:\n        /* \"#utility.yul\":6158:6161   */\n      0x00\n        /* \"#utility.yul\":6179:6246   */\n      tag_217\n        /* \"#utility.yul\":6243:6245   */\n      0x0e\n        /* \"#utility.yul\":6238:6241   */\n      dup4\n        /* \"#utility.yul\":6179:6246   */\n      tag_133\n      jump\t// in\n    tag_217:\n        /* \"#utility.yul\":6172:6246   */\n      swap2\n      pop\n        /* \"#utility.yul\":6255:6348   */\n      tag_218\n        /* \"#utility.yul\":6344:6347   */\n      dup3\n        /* \"#utility.yul\":6255:6348   */\n      tag_141\n      jump\t// in\n    tag_218:\n        /* \"#utility.yul\":6373:6375   */\n      0x20\n        /* \"#utility.yul\":6368:6371   */\n      dup3\n        /* \"#utility.yul\":6364:6376   */\n      add\n        /* \"#utility.yul\":6357:6376   */\n      swap1\n      pop\n        /* \"#utility.yul\":6016:6382   */\n      swap2\n      swap1\n      pop\n      jump\t// out\n        /* \"#utility.yul\":6388:6807   */\n    tag_93:\n        /* \"#utility.yul\":6554:6558   */\n      0x00\n        /* \"#utility.yul\":6592:6594   */\n      0x20\n        /* \"#utility.yul\":6581:6590   */\n      dup3\n        /* \"#utility.yul\":6577:6595   */\n      add\n        /* \"#utility.yul\":6569:6595   */\n      swap1\n      pop\n        /* \"#utility.yul\":6641:6650   */\n      dup2\n        /* \"#utility.yul\":6635:6639   */\n      dup2\n        /* \"#utility.yul\":6631:6651   */\n      sub\n        /* \"#utility.yul\":6627:6628   */\n      0x00\n        /* \"#utility.yul\":6616:6625   */\n      dup4\n        /* \"#utility.yul\":6612:6629   */\n      add\n        /* \"#utility.yul\":6605:6652   */\n      mstore\n        /* \"#utility.yul\":6669:6800   */\n      tag_220\n        /* \"#utility.yul\":6795:6799   */\n      dup2\n        /* \"#utility.yul\":6669:6800   */\n      tag_142\n      jump\t// in\n    tag_220:\n        /* \"#utility.yul\":6661:6800   */\n      swap1\n      pop\n        /* \"#utility.yul\":6388:6807   */\n      swap2\n      swap1\n      pop\n      jump\t// out\n        /* \"#utility.yul\":6813:7255   */\n    tag_95:\n        /* \"#utility.yul\":6962:6966   */\n      0x00\n        /* \"#utility.yul\":7000:7002   */\n      0x60\n        /* \"#utility.yul\":6989:6998   */\n      dup3\n        /* \"#utility.yul\":6985:7003   */\n      add\n        /* \"#utility.yul\":6977:7003   */\n      swap1\n      pop\n        /* \"#utility.yul\":7013:7084   */\n      tag_222\n        /* \"#utility.yul\":7081:7082   */\n      0x00\n        /* \"#utility.yul\":7070:7079   */\n      dup4\n        /* \"#utility.yul\":7066:7083   */\n      add\n        /* \"#utility.yul\":7057:7063   */\n      dup7\n        /* \"#utility.yul\":7013:7084   */\n      tag_137\n      jump\t// in\n    tag_222:\n        /* \"#utility.yul\":7094:7166   */\n      tag_223\n        /* \"#utility.yul\":7162:7164   */\n      0x20\n        /* \"#utility.yul\":7151:7160   */\n      dup4\n        /* \"#utility.yul\":7147:7165   */\n      add\n        /* \"#utility.yul\":7138:7144   */\n      dup6\n        /* \"#utility.yul\":7094:7166   */\n      tag_137\n      jump\t// in\n    tag_223:\n        /* \"#utility.yul\":7176:7248   */\n      tag_224\n        /* \"#utility.yul\":7244:7246   */\n      0x40\n        /* \"#utility.yul\":7233:7242   */\n      dup4\n        /* \"#utility.yul\":7229:7247   */\n      add\n        /* \"#utility.yul\":7220:7226   */\n      dup5\n        /* \"#utility.yul\":7176:7248   */\n      tag_125\n      jump\t// in\n    tag_224:\n        /* \"#utility.yul\":6813:7255   */\n      swap5\n      swap4\n      pop\n      pop\n      pop\n      pop\n      jump\t// out\n        /* \"#utility.yul\":7261:7452   */\n    tag_100:\n        /* \"#utility.yul\":7301:7304   */\n      0x00\n        /* \"#utility.yul\":7320:7340   */\n      tag_226\n        /* \"#utility.yul\":7338:7339   */\n      dup3\n        /* \"#utility.yul\":7320:7340   */\n      tag_124\n      jump\t// in\n    tag_226:\n        /* \"#utility.yul\":7315:7340   */\n      swap2\n      pop\n        /* \"#utility.yul\":7354:7374   */\n      tag_227\n        /* \"#utility.yul\":7372:7373   */\n      dup4\n        /* \"#utility.yul\":7354:7374   */\n      tag_124\n      jump\t// in\n    tag_227:\n        /* \"#utility.yul\":7349:7374   */\n      swap3\n      pop\n        /* \"#utility.yul\":7397:7398   */\n      dup3\n        /* \"#utility.yul\":7394:7395   */\n      dup3\n        /* \"#utility.yul\":7390:7399   */\n      add\n        /* \"#utility.yul\":7383:7399   */\n      swap1\n      pop\n        /* \"#utility.yul\":7418:7421   */\n      dup1\n        /* \"#utility.yul\":7415:7416   */\n      dup3\n        /* \"#utility.yul\":7412:7422   */\n      gt\n        /* \"#utility.yul\":7409:7445   */\n      iszero\n      tag_228\n      jumpi\n        /* \"#utility.yul\":7425:7443   */\n      tag_229\n      tag_136\n      jump\t// in\n    tag_229:\n        /* \"#utility.yul\":7409:7445   */\n    tag_228:\n        /* \"#utility.yul\":7261:7452   */\n      swap3\n      swap2\n      pop\n      pop\n      jump\t// out\n        /* \"#utility.yul\":7458:7868   */\n    tag_105:\n        /* \"#utility.yul\":7498:7505   */\n      0x00\n        /* \"#utility.yul\":7521:7541   */\n      tag_231\n        /* \"#utility.yul\":7539:7540   */\n      dup3\n        /* \"#utility.yul\":7521:7541   */\n      tag_124\n      jump\t// in\n    tag_231:\n        /* \"#utility.yul\":7516:7541   */\n      swap2\n      pop\n        /* \"#utility.yul\":7555:7575   */\n      tag_232\n        /* \"#utility.yul\":7573:7574   */\n      dup4\n        /* \"#utility.yul\":7555:7575   */\n      tag_124\n      jump\t// in\n    tag_232:\n        /* \"#utility.yul\":7550:7575   */\n      swap3\n      pop\n        /* \"#utility.yul\":7610:7611   */\n      dup3\n        /* \"#utility.yul\":7607:7608   */\n      dup3\n        /* \"#utility.yul\":7603:7612   */\n      mul\n        /* \"#utility.yul\":7632:7662   */\n      tag_233\n        /* \"#utility.yul\":7650:7661   */\n      dup2\n        /* \"#utility.yul\":7632:7662   */\n      tag_124\n      jump\t// in\n    tag_233:\n        /* \"#utility.yul\":7621:7662   */\n      swap2\n      pop\n        /* \"#utility.yul\":7811:7812   */\n      dup3\n        /* \"#utility.yul\":7802:7809   */\n      dup3\n        /* \"#utility.yul\":7798:7813   */\n      div\n        /* \"#utility.yul\":7795:7796   */\n      dup5\n        /* \"#utility.yul\":7792:7814   */\n      eq\n        /* \"#utility.yul\":7772:7773   */\n      dup4\n        /* \"#utility.yul\":7765:7774   */\n      iszero\n        /* \"#utility.yul\":7745:7828   */\n      or\n        /* \"#utility.yul\":7722:7861   */\n      tag_234\n      jumpi\n        /* \"#utility.yul\":7841:7859   */\n      tag_235\n      tag_136\n      jump\t// in\n    tag_235:\n        /* \"#utility.yul\":7722:7861   */\n    tag_234:\n        /* \"#utility.yul\":7506:7868   */\n      pop\n        /* \"#utility.yul\":7458:7868   */\n      swap3\n      swap2\n      pop\n      pop\n      jump\t// out\n        /* \"#utility.yul\":7874:8096   */\n    tag_109:\n        /* \"#utility.yul\":7967:7971   */\n      0x00\n        /* \"#utility.yul\":8005:8007   */\n      0x20\n        /* \"#utility.yul\":7994:8003   */\n      dup3\n        /* \"#utility.yul\":7990:8008   */\n      add\n        /* \"#utility.yul\":7982:8008   */\n      swap1\n      pop\n        /* \"#utility.yul\":8018:8089   */\n      tag_237\n        /* \"#utility.yul\":8086:8087   */\n      0x00\n        /* \"#utility.yul\":8075:8084   */\n      dup4\n        /* \"#utility.yul\":8071:8088   */\n      add\n        /* \"#utility.yul\":8062:8068   */\n      dup5\n        /* \"#utility.yul\":8018:8089   */\n      tag_137\n      jump\t// in\n    tag_237:\n        /* \"#utility.yul\":7874:8096   */\n      swap3\n      swap2\n      pop\n      pop\n      jump\t// out\n        /* \"#utility.yul\":8102:8245   */\n    tag_143:\n        /* \"#utility.yul\":8159:8164   */\n      0x00\n        /* \"#utility.yul\":8190:8196   */\n      dup2\n        /* \"#utility.yul\":8184:8197   */\n      mload\n        /* \"#utility.yul\":8175:8197   */\n      swap1\n      pop\n        /* \"#utility.yul\":8206:8239   */\n      tag_239\n        /* \"#utility.yul\":8233:8238   */\n      dup2\n        /* \"#utility.yul\":8206:8239   */\n      tag_126\n      jump\t// in\n    tag_239:\n        /* \"#utility.yul\":8102:8245   */\n      swap3\n      swap2\n      pop\n      pop\n      jump\t// out\n        /* \"#utility.yul\":8251:8602   */\n    tag_113:\n        /* \"#utility.yul\":8321:8327   */\n      0x00\n        /* \"#utility.yul\":8370:8372   */\n      0x20\n        /* \"#utility.yul\":8358:8367   */\n      dup3\n        /* \"#utility.yul\":8349:8356   */\n      dup5\n        /* \"#utility.yul\":8345:8368   */\n      sub\n        /* \"#utility.yul\":8341:8373   */\n      slt\n        /* \"#utility.yul\":8338:8457   */\n      iszero\n      tag_241\n      jumpi\n        /* \"#utility.yul\":8376:8455   */\n      tag_242\n      tag_118\n      jump\t// in\n    tag_242:\n        /* \"#utility.yul\":8338:8457   */\n    tag_241:\n        /* \"#utility.yul\":8496:8497   */\n      0x00\n        /* \"#utility.yul\":8521:8585   */\n      tag_243\n        /* \"#utility.yul\":8577:8584   */\n      dup5\n        /* \"#utility.yul\":8568:8574   */\n      dup3\n        /* \"#utility.yul\":8557:8566   */\n      dup6\n        /* \"#utility.yul\":8553:8575   */\n      add\n        /* \"#utility.yul\":8521:8585   */\n      tag_143\n      jump\t// in\n    tag_243:\n        /* \"#utility.yul\":8511:8585   */\n      swap2\n      pop\n        /* \"#utility.yul\":8467:8595   */\n      pop\n        /* \"#utility.yul\":8251:8602   */\n      swap3\n      swap2\n      pop\n      pop\n      jump\t// out\n\n    auxdata: 0xa2646970667358221220184b2e7c4820c576f5ad292732e3f3dcfe40e2039fbccb2f33e5b53ce747f4bd64736f6c634300081a0033\n}\n",
				"bytecode": {
					"linkReferences": {},
					"object": "60806040526064600355348015610014575f80fd5b50604051610f99380380610f9983398181016040528101906100369190610133565b60015f819055508160015f6101000a81548173ffffffffffffffffffffffffffffffffffffffff021916908373ffffffffffffffffffffffffffffffffffffffff1602179055508060025f6101000a81548173ffffffffffffffffffffffffffffffffffffffff021916908373ffffffffffffffffffffffffffffffffffffffff1602179055505050610171565b5f80fd5b5f73ffffffffffffffffffffffffffffffffffffffff82169050919050565b5f6100f1826100c8565b9050919050565b5f610102826100e7565b9050919050565b610112816100f8565b811461011c575f80fd5b50565b5f8151905061012d81610109565b92915050565b5f8060408385031215610149576101486100c4565b5b5f6101568582860161011f565b92505060206101678582860161011f565b9150509250929050565b610e1b8061017e5f395ff3fe608060405234801561000f575f80fd5b50600436106100a7575f3560e01c806370a082311161006f57806370a08231146101635780637b0a47ee14610193578063a694fc3a146101b1578063d82e3962146101cd578063e627f2db146101fd578063f7c618c11461021b576100a7565b80630700037d146100ab5780631460fa87146100db5780632e17de781461010b578063372500ab146101275780635fcbd28514610145575b5f80fd5b6100c560048036038101906100c091906109e9565b610239565b6040516100d29190610a2c565b60405180910390f35b6100f560048036038101906100f091906109e9565b61024e565b6040516101029190610a2c565b60405180910390f35b61012560048036038101906101209190610a6f565b610263565b005b61012f6104d2565b60405161013c9190610a2c565b60405180910390f35b61014d6105d5565b60405161015a9190610af5565b60405180910390f35b61017d600480360381019061017891906109e9565b6105fa565b60405161018a9190610a2c565b60405180910390f35b61019b610640565b6040516101a89190610a2c565b60405180910390f35b6101cb60048036038101906101c69190610a6f565b610646565b005b6101e760048036038101906101e291906109e9565b6107cf565b6040516101f49190610a2c565b60405180910390f35b61020561087a565b6040516102129190610a2c565b60405180910390f35b610223610919565b6040516102309190610af5565b60405180910390f35b6005602052805f5260405f205f915090505481565b6004602052805f5260405f205f915090505481565b61026b61093e565b8060045f3373ffffffffffffffffffffffffffffffffffffffff1673ffffffffffffffffffffffffffffffffffffffff1681526020019081526020015f205410156102eb576040517f08c379a00000000000000000000000000000000000000000000000000000000081526004016102e290610b68565b60405180910390fd5b8060045f3373ffffffffffffffffffffffffffffffffffffffff1673ffffffffffffffffffffffffffffffffffffffff1681526020019081526020015f205f8282546103379190610bb3565b9250508190555060015f9054906101000a900473ffffffffffffffffffffffffffffffffffffffff1673ffffffffffffffffffffffffffffffffffffffff1663a9059cbb33836040518363ffffffff1660e01b815260040161039a929190610bf5565b6020604051808303815f875af11580156103b6573d5f803e3d5ffd5b505050506040513d601f19601f820116820180604052508101906103da9190610c51565b505f6103e5336107cf565b90504260055f3373ffffffffffffffffffffffffffffffffffffffff1673ffffffffffffffffffffffffffffffffffffffff1681526020019081526020015f208190555060025f9054906101000a900473ffffffffffffffffffffffffffffffffffffffff1673ffffffffffffffffffffffffffffffffffffffff1663a9059cbb33836040518363ffffffff1660e01b8152600401610485929190610bf5565b6020604051808303815f875af11580156104a1573d5f803e3d5ffd5b505050506040513d601f19601f820116820180604052508101906104c59190610c51565b50506104cf610982565b50565b5f6104db61093e565b5f6104e5336107cf565b90505f60055f3373ffffffffffffffffffffffffffffffffffffffff1673ffffffffffffffffffffffffffffffffffffffff1681526020019081526020015f208190555060025f9054906101000a900473ffffffffffffffffffffffffffffffffffffffff1673ffffffffffffffffffffffffffffffffffffffff1663a9059cbb33836040518363ffffffff1660e01b8152600401610585929190610bf5565b6020604051808303815f875af11580156105a1573d5f803e3d5ffd5b505050506040513d601f19601f820116820180604052508101906105c59190610c51565b50809150506105d2610982565b90565b60015f9054906101000a900473ffffffffffffffffffffffffffffffffffffffff1681565b5f60045f8373ffffffffffffffffffffffffffffffffffffffff1673ffffffffffffffffffffffffffffffffffffffff1681526020019081526020015f20549050919050565b60035481565b61064e61093e565b5f8111610690576040517f08c379a000000000000000000000000000000000000000000000000000000000815260040161068790610cc6565b60405180910390fd5b60015f9054906101000a900473ffffffffffffffffffffffffffffffffffffffff1673ffffffffffffffffffffffffffffffffffffffff166323b872dd3330846040518463ffffffff1660e01b81526004016106ee93929190610ce4565b6020604051808303815f875af115801561070a573d5f803e3d5ffd5b505050506040513d601f19601f8201168201806040525081019061072e9190610c51565b508060045f3373ffffffffffffffffffffffffffffffffffffffff1673ffffffffffffffffffffffffffffffffffffffff1681526020019081526020015f205f82825461077b9190610d19565b925050819055504260055f3373ffffffffffffffffffffffffffffffffffffffff1673ffffffffffffffffffffffffffffffffffffffff1681526020019081526020015f20819055506107cc610982565b50565b5f8060055f8473ffffffffffffffffffffffffffffffffffffffff1673ffffffffffffffffffffffffffffffffffffffff1681526020019081526020015f20544261081a9190610bb3565b90508060035460045f8673ffffffffffffffffffffffffffffffffffffffff1673ffffffffffffffffffffffffffffffffffffffff1681526020019081526020015f20546108689190610d4c565b6108729190610d4c565b915050919050565b5f60025f9054906101000a900473ffffffffffffffffffffffffffffffffffffffff1673ffffffffffffffffffffffffffffffffffffffff166370a08231306040518263ffffffff1660e01b81526004016108d59190610d8d565b602060405180830381865afa1580156108f0573d5f803e3d5ffd5b505050506040513d601f19601f820116820180604052508101906109149190610dba565b905090565b60025f9054906101000a900473ffffffffffffffffffffffffffffffffffffffff1681565b60025f5403610979576040517f3ee5aeb500000000000000000000000000000000000000000000000000000000815260040160405180910390fd5b60025f81905550565b60015f81905550565b5f80fd5b5f73ffffffffffffffffffffffffffffffffffffffff82169050919050565b5f6109b88261098f565b9050919050565b6109c8816109ae565b81146109d2575f80fd5b50565b5f813590506109e3816109bf565b92915050565b5f602082840312156109fe576109fd61098b565b5b5f610a0b848285016109d5565b91505092915050565b5f819050919050565b610a2681610a14565b82525050565b5f602082019050610a3f5f830184610a1d565b92915050565b610a4e81610a14565b8114610a58575f80fd5b50565b5f81359050610a6981610a45565b92915050565b5f60208284031215610a8457610a8361098b565b5b5f610a9184828501610a5b565b91505092915050565b5f819050919050565b5f610abd610ab8610ab38461098f565b610a9a565b61098f565b9050919050565b5f610ace82610aa3565b9050919050565b5f610adf82610ac4565b9050919050565b610aef81610ad5565b82525050565b5f602082019050610b085f830184610ae6565b92915050565b5f82825260208201905092915050565b7f496e73756666696369656e742062616c616e636520746f20756e7374616b65005f82015250565b5f610b52601f83610b0e565b9150610b5d82610b1e565b602082019050919050565b5f6020820190508181035f830152610b7f81610b46565b9050919050565b7f4e487b71000000000000000000000000000000000000000000000000000000005f52601160045260245ffd5b5f610bbd82610a14565b9150610bc883610a14565b9250828203905081811115610be057610bdf610b86565b5b92915050565b610bef816109ae565b82525050565b5f604082019050610c085f830185610be6565b610c156020830184610a1d565b9392505050565b5f8115159050919050565b610c3081610c1c565b8114610c3a575f80fd5b50565b5f81519050610c4b81610c27565b92915050565b5f60208284031215610c6657610c6561098b565b5b5f610c7384828501610c3d565b91505092915050565b7f43616e6e6f74207374616b6520300000000000000000000000000000000000005f82015250565b5f610cb0600e83610b0e565b9150610cbb82610c7c565b602082019050919050565b5f6020820190508181035f830152610cdd81610ca4565b9050919050565b5f606082019050610cf75f830186610be6565b610d046020830185610be6565b610d116040830184610a1d565b949350505050565b5f610d2382610a14565b9150610d2e83610a14565b9250828201905080821115610d4657610d45610b86565b5b92915050565b5f610d5682610a14565b9150610d6183610a14565b9250828202610d6f81610a14565b91508282048414831517610d8657610d85610b86565b5b5092915050565b5f602082019050610da05f830184610be6565b92915050565b5f81519050610db481610a45565b92915050565b5f60208284031215610dcf57610dce61098b565b5b5f610ddc84828501610da6565b9150509291505056fea2646970667358221220184b2e7c4820c576f5ad292732e3f3dcfe40e2039fbccb2f33e5b53ce747f4bd64736f6c634300081a0033",
					"opcodes": "PUSH1 0x80 PUSH1 0x40 MSTORE PUSH1 0x64 PUSH1 0x3 SSTORE CALLVALUE DUP1 ISZERO PUSH2 0x14 JUMPI PUSH0 DUP1 REVERT JUMPDEST POP PUSH1 0x40 MLOAD PUSH2 0xF99 CODESIZE SUB DUP1 PUSH2 0xF99 DUP4 CODECOPY DUP2 DUP2 ADD PUSH1 0x40 MSTORE DUP2 ADD SWAP1 PUSH2 0x36 SWAP2 SWAP1 PUSH2 0x133 JUMP JUMPDEST PUSH1 0x1 PUSH0 DUP2 SWAP1 SSTORE POP DUP2 PUSH1 0x1 PUSH0 PUSH2 0x100 EXP DUP2 SLOAD DUP2 PUSH20 0xFFFFFFFFFFFFFFFFFFFFFFFFFFFFFFFFFFFFFFFF MUL NOT AND SWAP1 DUP4 PUSH20 0xFFFFFFFFFFFFFFFFFFFFFFFFFFFFFFFFFFFFFFFF AND MUL OR SWAP1 SSTORE POP DUP1 PUSH1 0x2 PUSH0 PUSH2 0x100 EXP DUP2 SLOAD DUP2 PUSH20 0xFFFFFFFFFFFFFFFFFFFFFFFFFFFFFFFFFFFFFFFF MUL NOT AND SWAP1 DUP4 PUSH20 0xFFFFFFFFFFFFFFFFFFFFFFFFFFFFFFFFFFFFFFFF AND MUL OR SWAP1 SSTORE POP POP POP PUSH2 0x171 JUMP JUMPDEST PUSH0 DUP1 REVERT JUMPDEST PUSH0 PUSH20 0xFFFFFFFFFFFFFFFFFFFFFFFFFFFFFFFFFFFFFFFF DUP3 AND SWAP1 POP SWAP2 SWAP1 POP JUMP JUMPDEST PUSH0 PUSH2 0xF1 DUP3 PUSH2 0xC8 JUMP JUMPDEST SWAP1 POP SWAP2 SWAP1 POP JUMP JUMPDEST PUSH0 PUSH2 0x102 DUP3 PUSH2 0xE7 JUMP JUMPDEST SWAP1 POP SWAP2 SWAP1 POP JUMP JUMPDEST PUSH2 0x112 DUP2 PUSH2 0xF8 JUMP JUMPDEST DUP2 EQ PUSH2 0x11C JUMPI PUSH0 DUP1 REVERT JUMPDEST POP JUMP JUMPDEST PUSH0 DUP2 MLOAD SWAP1 POP PUSH2 0x12D DUP2 PUSH2 0x109 JUMP JUMPDEST SWAP3 SWAP2 POP POP JUMP JUMPDEST PUSH0 DUP1 PUSH1 0x40 DUP4 DUP6 SUB SLT ISZERO PUSH2 0x149 JUMPI PUSH2 0x148 PUSH2 0xC4 JUMP JUMPDEST JUMPDEST PUSH0 PUSH2 0x156 DUP6 DUP3 DUP7 ADD PUSH2 0x11F JUMP JUMPDEST SWAP3 POP POP PUSH1 0x20 PUSH2 0x167 DUP6 DUP3 DUP7 ADD PUSH2 0x11F JUMP JUMPDEST SWAP2 POP POP SWAP3 POP SWAP3 SWAP1 POP JUMP JUMPDEST PUSH2 0xE1B DUP1 PUSH2 0x17E PUSH0 CODECOPY PUSH0 RETURN INVALID PUSH1 0x80 PUSH1 0x40 MSTORE CALLVALUE DUP1 ISZERO PUSH2 0xF JUMPI PUSH0 DUP1 REVERT JUMPDEST POP PUSH1 0x4 CALLDATASIZE LT PUSH2 0xA7 JUMPI PUSH0 CALLDATALOAD PUSH1 0xE0 SHR DUP1 PUSH4 0x70A08231 GT PUSH2 0x6F JUMPI DUP1 PUSH4 0x70A08231 EQ PUSH2 0x163 JUMPI DUP1 PUSH4 0x7B0A47EE EQ PUSH2 0x193 JUMPI DUP1 PUSH4 0xA694FC3A EQ PUSH2 0x1B1 JUMPI DUP1 PUSH4 0xD82E3962 EQ PUSH2 0x1CD JUMPI DUP1 PUSH4 0xE627F2DB EQ PUSH2 0x1FD JUMPI DUP1 PUSH4 0xF7C618C1 EQ PUSH2 0x21B JUMPI PUSH2 0xA7 JUMP JUMPDEST DUP1 PUSH4 0x700037D EQ PUSH2 0xAB JUMPI DUP1 PUSH4 0x1460FA87 EQ PUSH2 0xDB JUMPI DUP1 PUSH4 0x2E17DE78 EQ PUSH2 0x10B JUMPI DUP1 PUSH4 0x372500AB EQ PUSH2 0x127 JUMPI DUP1 PUSH4 0x5FCBD285 EQ PUSH2 0x145 JUMPI JUMPDEST PUSH0 DUP1 REVERT JUMPDEST PUSH2 0xC5 PUSH1 0x4 DUP1 CALLDATASIZE SUB DUP2 ADD SWAP1 PUSH2 0xC0 SWAP2 SWAP1 PUSH2 0x9E9 JUMP JUMPDEST PUSH2 0x239 JUMP JUMPDEST PUSH1 0x40 MLOAD PUSH2 0xD2 SWAP2 SWAP1 PUSH2 0xA2C JUMP JUMPDEST PUSH1 0x40 MLOAD DUP1 SWAP2 SUB SWAP1 RETURN JUMPDEST PUSH2 0xF5 PUSH1 0x4 DUP1 CALLDATASIZE SUB DUP2 ADD SWAP1 PUSH2 0xF0 SWAP2 SWAP1 PUSH2 0x9E9 JUMP JUMPDEST PUSH2 0x24E JUMP JUMPDEST PUSH1 0x40 MLOAD PUSH2 0x102 SWAP2 SWAP1 PUSH2 0xA2C JUMP JUMPDEST PUSH1 0x40 MLOAD DUP1 SWAP2 SUB SWAP1 RETURN JUMPDEST PUSH2 0x125 PUSH1 0x4 DUP1 CALLDATASIZE SUB DUP2 ADD SWAP1 PUSH2 0x120 SWAP2 SWAP1 PUSH2 0xA6F JUMP JUMPDEST PUSH2 0x263 JUMP JUMPDEST STOP JUMPDEST PUSH2 0x12F PUSH2 0x4D2 JUMP JUMPDEST PUSH1 0x40 MLOAD PUSH2 0x13C SWAP2 SWAP1 PUSH2 0xA2C JUMP JUMPDEST PUSH1 0x40 MLOAD DUP1 SWAP2 SUB SWAP1 RETURN JUMPDEST PUSH2 0x14D PUSH2 0x5D5 JUMP JUMPDEST PUSH1 0x40 MLOAD PUSH2 0x15A SWAP2 SWAP1 PUSH2 0xAF5 JUMP JUMPDEST PUSH1 0x40 MLOAD DUP1 SWAP2 SUB SWAP1 RETURN JUMPDEST PUSH2 0x17D PUSH1 0x4 DUP1 CALLDATASIZE SUB DUP2 ADD SWAP1 PUSH2 0x178 SWAP2 SWAP1 PUSH2 0x9E9 JUMP JUMPDEST PUSH2 0x5FA JUMP JUMPDEST PUSH1 0x40 MLOAD PUSH2 0x18A SWAP2 SWAP1 PUSH2 0xA2C JUMP JUMPDEST PUSH1 0x40 MLOAD DUP1 SWAP2 SUB SWAP1 RETURN JUMPDEST PUSH2 0x19B PUSH2 0x640 JUMP JUMPDEST PUSH1 0x40 MLOAD PUSH2 0x1A8 SWAP2 SWAP1 PUSH2 0xA2C JUMP JUMPDEST PUSH1 0x40 MLOAD DUP1 SWAP2 SUB SWAP1 RETURN JUMPDEST PUSH2 0x1CB PUSH1 0x4 DUP1 CALLDATASIZE SUB DUP2 ADD SWAP1 PUSH2 0x1C6 SWAP2 SWAP1 PUSH2 0xA6F JUMP JUMPDEST PUSH2 0x646 JUMP JUMPDEST STOP JUMPDEST PUSH2 0x1E7 PUSH1 0x4 DUP1 CALLDATASIZE SUB DUP2 ADD SWAP1 PUSH2 0x1E2 SWAP2 SWAP1 PUSH2 0x9E9 JUMP JUMPDEST PUSH2 0x7CF JUMP JUMPDEST PUSH1 0x40 MLOAD PUSH2 0x1F4 SWAP2 SWAP1 PUSH2 0xA2C JUMP JUMPDEST PUSH1 0x40 MLOAD DUP1 SWAP2 SUB SWAP1 RETURN JUMPDEST PUSH2 0x205 PUSH2 0x87A JUMP JUMPDEST PUSH1 0x40 MLOAD PUSH2 0x212 SWAP2 SWAP1 PUSH2 0xA2C JUMP JUMPDEST PUSH1 0x40 MLOAD DUP1 SWAP2 SUB SWAP1 RETURN JUMPDEST PUSH2 0x223 PUSH2 0x919 JUMP JUMPDEST PUSH1 0x40 MLOAD PUSH2 0x230 SWAP2 SWAP1 PUSH2 0xAF5 JUMP JUMPDEST PUSH1 0x40 MLOAD DUP1 SWAP2 SUB SWAP1 RETURN JUMPDEST PUSH1 0x5 PUSH1 0x20 MSTORE DUP1 PUSH0 MSTORE PUSH1 0x40 PUSH0 KECCAK256 PUSH0 SWAP2 POP SWAP1 POP SLOAD DUP2 JUMP JUMPDEST PUSH1 0x4 PUSH1 0x20 MSTORE DUP1 PUSH0 MSTORE PUSH1 0x40 PUSH0 KECCAK256 PUSH0 SWAP2 POP SWAP1 POP SLOAD DUP2 JUMP JUMPDEST PUSH2 0x26B PUSH2 0x93E JUMP JUMPDEST DUP1 PUSH1 0x4 PUSH0 CALLER PUSH20 0xFFFFFFFFFFFFFFFFFFFFFFFFFFFFFFFFFFFFFFFF AND PUSH20 0xFFFFFFFFFFFFFFFFFFFFFFFFFFFFFFFFFFFFFFFF AND DUP2 MSTORE PUSH1 0x20 ADD SWAP1 DUP2 MSTORE PUSH1 0x20 ADD PUSH0 KECCAK256 SLOAD LT ISZERO PUSH2 0x2EB JUMPI PUSH1 0x40 MLOAD PUSH32 0x8C379A000000000000000000000000000000000000000000000000000000000 DUP2 MSTORE PUSH1 0x4 ADD PUSH2 0x2E2 SWAP1 PUSH2 0xB68 JUMP JUMPDEST PUSH1 0x40 MLOAD DUP1 SWAP2 SUB SWAP1 REVERT JUMPDEST DUP1 PUSH1 0x4 PUSH0 CALLER PUSH20 0xFFFFFFFFFFFFFFFFFFFFFFFFFFFFFFFFFFFFFFFF AND PUSH20 0xFFFFFFFFFFFFFFFFFFFFFFFFFFFFFFFFFFFFFFFF AND DUP2 MSTORE PUSH1 0x20 ADD SWAP1 DUP2 MSTORE PUSH1 0x20 ADD PUSH0 KECCAK256 PUSH0 DUP3 DUP3 SLOAD PUSH2 0x337 SWAP2 SWAP1 PUSH2 0xBB3 JUMP JUMPDEST SWAP3 POP POP DUP2 SWAP1 SSTORE POP PUSH1 0x1 PUSH0 SWAP1 SLOAD SWAP1 PUSH2 0x100 EXP SWAP1 DIV PUSH20 0xFFFFFFFFFFFFFFFFFFFFFFFFFFFFFFFFFFFFFFFF AND PUSH20 0xFFFFFFFFFFFFFFFFFFFFFFFFFFFFFFFFFFFFFFFF AND PUSH4 0xA9059CBB CALLER DUP4 PUSH1 0x40 MLOAD DUP4 PUSH4 0xFFFFFFFF AND PUSH1 0xE0 SHL DUP2 MSTORE PUSH1 0x4 ADD PUSH2 0x39A SWAP3 SWAP2 SWAP1 PUSH2 0xBF5 JUMP JUMPDEST PUSH1 0x20 PUSH1 0x40 MLOAD DUP1 DUP4 SUB DUP2 PUSH0 DUP8 GAS CALL ISZERO DUP1 ISZERO PUSH2 0x3B6 JUMPI RETURNDATASIZE PUSH0 DUP1 RETURNDATACOPY RETURNDATASIZE PUSH0 REVERT JUMPDEST POP POP POP POP PUSH1 0x40 MLOAD RETURNDATASIZE PUSH1 0x1F NOT PUSH1 0x1F DUP3 ADD AND DUP3 ADD DUP1 PUSH1 0x40 MSTORE POP DUP2 ADD SWAP1 PUSH2 0x3DA SWAP2 SWAP1 PUSH2 0xC51 JUMP JUMPDEST POP PUSH0 PUSH2 0x3E5 CALLER PUSH2 0x7CF JUMP JUMPDEST SWAP1 POP TIMESTAMP PUSH1 0x5 PUSH0 CALLER PUSH20 0xFFFFFFFFFFFFFFFFFFFFFFFFFFFFFFFFFFFFFFFF AND PUSH20 0xFFFFFFFFFFFFFFFFFFFFFFFFFFFFFFFFFFFFFFFF AND DUP2 MSTORE PUSH1 0x20 ADD SWAP1 DUP2 MSTORE PUSH1 0x20 ADD PUSH0 KECCAK256 DUP2 SWAP1 SSTORE POP PUSH1 0x2 PUSH0 SWAP1 SLOAD SWAP1 PUSH2 0x100 EXP SWAP1 DIV PUSH20 0xFFFFFFFFFFFFFFFFFFFFFFFFFFFFFFFFFFFFFFFF AND PUSH20 0xFFFFFFFFFFFFFFFFFFFFFFFFFFFFFFFFFFFFFFFF AND PUSH4 0xA9059CBB CALLER DUP4 PUSH1 0x40 MLOAD DUP4 PUSH4 0xFFFFFFFF AND PUSH1 0xE0 SHL DUP2 MSTORE PUSH1 0x4 ADD PUSH2 0x485 SWAP3 SWAP2 SWAP1 PUSH2 0xBF5 JUMP JUMPDEST PUSH1 0x20 PUSH1 0x40 MLOAD DUP1 DUP4 SUB DUP2 PUSH0 DUP8 GAS CALL ISZERO DUP1 ISZERO PUSH2 0x4A1 JUMPI RETURNDATASIZE PUSH0 DUP1 RETURNDATACOPY RETURNDATASIZE PUSH0 REVERT JUMPDEST POP POP POP POP PUSH1 0x40 MLOAD RETURNDATASIZE PUSH1 0x1F NOT PUSH1 0x1F DUP3 ADD AND DUP3 ADD DUP1 PUSH1 0x40 MSTORE POP DUP2 ADD SWAP1 PUSH2 0x4C5 SWAP2 SWAP1 PUSH2 0xC51 JUMP JUMPDEST POP POP PUSH2 0x4CF PUSH2 0x982 JUMP JUMPDEST POP JUMP JUMPDEST PUSH0 PUSH2 0x4DB PUSH2 0x93E JUMP JUMPDEST PUSH0 PUSH2 0x4E5 CALLER PUSH2 0x7CF JUMP JUMPDEST SWAP1 POP PUSH0 PUSH1 0x5 PUSH0 CALLER PUSH20 0xFFFFFFFFFFFFFFFFFFFFFFFFFFFFFFFFFFFFFFFF AND PUSH20 0xFFFFFFFFFFFFFFFFFFFFFFFFFFFFFFFFFFFFFFFF AND DUP2 MSTORE PUSH1 0x20 ADD SWAP1 DUP2 MSTORE PUSH1 0x20 ADD PUSH0 KECCAK256 DUP2 SWAP1 SSTORE POP PUSH1 0x2 PUSH0 SWAP1 SLOAD SWAP1 PUSH2 0x100 EXP SWAP1 DIV PUSH20 0xFFFFFFFFFFFFFFFFFFFFFFFFFFFFFFFFFFFFFFFF AND PUSH20 0xFFFFFFFFFFFFFFFFFFFFFFFFFFFFFFFFFFFFFFFF AND PUSH4 0xA9059CBB CALLER DUP4 PUSH1 0x40 MLOAD DUP4 PUSH4 0xFFFFFFFF AND PUSH1 0xE0 SHL DUP2 MSTORE PUSH1 0x4 ADD PUSH2 0x585 SWAP3 SWAP2 SWAP1 PUSH2 0xBF5 JUMP JUMPDEST PUSH1 0x20 PUSH1 0x40 MLOAD DUP1 DUP4 SUB DUP2 PUSH0 DUP8 GAS CALL ISZERO DUP1 ISZERO PUSH2 0x5A1 JUMPI RETURNDATASIZE PUSH0 DUP1 RETURNDATACOPY RETURNDATASIZE PUSH0 REVERT JUMPDEST POP POP POP POP PUSH1 0x40 MLOAD RETURNDATASIZE PUSH1 0x1F NOT PUSH1 0x1F DUP3 ADD AND DUP3 ADD DUP1 PUSH1 0x40 MSTORE POP DUP2 ADD SWAP1 PUSH2 0x5C5 SWAP2 SWAP1 PUSH2 0xC51 JUMP JUMPDEST POP DUP1 SWAP2 POP POP PUSH2 0x5D2 PUSH2 0x982 JUMP JUMPDEST SWAP1 JUMP JUMPDEST PUSH1 0x1 PUSH0 SWAP1 SLOAD SWAP1 PUSH2 0x100 EXP SWAP1 DIV PUSH20 0xFFFFFFFFFFFFFFFFFFFFFFFFFFFFFFFFFFFFFFFF AND DUP2 JUMP JUMPDEST PUSH0 PUSH1 0x4 PUSH0 DUP4 PUSH20 0xFFFFFFFFFFFFFFFFFFFFFFFFFFFFFFFFFFFFFFFF AND PUSH20 0xFFFFFFFFFFFFFFFFFFFFFFFFFFFFFFFFFFFFFFFF AND DUP2 MSTORE PUSH1 0x20 ADD SWAP1 DUP2 MSTORE PUSH1 0x20 ADD PUSH0 KECCAK256 SLOAD SWAP1 POP SWAP2 SWAP1 POP JUMP JUMPDEST PUSH1 0x3 SLOAD DUP2 JUMP JUMPDEST PUSH2 0x64E PUSH2 0x93E JUMP JUMPDEST PUSH0 DUP2 GT PUSH2 0x690 JUMPI PUSH1 0x40 MLOAD PUSH32 0x8C379A000000000000000000000000000000000000000000000000000000000 DUP2 MSTORE PUSH1 0x4 ADD PUSH2 0x687 SWAP1 PUSH2 0xCC6 JUMP JUMPDEST PUSH1 0x40 MLOAD DUP1 SWAP2 SUB SWAP1 REVERT JUMPDEST PUSH1 0x1 PUSH0 SWAP1 SLOAD SWAP1 PUSH2 0x100 EXP SWAP1 DIV PUSH20 0xFFFFFFFFFFFFFFFFFFFFFFFFFFFFFFFFFFFFFFFF AND PUSH20 0xFFFFFFFFFFFFFFFFFFFFFFFFFFFFFFFFFFFFFFFF AND PUSH4 0x23B872DD CALLER ADDRESS DUP5 PUSH1 0x40 MLOAD DUP5 PUSH4 0xFFFFFFFF AND PUSH1 0xE0 SHL DUP2 MSTORE PUSH1 0x4 ADD PUSH2 0x6EE SWAP4 SWAP3 SWAP2 SWAP1 PUSH2 0xCE4 JUMP JUMPDEST PUSH1 0x20 PUSH1 0x40 MLOAD DUP1 DUP4 SUB DUP2 PUSH0 DUP8 GAS CALL ISZERO DUP1 ISZERO PUSH2 0x70A JUMPI RETURNDATASIZE PUSH0 DUP1 RETURNDATACOPY RETURNDATASIZE PUSH0 REVERT JUMPDEST POP POP POP POP PUSH1 0x40 MLOAD RETURNDATASIZE PUSH1 0x1F NOT PUSH1 0x1F DUP3 ADD AND DUP3 ADD DUP1 PUSH1 0x40 MSTORE POP DUP2 ADD SWAP1 PUSH2 0x72E SWAP2 SWAP1 PUSH2 0xC51 JUMP JUMPDEST POP DUP1 PUSH1 0x4 PUSH0 CALLER PUSH20 0xFFFFFFFFFFFFFFFFFFFFFFFFFFFFFFFFFFFFFFFF AND PUSH20 0xFFFFFFFFFFFFFFFFFFFFFFFFFFFFFFFFFFFFFFFF AND DUP2 MSTORE PUSH1 0x20 ADD SWAP1 DUP2 MSTORE PUSH1 0x20 ADD PUSH0 KECCAK256 PUSH0 DUP3 DUP3 SLOAD PUSH2 0x77B SWAP2 SWAP1 PUSH2 0xD19 JUMP JUMPDEST SWAP3 POP POP DUP2 SWAP1 SSTORE POP TIMESTAMP PUSH1 0x5 PUSH0 CALLER PUSH20 0xFFFFFFFFFFFFFFFFFFFFFFFFFFFFFFFFFFFFFFFF AND PUSH20 0xFFFFFFFFFFFFFFFFFFFFFFFFFFFFFFFFFFFFFFFF AND DUP2 MSTORE PUSH1 0x20 ADD SWAP1 DUP2 MSTORE PUSH1 0x20 ADD PUSH0 KECCAK256 DUP2 SWAP1 SSTORE POP PUSH2 0x7CC PUSH2 0x982 JUMP JUMPDEST POP JUMP JUMPDEST PUSH0 DUP1 PUSH1 0x5 PUSH0 DUP5 PUSH20 0xFFFFFFFFFFFFFFFFFFFFFFFFFFFFFFFFFFFFFFFF AND PUSH20 0xFFFFFFFFFFFFFFFFFFFFFFFFFFFFFFFFFFFFFFFF AND DUP2 MSTORE PUSH1 0x20 ADD SWAP1 DUP2 MSTORE PUSH1 0x20 ADD PUSH0 KECCAK256 SLOAD TIMESTAMP PUSH2 0x81A SWAP2 SWAP1 PUSH2 0xBB3 JUMP JUMPDEST SWAP1 POP DUP1 PUSH1 0x3 SLOAD PUSH1 0x4 PUSH0 DUP7 PUSH20 0xFFFFFFFFFFFFFFFFFFFFFFFFFFFFFFFFFFFFFFFF AND PUSH20 0xFFFFFFFFFFFFFFFFFFFFFFFFFFFFFFFFFFFFFFFF AND DUP2 MSTORE PUSH1 0x20 ADD SWAP1 DUP2 MSTORE PUSH1 0x20 ADD PUSH0 KECCAK256 SLOAD PUSH2 0x868 SWAP2 SWAP1 PUSH2 0xD4C JUMP JUMPDEST PUSH2 0x872 SWAP2 SWAP1 PUSH2 0xD4C JUMP JUMPDEST SWAP2 POP POP SWAP2 SWAP1 POP JUMP JUMPDEST PUSH0 PUSH1 0x2 PUSH0 SWAP1 SLOAD SWAP1 PUSH2 0x100 EXP SWAP1 DIV PUSH20 0xFFFFFFFFFFFFFFFFFFFFFFFFFFFFFFFFFFFFFFFF AND PUSH20 0xFFFFFFFFFFFFFFFFFFFFFFFFFFFFFFFFFFFFFFFF AND PUSH4 0x70A08231 ADDRESS PUSH1 0x40 MLOAD DUP3 PUSH4 0xFFFFFFFF AND PUSH1 0xE0 SHL DUP2 MSTORE PUSH1 0x4 ADD PUSH2 0x8D5 SWAP2 SWAP1 PUSH2 0xD8D JUMP JUMPDEST PUSH1 0x20 PUSH1 0x40 MLOAD DUP1 DUP4 SUB DUP2 DUP7 GAS STATICCALL ISZERO DUP1 ISZERO PUSH2 0x8F0 JUMPI RETURNDATASIZE PUSH0 DUP1 RETURNDATACOPY RETURNDATASIZE PUSH0 REVERT JUMPDEST POP POP POP POP PUSH1 0x40 MLOAD RETURNDATASIZE PUSH1 0x1F NOT PUSH1 0x1F DUP3 ADD AND DUP3 ADD DUP1 PUSH1 0x40 MSTORE POP DUP2 ADD SWAP1 PUSH2 0x914 SWAP2 SWAP1 PUSH2 0xDBA JUMP JUMPDEST SWAP1 POP SWAP1 JUMP JUMPDEST PUSH1 0x2 PUSH0 SWAP1 SLOAD SWAP1 PUSH2 0x100 EXP SWAP1 DIV PUSH20 0xFFFFFFFFFFFFFFFFFFFFFFFFFFFFFFFFFFFFFFFF AND DUP2 JUMP JUMPDEST PUSH1 0x2 PUSH0 SLOAD SUB PUSH2 0x979 JUMPI PUSH1 0x40 MLOAD PUSH32 0x3EE5AEB500000000000000000000000000000000000000000000000000000000 DUP2 MSTORE PUSH1 0x4 ADD PUSH1 0x40 MLOAD DUP1 SWAP2 SUB SWAP1 REVERT JUMPDEST PUSH1 0x2 PUSH0 DUP2 SWAP1 SSTORE POP JUMP JUMPDEST PUSH1 0x1 PUSH0 DUP2 SWAP1 SSTORE POP JUMP JUMPDEST PUSH0 DUP1 REVERT JUMPDEST PUSH0 PUSH20 0xFFFFFFFFFFFFFFFFFFFFFFFFFFFFFFFFFFFFFFFF DUP3 AND SWAP1 POP SWAP2 SWAP1 POP JUMP JUMPDEST PUSH0 PUSH2 0x9B8 DUP3 PUSH2 0x98F JUMP JUMPDEST SWAP1 POP SWAP2 SWAP1 POP JUMP JUMPDEST PUSH2 0x9C8 DUP2 PUSH2 0x9AE JUMP JUMPDEST DUP2 EQ PUSH2 0x9D2 JUMPI PUSH0 DUP1 REVERT JUMPDEST POP JUMP JUMPDEST PUSH0 DUP2 CALLDATALOAD SWAP1 POP PUSH2 0x9E3 DUP2 PUSH2 0x9BF JUMP JUMPDEST SWAP3 SWAP2 POP POP JUMP JUMPDEST PUSH0 PUSH1 0x20 DUP3 DUP5 SUB SLT ISZERO PUSH2 0x9FE JUMPI PUSH2 0x9FD PUSH2 0x98B JUMP JUMPDEST JUMPDEST PUSH0 PUSH2 0xA0B DUP5 DUP3 DUP6 ADD PUSH2 0x9D5 JUMP JUMPDEST SWAP2 POP POP SWAP3 SWAP2 POP POP JUMP JUMPDEST PUSH0 DUP2 SWAP1 POP SWAP2 SWAP1 POP JUMP JUMPDEST PUSH2 0xA26 DUP2 PUSH2 0xA14 JUMP JUMPDEST DUP3 MSTORE POP POP JUMP JUMPDEST PUSH0 PUSH1 0x20 DUP3 ADD SWAP1 POP PUSH2 0xA3F PUSH0 DUP4 ADD DUP5 PUSH2 0xA1D JUMP JUMPDEST SWAP3 SWAP2 POP POP JUMP JUMPDEST PUSH2 0xA4E DUP2 PUSH2 0xA14 JUMP JUMPDEST DUP2 EQ PUSH2 0xA58 JUMPI PUSH0 DUP1 REVERT JUMPDEST POP JUMP JUMPDEST PUSH0 DUP2 CALLDATALOAD SWAP1 POP PUSH2 0xA69 DUP2 PUSH2 0xA45 JUMP JUMPDEST SWAP3 SWAP2 POP POP JUMP JUMPDEST PUSH0 PUSH1 0x20 DUP3 DUP5 SUB SLT ISZERO PUSH2 0xA84 JUMPI PUSH2 0xA83 PUSH2 0x98B JUMP JUMPDEST JUMPDEST PUSH0 PUSH2 0xA91 DUP5 DUP3 DUP6 ADD PUSH2 0xA5B JUMP JUMPDEST SWAP2 POP POP SWAP3 SWAP2 POP POP JUMP JUMPDEST PUSH0 DUP2 SWAP1 POP SWAP2 SWAP1 POP JUMP JUMPDEST PUSH0 PUSH2 0xABD PUSH2 0xAB8 PUSH2 0xAB3 DUP5 PUSH2 0x98F JUMP JUMPDEST PUSH2 0xA9A JUMP JUMPDEST PUSH2 0x98F JUMP JUMPDEST SWAP1 POP SWAP2 SWAP1 POP JUMP JUMPDEST PUSH0 PUSH2 0xACE DUP3 PUSH2 0xAA3 JUMP JUMPDEST SWAP1 POP SWAP2 SWAP1 POP JUMP JUMPDEST PUSH0 PUSH2 0xADF DUP3 PUSH2 0xAC4 JUMP JUMPDEST SWAP1 POP SWAP2 SWAP1 POP JUMP JUMPDEST PUSH2 0xAEF DUP2 PUSH2 0xAD5 JUMP JUMPDEST DUP3 MSTORE POP POP JUMP JUMPDEST PUSH0 PUSH1 0x20 DUP3 ADD SWAP1 POP PUSH2 0xB08 PUSH0 DUP4 ADD DUP5 PUSH2 0xAE6 JUMP JUMPDEST SWAP3 SWAP2 POP POP JUMP JUMPDEST PUSH0 DUP3 DUP3 MSTORE PUSH1 0x20 DUP3 ADD SWAP1 POP SWAP3 SWAP2 POP POP JUMP JUMPDEST PUSH32 0x496E73756666696369656E742062616C616E636520746F20756E7374616B6500 PUSH0 DUP3 ADD MSTORE POP JUMP JUMPDEST PUSH0 PUSH2 0xB52 PUSH1 0x1F DUP4 PUSH2 0xB0E JUMP JUMPDEST SWAP2 POP PUSH2 0xB5D DUP3 PUSH2 0xB1E JUMP JUMPDEST PUSH1 0x20 DUP3 ADD SWAP1 POP SWAP2 SWAP1 POP JUMP JUMPDEST PUSH0 PUSH1 0x20 DUP3 ADD SWAP1 POP DUP2 DUP2 SUB PUSH0 DUP4 ADD MSTORE PUSH2 0xB7F DUP2 PUSH2 0xB46 JUMP JUMPDEST SWAP1 POP SWAP2 SWAP1 POP JUMP JUMPDEST PUSH32 0x4E487B7100000000000000000000000000000000000000000000000000000000 PUSH0 MSTORE PUSH1 0x11 PUSH1 0x4 MSTORE PUSH1 0x24 PUSH0 REVERT JUMPDEST PUSH0 PUSH2 0xBBD DUP3 PUSH2 0xA14 JUMP JUMPDEST SWAP2 POP PUSH2 0xBC8 DUP4 PUSH2 0xA14 JUMP JUMPDEST SWAP3 POP DUP3 DUP3 SUB SWAP1 POP DUP2 DUP2 GT ISZERO PUSH2 0xBE0 JUMPI PUSH2 0xBDF PUSH2 0xB86 JUMP JUMPDEST JUMPDEST SWAP3 SWAP2 POP POP JUMP JUMPDEST PUSH2 0xBEF DUP2 PUSH2 0x9AE JUMP JUMPDEST DUP3 MSTORE POP POP JUMP JUMPDEST PUSH0 PUSH1 0x40 DUP3 ADD SWAP1 POP PUSH2 0xC08 PUSH0 DUP4 ADD DUP6 PUSH2 0xBE6 JUMP JUMPDEST PUSH2 0xC15 PUSH1 0x20 DUP4 ADD DUP5 PUSH2 0xA1D JUMP JUMPDEST SWAP4 SWAP3 POP POP POP JUMP JUMPDEST PUSH0 DUP2 ISZERO ISZERO SWAP1 POP SWAP2 SWAP1 POP JUMP JUMPDEST PUSH2 0xC30 DUP2 PUSH2 0xC1C JUMP JUMPDEST DUP2 EQ PUSH2 0xC3A JUMPI PUSH0 DUP1 REVERT JUMPDEST POP JUMP JUMPDEST PUSH0 DUP2 MLOAD SWAP1 POP PUSH2 0xC4B DUP2 PUSH2 0xC27 JUMP JUMPDEST SWAP3 SWAP2 POP POP JUMP JUMPDEST PUSH0 PUSH1 0x20 DUP3 DUP5 SUB SLT ISZERO PUSH2 0xC66 JUMPI PUSH2 0xC65 PUSH2 0x98B JUMP JUMPDEST JUMPDEST PUSH0 PUSH2 0xC73 DUP5 DUP3 DUP6 ADD PUSH2 0xC3D JUMP JUMPDEST SWAP2 POP POP SWAP3 SWAP2 POP POP JUMP JUMPDEST PUSH32 0x43616E6E6F74207374616B652030000000000000000000000000000000000000 PUSH0 DUP3 ADD MSTORE POP JUMP JUMPDEST PUSH0 PUSH2 0xCB0 PUSH1 0xE DUP4 PUSH2 0xB0E JUMP JUMPDEST SWAP2 POP PUSH2 0xCBB DUP3 PUSH2 0xC7C JUMP JUMPDEST PUSH1 0x20 DUP3 ADD SWAP1 POP SWAP2 SWAP1 POP JUMP JUMPDEST PUSH0 PUSH1 0x20 DUP3 ADD SWAP1 POP DUP2 DUP2 SUB PUSH0 DUP4 ADD MSTORE PUSH2 0xCDD DUP2 PUSH2 0xCA4 JUMP JUMPDEST SWAP1 POP SWAP2 SWAP1 POP JUMP JUMPDEST PUSH0 PUSH1 0x60 DUP3 ADD SWAP1 POP PUSH2 0xCF7 PUSH0 DUP4 ADD DUP7 PUSH2 0xBE6 JUMP JUMPDEST PUSH2 0xD04 PUSH1 0x20 DUP4 ADD DUP6 PUSH2 0xBE6 JUMP JUMPDEST PUSH2 0xD11 PUSH1 0x40 DUP4 ADD DUP5 PUSH2 0xA1D JUMP JUMPDEST SWAP5 SWAP4 POP POP POP POP JUMP JUMPDEST PUSH0 PUSH2 0xD23 DUP3 PUSH2 0xA14 JUMP JUMPDEST SWAP2 POP PUSH2 0xD2E DUP4 PUSH2 0xA14 JUMP JUMPDEST SWAP3 POP DUP3 DUP3 ADD SWAP1 POP DUP1 DUP3 GT ISZERO PUSH2 0xD46 JUMPI PUSH2 0xD45 PUSH2 0xB86 JUMP JUMPDEST JUMPDEST SWAP3 SWAP2 POP POP JUMP JUMPDEST PUSH0 PUSH2 0xD56 DUP3 PUSH2 0xA14 JUMP JUMPDEST SWAP2 POP PUSH2 0xD61 DUP4 PUSH2 0xA14 JUMP JUMPDEST SWAP3 POP DUP3 DUP3 MUL PUSH2 0xD6F DUP2 PUSH2 0xA14 JUMP JUMPDEST SWAP2 POP DUP3 DUP3 DIV DUP5 EQ DUP4 ISZERO OR PUSH2 0xD86 JUMPI PUSH2 0xD85 PUSH2 0xB86 JUMP JUMPDEST JUMPDEST POP SWAP3 SWAP2 POP POP JUMP JUMPDEST PUSH0 PUSH1 0x20 DUP3 ADD SWAP1 POP PUSH2 0xDA0 PUSH0 DUP4 ADD DUP5 PUSH2 0xBE6 JUMP JUMPDEST SWAP3 SWAP2 POP POP JUMP JUMPDEST PUSH0 DUP2 MLOAD SWAP1 POP PUSH2 0xDB4 DUP2 PUSH2 0xA45 JUMP JUMPDEST SWAP3 SWAP2 POP POP JUMP JUMPDEST PUSH0 PUSH1 0x20 DUP3 DUP5 SUB SLT ISZERO PUSH2 0xDCF JUMPI PUSH2 0xDCE PUSH2 0x98B JUMP JUMPDEST JUMPDEST PUSH0 PUSH2 0xDDC DUP5 DUP3 DUP6 ADD PUSH2 0xDA6 JUMP JUMPDEST SWAP2 POP POP SWAP3 SWAP2 POP POP JUMP INVALID LOG2 PUSH5 0x6970667358 0x22 SLT KECCAK256 XOR 0x4B 0x2E PUSH29 0x4820C576F5AD292732E3F3DCFE40E2039FBCCB2F33E5B53CE747F4BD64 PUSH20 0x6F6C634300081A00330000000000000000000000 "
				},
				"gasEstimates": {
					"creation": {
						"codeDepositCost": "722200",
						"executionCost": "infinite",
						"totalCost": "infinite"
					},
					"external": {
						"balanceOf(address)": "2829",
						"calculateReward(address)": "infinite",
						"claimRewards()": "infinite",
						"getTotalRewards()": "infinite",
						"lpToken()": "infinite",
						"rewardRate()": "2447",
						"rewardToken()": "infinite",
						"rewards(address)": "2803",
						"stake(uint256)": "infinite",
						"stakedBalances(address)": "2825",
						"unstake(uint256)": "infinite"
					}
				},
				"methodIdentifiers": {
					"balanceOf(address)": "70a08231",
					"calculateReward(address)": "d82e3962",
					"claimRewards()": "372500ab",
					"getTotalRewards()": "e627f2db",
					"lpToken()": "5fcbd285",
					"rewardRate()": "7b0a47ee",
					"rewardToken()": "f7c618c1",
					"rewards(address)": "0700037d",
					"stake(uint256)": "a694fc3a",
					"stakedBalances(address)": "1460fa87",
					"unstake(uint256)": "2e17de78"
				}
			},
			"storageLayout": {
				"storage": [
					{
						"astId": 88,
						"contract": "contracts/CustomStaking.sol:CustomStaking",
						"label": "_status",
						"offset": 0,
						"slot": "0",
						"type": "t_uint256"
					},
					{
						"astId": 155,
						"contract": "contracts/CustomStaking.sol:CustomStaking",
						"label": "lpToken",
						"offset": 0,
						"slot": "1",
						"type": "t_contract(IERC20)77"
					},
					{
						"astId": 158,
						"contract": "contracts/CustomStaking.sol:CustomStaking",
						"label": "rewardToken",
						"offset": 0,
						"slot": "2",
						"type": "t_contract(IERC20)77"
					},
					{
						"astId": 161,
						"contract": "contracts/CustomStaking.sol:CustomStaking",
						"label": "rewardRate",
						"offset": 0,
						"slot": "3",
						"type": "t_uint256"
					},
					{
						"astId": 165,
						"contract": "contracts/CustomStaking.sol:CustomStaking",
						"label": "stakedBalances",
						"offset": 0,
						"slot": "4",
						"type": "t_mapping(t_address,t_uint256)"
					},
					{
						"astId": 169,
						"contract": "contracts/CustomStaking.sol:CustomStaking",
						"label": "rewards",
						"offset": 0,
						"slot": "5",
						"type": "t_mapping(t_address,t_uint256)"
					}
				],
				"types": {
					"t_address": {
						"encoding": "inplace",
						"label": "address",
						"numberOfBytes": "20"
					},
					"t_contract(IERC20)77": {
						"encoding": "inplace",
						"label": "contract IERC20",
						"numberOfBytes": "20"
					},
					"t_mapping(t_address,t_uint256)": {
						"encoding": "mapping",
						"key": "t_address",
						"label": "mapping(address => uint256)",
						"numberOfBytes": "32",
						"value": "t_uint256"
					},
					"t_uint256": {
						"encoding": "inplace",
						"label": "uint256",
						"numberOfBytes": "32"
					}
				}
			},
			"userdoc": {
				"kind": "user",
				"methods": {},
				"version": 1
			}
		}
	}
}