{
	"contracts/ERC4626Vault.sol": {
		"ERC4626Vault": {
			"abi": [
				{
					"inputs": [
						{
							"internalType": "address",
							"name": "_token0",
							"type": "address"
						},
						{
							"internalType": "address",
							"name": "_token1",
							"type": "address"
						}
					],
					"stateMutability": "nonpayable",
					"type": "constructor"
				},
				{
					"inputs": [
						{
							"internalType": "address",
							"name": "target",
							"type": "address"
						}
					],
					"name": "AddressEmptyCode",
					"type": "error"
				},
				{
					"inputs": [
						{
							"internalType": "address",
							"name": "account",
							"type": "address"
						}
					],
					"name": "AddressInsufficientBalance",
					"type": "error"
				},
				{
					"inputs": [
						{
							"internalType": "address",
							"name": "spender",
							"type": "address"
						},
						{
							"internalType": "uint256",
							"name": "allowance",
							"type": "uint256"
						},
						{
							"internalType": "uint256",
							"name": "needed",
							"type": "uint256"
						}
					],
					"name": "ERC20InsufficientAllowance",
					"type": "error"
				},
				{
					"inputs": [
						{
							"internalType": "address",
							"name": "sender",
							"type": "address"
						},
						{
							"internalType": "uint256",
							"name": "balance",
							"type": "uint256"
						},
						{
							"internalType": "uint256",
							"name": "needed",
							"type": "uint256"
						}
					],
					"name": "ERC20InsufficientBalance",
					"type": "error"
				},
				{
					"inputs": [
						{
							"internalType": "address",
							"name": "approver",
							"type": "address"
						}
					],
					"name": "ERC20InvalidApprover",
					"type": "error"
				},
				{
					"inputs": [
						{
							"internalType": "address",
							"name": "receiver",
							"type": "address"
						}
					],
					"name": "ERC20InvalidReceiver",
					"type": "error"
				},
				{
					"inputs": [
						{
							"internalType": "address",
							"name": "sender",
							"type": "address"
						}
					],
					"name": "ERC20InvalidSender",
					"type": "error"
				},
				{
					"inputs": [
						{
							"internalType": "address",
							"name": "spender",
							"type": "address"
						}
					],
					"name": "ERC20InvalidSpender",
					"type": "error"
				},
				{
					"inputs": [],
					"name": "FailedInnerCall",
					"type": "error"
				},
				{
					"inputs": [],
					"name": "ReentrancyGuardReentrantCall",
					"type": "error"
				},
				{
					"inputs": [
						{
							"internalType": "address",
							"name": "token",
							"type": "address"
						}
					],
					"name": "SafeERC20FailedOperation",
					"type": "error"
				},
				{
					"anonymous": false,
					"inputs": [
						{
							"indexed": true,
							"internalType": "address",
							"name": "owner",
							"type": "address"
						},
						{
							"indexed": true,
							"internalType": "address",
							"name": "spender",
							"type": "address"
						},
						{
							"indexed": false,
							"internalType": "uint256",
							"name": "value",
							"type": "uint256"
						}
					],
					"name": "Approval",
					"type": "event"
				},
				{
					"anonymous": false,
					"inputs": [
						{
							"indexed": true,
							"internalType": "address",
							"name": "user",
							"type": "address"
						},
						{
							"indexed": false,
							"internalType": "uint256",
							"name": "amount0",
							"type": "uint256"
						},
						{
							"indexed": false,
							"internalType": "uint256",
							"name": "amount1",
							"type": "uint256"
						},
						{
							"indexed": false,
							"internalType": "uint256",
							"name": "shares",
							"type": "uint256"
						}
					],
					"name": "Deposit",
					"type": "event"
				},
				{
					"anonymous": false,
					"inputs": [
						{
							"indexed": true,
							"internalType": "address",
							"name": "from",
							"type": "address"
						},
						{
							"indexed": true,
							"internalType": "address",
							"name": "to",
							"type": "address"
						},
						{
							"indexed": false,
							"internalType": "uint256",
							"name": "value",
							"type": "uint256"
						}
					],
					"name": "Transfer",
					"type": "event"
				},
				{
					"anonymous": false,
					"inputs": [
						{
							"indexed": true,
							"internalType": "address",
							"name": "user",
							"type": "address"
						},
						{
							"indexed": false,
							"internalType": "uint256",
							"name": "shares",
							"type": "uint256"
						},
						{
							"indexed": false,
							"internalType": "uint256",
							"name": "amount0",
							"type": "uint256"
						},
						{
							"indexed": false,
							"internalType": "uint256",
							"name": "amount1",
							"type": "uint256"
						}
					],
					"name": "Withdraw",
					"type": "event"
				},
				{
					"inputs": [
						{
							"internalType": "address",
							"name": "owner",
							"type": "address"
						},
						{
							"internalType": "address",
							"name": "spender",
							"type": "address"
						}
					],
					"name": "allowance",
					"outputs": [
						{
							"internalType": "uint256",
							"name": "",
							"type": "uint256"
						}
					],
					"stateMutability": "view",
					"type": "function"
				},
				{
					"inputs": [
						{
							"internalType": "address",
							"name": "spender",
							"type": "address"
						},
						{
							"internalType": "uint256",
							"name": "value",
							"type": "uint256"
						}
					],
					"name": "approve",
					"outputs": [
						{
							"internalType": "bool",
							"name": "",
							"type": "bool"
						}
					],
					"stateMutability": "nonpayable",
					"type": "function"
				},
				{
					"inputs": [
						{
							"internalType": "address",
							"name": "account",
							"type": "address"
						}
					],
					"name": "balanceOf",
					"outputs": [
						{
							"internalType": "uint256",
							"name": "",
							"type": "uint256"
						}
					],
					"stateMutability": "view",
					"type": "function"
				},
				{
					"inputs": [],
					"name": "decimals",
					"outputs": [
						{
							"internalType": "uint8",
							"name": "",
							"type": "uint8"
						}
					],
					"stateMutability": "view",
					"type": "function"
				},
				{
					"inputs": [
						{
							"internalType": "uint256",
							"name": "amount0",
							"type": "uint256"
						},
						{
							"internalType": "uint256",
							"name": "amount1",
							"type": "uint256"
						}
					],
					"name": "deposit",
					"outputs": [
						{
							"internalType": "uint256",
							"name": "shares",
							"type": "uint256"
						}
					],
					"stateMutability": "nonpayable",
					"type": "function"
				},
				{
					"inputs": [],
					"name": "name",
					"outputs": [
						{
							"internalType": "string",
							"name": "",
							"type": "string"
						}
					],
					"stateMutability": "view",
					"type": "function"
				},
				{
					"inputs": [],
					"name": "symbol",
					"outputs": [
						{
							"internalType": "string",
							"name": "",
							"type": "string"
						}
					],
					"stateMutability": "view",
					"type": "function"
				},
				{
					"inputs": [],
					"name": "token0",
					"outputs": [
						{
							"internalType": "contract IERC20",
							"name": "",
							"type": "address"
						}
					],
					"stateMutability": "view",
					"type": "function"
				},
				{
					"inputs": [],
					"name": "token1",
					"outputs": [
						{
							"internalType": "contract IERC20",
							"name": "",
							"type": "address"
						}
					],
					"stateMutability": "view",
					"type": "function"
				},
				{
					"inputs": [],
					"name": "totalAssets",
					"outputs": [
						{
							"internalType": "uint256",
							"name": "total0",
							"type": "uint256"
						},
						{
							"internalType": "uint256",
							"name": "total1",
							"type": "uint256"
						}
					],
					"stateMutability": "view",
					"type": "function"
				},
				{
					"inputs": [],
					"name": "totalAssets0",
					"outputs": [
						{
							"internalType": "uint256",
							"name": "",
							"type": "uint256"
						}
					],
					"stateMutability": "view",
					"type": "function"
				},
				{
					"inputs": [],
					"name": "totalAssets1",
					"outputs": [
						{
							"internalType": "uint256",
							"name": "",
							"type": "uint256"
						}
					],
					"stateMutability": "view",
					"type": "function"
				},
				{
					"inputs": [],
					"name": "totalSupply",
					"outputs": [
						{
							"internalType": "uint256",
							"name": "",
							"type": "uint256"
						}
					],
					"stateMutability": "view",
					"type": "function"
				},
				{
					"inputs": [
						{
							"internalType": "address",
							"name": "to",
							"type": "address"
						},
						{
							"internalType": "uint256",
							"name": "value",
							"type": "uint256"
						}
					],
					"name": "transfer",
					"outputs": [
						{
							"internalType": "bool",
							"name": "",
							"type": "bool"
						}
					],
					"stateMutability": "nonpayable",
					"type": "function"
				},
				{
					"inputs": [
						{
							"internalType": "address",
							"name": "from",
							"type": "address"
						},
						{
							"internalType": "address",
							"name": "to",
							"type": "address"
						},
						{
							"internalType": "uint256",
							"name": "value",
							"type": "uint256"
						}
					],
					"name": "transferFrom",
					"outputs": [
						{
							"internalType": "bool",
							"name": "",
							"type": "bool"
						}
					],
					"stateMutability": "nonpayable",
					"type": "function"
				},
				{
					"inputs": [
						{
							"internalType": "uint256",
							"name": "shares",
							"type": "uint256"
						}
					],
					"name": "withdraw",
					"outputs": [
						{
							"internalType": "uint256",
							"name": "amount0",
							"type": "uint256"
						},
						{
							"internalType": "uint256",
							"name": "amount1",
							"type": "uint256"
						}
					],
					"stateMutability": "nonpayable",
					"type": "function"
				}
			],
			"devdoc": {
				"errors": {
					"AddressEmptyCode(address)": [
						{
							"details": "There's no code at `target` (it is not a contract)."
						}
					],
					"AddressInsufficientBalance(address)": [
						{
							"details": "The ETH balance of the account is not enough to perform the operation."
						}
					],
					"ERC20InsufficientAllowance(address,uint256,uint256)": [
						{
							"details": "Indicates a failure with the `spender`’s `allowance`. Used in transfers.",
							"params": {
								"allowance": "Amount of tokens a `spender` is allowed to operate with.",
								"needed": "Minimum amount required to perform a transfer.",
								"spender": "Address that may be allowed to operate on tokens without being their owner."
							}
						}
					],
					"ERC20InsufficientBalance(address,uint256,uint256)": [
						{
							"details": "Indicates an error related to the current `balance` of a `sender`. Used in transfers.",
							"params": {
								"balance": "Current balance for the interacting account.",
								"needed": "Minimum amount required to perform a transfer.",
								"sender": "Address whose tokens are being transferred."
							}
						}
					],
					"ERC20InvalidApprover(address)": [
						{
							"details": "Indicates a failure with the `approver` of a token to be approved. Used in approvals.",
							"params": {
								"approver": "Address initiating an approval operation."
							}
						}
					],
					"ERC20InvalidReceiver(address)": [
						{
							"details": "Indicates a failure with the token `receiver`. Used in transfers.",
							"params": {
								"receiver": "Address to which tokens are being transferred."
							}
						}
					],
					"ERC20InvalidSender(address)": [
						{
							"details": "Indicates a failure with the token `sender`. Used in transfers.",
							"params": {
								"sender": "Address whose tokens are being transferred."
							}
						}
					],
					"ERC20InvalidSpender(address)": [
						{
							"details": "Indicates a failure with the `spender` to be approved. Used in approvals.",
							"params": {
								"spender": "Address that may be allowed to operate on tokens without being their owner."
							}
						}
					],
					"FailedInnerCall()": [
						{
							"details": "A call to an address target failed. The target may have reverted."
						}
					],
					"ReentrancyGuardReentrantCall()": [
						{
							"details": "Unauthorized reentrant call."
						}
					],
					"SafeERC20FailedOperation(address)": [
						{
							"details": "An operation with an ERC20 token failed."
						}
					]
				},
				"events": {
					"Approval(address,address,uint256)": {
						"details": "Emitted when the allowance of a `spender` for an `owner` is set by a call to {approve}. `value` is the new allowance."
					},
					"Transfer(address,address,uint256)": {
						"details": "Emitted when `value` tokens are moved from one account (`from`) to another (`to`). Note that `value` may be zero."
					}
				},
				"kind": "dev",
				"methods": {
					"allowance(address,address)": {
						"details": "See {IERC20-allowance}."
					},
					"approve(address,uint256)": {
						"details": "See {IERC20-approve}. NOTE: If `value` is the maximum `uint256`, the allowance is not updated on `transferFrom`. This is semantically equivalent to an infinite approval. Requirements: - `spender` cannot be the zero address."
					},
					"balanceOf(address)": {
						"details": "See {IERC20-balanceOf}."
					},
					"decimals()": {
						"details": "Returns the number of decimals used to get its user representation. For example, if `decimals` equals `2`, a balance of `505` tokens should be displayed to a user as `5.05` (`505 / 10 ** 2`). Tokens usually opt for a value of 18, imitating the relationship between Ether and Wei. This is the default value returned by this function, unless it's overridden. NOTE: This information is only used for _display_ purposes: it in no way affects any of the arithmetic of the contract, including {IERC20-balanceOf} and {IERC20-transfer}."
					},
					"name()": {
						"details": "Returns the name of the token."
					},
					"symbol()": {
						"details": "Returns the symbol of the token, usually a shorter version of the name."
					},
					"totalSupply()": {
						"details": "See {IERC20-totalSupply}."
					},
					"transfer(address,uint256)": {
						"details": "See {IERC20-transfer}. Requirements: - `to` cannot be the zero address. - the caller must have a balance of at least `value`."
					},
					"transferFrom(address,address,uint256)": {
						"details": "See {IERC20-transferFrom}. Emits an {Approval} event indicating the updated allowance. This is not required by the EIP. See the note at the beginning of {ERC20}. NOTE: Does not update the allowance if the current allowance is the maximum `uint256`. Requirements: - `from` and `to` cannot be the zero address. - `from` must have a balance of at least `value`. - the caller must have allowance for ``from``'s tokens of at least `value`."
					}
				},
				"version": 1
			},
			"evm": {
				"assembly": "    /* \"contracts/ERC4626Vault.sol\":297:3524  contract ERC4626Vault is ERC20, ReentrancyGuard {... */\n  mstore(0x40, 0xc0)\n    /* \"contracts/ERC4626Vault.sol\":524:687  constructor(address _token0, address _token1) ERC20(\"ERC4626 Vault Token\", \"VAULT4626\") {... */\n  callvalue\n  dup1\n  iszero\n  tag_1\n  jumpi\n  0x00\n  dup1\n  revert\ntag_1:\n  pop\n  mload(0x40)\n  sub(codesize, bytecodeSize)\n  dup1\n  bytecodeSize\n  dup4\n  codecopy\n  dup2\n  dup2\n  add\n  0x40\n  mstore\n  dup2\n  add\n  swap1\n  tag_2\n  swap2\n  swap1\n  tag_3\n  jump\t// in\ntag_2:\n    /* \"@openzeppelin/contracts/token/ERC20/ERC20.sol\":1896:2009  constructor(string memory name_, string memory symbol_) {... */\n  mload(0x40)\n  dup1\n  0x40\n  add\n  0x40\n  mstore\n  dup1\n  0x13\n  dup2\n  mstore\n  0x20\n  add\n  0x45524334363236205661756c7420546f6b656e00000000000000000000000000\n  dup2\n  mstore\n  pop\n  mload(0x40)\n  dup1\n  0x40\n  add\n  0x40\n  mstore\n  dup1\n  0x09\n  dup2\n  mstore\n  0x20\n  add\n  0x5641554c54343632360000000000000000000000000000000000000000000000\n  dup2\n  mstore\n  pop\n    /* \"@openzeppelin/contracts/token/ERC20/ERC20.sol\":1970:1975  name_ */\n  dup2\n    /* \"@openzeppelin/contracts/token/ERC20/ERC20.sol\":1962:1967  _name */\n  0x03\n    /* \"@openzeppelin/contracts/token/ERC20/ERC20.sol\":1962:1975  _name = name_ */\n  swap1\n  dup2\n  tag_8\n  swap2\n  swap1\n  tag_9\n  jump\t// in\ntag_8:\n  pop\n    /* \"@openzeppelin/contracts/token/ERC20/ERC20.sol\":1995:2002  symbol_ */\n  dup1\n    /* \"@openzeppelin/contracts/token/ERC20/ERC20.sol\":1985:1992  _symbol */\n  0x04\n    /* \"@openzeppelin/contracts/token/ERC20/ERC20.sol\":1985:2002  _symbol = symbol_ */\n  swap1\n  dup2\n  tag_10\n  swap2\n  swap1\n  tag_9\n  jump\t// in\ntag_10:\n  pop\n    /* \"@openzeppelin/contracts/token/ERC20/ERC20.sol\":1896:2009  constructor(string memory name_, string memory symbol_) {... */\n  pop\n  pop\n    /* \"@openzeppelin/contracts/utils/ReentrancyGuard.sol\":1713:1714  1 */\n  0x01\n    /* \"@openzeppelin/contracts/utils/ReentrancyGuard.sol\":1917:1924  _status */\n  0x05\n    /* \"@openzeppelin/contracts/utils/ReentrancyGuard.sol\":1917:1938  _status = NOT_ENTERED */\n  dup2\n  swap1\n  sstore\n  pop\n    /* \"contracts/ERC4626Vault.sol\":638:645  _token0 */\n  dup2\n    /* \"contracts/ERC4626Vault.sol\":622:646  token0 = IERC20(_token0) */\n  0xffffffffffffffffffffffffffffffffffffffff\n  and\n  0x80\n  dup2\n  0xffffffffffffffffffffffffffffffffffffffff\n  and\n  dup2\n  mstore\n  pop\n  pop\n    /* \"contracts/ERC4626Vault.sol\":672:679  _token1 */\n  dup1\n    /* \"contracts/ERC4626Vault.sol\":656:680  token1 = IERC20(_token1) */\n  0xffffffffffffffffffffffffffffffffffffffff\n  and\n  0xa0\n  dup2\n  0xffffffffffffffffffffffffffffffffffffffff\n  and\n  dup2\n  mstore\n  pop\n  pop\n    /* \"contracts/ERC4626Vault.sol\":524:687  constructor(address _token0, address _token1) ERC20(\"ERC4626 Vault Token\", \"VAULT4626\") {... */\n  pop\n  pop\n    /* \"contracts/ERC4626Vault.sol\":297:3524  contract ERC4626Vault is ERC20, ReentrancyGuard {... */\n  jump(tag_13)\n    /* \"#utility.yul\":88:205   */\ntag_15:\n    /* \"#utility.yul\":197:198   */\n  0x00\n    /* \"#utility.yul\":194:195   */\n  dup1\n    /* \"#utility.yul\":187:199   */\n  revert\n    /* \"#utility.yul\":334:460   */\ntag_17:\n    /* \"#utility.yul\":371:378   */\n  0x00\n    /* \"#utility.yul\":411:453   */\n  0xffffffffffffffffffffffffffffffffffffffff\n    /* \"#utility.yul\":404:409   */\n  dup3\n    /* \"#utility.yul\":400:454   */\n  and\n    /* \"#utility.yul\":389:454   */\n  swap1\n  pop\n    /* \"#utility.yul\":334:460   */\n  swap2\n  swap1\n  pop\n  jump\t// out\n    /* \"#utility.yul\":466:562   */\ntag_18:\n    /* \"#utility.yul\":503:510   */\n  0x00\n    /* \"#utility.yul\":532:556   */\n  tag_47\n    /* \"#utility.yul\":550:555   */\n  dup3\n    /* \"#utility.yul\":532:556   */\n  tag_17\n  jump\t// in\ntag_47:\n    /* \"#utility.yul\":521:556   */\n  swap1\n  pop\n    /* \"#utility.yul\":466:562   */\n  swap2\n  swap1\n  pop\n  jump\t// out\n    /* \"#utility.yul\":568:690   */\ntag_19:\n    /* \"#utility.yul\":641:665   */\n  tag_49\n    /* \"#utility.yul\":659:664   */\n  dup2\n    /* \"#utility.yul\":641:665   */\n  tag_18\n  jump\t// in\ntag_49:\n    /* \"#utility.yul\":634:639   */\n  dup2\n    /* \"#utility.yul\":631:666   */\n  eq\n    /* \"#utility.yul\":621:684   */\n  tag_50\n  jumpi\n    /* \"#utility.yul\":680:681   */\n  0x00\n    /* \"#utility.yul\":677:678   */\n  dup1\n    /* \"#utility.yul\":670:682   */\n  revert\n    /* \"#utility.yul\":621:684   */\ntag_50:\n    /* \"#utility.yul\":568:690   */\n  pop\n  jump\t// out\n    /* \"#utility.yul\":696:839   */\ntag_20:\n    /* \"#utility.yul\":753:758   */\n  0x00\n    /* \"#utility.yul\":784:790   */\n  dup2\n    /* \"#utility.yul\":778:791   */\n  mload\n    /* \"#utility.yul\":769:791   */\n  swap1\n  pop\n    /* \"#utility.yul\":800:833   */\n  tag_52\n    /* \"#utility.yul\":827:832   */\n  dup2\n    /* \"#utility.yul\":800:833   */\n  tag_19\n  jump\t// in\ntag_52:\n    /* \"#utility.yul\":696:839   */\n  swap3\n  swap2\n  pop\n  pop\n  jump\t// out\n    /* \"#utility.yul\":845:1352   */\ntag_3:\n    /* \"#utility.yul\":924:930   */\n  0x00\n    /* \"#utility.yul\":932:938   */\n  dup1\n    /* \"#utility.yul\":981:983   */\n  0x40\n    /* \"#utility.yul\":969:978   */\n  dup4\n    /* \"#utility.yul\":960:967   */\n  dup6\n    /* \"#utility.yul\":956:979   */\n  sub\n    /* \"#utility.yul\":952:984   */\n  slt\n    /* \"#utility.yul\":949:1068   */\n  iszero\n  tag_54\n  jumpi\n    /* \"#utility.yul\":987:1066   */\n  tag_55\n  tag_15\n  jump\t// in\ntag_55:\n    /* \"#utility.yul\":949:1068   */\ntag_54:\n    /* \"#utility.yul\":1107:1108   */\n  0x00\n    /* \"#utility.yul\":1132:1196   */\n  tag_56\n    /* \"#utility.yul\":1188:1195   */\n  dup6\n    /* \"#utility.yul\":1179:1185   */\n  dup3\n    /* \"#utility.yul\":1168:1177   */\n  dup7\n    /* \"#utility.yul\":1164:1186   */\n  add\n    /* \"#utility.yul\":1132:1196   */\n  tag_20\n  jump\t// in\ntag_56:\n    /* \"#utility.yul\":1122:1196   */\n  swap3\n  pop\n    /* \"#utility.yul\":1078:1206   */\n  pop\n    /* \"#utility.yul\":1245:1247   */\n  0x20\n    /* \"#utility.yul\":1271:1335   */\n  tag_57\n    /* \"#utility.yul\":1327:1334   */\n  dup6\n    /* \"#utility.yul\":1318:1324   */\n  dup3\n    /* \"#utility.yul\":1307:1316   */\n  dup7\n    /* \"#utility.yul\":1303:1325   */\n  add\n    /* \"#utility.yul\":1271:1335   */\n  tag_20\n  jump\t// in\ntag_57:\n    /* \"#utility.yul\":1261:1335   */\n  swap2\n  pop\n    /* \"#utility.yul\":1216:1345   */\n  pop\n    /* \"#utility.yul\":845:1352   */\n  swap3\n  pop\n  swap3\n  swap1\n  pop\n  jump\t// out\n    /* \"#utility.yul\":1358:1457   */\ntag_21:\n    /* \"#utility.yul\":1410:1416   */\n  0x00\n    /* \"#utility.yul\":1444:1449   */\n  dup2\n    /* \"#utility.yul\":1438:1450   */\n  mload\n    /* \"#utility.yul\":1428:1450   */\n  swap1\n  pop\n    /* \"#utility.yul\":1358:1457   */\n  swap2\n  swap1\n  pop\n  jump\t// out\n    /* \"#utility.yul\":1463:1643   */\ntag_22:\n    /* \"#utility.yul\":1511:1588   */\n  0x4e487b7100000000000000000000000000000000000000000000000000000000\n    /* \"#utility.yul\":1508:1509   */\n  0x00\n    /* \"#utility.yul\":1501:1589   */\n  mstore\n    /* \"#utility.yul\":1608:1612   */\n  0x41\n    /* \"#utility.yul\":1605:1606   */\n  0x04\n    /* \"#utility.yul\":1598:1613   */\n  mstore\n    /* \"#utility.yul\":1632:1636   */\n  0x24\n    /* \"#utility.yul\":1629:1630   */\n  0x00\n    /* \"#utility.yul\":1622:1637   */\n  revert\n    /* \"#utility.yul\":1649:1829   */\ntag_23:\n    /* \"#utility.yul\":1697:1774   */\n  0x4e487b7100000000000000000000000000000000000000000000000000000000\n    /* \"#utility.yul\":1694:1695   */\n  0x00\n    /* \"#utility.yul\":1687:1775   */\n  mstore\n    /* \"#utility.yul\":1794:1798   */\n  0x22\n    /* \"#utility.yul\":1791:1792   */\n  0x04\n    /* \"#utility.yul\":1784:1799   */\n  mstore\n    /* \"#utility.yul\":1818:1822   */\n  0x24\n    /* \"#utility.yul\":1815:1816   */\n  0x00\n    /* \"#utility.yul\":1808:1823   */\n  revert\n    /* \"#utility.yul\":1835:2155   */\ntag_24:\n    /* \"#utility.yul\":1879:1885   */\n  0x00\n    /* \"#utility.yul\":1916:1917   */\n  0x02\n    /* \"#utility.yul\":1910:1914   */\n  dup3\n    /* \"#utility.yul\":1906:1918   */\n  div\n    /* \"#utility.yul\":1896:1918   */\n  swap1\n  pop\n    /* \"#utility.yul\":1963:1964   */\n  0x01\n    /* \"#utility.yul\":1957:1961   */\n  dup3\n    /* \"#utility.yul\":1953:1965   */\n  and\n    /* \"#utility.yul\":1984:2002   */\n  dup1\n    /* \"#utility.yul\":1974:2055   */\n  tag_62\n  jumpi\n    /* \"#utility.yul\":2040:2044   */\n  0x7f\n    /* \"#utility.yul\":2032:2038   */\n  dup3\n    /* \"#utility.yul\":2028:2045   */\n  and\n    /* \"#utility.yul\":2018:2045   */\n  swap2\n  pop\n    /* \"#utility.yul\":1974:2055   */\ntag_62:\n    /* \"#utility.yul\":2102:2104   */\n  0x20\n    /* \"#utility.yul\":2094:2100   */\n  dup3\n    /* \"#utility.yul\":2091:2105   */\n  lt\n    /* \"#utility.yul\":2071:2089   */\n  dup2\n    /* \"#utility.yul\":2068:2106   */\n  sub\n    /* \"#utility.yul\":2065:2149   */\n  tag_63\n  jumpi\n    /* \"#utility.yul\":2121:2139   */\n  tag_64\n  tag_23\n  jump\t// in\ntag_64:\n    /* \"#utility.yul\":2065:2149   */\ntag_63:\n    /* \"#utility.yul\":1886:2155   */\n  pop\n    /* \"#utility.yul\":1835:2155   */\n  swap2\n  swap1\n  pop\n  jump\t// out\n    /* \"#utility.yul\":2161:2302   */\ntag_25:\n    /* \"#utility.yul\":2210:2214   */\n  0x00\n    /* \"#utility.yul\":2233:2236   */\n  dup2\n    /* \"#utility.yul\":2225:2236   */\n  swap1\n  pop\n    /* \"#utility.yul\":2256:2259   */\n  dup2\n    /* \"#utility.yul\":2253:2254   */\n  0x00\n    /* \"#utility.yul\":2246:2260   */\n  mstore\n    /* \"#utility.yul\":2290:2294   */\n  0x20\n    /* \"#utility.yul\":2287:2288   */\n  0x00\n    /* \"#utility.yul\":2277:2295   */\n  keccak256\n    /* \"#utility.yul\":2269:2295   */\n  swap1\n  pop\n    /* \"#utility.yul\":2161:2302   */\n  swap2\n  swap1\n  pop\n  jump\t// out\n    /* \"#utility.yul\":2308:2401   */\ntag_26:\n    /* \"#utility.yul\":2345:2351   */\n  0x00\n    /* \"#utility.yul\":2392:2394   */\n  0x20\n    /* \"#utility.yul\":2387:2389   */\n  0x1f\n    /* \"#utility.yul\":2380:2385   */\n  dup4\n    /* \"#utility.yul\":2376:2390   */\n  add\n    /* \"#utility.yul\":2372:2395   */\n  div\n    /* \"#utility.yul\":2362:2395   */\n  swap1\n  pop\n    /* \"#utility.yul\":2308:2401   */\n  swap2\n  swap1\n  pop\n  jump\t// out\n    /* \"#utility.yul\":2407:2514   */\ntag_27:\n    /* \"#utility.yul\":2451:2459   */\n  0x00\n    /* \"#utility.yul\":2501:2506   */\n  dup3\n    /* \"#utility.yul\":2495:2499   */\n  dup3\n    /* \"#utility.yul\":2491:2507   */\n  shl\n    /* \"#utility.yul\":2470:2507   */\n  swap1\n  pop\n    /* \"#utility.yul\":2407:2514   */\n  swap3\n  swap2\n  pop\n  pop\n  jump\t// out\n    /* \"#utility.yul\":2520:2913   */\ntag_28:\n    /* \"#utility.yul\":2589:2595   */\n  0x00\n    /* \"#utility.yul\":2639:2640   */\n  0x08\n    /* \"#utility.yul\":2627:2637   */\n  dup4\n    /* \"#utility.yul\":2623:2641   */\n  mul\n    /* \"#utility.yul\":2662:2759   */\n  tag_69\n    /* \"#utility.yul\":2692:2758   */\n  0xffffffffffffffffffffffffffffffffffffffffffffffffffffffffffffffff\n    /* \"#utility.yul\":2681:2690   */\n  dup3\n    /* \"#utility.yul\":2662:2759   */\n  tag_27\n  jump\t// in\ntag_69:\n    /* \"#utility.yul\":2780:2819   */\n  tag_70\n    /* \"#utility.yul\":2810:2818   */\n  dup7\n    /* \"#utility.yul\":2799:2808   */\n  dup4\n    /* \"#utility.yul\":2780:2819   */\n  tag_27\n  jump\t// in\ntag_70:\n    /* \"#utility.yul\":2768:2819   */\n  swap6\n  pop\n    /* \"#utility.yul\":2852:2856   */\n  dup1\n    /* \"#utility.yul\":2848:2857   */\n  not\n    /* \"#utility.yul\":2841:2846   */\n  dup5\n    /* \"#utility.yul\":2837:2858   */\n  and\n    /* \"#utility.yul\":2828:2858   */\n  swap4\n  pop\n    /* \"#utility.yul\":2901:2905   */\n  dup1\n    /* \"#utility.yul\":2891:2899   */\n  dup7\n    /* \"#utility.yul\":2887:2906   */\n  and\n    /* \"#utility.yul\":2880:2885   */\n  dup5\n    /* \"#utility.yul\":2877:2907   */\n  or\n    /* \"#utility.yul\":2867:2907   */\n  swap3\n  pop\n    /* \"#utility.yul\":2596:2913   */\n  pop\n  pop\n    /* \"#utility.yul\":2520:2913   */\n  swap4\n  swap3\n  pop\n  pop\n  pop\n  jump\t// out\n    /* \"#utility.yul\":2919:2996   */\ntag_29:\n    /* \"#utility.yul\":2956:2963   */\n  0x00\n    /* \"#utility.yul\":2985:2990   */\n  dup2\n    /* \"#utility.yul\":2974:2990   */\n  swap1\n  pop\n    /* \"#utility.yul\":2919:2996   */\n  swap2\n  swap1\n  pop\n  jump\t// out\n    /* \"#utility.yul\":3002:3062   */\ntag_30:\n    /* \"#utility.yul\":3030:3033   */\n  0x00\n    /* \"#utility.yul\":3051:3056   */\n  dup2\n    /* \"#utility.yul\":3044:3056   */\n  swap1\n  pop\n    /* \"#utility.yul\":3002:3062   */\n  swap2\n  swap1\n  pop\n  jump\t// out\n    /* \"#utility.yul\":3068:3210   */\ntag_31:\n    /* \"#utility.yul\":3118:3127   */\n  0x00\n    /* \"#utility.yul\":3151:3204   */\n  tag_74\n    /* \"#utility.yul\":3169:3203   */\n  tag_75\n    /* \"#utility.yul\":3178:3202   */\n  tag_76\n    /* \"#utility.yul\":3196:3201   */\n  dup5\n    /* \"#utility.yul\":3178:3202   */\n  tag_29\n  jump\t// in\ntag_76:\n    /* \"#utility.yul\":3169:3203   */\n  tag_30\n  jump\t// in\ntag_75:\n    /* \"#utility.yul\":3151:3204   */\n  tag_29\n  jump\t// in\ntag_74:\n    /* \"#utility.yul\":3138:3204   */\n  swap1\n  pop\n    /* \"#utility.yul\":3068:3210   */\n  swap2\n  swap1\n  pop\n  jump\t// out\n    /* \"#utility.yul\":3216:3291   */\ntag_32:\n    /* \"#utility.yul\":3259:3262   */\n  0x00\n    /* \"#utility.yul\":3280:3285   */\n  dup2\n    /* \"#utility.yul\":3273:3285   */\n  swap1\n  pop\n    /* \"#utility.yul\":3216:3291   */\n  swap2\n  swap1\n  pop\n  jump\t// out\n    /* \"#utility.yul\":3297:3566   */\ntag_33:\n    /* \"#utility.yul\":3407:3446   */\n  tag_79\n    /* \"#utility.yul\":3438:3445   */\n  dup4\n    /* \"#utility.yul\":3407:3446   */\n  tag_31\n  jump\t// in\ntag_79:\n    /* \"#utility.yul\":3468:3559   */\n  tag_80\n    /* \"#utility.yul\":3517:3558   */\n  tag_81\n    /* \"#utility.yul\":3541:3557   */\n  dup3\n    /* \"#utility.yul\":3517:3558   */\n  tag_32\n  jump\t// in\ntag_81:\n    /* \"#utility.yul\":3509:3515   */\n  dup5\n    /* \"#utility.yul\":3502:3506   */\n  dup5\n    /* \"#utility.yul\":3496:3507   */\n  sload\n    /* \"#utility.yul\":3468:3559   */\n  tag_28\n  jump\t// in\ntag_80:\n    /* \"#utility.yul\":3462:3466   */\n  dup3\n    /* \"#utility.yul\":3455:3560   */\n  sstore\n    /* \"#utility.yul\":3373:3566   */\n  pop\n    /* \"#utility.yul\":3297:3566   */\n  pop\n  pop\n  pop\n  jump\t// out\n    /* \"#utility.yul\":3572:3645   */\ntag_34:\n    /* \"#utility.yul\":3617:3620   */\n  0x00\n    /* \"#utility.yul\":3572:3645   */\n  swap1\n  jump\t// out\n    /* \"#utility.yul\":3651:3840   */\ntag_35:\n    /* \"#utility.yul\":3728:3760   */\n  tag_84\n  tag_34\n  jump\t// in\ntag_84:\n    /* \"#utility.yul\":3769:3834   */\n  tag_85\n    /* \"#utility.yul\":3827:3833   */\n  dup2\n    /* \"#utility.yul\":3819:3825   */\n  dup5\n    /* \"#utility.yul\":3813:3817   */\n  dup5\n    /* \"#utility.yul\":3769:3834   */\n  tag_33\n  jump\t// in\ntag_85:\n    /* \"#utility.yul\":3704:3840   */\n  pop\n    /* \"#utility.yul\":3651:3840   */\n  pop\n  pop\n  jump\t// out\n    /* \"#utility.yul\":3846:4032   */\ntag_36:\n    /* \"#utility.yul\":3906:4026   */\ntag_87:\n    /* \"#utility.yul\":3923:3926   */\n  dup2\n    /* \"#utility.yul\":3916:3921   */\n  dup2\n    /* \"#utility.yul\":3913:3927   */\n  lt\n    /* \"#utility.yul\":3906:4026   */\n  iszero\n  tag_89\n  jumpi\n    /* \"#utility.yul\":3977:4016   */\n  tag_90\n    /* \"#utility.yul\":4014:4015   */\n  0x00\n    /* \"#utility.yul\":4007:4012   */\n  dup3\n    /* \"#utility.yul\":3977:4016   */\n  tag_35\n  jump\t// in\ntag_90:\n    /* \"#utility.yul\":3950:3951   */\n  0x01\n    /* \"#utility.yul\":3943:3948   */\n  dup2\n    /* \"#utility.yul\":3939:3952   */\n  add\n    /* \"#utility.yul\":3930:3952   */\n  swap1\n  pop\n    /* \"#utility.yul\":3906:4026   */\n  jump(tag_87)\ntag_89:\n    /* \"#utility.yul\":3846:4032   */\n  pop\n  pop\n  jump\t// out\n    /* \"#utility.yul\":4038:4581   */\ntag_37:\n    /* \"#utility.yul\":4139:4141   */\n  0x1f\n    /* \"#utility.yul\":4134:4137   */\n  dup3\n    /* \"#utility.yul\":4131:4142   */\n  gt\n    /* \"#utility.yul\":4128:4574   */\n  iszero\n  tag_92\n  jumpi\n    /* \"#utility.yul\":4173:4211   */\n  tag_93\n    /* \"#utility.yul\":4205:4210   */\n  dup2\n    /* \"#utility.yul\":4173:4211   */\n  tag_25\n  jump\t// in\ntag_93:\n    /* \"#utility.yul\":4257:4286   */\n  tag_94\n    /* \"#utility.yul\":4275:4285   */\n  dup5\n    /* \"#utility.yul\":4257:4286   */\n  tag_26\n  jump\t// in\ntag_94:\n    /* \"#utility.yul\":4247:4255   */\n  dup2\n    /* \"#utility.yul\":4243:4287   */\n  add\n    /* \"#utility.yul\":4440:4442   */\n  0x20\n    /* \"#utility.yul\":4428:4438   */\n  dup6\n    /* \"#utility.yul\":4425:4443   */\n  lt\n    /* \"#utility.yul\":4422:4471   */\n  iszero\n  tag_95\n  jumpi\n    /* \"#utility.yul\":4461:4469   */\n  dup2\n    /* \"#utility.yul\":4446:4469   */\n  swap1\n  pop\n    /* \"#utility.yul\":4422:4471   */\ntag_95:\n    /* \"#utility.yul\":4484:4564   */\n  tag_96\n    /* \"#utility.yul\":4540:4562   */\n  tag_97\n    /* \"#utility.yul\":4558:4561   */\n  dup6\n    /* \"#utility.yul\":4540:4562   */\n  tag_26\n  jump\t// in\ntag_97:\n    /* \"#utility.yul\":4530:4538   */\n  dup4\n    /* \"#utility.yul\":4526:4563   */\n  add\n    /* \"#utility.yul\":4513:4524   */\n  dup3\n    /* \"#utility.yul\":4484:4564   */\n  tag_36\n  jump\t// in\ntag_96:\n    /* \"#utility.yul\":4143:4574   */\n  pop\n  pop\n    /* \"#utility.yul\":4128:4574   */\ntag_92:\n    /* \"#utility.yul\":4038:4581   */\n  pop\n  pop\n  pop\n  jump\t// out\n    /* \"#utility.yul\":4587:4704   */\ntag_38:\n    /* \"#utility.yul\":4641:4649   */\n  0x00\n    /* \"#utility.yul\":4691:4696   */\n  dup3\n    /* \"#utility.yul\":4685:4689   */\n  dup3\n    /* \"#utility.yul\":4681:4697   */\n  shr\n    /* \"#utility.yul\":4660:4697   */\n  swap1\n  pop\n    /* \"#utility.yul\":4587:4704   */\n  swap3\n  swap2\n  pop\n  pop\n  jump\t// out\n    /* \"#utility.yul\":4710:4879   */\ntag_39:\n    /* \"#utility.yul\":4754:4760   */\n  0x00\n    /* \"#utility.yul\":4787:4838   */\n  tag_100\n    /* \"#utility.yul\":4835:4836   */\n  0x00\n    /* \"#utility.yul\":4831:4837   */\n  not\n    /* \"#utility.yul\":4823:4828   */\n  dup5\n    /* \"#utility.yul\":4820:4821   */\n  0x08\n    /* \"#utility.yul\":4816:4829   */\n  mul\n    /* \"#utility.yul\":4787:4838   */\n  tag_38\n  jump\t// in\ntag_100:\n    /* \"#utility.yul\":4783:4839   */\n  not\n    /* \"#utility.yul\":4868:4872   */\n  dup1\n    /* \"#utility.yul\":4862:4866   */\n  dup4\n    /* \"#utility.yul\":4858:4873   */\n  and\n    /* \"#utility.yul\":4848:4873   */\n  swap2\n  pop\n    /* \"#utility.yul\":4761:4879   */\n  pop\n    /* \"#utility.yul\":4710:4879   */\n  swap3\n  swap2\n  pop\n  pop\n  jump\t// out\n    /* \"#utility.yul\":4884:5179   */\ntag_40:\n    /* \"#utility.yul\":4960:4964   */\n  0x00\n    /* \"#utility.yul\":5106:5135   */\n  tag_102\n    /* \"#utility.yul\":5131:5134   */\n  dup4\n    /* \"#utility.yul\":5125:5129   */\n  dup4\n    /* \"#utility.yul\":5106:5135   */\n  tag_39\n  jump\t// in\ntag_102:\n    /* \"#utility.yul\":5098:5135   */\n  swap2\n  pop\n    /* \"#utility.yul\":5168:5171   */\n  dup3\n    /* \"#utility.yul\":5165:5166   */\n  0x02\n    /* \"#utility.yul\":5161:5172   */\n  mul\n    /* \"#utility.yul\":5155:5159   */\n  dup3\n    /* \"#utility.yul\":5152:5173   */\n  or\n    /* \"#utility.yul\":5144:5173   */\n  swap1\n  pop\n    /* \"#utility.yul\":4884:5179   */\n  swap3\n  swap2\n  pop\n  pop\n  jump\t// out\n    /* \"#utility.yul\":5184:6579   */\ntag_9:\n    /* \"#utility.yul\":5301:5338   */\n  tag_104\n    /* \"#utility.yul\":5334:5337   */\n  dup3\n    /* \"#utility.yul\":5301:5338   */\n  tag_21\n  jump\t// in\ntag_104:\n    /* \"#utility.yul\":5403:5421   */\n  0xffffffffffffffff\n    /* \"#utility.yul\":5395:5401   */\n  dup2\n    /* \"#utility.yul\":5392:5422   */\n  gt\n    /* \"#utility.yul\":5389:5445   */\n  iszero\n  tag_105\n  jumpi\n    /* \"#utility.yul\":5425:5443   */\n  tag_106\n  tag_22\n  jump\t// in\ntag_106:\n    /* \"#utility.yul\":5389:5445   */\ntag_105:\n    /* \"#utility.yul\":5469:5507   */\n  tag_107\n    /* \"#utility.yul\":5501:5505   */\n  dup3\n    /* \"#utility.yul\":5495:5506   */\n  sload\n    /* \"#utility.yul\":5469:5507   */\n  tag_24\n  jump\t// in\ntag_107:\n    /* \"#utility.yul\":5554:5621   */\n  tag_108\n    /* \"#utility.yul\":5614:5620   */\n  dup3\n    /* \"#utility.yul\":5606:5612   */\n  dup3\n    /* \"#utility.yul\":5600:5604   */\n  dup6\n    /* \"#utility.yul\":5554:5621   */\n  tag_37\n  jump\t// in\ntag_108:\n    /* \"#utility.yul\":5648:5649   */\n  0x00\n    /* \"#utility.yul\":5672:5676   */\n  0x20\n    /* \"#utility.yul\":5659:5676   */\n  swap1\n  pop\n    /* \"#utility.yul\":5704:5706   */\n  0x1f\n    /* \"#utility.yul\":5696:5702   */\n  dup4\n    /* \"#utility.yul\":5693:5707   */\n  gt\n    /* \"#utility.yul\":5721:5722   */\n  0x01\n    /* \"#utility.yul\":5716:6334   */\n  dup2\n  eq\n  tag_110\n  jumpi\n    /* \"#utility.yul\":6378:6379   */\n  0x00\n    /* \"#utility.yul\":6395:6401   */\n  dup5\n    /* \"#utility.yul\":6392:6469   */\n  iszero\n  tag_111\n  jumpi\n    /* \"#utility.yul\":6444:6453   */\n  dup3\n    /* \"#utility.yul\":6439:6442   */\n  dup8\n    /* \"#utility.yul\":6435:6454   */\n  add\n    /* \"#utility.yul\":6429:6455   */\n  mload\n    /* \"#utility.yul\":6420:6455   */\n  swap1\n  pop\n    /* \"#utility.yul\":6392:6469   */\ntag_111:\n    /* \"#utility.yul\":6495:6562   */\n  tag_112\n    /* \"#utility.yul\":6555:6561   */\n  dup6\n    /* \"#utility.yul\":6548:6553   */\n  dup3\n    /* \"#utility.yul\":6495:6562   */\n  tag_40\n  jump\t// in\ntag_112:\n    /* \"#utility.yul\":6489:6493   */\n  dup7\n    /* \"#utility.yul\":6482:6563   */\n  sstore\n    /* \"#utility.yul\":6351:6573   */\n  pop\n    /* \"#utility.yul\":5686:6573   */\n  jump(tag_109)\n    /* \"#utility.yul\":5716:6334   */\ntag_110:\n    /* \"#utility.yul\":5768:5772   */\n  0x1f\n    /* \"#utility.yul\":5764:5773   */\n  not\n    /* \"#utility.yul\":5756:5762   */\n  dup5\n    /* \"#utility.yul\":5752:5774   */\n  and\n    /* \"#utility.yul\":5802:5839   */\n  tag_113\n    /* \"#utility.yul\":5834:5838   */\n  dup7\n    /* \"#utility.yul\":5802:5839   */\n  tag_25\n  jump\t// in\ntag_113:\n    /* \"#utility.yul\":5861:5862   */\n  0x00\n    /* \"#utility.yul\":5875:6083   */\ntag_114:\n    /* \"#utility.yul\":5889:5896   */\n  dup3\n    /* \"#utility.yul\":5886:5887   */\n  dup2\n    /* \"#utility.yul\":5883:5897   */\n  lt\n    /* \"#utility.yul\":5875:6083   */\n  iszero\n  tag_116\n  jumpi\n    /* \"#utility.yul\":5968:5977   */\n  dup5\n    /* \"#utility.yul\":5963:5966   */\n  dup10\n    /* \"#utility.yul\":5959:5978   */\n  add\n    /* \"#utility.yul\":5953:5979   */\n  mload\n    /* \"#utility.yul\":5945:5951   */\n  dup3\n    /* \"#utility.yul\":5938:5980   */\n  sstore\n    /* \"#utility.yul\":6019:6020   */\n  0x01\n    /* \"#utility.yul\":6011:6017   */\n  dup3\n    /* \"#utility.yul\":6007:6021   */\n  add\n    /* \"#utility.yul\":5997:6021   */\n  swap2\n  pop\n    /* \"#utility.yul\":6066:6068   */\n  0x20\n    /* \"#utility.yul\":6055:6064   */\n  dup6\n    /* \"#utility.yul\":6051:6069   */\n  add\n    /* \"#utility.yul\":6038:6069   */\n  swap5\n  pop\n    /* \"#utility.yul\":5912:5916   */\n  0x20\n    /* \"#utility.yul\":5909:5910   */\n  dup2\n    /* \"#utility.yul\":5905:5917   */\n  add\n    /* \"#utility.yul\":5900:5917   */\n  swap1\n  pop\n    /* \"#utility.yul\":5875:6083   */\n  jump(tag_114)\ntag_116:\n    /* \"#utility.yul\":6111:6117   */\n  dup7\n    /* \"#utility.yul\":6102:6109   */\n  dup4\n    /* \"#utility.yul\":6099:6118   */\n  lt\n    /* \"#utility.yul\":6096:6275   */\n  iszero\n  tag_117\n  jumpi\n    /* \"#utility.yul\":6169:6178   */\n  dup5\n    /* \"#utility.yul\":6164:6167   */\n  dup10\n    /* \"#utility.yul\":6160:6179   */\n  add\n    /* \"#utility.yul\":6154:6180   */\n  mload\n    /* \"#utility.yul\":6212:6260   */\n  tag_118\n    /* \"#utility.yul\":6254:6258   */\n  0x1f\n    /* \"#utility.yul\":6246:6252   */\n  dup10\n    /* \"#utility.yul\":6242:6259   */\n  and\n    /* \"#utility.yul\":6231:6240   */\n  dup3\n    /* \"#utility.yul\":6212:6260   */\n  tag_39\n  jump\t// in\ntag_118:\n    /* \"#utility.yul\":6204:6210   */\n  dup4\n    /* \"#utility.yul\":6197:6261   */\n  sstore\n    /* \"#utility.yul\":6119:6275   */\n  pop\n    /* \"#utility.yul\":6096:6275   */\ntag_117:\n    /* \"#utility.yul\":6321:6322   */\n  0x01\n    /* \"#utility.yul\":6317:6318   */\n  0x02\n    /* \"#utility.yul\":6309:6315   */\n  dup9\n    /* \"#utility.yul\":6305:6319   */\n  mul\n    /* \"#utility.yul\":6301:6323   */\n  add\n    /* \"#utility.yul\":6295:6299   */\n  dup9\n    /* \"#utility.yul\":6288:6324   */\n  sstore\n    /* \"#utility.yul\":5723:6334   */\n  pop\n  pop\n  pop\n    /* \"#utility.yul\":5686:6573   */\ntag_109:\n  pop\n    /* \"#utility.yul\":5276:6579   */\n  pop\n  pop\n  pop\n    /* \"#utility.yul\":5184:6579   */\n  pop\n  pop\n  jump\t// out\n    /* \"contracts/ERC4626Vault.sol\":297:3524  contract ERC4626Vault is ERC20, ReentrancyGuard {... */\ntag_13:\n  mload(0x80)\n  mload(0xa0)\n  codecopy(0x00, dataOffset(sub_0), dataSize(sub_0))\n  0x00\n  assignImmutable(\"0xa28835ba3c54770eeca06aee201050aa6ab9853d25ff061db7a5d5c64dba92c9\")\n  0x00\n  assignImmutable(\"0x1a3bd91ca38d55aad30794f24b2d314f16615510cf4a23e04e9b6a3273ecd813\")\n  return(0x00, dataSize(sub_0))\nstop\n\nsub_0: assembly {\n        /* \"contracts/ERC4626Vault.sol\":297:3524  contract ERC4626Vault is ERC20, ReentrancyGuard {... */\n      mstore(0x40, 0x80)\n      callvalue\n      dup1\n      iszero\n      tag_1\n      jumpi\n      0x00\n      dup1\n      revert\n    tag_1:\n      pop\n      jumpi(tag_2, lt(calldatasize, 0x04))\n      shr(0xe0, calldataload(0x00))\n      dup1\n      0x313ce567\n      gt\n      tag_19\n      jumpi\n      dup1\n      0xa9059cbb\n      gt\n      tag_20\n      jumpi\n      dup1\n      0xa9059cbb\n      eq\n      tag_15\n      jumpi\n      dup1\n      0xd21220a7\n      eq\n      tag_16\n      jumpi\n      dup1\n      0xdd62ed3e\n      eq\n      tag_17\n      jumpi\n      dup1\n      0xe2bbb158\n      eq\n      tag_18\n      jumpi\n      jump(tag_2)\n    tag_20:\n      dup1\n      0x313ce567\n      eq\n      tag_11\n      jumpi\n      dup1\n      0x70a08231\n      eq\n      tag_12\n      jumpi\n      dup1\n      0x95d89b41\n      eq\n      tag_13\n      jumpi\n      dup1\n      0xa6e61855\n      eq\n      tag_14\n      jumpi\n      jump(tag_2)\n    tag_19:\n      dup1\n      0x0dfe1681\n      gt\n      tag_21\n      jumpi\n      dup1\n      0x0dfe1681\n      eq\n      tag_7\n      jumpi\n      dup1\n      0x18160ddd\n      eq\n      tag_8\n      jumpi\n      dup1\n      0x23b872dd\n      eq\n      tag_9\n      jumpi\n      dup1\n      0x2e1a7d4d\n      eq\n      tag_10\n      jumpi\n      jump(tag_2)\n    tag_21:\n      dup1\n      0x01e1d114\n      eq\n      tag_3\n      jumpi\n      dup1\n      0x02d2cec4\n      eq\n      tag_4\n      jumpi\n      dup1\n      0x06fdde03\n      eq\n      tag_5\n      jumpi\n      dup1\n      0x095ea7b3\n      eq\n      tag_6\n      jumpi\n    tag_2:\n      0x00\n      dup1\n      revert\n        /* \"contracts/ERC4626Vault.sol\":2631:2776  function totalAssets() public view returns (uint256 total0, uint256 total1) {... */\n    tag_3:\n      tag_22\n      tag_23\n      jump\t// in\n    tag_22:\n      mload(0x40)\n      tag_24\n      swap3\n      swap2\n      swap1\n      tag_25\n      jump\t// in\n    tag_24:\n      mload(0x40)\n      dup1\n      swap2\n      sub\n      swap1\n      return\n        /* \"contracts/ERC4626Vault.sol\":490:517  uint256 public totalAssets1 */\n    tag_4:\n      tag_26\n      tag_27\n      jump\t// in\n    tag_26:\n      mload(0x40)\n      tag_28\n      swap2\n      swap1\n      tag_29\n      jump\t// in\n    tag_28:\n      mload(0x40)\n      dup1\n      swap2\n      sub\n      swap1\n      return\n        /* \"@openzeppelin/contracts/token/ERC20/ERC20.sol\":2074:2163  function name() public view virtual returns (string memory) {... */\n    tag_5:\n      tag_30\n      tag_31\n      jump\t// in\n    tag_30:\n      mload(0x40)\n      tag_32\n      swap2\n      swap1\n      tag_33\n      jump\t// in\n    tag_32:\n      mload(0x40)\n      dup1\n      swap2\n      sub\n      swap1\n      return\n        /* \"@openzeppelin/contracts/token/ERC20/ERC20.sol\":4293:4479  function approve(address spender, uint256 value) public virtual returns (bool) {... */\n    tag_6:\n      tag_34\n      0x04\n      dup1\n      calldatasize\n      sub\n      dup2\n      add\n      swap1\n      tag_35\n      swap2\n      swap1\n      tag_36\n      jump\t// in\n    tag_35:\n      tag_37\n      jump\t// in\n    tag_34:\n      mload(0x40)\n      tag_38\n      swap2\n      swap1\n      tag_39\n      jump\t// in\n    tag_38:\n      mload(0x40)\n      dup1\n      swap2\n      sub\n      swap1\n      return\n        /* \"contracts/ERC4626Vault.sol\":384:414  IERC20 public immutable token0 */\n    tag_7:\n      tag_40\n      tag_41\n      jump\t// in\n    tag_40:\n      mload(0x40)\n      tag_42\n      swap2\n      swap1\n      tag_43\n      jump\t// in\n    tag_42:\n      mload(0x40)\n      dup1\n      swap2\n      sub\n      swap1\n      return\n        /* \"@openzeppelin/contracts/token/ERC20/ERC20.sol\":3144:3241  function totalSupply() public view virtual returns (uint256) {... */\n    tag_8:\n      tag_44\n      tag_45\n      jump\t// in\n    tag_44:\n      mload(0x40)\n      tag_46\n      swap2\n      swap1\n      tag_29\n      jump\t// in\n    tag_46:\n      mload(0x40)\n      dup1\n      swap2\n      sub\n      swap1\n      return\n        /* \"@openzeppelin/contracts/token/ERC20/ERC20.sol\":5039:5283  function transferFrom(address from, address to, uint256 value) public virtual returns (bool) {... */\n    tag_9:\n      tag_47\n      0x04\n      dup1\n      calldatasize\n      sub\n      dup2\n      add\n      swap1\n      tag_48\n      swap2\n      swap1\n      tag_49\n      jump\t// in\n    tag_48:\n      tag_50\n      jump\t// in\n    tag_47:\n      mload(0x40)\n      tag_51\n      swap2\n      swap1\n      tag_39\n      jump\t// in\n    tag_51:\n      mload(0x40)\n      dup1\n      swap2\n      sub\n      swap1\n      return\n        /* \"contracts/ERC4626Vault.sol\":1776:2560  function withdraw(uint256 shares) external nonReentrant returns (uint256 amount0, uint256 amount1) {... */\n    tag_10:\n      tag_52\n      0x04\n      dup1\n      calldatasize\n      sub\n      dup2\n      add\n      swap1\n      tag_53\n      swap2\n      swap1\n      tag_54\n      jump\t// in\n    tag_53:\n      tag_55\n      jump\t// in\n    tag_52:\n      mload(0x40)\n      tag_56\n      swap3\n      swap2\n      swap1\n      tag_25\n      jump\t// in\n    tag_56:\n      mload(0x40)\n      dup1\n      swap2\n      sub\n      swap1\n      return\n        /* \"@openzeppelin/contracts/token/ERC20/ERC20.sol\":3002:3084  function decimals() public view virtual returns (uint8) {... */\n    tag_11:\n      tag_57\n      tag_58\n      jump\t// in\n    tag_57:\n      mload(0x40)\n      tag_59\n      swap2\n      swap1\n      tag_60\n      jump\t// in\n    tag_59:\n      mload(0x40)\n      dup1\n      swap2\n      sub\n      swap1\n      return\n        /* \"@openzeppelin/contracts/token/ERC20/ERC20.sol\":3299:3415  function balanceOf(address account) public view virtual returns (uint256) {... */\n    tag_12:\n      tag_61\n      0x04\n      dup1\n      calldatasize\n      sub\n      dup2\n      add\n      swap1\n      tag_62\n      swap2\n      swap1\n      tag_63\n      jump\t// in\n    tag_62:\n      tag_64\n      jump\t// in\n    tag_61:\n      mload(0x40)\n      tag_65\n      swap2\n      swap1\n      tag_29\n      jump\t// in\n    tag_65:\n      mload(0x40)\n      dup1\n      swap2\n      sub\n      swap1\n      return\n        /* \"@openzeppelin/contracts/token/ERC20/ERC20.sol\":2276:2369  function symbol() public view virtual returns (string memory) {... */\n    tag_13:\n      tag_66\n      tag_67\n      jump\t// in\n    tag_66:\n      mload(0x40)\n      tag_68\n      swap2\n      swap1\n      tag_33\n      jump\t// in\n    tag_68:\n      mload(0x40)\n      dup1\n      swap2\n      sub\n      swap1\n      return\n        /* \"contracts/ERC4626Vault.sol\":457:484  uint256 public totalAssets0 */\n    tag_14:\n      tag_69\n      tag_70\n      jump\t// in\n    tag_69:\n      mload(0x40)\n      tag_71\n      swap2\n      swap1\n      tag_29\n      jump\t// in\n    tag_71:\n      mload(0x40)\n      dup1\n      swap2\n      sub\n      swap1\n      return\n        /* \"@openzeppelin/contracts/token/ERC20/ERC20.sol\":3610:3788  function transfer(address to, uint256 value) public virtual returns (bool) {... */\n    tag_15:\n      tag_72\n      0x04\n      dup1\n      calldatasize\n      sub\n      dup2\n      add\n      swap1\n      tag_73\n      swap2\n      swap1\n      tag_36\n      jump\t// in\n    tag_73:\n      tag_74\n      jump\t// in\n    tag_72:\n      mload(0x40)\n      tag_75\n      swap2\n      swap1\n      tag_39\n      jump\t// in\n    tag_75:\n      mload(0x40)\n      dup1\n      swap2\n      sub\n      swap1\n      return\n        /* \"contracts/ERC4626Vault.sol\":420:450  IERC20 public immutable token1 */\n    tag_16:\n      tag_76\n      tag_77\n      jump\t// in\n    tag_76:\n      mload(0x40)\n      tag_78\n      swap2\n      swap1\n      tag_43\n      jump\t// in\n    tag_78:\n      mload(0x40)\n      dup1\n      swap2\n      sub\n      swap1\n      return\n        /* \"@openzeppelin/contracts/token/ERC20/ERC20.sol\":3846:3986  function allowance(address owner, address spender) public view virtual returns (uint256) {... */\n    tag_17:\n      tag_79\n      0x04\n      dup1\n      calldatasize\n      sub\n      dup2\n      add\n      swap1\n      tag_80\n      swap2\n      swap1\n      tag_81\n      jump\t// in\n    tag_80:\n      tag_82\n      jump\t// in\n    tag_79:\n      mload(0x40)\n      tag_83\n      swap2\n      swap1\n      tag_29\n      jump\t// in\n    tag_83:\n      mload(0x40)\n      dup1\n      swap2\n      sub\n      swap1\n      return\n        /* \"contracts/ERC4626Vault.sol\":764:1720  function deposit(uint256 amount0, uint256 amount1) external nonReentrant returns (uint256 shares) {... */\n    tag_18:\n      tag_84\n      0x04\n      dup1\n      calldatasize\n      sub\n      dup2\n      add\n      swap1\n      tag_85\n      swap2\n      swap1\n      tag_86\n      jump\t// in\n    tag_85:\n      tag_87\n      jump\t// in\n    tag_84:\n      mload(0x40)\n      tag_88\n      swap2\n      swap1\n      tag_29\n      jump\t// in\n    tag_88:\n      mload(0x40)\n      dup1\n      swap2\n      sub\n      swap1\n      return\n        /* \"contracts/ERC4626Vault.sol\":2631:2776  function totalAssets() public view returns (uint256 total0, uint256 total1) {... */\n    tag_23:\n        /* \"contracts/ERC4626Vault.sol\":2675:2689  uint256 total0 */\n      0x00\n        /* \"contracts/ERC4626Vault.sol\":2691:2705  uint256 total1 */\n      dup1\n        /* \"contracts/ERC4626Vault.sol\":2726:2738  totalAssets0 */\n      sload(0x06)\n        /* \"contracts/ERC4626Vault.sol\":2717:2738  total0 = totalAssets0 */\n      swap2\n      pop\n        /* \"contracts/ERC4626Vault.sol\":2757:2769  totalAssets1 */\n      sload(0x07)\n        /* \"contracts/ERC4626Vault.sol\":2748:2769  total1 = totalAssets1 */\n      swap1\n      pop\n        /* \"contracts/ERC4626Vault.sol\":2631:2776  function totalAssets() public view returns (uint256 total0, uint256 total1) {... */\n      swap1\n      swap2\n      jump\t// out\n        /* \"contracts/ERC4626Vault.sol\":490:517  uint256 public totalAssets1 */\n    tag_27:\n      sload(0x07)\n      dup2\n      jump\t// out\n        /* \"@openzeppelin/contracts/token/ERC20/ERC20.sol\":2074:2163  function name() public view virtual returns (string memory) {... */\n    tag_31:\n        /* \"@openzeppelin/contracts/token/ERC20/ERC20.sol\":2119:2132  string memory */\n      0x60\n        /* \"@openzeppelin/contracts/token/ERC20/ERC20.sol\":2151:2156  _name */\n      0x03\n        /* \"@openzeppelin/contracts/token/ERC20/ERC20.sol\":2144:2156  return _name */\n      dup1\n      sload\n      tag_91\n      swap1\n      tag_92\n      jump\t// in\n    tag_91:\n      dup1\n      0x1f\n      add\n      0x20\n      dup1\n      swap2\n      div\n      mul\n      0x20\n      add\n      mload(0x40)\n      swap1\n      dup2\n      add\n      0x40\n      mstore\n      dup1\n      swap3\n      swap2\n      swap1\n      dup2\n      dup2\n      mstore\n      0x20\n      add\n      dup3\n      dup1\n      sload\n      tag_93\n      swap1\n      tag_92\n      jump\t// in\n    tag_93:\n      dup1\n      iszero\n      tag_94\n      jumpi\n      dup1\n      0x1f\n      lt\n      tag_95\n      jumpi\n      0x0100\n      dup1\n      dup4\n      sload\n      div\n      mul\n      dup4\n      mstore\n      swap2\n      0x20\n      add\n      swap2\n      jump(tag_94)\n    tag_95:\n      dup3\n      add\n      swap2\n      swap1\n      0x00\n      mstore\n      keccak256(0x00, 0x20)\n      swap1\n    tag_96:\n      dup2\n      sload\n      dup2\n      mstore\n      swap1\n      0x01\n      add\n      swap1\n      0x20\n      add\n      dup1\n      dup4\n      gt\n      tag_96\n      jumpi\n      dup3\n      swap1\n      sub\n      0x1f\n      and\n      dup3\n      add\n      swap2\n    tag_94:\n      pop\n      pop\n      pop\n      pop\n      pop\n      swap1\n      pop\n        /* \"@openzeppelin/contracts/token/ERC20/ERC20.sol\":2074:2163  function name() public view virtual returns (string memory) {... */\n      swap1\n      jump\t// out\n        /* \"@openzeppelin/contracts/token/ERC20/ERC20.sol\":4293:4479  function approve(address spender, uint256 value) public virtual returns (bool) {... */\n    tag_37:\n        /* \"@openzeppelin/contracts/token/ERC20/ERC20.sol\":4366:4370  bool */\n      0x00\n        /* \"@openzeppelin/contracts/token/ERC20/ERC20.sol\":4382:4395  address owner */\n      dup1\n        /* \"@openzeppelin/contracts/token/ERC20/ERC20.sol\":4398:4410  _msgSender() */\n      tag_98\n        /* \"@openzeppelin/contracts/token/ERC20/ERC20.sol\":4398:4408  _msgSender */\n      tag_99\n        /* \"@openzeppelin/contracts/token/ERC20/ERC20.sol\":4398:4410  _msgSender() */\n      jump\t// in\n    tag_98:\n        /* \"@openzeppelin/contracts/token/ERC20/ERC20.sol\":4382:4410  address owner = _msgSender() */\n      swap1\n      pop\n        /* \"@openzeppelin/contracts/token/ERC20/ERC20.sol\":4420:4451  _approve(owner, spender, value) */\n      tag_100\n        /* \"@openzeppelin/contracts/token/ERC20/ERC20.sol\":4429:4434  owner */\n      dup2\n        /* \"@openzeppelin/contracts/token/ERC20/ERC20.sol\":4436:4443  spender */\n      dup6\n        /* \"@openzeppelin/contracts/token/ERC20/ERC20.sol\":4445:4450  value */\n      dup6\n        /* \"@openzeppelin/contracts/token/ERC20/ERC20.sol\":4420:4428  _approve */\n      tag_101\n        /* \"@openzeppelin/contracts/token/ERC20/ERC20.sol\":4420:4451  _approve(owner, spender, value) */\n      jump\t// in\n    tag_100:\n        /* \"@openzeppelin/contracts/token/ERC20/ERC20.sol\":4468:4472  true */\n      0x01\n        /* \"@openzeppelin/contracts/token/ERC20/ERC20.sol\":4461:4472  return true */\n      swap2\n      pop\n      pop\n        /* \"@openzeppelin/contracts/token/ERC20/ERC20.sol\":4293:4479  function approve(address spender, uint256 value) public virtual returns (bool) {... */\n      swap3\n      swap2\n      pop\n      pop\n      jump\t// out\n        /* \"contracts/ERC4626Vault.sol\":384:414  IERC20 public immutable token0 */\n    tag_41:\n      immutable(\"0x1a3bd91ca38d55aad30794f24b2d314f16615510cf4a23e04e9b6a3273ecd813\")\n      dup2\n      jump\t// out\n        /* \"@openzeppelin/contracts/token/ERC20/ERC20.sol\":3144:3241  function totalSupply() public view virtual returns (uint256) {... */\n    tag_45:\n        /* \"@openzeppelin/contracts/token/ERC20/ERC20.sol\":3196:3203  uint256 */\n      0x00\n        /* \"@openzeppelin/contracts/token/ERC20/ERC20.sol\":3222:3234  _totalSupply */\n      sload(0x02)\n        /* \"@openzeppelin/contracts/token/ERC20/ERC20.sol\":3215:3234  return _totalSupply */\n      swap1\n      pop\n        /* \"@openzeppelin/contracts/token/ERC20/ERC20.sol\":3144:3241  function totalSupply() public view virtual returns (uint256) {... */\n      swap1\n      jump\t// out\n        /* \"@openzeppelin/contracts/token/ERC20/ERC20.sol\":5039:5283  function transferFrom(address from, address to, uint256 value) public virtual returns (bool) {... */\n    tag_50:\n        /* \"@openzeppelin/contracts/token/ERC20/ERC20.sol\":5126:5130  bool */\n      0x00\n        /* \"@openzeppelin/contracts/token/ERC20/ERC20.sol\":5142:5157  address spender */\n      dup1\n        /* \"@openzeppelin/contracts/token/ERC20/ERC20.sol\":5160:5172  _msgSender() */\n      tag_104\n        /* \"@openzeppelin/contracts/token/ERC20/ERC20.sol\":5160:5170  _msgSender */\n      tag_99\n        /* \"@openzeppelin/contracts/token/ERC20/ERC20.sol\":5160:5172  _msgSender() */\n      jump\t// in\n    tag_104:\n        /* \"@openzeppelin/contracts/token/ERC20/ERC20.sol\":5142:5172  address spender = _msgSender() */\n      swap1\n      pop\n        /* \"@openzeppelin/contracts/token/ERC20/ERC20.sol\":5182:5219  _spendAllowance(from, spender, value) */\n      tag_105\n        /* \"@openzeppelin/contracts/token/ERC20/ERC20.sol\":5198:5202  from */\n      dup6\n        /* \"@openzeppelin/contracts/token/ERC20/ERC20.sol\":5204:5211  spender */\n      dup3\n        /* \"@openzeppelin/contracts/token/ERC20/ERC20.sol\":5213:5218  value */\n      dup6\n        /* \"@openzeppelin/contracts/token/ERC20/ERC20.sol\":5182:5197  _spendAllowance */\n      tag_106\n        /* \"@openzeppelin/contracts/token/ERC20/ERC20.sol\":5182:5219  _spendAllowance(from, spender, value) */\n      jump\t// in\n    tag_105:\n        /* \"@openzeppelin/contracts/token/ERC20/ERC20.sol\":5229:5255  _transfer(from, to, value) */\n      tag_107\n        /* \"@openzeppelin/contracts/token/ERC20/ERC20.sol\":5239:5243  from */\n      dup6\n        /* \"@openzeppelin/contracts/token/ERC20/ERC20.sol\":5245:5247  to */\n      dup6\n        /* \"@openzeppelin/contracts/token/ERC20/ERC20.sol\":5249:5254  value */\n      dup6\n        /* \"@openzeppelin/contracts/token/ERC20/ERC20.sol\":5229:5238  _transfer */\n      tag_108\n        /* \"@openzeppelin/contracts/token/ERC20/ERC20.sol\":5229:5255  _transfer(from, to, value) */\n      jump\t// in\n    tag_107:\n        /* \"@openzeppelin/contracts/token/ERC20/ERC20.sol\":5272:5276  true */\n      0x01\n        /* \"@openzeppelin/contracts/token/ERC20/ERC20.sol\":5265:5276  return true */\n      swap2\n      pop\n      pop\n        /* \"@openzeppelin/contracts/token/ERC20/ERC20.sol\":5039:5283  function transferFrom(address from, address to, uint256 value) public virtual returns (bool) {... */\n      swap4\n      swap3\n      pop\n      pop\n      pop\n      jump\t// out\n        /* \"contracts/ERC4626Vault.sol\":1776:2560  function withdraw(uint256 shares) external nonReentrant returns (uint256 amount0, uint256 amount1) {... */\n    tag_55:\n        /* \"contracts/ERC4626Vault.sol\":1841:1856  uint256 amount0 */\n      0x00\n        /* \"contracts/ERC4626Vault.sol\":1858:1873  uint256 amount1 */\n      dup1\n        /* \"@openzeppelin/contracts/utils/ReentrancyGuard.sol\":2356:2377  _nonReentrantBefore() */\n      tag_110\n        /* \"@openzeppelin/contracts/utils/ReentrancyGuard.sol\":2356:2375  _nonReentrantBefore */\n      tag_111\n        /* \"@openzeppelin/contracts/utils/ReentrancyGuard.sol\":2356:2377  _nonReentrantBefore() */\n      jump\t// in\n    tag_110:\n        /* \"contracts/ERC4626Vault.sol\":1902:1903  0 */\n      0x00\n        /* \"contracts/ERC4626Vault.sol\":1893:1899  shares */\n      dup4\n        /* \"contracts/ERC4626Vault.sol\":1893:1903  shares > 0 */\n      gt\n        /* \"contracts/ERC4626Vault.sol\":1885:1928  require(shares > 0, \"Invalid share amount\") */\n      tag_113\n      jumpi\n      mload(0x40)\n      0x08c379a000000000000000000000000000000000000000000000000000000000\n      dup2\n      mstore\n      0x04\n      add\n      tag_114\n      swap1\n      tag_115\n      jump\t// in\n    tag_114:\n      mload(0x40)\n      dup1\n      swap2\n      sub\n      swap1\n      revert\n    tag_113:\n        /* \"contracts/ERC4626Vault.sol\":2021:2035  uint256 supply */\n      0x00\n        /* \"contracts/ERC4626Vault.sol\":2038:2051  totalSupply() */\n      tag_116\n        /* \"contracts/ERC4626Vault.sol\":2038:2049  totalSupply */\n      tag_45\n        /* \"contracts/ERC4626Vault.sol\":2038:2051  totalSupply() */\n      jump\t// in\n    tag_116:\n        /* \"contracts/ERC4626Vault.sol\":2021:2051  uint256 supply = totalSupply() */\n      swap1\n      pop\n        /* \"contracts/ERC4626Vault.sol\":2097:2103  supply */\n      dup1\n        /* \"contracts/ERC4626Vault.sol\":2081:2093  totalAssets0 */\n      sload(0x06)\n        /* \"contracts/ERC4626Vault.sol\":2072:2078  shares */\n      dup6\n        /* \"contracts/ERC4626Vault.sol\":2072:2093  shares * totalAssets0 */\n      tag_117\n      swap2\n      swap1\n      tag_118\n      jump\t// in\n    tag_117:\n        /* \"contracts/ERC4626Vault.sol\":2071:2103  (shares * totalAssets0) / supply */\n      tag_119\n      swap2\n      swap1\n      tag_120\n      jump\t// in\n    tag_119:\n        /* \"contracts/ERC4626Vault.sol\":2061:2103  amount0 = (shares * totalAssets0) / supply */\n      swap3\n      pop\n        /* \"contracts/ERC4626Vault.sol\":2149:2155  supply */\n      dup1\n        /* \"contracts/ERC4626Vault.sol\":2133:2145  totalAssets1 */\n      sload(0x07)\n        /* \"contracts/ERC4626Vault.sol\":2124:2130  shares */\n      dup6\n        /* \"contracts/ERC4626Vault.sol\":2124:2145  shares * totalAssets1 */\n      tag_121\n      swap2\n      swap1\n      tag_118\n      jump\t// in\n    tag_121:\n        /* \"contracts/ERC4626Vault.sol\":2123:2155  (shares * totalAssets1) / supply */\n      tag_122\n      swap2\n      swap1\n      tag_120\n      jump\t// in\n    tag_122:\n        /* \"contracts/ERC4626Vault.sol\":2113:2155  amount1 = (shares * totalAssets1) / supply */\n      swap2\n      pop\n        /* \"contracts/ERC4626Vault.sol\":2200:2225  _burn(msg.sender, shares) */\n      tag_123\n        /* \"contracts/ERC4626Vault.sol\":2206:2216  msg.sender */\n      caller\n        /* \"contracts/ERC4626Vault.sol\":2218:2224  shares */\n      dup6\n        /* \"contracts/ERC4626Vault.sol\":2200:2205  _burn */\n      tag_124\n        /* \"contracts/ERC4626Vault.sol\":2200:2225  _burn(msg.sender, shares) */\n      jump\t// in\n    tag_123:\n        /* \"contracts/ERC4626Vault.sol\":2291:2298  amount0 */\n      dup3\n        /* \"contracts/ERC4626Vault.sol\":2275:2287  totalAssets0 */\n      0x06\n      0x00\n        /* \"contracts/ERC4626Vault.sol\":2275:2298  totalAssets0 -= amount0 */\n      dup3\n      dup3\n      sload\n      tag_125\n      swap2\n      swap1\n      tag_126\n      jump\t// in\n    tag_125:\n      swap3\n      pop\n      pop\n      dup2\n      swap1\n      sstore\n      pop\n        /* \"contracts/ERC4626Vault.sol\":2324:2331  amount1 */\n      dup2\n        /* \"contracts/ERC4626Vault.sol\":2308:2320  totalAssets1 */\n      0x07\n      0x00\n        /* \"contracts/ERC4626Vault.sol\":2308:2331  totalAssets1 -= amount1 */\n      dup3\n      dup3\n      sload\n      tag_127\n      swap2\n      swap1\n      tag_126\n      jump\t// in\n    tag_127:\n      swap3\n      pop\n      pop\n      dup2\n      swap1\n      sstore\n      pop\n        /* \"contracts/ERC4626Vault.sol\":2401:2441  token0.safeTransfer(msg.sender, amount0) */\n      tag_128\n        /* \"contracts/ERC4626Vault.sol\":2421:2431  msg.sender */\n      caller\n        /* \"contracts/ERC4626Vault.sol\":2433:2440  amount0 */\n      dup5\n        /* \"contracts/ERC4626Vault.sol\":2401:2407  token0 */\n      immutable(\"0x1a3bd91ca38d55aad30794f24b2d314f16615510cf4a23e04e9b6a3273ecd813\")\n        /* \"contracts/ERC4626Vault.sol\":2401:2420  token0.safeTransfer */\n      0xffffffffffffffffffffffffffffffffffffffff\n      and\n      tag_129\n      swap1\n        /* \"contracts/ERC4626Vault.sol\":2401:2441  token0.safeTransfer(msg.sender, amount0) */\n      swap3\n      swap2\n      swap1\n      0xffffffff\n      and\n      jump\t// in\n    tag_128:\n        /* \"contracts/ERC4626Vault.sol\":2451:2491  token1.safeTransfer(msg.sender, amount1) */\n      tag_130\n        /* \"contracts/ERC4626Vault.sol\":2471:2481  msg.sender */\n      caller\n        /* \"contracts/ERC4626Vault.sol\":2483:2490  amount1 */\n      dup4\n        /* \"contracts/ERC4626Vault.sol\":2451:2457  token1 */\n      immutable(\"0xa28835ba3c54770eeca06aee201050aa6ab9853d25ff061db7a5d5c64dba92c9\")\n        /* \"contracts/ERC4626Vault.sol\":2451:2470  token1.safeTransfer */\n      0xffffffffffffffffffffffffffffffffffffffff\n      and\n      tag_129\n      swap1\n        /* \"contracts/ERC4626Vault.sol\":2451:2491  token1.safeTransfer(msg.sender, amount1) */\n      swap3\n      swap2\n      swap1\n      0xffffffff\n      and\n      jump\t// in\n    tag_130:\n        /* \"contracts/ERC4626Vault.sol\":2516:2526  msg.sender */\n      caller\n        /* \"contracts/ERC4626Vault.sol\":2507:2553  Withdraw(msg.sender, shares, amount0, amount1) */\n      0xffffffffffffffffffffffffffffffffffffffff\n      and\n      0x02f25270a4d87bea75db541cdfe559334a275b4a233520ed6c0a2429667cca94\n        /* \"contracts/ERC4626Vault.sol\":2528:2534  shares */\n      dup6\n        /* \"contracts/ERC4626Vault.sol\":2536:2543  amount0 */\n      dup6\n        /* \"contracts/ERC4626Vault.sol\":2545:2552  amount1 */\n      dup6\n        /* \"contracts/ERC4626Vault.sol\":2507:2553  Withdraw(msg.sender, shares, amount0, amount1) */\n      mload(0x40)\n      tag_131\n      swap4\n      swap3\n      swap2\n      swap1\n      tag_132\n      jump\t// in\n    tag_131:\n      mload(0x40)\n      dup1\n      swap2\n      sub\n      swap1\n      log2\n        /* \"contracts/ERC4626Vault.sol\":1875:2560  {... */\n      pop\n        /* \"@openzeppelin/contracts/utils/ReentrancyGuard.sol\":2398:2418  _nonReentrantAfter() */\n      tag_133\n        /* \"@openzeppelin/contracts/utils/ReentrancyGuard.sol\":2398:2416  _nonReentrantAfter */\n      tag_134\n        /* \"@openzeppelin/contracts/utils/ReentrancyGuard.sol\":2398:2418  _nonReentrantAfter() */\n      jump\t// in\n    tag_133:\n        /* \"contracts/ERC4626Vault.sol\":1776:2560  function withdraw(uint256 shares) external nonReentrant returns (uint256 amount0, uint256 amount1) {... */\n      swap2\n      pop\n      swap2\n      jump\t// out\n        /* \"@openzeppelin/contracts/token/ERC20/ERC20.sol\":3002:3084  function decimals() public view virtual returns (uint8) {... */\n    tag_58:\n        /* \"@openzeppelin/contracts/token/ERC20/ERC20.sol\":3051:3056  uint8 */\n      0x00\n        /* \"@openzeppelin/contracts/token/ERC20/ERC20.sol\":3075:3077  18 */\n      0x12\n        /* \"@openzeppelin/contracts/token/ERC20/ERC20.sol\":3068:3077  return 18 */\n      swap1\n      pop\n        /* \"@openzeppelin/contracts/token/ERC20/ERC20.sol\":3002:3084  function decimals() public view virtual returns (uint8) {... */\n      swap1\n      jump\t// out\n        /* \"@openzeppelin/contracts/token/ERC20/ERC20.sol\":3299:3415  function balanceOf(address account) public view virtual returns (uint256) {... */\n    tag_64:\n        /* \"@openzeppelin/contracts/token/ERC20/ERC20.sol\":3364:3371  uint256 */\n      0x00\n        /* \"@openzeppelin/contracts/token/ERC20/ERC20.sol\":3390:3399  _balances */\n      dup1\n        /* \"@openzeppelin/contracts/token/ERC20/ERC20.sol\":3390:3408  _balances[account] */\n      0x00\n        /* \"@openzeppelin/contracts/token/ERC20/ERC20.sol\":3400:3407  account */\n      dup4\n        /* \"@openzeppelin/contracts/token/ERC20/ERC20.sol\":3390:3408  _balances[account] */\n      0xffffffffffffffffffffffffffffffffffffffff\n      and\n      0xffffffffffffffffffffffffffffffffffffffff\n      and\n      dup2\n      mstore\n      0x20\n      add\n      swap1\n      dup2\n      mstore\n      0x20\n      add\n      0x00\n      keccak256\n      sload\n        /* \"@openzeppelin/contracts/token/ERC20/ERC20.sol\":3383:3408  return _balances[account] */\n      swap1\n      pop\n        /* \"@openzeppelin/contracts/token/ERC20/ERC20.sol\":3299:3415  function balanceOf(address account) public view virtual returns (uint256) {... */\n      swap2\n      swap1\n      pop\n      jump\t// out\n        /* \"@openzeppelin/contracts/token/ERC20/ERC20.sol\":2276:2369  function symbol() public view virtual returns (string memory) {... */\n    tag_67:\n        /* \"@openzeppelin/contracts/token/ERC20/ERC20.sol\":2323:2336  string memory */\n      0x60\n        /* \"@openzeppelin/contracts/token/ERC20/ERC20.sol\":2355:2362  _symbol */\n      0x04\n        /* \"@openzeppelin/contracts/token/ERC20/ERC20.sol\":2348:2362  return _symbol */\n      dup1\n      sload\n      tag_138\n      swap1\n      tag_92\n      jump\t// in\n    tag_138:\n      dup1\n      0x1f\n      add\n      0x20\n      dup1\n      swap2\n      div\n      mul\n      0x20\n      add\n      mload(0x40)\n      swap1\n      dup2\n      add\n      0x40\n      mstore\n      dup1\n      swap3\n      swap2\n      swap1\n      dup2\n      dup2\n      mstore\n      0x20\n      add\n      dup3\n      dup1\n      sload\n      tag_139\n      swap1\n      tag_92\n      jump\t// in\n    tag_139:\n      dup1\n      iszero\n      tag_140\n      jumpi\n      dup1\n      0x1f\n      lt\n      tag_141\n      jumpi\n      0x0100\n      dup1\n      dup4\n      sload\n      div\n      mul\n      dup4\n      mstore\n      swap2\n      0x20\n      add\n      swap2\n      jump(tag_140)\n    tag_141:\n      dup3\n      add\n      swap2\n      swap1\n      0x00\n      mstore\n      keccak256(0x00, 0x20)\n      swap1\n    tag_142:\n      dup2\n      sload\n      dup2\n      mstore\n      swap1\n      0x01\n      add\n      swap1\n      0x20\n      add\n      dup1\n      dup4\n      gt\n      tag_142\n      jumpi\n      dup3\n      swap1\n      sub\n      0x1f\n      and\n      dup3\n      add\n      swap2\n    tag_140:\n      pop\n      pop\n      pop\n      pop\n      pop\n      swap1\n      pop\n        /* \"@openzeppelin/contracts/token/ERC20/ERC20.sol\":2276:2369  function symbol() public view virtual returns (string memory) {... */\n      swap1\n      jump\t// out\n        /* \"contracts/ERC4626Vault.sol\":457:484  uint256 public totalAssets0 */\n    tag_70:\n      sload(0x06)\n      dup2\n      jump\t// out\n        /* \"@openzeppelin/contracts/token/ERC20/ERC20.sol\":3610:3788  function transfer(address to, uint256 value) public virtual returns (bool) {... */\n    tag_74:\n        /* \"@openzeppelin/contracts/token/ERC20/ERC20.sol\":3679:3683  bool */\n      0x00\n        /* \"@openzeppelin/contracts/token/ERC20/ERC20.sol\":3695:3708  address owner */\n      dup1\n        /* \"@openzeppelin/contracts/token/ERC20/ERC20.sol\":3711:3723  _msgSender() */\n      tag_144\n        /* \"@openzeppelin/contracts/token/ERC20/ERC20.sol\":3711:3721  _msgSender */\n      tag_99\n        /* \"@openzeppelin/contracts/token/ERC20/ERC20.sol\":3711:3723  _msgSender() */\n      jump\t// in\n    tag_144:\n        /* \"@openzeppelin/contracts/token/ERC20/ERC20.sol\":3695:3723  address owner = _msgSender() */\n      swap1\n      pop\n        /* \"@openzeppelin/contracts/token/ERC20/ERC20.sol\":3733:3760  _transfer(owner, to, value) */\n      tag_145\n        /* \"@openzeppelin/contracts/token/ERC20/ERC20.sol\":3743:3748  owner */\n      dup2\n        /* \"@openzeppelin/contracts/token/ERC20/ERC20.sol\":3750:3752  to */\n      dup6\n        /* \"@openzeppelin/contracts/token/ERC20/ERC20.sol\":3754:3759  value */\n      dup6\n        /* \"@openzeppelin/contracts/token/ERC20/ERC20.sol\":3733:3742  _transfer */\n      tag_108\n        /* \"@openzeppelin/contracts/token/ERC20/ERC20.sol\":3733:3760  _transfer(owner, to, value) */\n      jump\t// in\n    tag_145:\n        /* \"@openzeppelin/contracts/token/ERC20/ERC20.sol\":3777:3781  true */\n      0x01\n        /* \"@openzeppelin/contracts/token/ERC20/ERC20.sol\":3770:3781  return true */\n      swap2\n      pop\n      pop\n        /* \"@openzeppelin/contracts/token/ERC20/ERC20.sol\":3610:3788  function transfer(address to, uint256 value) public virtual returns (bool) {... */\n      swap3\n      swap2\n      pop\n      pop\n      jump\t// out\n        /* \"contracts/ERC4626Vault.sol\":420:450  IERC20 public immutable token1 */\n    tag_77:\n      immutable(\"0xa28835ba3c54770eeca06aee201050aa6ab9853d25ff061db7a5d5c64dba92c9\")\n      dup2\n      jump\t// out\n        /* \"@openzeppelin/contracts/token/ERC20/ERC20.sol\":3846:3986  function allowance(address owner, address spender) public view virtual returns (uint256) {... */\n    tag_82:\n        /* \"@openzeppelin/contracts/token/ERC20/ERC20.sol\":3926:3933  uint256 */\n      0x00\n        /* \"@openzeppelin/contracts/token/ERC20/ERC20.sol\":3952:3963  _allowances */\n      0x01\n        /* \"@openzeppelin/contracts/token/ERC20/ERC20.sol\":3952:3970  _allowances[owner] */\n      0x00\n        /* \"@openzeppelin/contracts/token/ERC20/ERC20.sol\":3964:3969  owner */\n      dup5\n        /* \"@openzeppelin/contracts/token/ERC20/ERC20.sol\":3952:3970  _allowances[owner] */\n      0xffffffffffffffffffffffffffffffffffffffff\n      and\n      0xffffffffffffffffffffffffffffffffffffffff\n      and\n      dup2\n      mstore\n      0x20\n      add\n      swap1\n      dup2\n      mstore\n      0x20\n      add\n      0x00\n      keccak256\n        /* \"@openzeppelin/contracts/token/ERC20/ERC20.sol\":3952:3979  _allowances[owner][spender] */\n      0x00\n        /* \"@openzeppelin/contracts/token/ERC20/ERC20.sol\":3971:3978  spender */\n      dup4\n        /* \"@openzeppelin/contracts/token/ERC20/ERC20.sol\":3952:3979  _allowances[owner][spender] */\n      0xffffffffffffffffffffffffffffffffffffffff\n      and\n      0xffffffffffffffffffffffffffffffffffffffff\n      and\n      dup2\n      mstore\n      0x20\n      add\n      swap1\n      dup2\n      mstore\n      0x20\n      add\n      0x00\n      keccak256\n      sload\n        /* \"@openzeppelin/contracts/token/ERC20/ERC20.sol\":3945:3979  return _allowances[owner][spender] */\n      swap1\n      pop\n        /* \"@openzeppelin/contracts/token/ERC20/ERC20.sol\":3846:3986  function allowance(address owner, address spender) public view virtual returns (uint256) {... */\n      swap3\n      swap2\n      pop\n      pop\n      jump\t// out\n        /* \"contracts/ERC4626Vault.sol\":764:1720  function deposit(uint256 amount0, uint256 amount1) external nonReentrant returns (uint256 shares) {... */\n    tag_87:\n        /* \"contracts/ERC4626Vault.sol\":846:860  uint256 shares */\n      0x00\n        /* \"@openzeppelin/contracts/utils/ReentrancyGuard.sol\":2356:2377  _nonReentrantBefore() */\n      tag_148\n        /* \"@openzeppelin/contracts/utils/ReentrancyGuard.sol\":2356:2375  _nonReentrantBefore */\n      tag_111\n        /* \"@openzeppelin/contracts/utils/ReentrancyGuard.sol\":2356:2377  _nonReentrantBefore() */\n      jump\t// in\n    tag_148:\n        /* \"contracts/ERC4626Vault.sol\":890:891  0 */\n      0x00\n        /* \"contracts/ERC4626Vault.sol\":880:887  amount0 */\n      dup4\n        /* \"contracts/ERC4626Vault.sol\":880:891  amount0 > 0 */\n      gt\n        /* \"contracts/ERC4626Vault.sol\":880:906  amount0 > 0 && amount1 > 0 */\n      dup1\n      iszero\n      tag_150\n      jumpi\n      pop\n        /* \"contracts/ERC4626Vault.sol\":905:906  0 */\n      0x00\n        /* \"contracts/ERC4626Vault.sol\":895:902  amount1 */\n      dup3\n        /* \"contracts/ERC4626Vault.sol\":895:906  amount1 > 0 */\n      gt\n        /* \"contracts/ERC4626Vault.sol\":880:906  amount0 > 0 && amount1 > 0 */\n    tag_150:\n        /* \"contracts/ERC4626Vault.sol\":872:926  require(amount0 > 0 && amount1 > 0, \"Invalid amounts\") */\n      tag_151\n      jumpi\n      mload(0x40)\n      0x08c379a000000000000000000000000000000000000000000000000000000000\n      dup2\n      mstore\n      0x04\n      add\n      tag_152\n      swap1\n      tag_153\n      jump\t// in\n    tag_152:\n      mload(0x40)\n      dup1\n      swap2\n      sub\n      swap1\n      revert\n    tag_151:\n        /* \"contracts/ERC4626Vault.sol\":998:1057  token0.safeTransferFrom(msg.sender, address(this), amount0) */\n      tag_154\n        /* \"contracts/ERC4626Vault.sol\":1022:1032  msg.sender */\n      caller\n        /* \"contracts/ERC4626Vault.sol\":1042:1046  this */\n      address\n        /* \"contracts/ERC4626Vault.sol\":1049:1056  amount0 */\n      dup6\n        /* \"contracts/ERC4626Vault.sol\":998:1004  token0 */\n      immutable(\"0x1a3bd91ca38d55aad30794f24b2d314f16615510cf4a23e04e9b6a3273ecd813\")\n        /* \"contracts/ERC4626Vault.sol\":998:1021  token0.safeTransferFrom */\n      0xffffffffffffffffffffffffffffffffffffffff\n      and\n      tag_155\n      swap1\n        /* \"contracts/ERC4626Vault.sol\":998:1057  token0.safeTransferFrom(msg.sender, address(this), amount0) */\n      swap4\n      swap3\n      swap2\n      swap1\n      0xffffffff\n      and\n      jump\t// in\n    tag_154:\n        /* \"contracts/ERC4626Vault.sol\":1067:1126  token1.safeTransferFrom(msg.sender, address(this), amount1) */\n      tag_156\n        /* \"contracts/ERC4626Vault.sol\":1091:1101  msg.sender */\n      caller\n        /* \"contracts/ERC4626Vault.sol\":1111:1115  this */\n      address\n        /* \"contracts/ERC4626Vault.sol\":1118:1125  amount1 */\n      dup5\n        /* \"contracts/ERC4626Vault.sol\":1067:1073  token1 */\n      immutable(\"0xa28835ba3c54770eeca06aee201050aa6ab9853d25ff061db7a5d5c64dba92c9\")\n        /* \"contracts/ERC4626Vault.sol\":1067:1090  token1.safeTransferFrom */\n      0xffffffffffffffffffffffffffffffffffffffff\n      and\n      tag_155\n      swap1\n        /* \"contracts/ERC4626Vault.sol\":1067:1126  token1.safeTransferFrom(msg.sender, address(this), amount1) */\n      swap4\n      swap3\n      swap2\n      swap1\n      0xffffffff\n      and\n      jump\t// in\n    tag_156:\n        /* \"contracts/ERC4626Vault.sol\":1232:1233  0 */\n      0x00\n        /* \"contracts/ERC4626Vault.sol\":1215:1228  totalSupply() */\n      tag_157\n        /* \"contracts/ERC4626Vault.sol\":1215:1226  totalSupply */\n      tag_45\n        /* \"contracts/ERC4626Vault.sol\":1215:1228  totalSupply() */\n      jump\t// in\n    tag_157:\n        /* \"contracts/ERC4626Vault.sol\":1215:1233  totalSupply() == 0 */\n      sub\n        /* \"contracts/ERC4626Vault.sol\":1211:1465  if (totalSupply() == 0) {... */\n      tag_158\n      jumpi\n        /* \"contracts/ERC4626Vault.sol\":1258:1281  sqrt(amount0 * amount1) */\n      tag_159\n        /* \"contracts/ERC4626Vault.sol\":1273:1280  amount1 */\n      dup3\n        /* \"contracts/ERC4626Vault.sol\":1263:1270  amount0 */\n      dup5\n        /* \"contracts/ERC4626Vault.sol\":1263:1280  amount0 * amount1 */\n      tag_160\n      swap2\n      swap1\n      tag_118\n      jump\t// in\n    tag_160:\n        /* \"contracts/ERC4626Vault.sol\":1258:1262  sqrt */\n      tag_161\n        /* \"contracts/ERC4626Vault.sol\":1258:1281  sqrt(amount0 * amount1) */\n      jump\t// in\n    tag_159:\n        /* \"contracts/ERC4626Vault.sol\":1249:1281  shares = sqrt(amount0 * amount1) */\n      swap1\n      pop\n        /* \"contracts/ERC4626Vault.sol\":1211:1465  if (totalSupply() == 0) {... */\n      jump(tag_162)\n    tag_158:\n        /* \"contracts/ERC4626Vault.sol\":1321:1454  min(... */\n      tag_163\n        /* \"contracts/ERC4626Vault.sol\":1370:1382  totalAssets0 */\n      sload(0x06)\n        /* \"contracts/ERC4626Vault.sol\":1353:1366  totalSupply() */\n      tag_164\n        /* \"contracts/ERC4626Vault.sol\":1353:1364  totalSupply */\n      tag_45\n        /* \"contracts/ERC4626Vault.sol\":1353:1366  totalSupply() */\n      jump\t// in\n    tag_164:\n        /* \"contracts/ERC4626Vault.sol\":1343:1350  amount0 */\n      dup6\n        /* \"contracts/ERC4626Vault.sol\":1343:1366  amount0 * totalSupply() */\n      tag_165\n      swap2\n      swap1\n      tag_118\n      jump\t// in\n    tag_165:\n        /* \"contracts/ERC4626Vault.sol\":1342:1382  (amount0 * totalSupply()) / totalAssets0 */\n      tag_166\n      swap2\n      swap1\n      tag_120\n      jump\t// in\n    tag_166:\n        /* \"contracts/ERC4626Vault.sol\":1428:1440  totalAssets1 */\n      sload(0x07)\n        /* \"contracts/ERC4626Vault.sol\":1411:1424  totalSupply() */\n      tag_167\n        /* \"contracts/ERC4626Vault.sol\":1411:1422  totalSupply */\n      tag_45\n        /* \"contracts/ERC4626Vault.sol\":1411:1424  totalSupply() */\n      jump\t// in\n    tag_167:\n        /* \"contracts/ERC4626Vault.sol\":1401:1408  amount1 */\n      dup6\n        /* \"contracts/ERC4626Vault.sol\":1401:1424  amount1 * totalSupply() */\n      tag_168\n      swap2\n      swap1\n      tag_118\n      jump\t// in\n    tag_168:\n        /* \"contracts/ERC4626Vault.sol\":1400:1440  (amount1 * totalSupply()) / totalAssets1 */\n      tag_169\n      swap2\n      swap1\n      tag_120\n      jump\t// in\n    tag_169:\n        /* \"contracts/ERC4626Vault.sol\":1321:1324  min */\n      tag_170\n        /* \"contracts/ERC4626Vault.sol\":1321:1454  min(... */\n      jump\t// in\n    tag_163:\n        /* \"contracts/ERC4626Vault.sol\":1312:1454  shares = min(... */\n      swap1\n      pop\n        /* \"contracts/ERC4626Vault.sol\":1211:1465  if (totalSupply() == 0) {... */\n    tag_162:\n        /* \"contracts/ERC4626Vault.sol\":1530:1537  amount0 */\n      dup3\n        /* \"contracts/ERC4626Vault.sol\":1514:1526  totalAssets0 */\n      0x06\n      0x00\n        /* \"contracts/ERC4626Vault.sol\":1514:1537  totalAssets0 += amount0 */\n      dup3\n      dup3\n      sload\n      tag_171\n      swap2\n      swap1\n      tag_172\n      jump\t// in\n    tag_171:\n      swap3\n      pop\n      pop\n      dup2\n      swap1\n      sstore\n      pop\n        /* \"contracts/ERC4626Vault.sol\":1563:1570  amount1 */\n      dup2\n        /* \"contracts/ERC4626Vault.sol\":1547:1559  totalAssets1 */\n      0x07\n      0x00\n        /* \"contracts/ERC4626Vault.sol\":1547:1570  totalAssets1 += amount1 */\n      dup3\n      dup3\n      sload\n      tag_173\n      swap2\n      swap1\n      tag_172\n      jump\t// in\n    tag_173:\n      swap3\n      pop\n      pop\n      dup2\n      swap1\n      sstore\n      pop\n        /* \"contracts/ERC4626Vault.sol\":1627:1652  _mint(msg.sender, shares) */\n      tag_174\n        /* \"contracts/ERC4626Vault.sol\":1633:1643  msg.sender */\n      caller\n        /* \"contracts/ERC4626Vault.sol\":1645:1651  shares */\n      dup3\n        /* \"contracts/ERC4626Vault.sol\":1627:1632  _mint */\n      tag_175\n        /* \"contracts/ERC4626Vault.sol\":1627:1652  _mint(msg.sender, shares) */\n      jump\t// in\n    tag_174:\n        /* \"contracts/ERC4626Vault.sol\":1676:1686  msg.sender */\n      caller\n        /* \"contracts/ERC4626Vault.sol\":1668:1713  Deposit(msg.sender, amount0, amount1, shares) */\n      0xffffffffffffffffffffffffffffffffffffffff\n      and\n      0x36af321ec8d3c75236829c5317affd40ddb308863a1236d2d277a4025cccee1e\n        /* \"contracts/ERC4626Vault.sol\":1688:1695  amount0 */\n      dup5\n        /* \"contracts/ERC4626Vault.sol\":1697:1704  amount1 */\n      dup5\n        /* \"contracts/ERC4626Vault.sol\":1706:1712  shares */\n      dup5\n        /* \"contracts/ERC4626Vault.sol\":1668:1713  Deposit(msg.sender, amount0, amount1, shares) */\n      mload(0x40)\n      tag_176\n      swap4\n      swap3\n      swap2\n      swap1\n      tag_132\n      jump\t// in\n    tag_176:\n      mload(0x40)\n      dup1\n      swap2\n      sub\n      swap1\n      log2\n        /* \"@openzeppelin/contracts/utils/ReentrancyGuard.sol\":2398:2418  _nonReentrantAfter() */\n      tag_177\n        /* \"@openzeppelin/contracts/utils/ReentrancyGuard.sol\":2398:2416  _nonReentrantAfter */\n      tag_134\n        /* \"@openzeppelin/contracts/utils/ReentrancyGuard.sol\":2398:2418  _nonReentrantAfter() */\n      jump\t// in\n    tag_177:\n        /* \"contracts/ERC4626Vault.sol\":764:1720  function deposit(uint256 amount0, uint256 amount1) external nonReentrant returns (uint256 shares) {... */\n      swap3\n      swap2\n      pop\n      pop\n      jump\t// out\n        /* \"@openzeppelin/contracts/utils/Context.sol\":656:752  function _msgSender() internal view virtual returns (address) {... */\n    tag_99:\n        /* \"@openzeppelin/contracts/utils/Context.sol\":709:716  address */\n      0x00\n        /* \"@openzeppelin/contracts/utils/Context.sol\":735:745  msg.sender */\n      caller\n        /* \"@openzeppelin/contracts/utils/Context.sol\":728:745  return msg.sender */\n      swap1\n      pop\n        /* \"@openzeppelin/contracts/utils/Context.sol\":656:752  function _msgSender() internal view virtual returns (address) {... */\n      swap1\n      jump\t// out\n        /* \"@openzeppelin/contracts/token/ERC20/ERC20.sol\":8989:9117  function _approve(address owner, address spender, uint256 value) internal {... */\n    tag_101:\n        /* \"@openzeppelin/contracts/token/ERC20/ERC20.sol\":9073:9110  _approve(owner, spender, value, true) */\n      tag_180\n        /* \"@openzeppelin/contracts/token/ERC20/ERC20.sol\":9082:9087  owner */\n      dup4\n        /* \"@openzeppelin/contracts/token/ERC20/ERC20.sol\":9089:9096  spender */\n      dup4\n        /* \"@openzeppelin/contracts/token/ERC20/ERC20.sol\":9098:9103  value */\n      dup4\n        /* \"@openzeppelin/contracts/token/ERC20/ERC20.sol\":9105:9109  true */\n      0x01\n        /* \"@openzeppelin/contracts/token/ERC20/ERC20.sol\":9073:9081  _approve */\n      tag_181\n        /* \"@openzeppelin/contracts/token/ERC20/ERC20.sol\":9073:9110  _approve(owner, spender, value, true) */\n      jump\t// in\n    tag_180:\n        /* \"@openzeppelin/contracts/token/ERC20/ERC20.sol\":8989:9117  function _approve(address owner, address spender, uint256 value) internal {... */\n      pop\n      pop\n      pop\n      jump\t// out\n        /* \"@openzeppelin/contracts/token/ERC20/ERC20.sol\":10663:11140  function _spendAllowance(address owner, address spender, uint256 value) internal virtual {... */\n    tag_106:\n        /* \"@openzeppelin/contracts/token/ERC20/ERC20.sol\":10762:10786  uint256 currentAllowance */\n      0x00\n        /* \"@openzeppelin/contracts/token/ERC20/ERC20.sol\":10789:10814  allowance(owner, spender) */\n      tag_183\n        /* \"@openzeppelin/contracts/token/ERC20/ERC20.sol\":10799:10804  owner */\n      dup5\n        /* \"@openzeppelin/contracts/token/ERC20/ERC20.sol\":10806:10813  spender */\n      dup5\n        /* \"@openzeppelin/contracts/token/ERC20/ERC20.sol\":10789:10798  allowance */\n      tag_82\n        /* \"@openzeppelin/contracts/token/ERC20/ERC20.sol\":10789:10814  allowance(owner, spender) */\n      jump\t// in\n    tag_183:\n        /* \"@openzeppelin/contracts/token/ERC20/ERC20.sol\":10762:10814  uint256 currentAllowance = allowance(owner, spender) */\n      swap1\n      pop\n        /* \"@openzeppelin/contracts/token/ERC20/ERC20.sol\":10848:10865  type(uint256).max */\n      0xffffffffffffffffffffffffffffffffffffffffffffffffffffffffffffffff\n        /* \"@openzeppelin/contracts/token/ERC20/ERC20.sol\":10828:10844  currentAllowance */\n      dup2\n        /* \"@openzeppelin/contracts/token/ERC20/ERC20.sol\":10828:10865  currentAllowance != type(uint256).max */\n      eq\n        /* \"@openzeppelin/contracts/token/ERC20/ERC20.sol\":10824:11134  if (currentAllowance != type(uint256).max) {... */\n      tag_184\n      jumpi\n        /* \"@openzeppelin/contracts/token/ERC20/ERC20.sol\":10904:10909  value */\n      dup2\n        /* \"@openzeppelin/contracts/token/ERC20/ERC20.sol\":10885:10901  currentAllowance */\n      dup2\n        /* \"@openzeppelin/contracts/token/ERC20/ERC20.sol\":10885:10909  currentAllowance < value */\n      lt\n        /* \"@openzeppelin/contracts/token/ERC20/ERC20.sol\":10881:11011  if (currentAllowance < value) {... */\n      iszero\n      tag_185\n      jumpi\n        /* \"@openzeppelin/contracts/token/ERC20/ERC20.sol\":10963:10970  spender */\n      dup3\n        /* \"@openzeppelin/contracts/token/ERC20/ERC20.sol\":10972:10988  currentAllowance */\n      dup2\n        /* \"@openzeppelin/contracts/token/ERC20/ERC20.sol\":10990:10995  value */\n      dup4\n        /* \"@openzeppelin/contracts/token/ERC20/ERC20.sol\":10936:10996  ERC20InsufficientAllowance(spender, currentAllowance, value) */\n      mload(0x40)\n      0xfb8f41b200000000000000000000000000000000000000000000000000000000\n      dup2\n      mstore\n      0x04\n      add\n      tag_186\n      swap4\n      swap3\n      swap2\n      swap1\n      tag_187\n      jump\t// in\n    tag_186:\n      mload(0x40)\n      dup1\n      swap2\n      sub\n      swap1\n      revert\n        /* \"@openzeppelin/contracts/token/ERC20/ERC20.sol\":10881:11011  if (currentAllowance < value) {... */\n    tag_185:\n        /* \"@openzeppelin/contracts/token/ERC20/ERC20.sol\":11052:11109  _approve(owner, spender, currentAllowance - value, false) */\n      tag_188\n        /* \"@openzeppelin/contracts/token/ERC20/ERC20.sol\":11061:11066  owner */\n      dup5\n        /* \"@openzeppelin/contracts/token/ERC20/ERC20.sol\":11068:11075  spender */\n      dup5\n        /* \"@openzeppelin/contracts/token/ERC20/ERC20.sol\":11096:11101  value */\n      dup5\n        /* \"@openzeppelin/contracts/token/ERC20/ERC20.sol\":11077:11093  currentAllowance */\n      dup5\n        /* \"@openzeppelin/contracts/token/ERC20/ERC20.sol\":11077:11101  currentAllowance - value */\n      sub\n        /* \"@openzeppelin/contracts/token/ERC20/ERC20.sol\":11103:11108  false */\n      0x00\n        /* \"@openzeppelin/contracts/token/ERC20/ERC20.sol\":11052:11060  _approve */\n      tag_181\n        /* \"@openzeppelin/contracts/token/ERC20/ERC20.sol\":11052:11109  _approve(owner, spender, currentAllowance - value, false) */\n      jump\t// in\n    tag_188:\n        /* \"@openzeppelin/contracts/token/ERC20/ERC20.sol\":10824:11134  if (currentAllowance != type(uint256).max) {... */\n    tag_184:\n        /* \"@openzeppelin/contracts/token/ERC20/ERC20.sol\":10752:11140  {... */\n      pop\n        /* \"@openzeppelin/contracts/token/ERC20/ERC20.sol\":10663:11140  function _spendAllowance(address owner, address spender, uint256 value) internal virtual {... */\n      pop\n      pop\n      pop\n      jump\t// out\n        /* \"@openzeppelin/contracts/token/ERC20/ERC20.sol\":5656:5956  function _transfer(address from, address to, uint256 value) internal {... */\n    tag_108:\n        /* \"@openzeppelin/contracts/token/ERC20/ERC20.sol\":5755:5756  0 */\n      0x00\n        /* \"@openzeppelin/contracts/token/ERC20/ERC20.sol\":5739:5757  from == address(0) */\n      0xffffffffffffffffffffffffffffffffffffffff\n      and\n        /* \"@openzeppelin/contracts/token/ERC20/ERC20.sol\":5739:5743  from */\n      dup4\n        /* \"@openzeppelin/contracts/token/ERC20/ERC20.sol\":5739:5757  from == address(0) */\n      0xffffffffffffffffffffffffffffffffffffffff\n      and\n      sub\n        /* \"@openzeppelin/contracts/token/ERC20/ERC20.sol\":5735:5821  if (from == address(0)) {... */\n      tag_190\n      jumpi\n        /* \"@openzeppelin/contracts/token/ERC20/ERC20.sol\":5807:5808  0 */\n      0x00\n        /* \"@openzeppelin/contracts/token/ERC20/ERC20.sol\":5780:5810  ERC20InvalidSender(address(0)) */\n      mload(0x40)\n      0x96c6fd1e00000000000000000000000000000000000000000000000000000000\n      dup2\n      mstore\n      0x04\n      add\n      tag_191\n      swap2\n      swap1\n      tag_192\n      jump\t// in\n    tag_191:\n      mload(0x40)\n      dup1\n      swap2\n      sub\n      swap1\n      revert\n        /* \"@openzeppelin/contracts/token/ERC20/ERC20.sol\":5735:5821  if (from == address(0)) {... */\n    tag_190:\n        /* \"@openzeppelin/contracts/token/ERC20/ERC20.sol\":5848:5849  0 */\n      0x00\n        /* \"@openzeppelin/contracts/token/ERC20/ERC20.sol\":5834:5850  to == address(0) */\n      0xffffffffffffffffffffffffffffffffffffffff\n      and\n        /* \"@openzeppelin/contracts/token/ERC20/ERC20.sol\":5834:5836  to */\n      dup3\n        /* \"@openzeppelin/contracts/token/ERC20/ERC20.sol\":5834:5850  to == address(0) */\n      0xffffffffffffffffffffffffffffffffffffffff\n      and\n      sub\n        /* \"@openzeppelin/contracts/token/ERC20/ERC20.sol\":5830:5916  if (to == address(0)) {... */\n      tag_193\n      jumpi\n        /* \"@openzeppelin/contracts/token/ERC20/ERC20.sol\":5902:5903  0 */\n      0x00\n        /* \"@openzeppelin/contracts/token/ERC20/ERC20.sol\":5873:5905  ERC20InvalidReceiver(address(0)) */\n      mload(0x40)\n      0xec442f0500000000000000000000000000000000000000000000000000000000\n      dup2\n      mstore\n      0x04\n      add\n      tag_194\n      swap2\n      swap1\n      tag_192\n      jump\t// in\n    tag_194:\n      mload(0x40)\n      dup1\n      swap2\n      sub\n      swap1\n      revert\n        /* \"@openzeppelin/contracts/token/ERC20/ERC20.sol\":5830:5916  if (to == address(0)) {... */\n    tag_193:\n        /* \"@openzeppelin/contracts/token/ERC20/ERC20.sol\":5925:5949  _update(from, to, value) */\n      tag_195\n        /* \"@openzeppelin/contracts/token/ERC20/ERC20.sol\":5933:5937  from */\n      dup4\n        /* \"@openzeppelin/contracts/token/ERC20/ERC20.sol\":5939:5941  to */\n      dup4\n        /* \"@openzeppelin/contracts/token/ERC20/ERC20.sol\":5943:5948  value */\n      dup4\n        /* \"@openzeppelin/contracts/token/ERC20/ERC20.sol\":5925:5932  _update */\n      tag_196\n        /* \"@openzeppelin/contracts/token/ERC20/ERC20.sol\":5925:5949  _update(from, to, value) */\n      jump\t// in\n    tag_195:\n        /* \"@openzeppelin/contracts/token/ERC20/ERC20.sol\":5656:5956  function _transfer(address from, address to, uint256 value) internal {... */\n      pop\n      pop\n      pop\n      jump\t// out\n        /* \"@openzeppelin/contracts/utils/ReentrancyGuard.sol\":2431:2738  function _nonReentrantBefore() private {... */\n    tag_111:\n        /* \"@openzeppelin/contracts/utils/ReentrancyGuard.sol\":1755:1756  2 */\n      0x02\n        /* \"@openzeppelin/contracts/utils/ReentrancyGuard.sol\":2558:2565  _status */\n      sload(0x05)\n        /* \"@openzeppelin/contracts/utils/ReentrancyGuard.sol\":2558:2576  _status == ENTERED */\n      sub\n        /* \"@openzeppelin/contracts/utils/ReentrancyGuard.sol\":2554:2640  if (_status == ENTERED) {... */\n      tag_198\n      jumpi\n        /* \"@openzeppelin/contracts/utils/ReentrancyGuard.sol\":2599:2629  ReentrancyGuardReentrantCall() */\n      mload(0x40)\n      0x3ee5aeb500000000000000000000000000000000000000000000000000000000\n      dup2\n      mstore\n      0x04\n      add\n      mload(0x40)\n      dup1\n      swap2\n      sub\n      swap1\n      revert\n        /* \"@openzeppelin/contracts/utils/ReentrancyGuard.sol\":2554:2640  if (_status == ENTERED) {... */\n    tag_198:\n        /* \"@openzeppelin/contracts/utils/ReentrancyGuard.sol\":1755:1756  2 */\n      0x02\n        /* \"@openzeppelin/contracts/utils/ReentrancyGuard.sol\":2714:2721  _status */\n      0x05\n        /* \"@openzeppelin/contracts/utils/ReentrancyGuard.sol\":2714:2731  _status = ENTERED */\n      dup2\n      swap1\n      sstore\n      pop\n        /* \"@openzeppelin/contracts/utils/ReentrancyGuard.sol\":2431:2738  function _nonReentrantBefore() private {... */\n      jump\t// out\n        /* \"@openzeppelin/contracts/token/ERC20/ERC20.sol\":8247:8453  function _burn(address account, uint256 value) internal {... */\n    tag_124:\n        /* \"@openzeppelin/contracts/token/ERC20/ERC20.sol\":8336:8337  0 */\n      0x00\n        /* \"@openzeppelin/contracts/token/ERC20/ERC20.sol\":8317:8338  account == address(0) */\n      0xffffffffffffffffffffffffffffffffffffffff\n      and\n        /* \"@openzeppelin/contracts/token/ERC20/ERC20.sol\":8317:8324  account */\n      dup3\n        /* \"@openzeppelin/contracts/token/ERC20/ERC20.sol\":8317:8338  account == address(0) */\n      0xffffffffffffffffffffffffffffffffffffffff\n      and\n      sub\n        /* \"@openzeppelin/contracts/token/ERC20/ERC20.sol\":8313:8402  if (account == address(0)) {... */\n      tag_200\n      jumpi\n        /* \"@openzeppelin/contracts/token/ERC20/ERC20.sol\":8388:8389  0 */\n      0x00\n        /* \"@openzeppelin/contracts/token/ERC20/ERC20.sol\":8361:8391  ERC20InvalidSender(address(0)) */\n      mload(0x40)\n      0x96c6fd1e00000000000000000000000000000000000000000000000000000000\n      dup2\n      mstore\n      0x04\n      add\n      tag_201\n      swap2\n      swap1\n      tag_192\n      jump\t// in\n    tag_201:\n      mload(0x40)\n      dup1\n      swap2\n      sub\n      swap1\n      revert\n        /* \"@openzeppelin/contracts/token/ERC20/ERC20.sol\":8313:8402  if (account == address(0)) {... */\n    tag_200:\n        /* \"@openzeppelin/contracts/token/ERC20/ERC20.sol\":8411:8446  _update(account, address(0), value) */\n      tag_202\n        /* \"@openzeppelin/contracts/token/ERC20/ERC20.sol\":8419:8426  account */\n      dup3\n        /* \"@openzeppelin/contracts/token/ERC20/ERC20.sol\":8436:8437  0 */\n      0x00\n        /* \"@openzeppelin/contracts/token/ERC20/ERC20.sol\":8440:8445  value */\n      dup4\n        /* \"@openzeppelin/contracts/token/ERC20/ERC20.sol\":8411:8418  _update */\n      tag_196\n        /* \"@openzeppelin/contracts/token/ERC20/ERC20.sol\":8411:8446  _update(account, address(0), value) */\n      jump\t// in\n    tag_202:\n        /* \"@openzeppelin/contracts/token/ERC20/ERC20.sol\":8247:8453  function _burn(address account, uint256 value) internal {... */\n      pop\n      pop\n      jump\t// out\n        /* \"@openzeppelin/contracts/token/ERC20/utils/SafeERC20.sol\":1303:1463  function safeTransfer(IERC20 token, address to, uint256 value) internal {... */\n    tag_129:\n        /* \"@openzeppelin/contracts/token/ERC20/utils/SafeERC20.sol\":1385:1456  _callOptionalReturn(token, abi.encodeCall(token.transfer, (to, value))) */\n      tag_204\n        /* \"@openzeppelin/contracts/token/ERC20/utils/SafeERC20.sol\":1405:1410  token */\n      dup4\n        /* \"@openzeppelin/contracts/token/ERC20/utils/SafeERC20.sol\":1427:1432  token */\n      dup5\n        /* \"@openzeppelin/contracts/token/ERC20/utils/SafeERC20.sol\":1427:1441  token.transfer */\n      0xffffffffffffffffffffffffffffffffffffffff\n      and\n      0xa9059cbb\n        /* \"@openzeppelin/contracts/token/ERC20/utils/SafeERC20.sol\":1444:1446  to */\n      dup6\n        /* \"@openzeppelin/contracts/token/ERC20/utils/SafeERC20.sol\":1448:1453  value */\n      dup6\n        /* \"@openzeppelin/contracts/token/ERC20/utils/SafeERC20.sol\":1412:1455  abi.encodeCall(token.transfer, (to, value)) */\n      add(0x24, mload(0x40))\n      tag_205\n      swap3\n      swap2\n      swap1\n      tag_206\n      jump\t// in\n    tag_205:\n      mload(0x40)\n      0x20\n      dup2\n      dup4\n      sub\n      sub\n      dup2\n      mstore\n      swap1\n      0x40\n      mstore\n      swap2\n      pop\n      0xe0\n      shl\n      0x20\n      dup3\n      add\n      dup1\n      mload\n      0xffffffffffffffffffffffffffffffffffffffffffffffffffffffff\n      dup4\n      dup2\n      dup4\n      and\n      or\n      dup4\n      mstore\n      pop\n      pop\n      pop\n      pop\n        /* \"@openzeppelin/contracts/token/ERC20/utils/SafeERC20.sol\":1385:1404  _callOptionalReturn */\n      tag_207\n        /* \"@openzeppelin/contracts/token/ERC20/utils/SafeERC20.sol\":1385:1456  _callOptionalReturn(token, abi.encodeCall(token.transfer, (to, value))) */\n      jump\t// in\n    tag_204:\n        /* \"@openzeppelin/contracts/token/ERC20/utils/SafeERC20.sol\":1303:1463  function safeTransfer(IERC20 token, address to, uint256 value) internal {... */\n      pop\n      pop\n      pop\n      jump\t// out\n        /* \"@openzeppelin/contracts/utils/ReentrancyGuard.sol\":2744:2952  function _nonReentrantAfter() private {... */\n    tag_134:\n        /* \"@openzeppelin/contracts/utils/ReentrancyGuard.sol\":1713:1714  1 */\n      0x01\n        /* \"@openzeppelin/contracts/utils/ReentrancyGuard.sol\":2924:2931  _status */\n      0x05\n        /* \"@openzeppelin/contracts/utils/ReentrancyGuard.sol\":2924:2945  _status = NOT_ENTERED */\n      dup2\n      swap1\n      sstore\n      pop\n        /* \"@openzeppelin/contracts/utils/ReentrancyGuard.sol\":2744:2952  function _nonReentrantAfter() private {... */\n      jump\t// out\n        /* \"@openzeppelin/contracts/token/ERC20/utils/SafeERC20.sol\":1702:1890  function safeTransferFrom(IERC20 token, address from, address to, uint256 value) internal {... */\n    tag_155:\n        /* \"@openzeppelin/contracts/token/ERC20/utils/SafeERC20.sol\":1802:1883  _callOptionalReturn(token, abi.encodeCall(token.transferFrom, (from, to, value))) */\n      tag_210\n        /* \"@openzeppelin/contracts/token/ERC20/utils/SafeERC20.sol\":1822:1827  token */\n      dup5\n        /* \"@openzeppelin/contracts/token/ERC20/utils/SafeERC20.sol\":1844:1849  token */\n      dup6\n        /* \"@openzeppelin/contracts/token/ERC20/utils/SafeERC20.sol\":1844:1862  token.transferFrom */\n      0xffffffffffffffffffffffffffffffffffffffff\n      and\n      0x23b872dd\n        /* \"@openzeppelin/contracts/token/ERC20/utils/SafeERC20.sol\":1865:1869  from */\n      dup7\n        /* \"@openzeppelin/contracts/token/ERC20/utils/SafeERC20.sol\":1871:1873  to */\n      dup7\n        /* \"@openzeppelin/contracts/token/ERC20/utils/SafeERC20.sol\":1875:1880  value */\n      dup7\n        /* \"@openzeppelin/contracts/token/ERC20/utils/SafeERC20.sol\":1829:1882  abi.encodeCall(token.transferFrom, (from, to, value)) */\n      add(0x24, mload(0x40))\n      tag_211\n      swap4\n      swap3\n      swap2\n      swap1\n      tag_212\n      jump\t// in\n    tag_211:\n      mload(0x40)\n      0x20\n      dup2\n      dup4\n      sub\n      sub\n      dup2\n      mstore\n      swap1\n      0x40\n      mstore\n      swap2\n      pop\n      0xe0\n      shl\n      0x20\n      dup3\n      add\n      dup1\n      mload\n      0xffffffffffffffffffffffffffffffffffffffffffffffffffffffff\n      dup4\n      dup2\n      dup4\n      and\n      or\n      dup4\n      mstore\n      pop\n      pop\n      pop\n      pop\n        /* \"@openzeppelin/contracts/token/ERC20/utils/SafeERC20.sol\":1802:1821  _callOptionalReturn */\n      tag_207\n        /* \"@openzeppelin/contracts/token/ERC20/utils/SafeERC20.sol\":1802:1883  _callOptionalReturn(token, abi.encodeCall(token.transferFrom, (from, to, value))) */\n      jump\t// in\n    tag_210:\n        /* \"@openzeppelin/contracts/token/ERC20/utils/SafeERC20.sol\":1702:1890  function safeTransferFrom(IERC20 token, address from, address to, uint256 value) internal {... */\n      pop\n      pop\n      pop\n      pop\n      jump\t// out\n        /* \"contracts/ERC4626Vault.sol\":2856:3165  function sqrt(uint y) private pure returns (uint z) {... */\n    tag_161:\n        /* \"contracts/ERC4626Vault.sol\":2900:2906  uint z */\n      0x00\n        /* \"contracts/ERC4626Vault.sol\":2926:2927  3 */\n      0x03\n        /* \"contracts/ERC4626Vault.sol\":2922:2923  y */\n      dup3\n        /* \"contracts/ERC4626Vault.sol\":2922:2927  y > 3 */\n      gt\n        /* \"contracts/ERC4626Vault.sol\":2918:3141  if (y > 3) {... */\n      iszero\n      tag_214\n      jumpi\n        /* \"contracts/ERC4626Vault.sol\":2947:2948  y */\n      dup2\n        /* \"contracts/ERC4626Vault.sol\":2943:2948  z = y */\n      swap1\n      pop\n        /* \"contracts/ERC4626Vault.sol\":2962:2968  uint x */\n      0x00\n        /* \"contracts/ERC4626Vault.sol\":2979:2980  1 */\n      0x01\n        /* \"contracts/ERC4626Vault.sol\":2975:2976  2 */\n      0x02\n        /* \"contracts/ERC4626Vault.sol\":2971:2972  y */\n      dup5\n        /* \"contracts/ERC4626Vault.sol\":2971:2976  y / 2 */\n      tag_215\n      swap2\n      swap1\n      tag_120\n      jump\t// in\n    tag_215:\n        /* \"contracts/ERC4626Vault.sol\":2971:2980  y / 2 + 1 */\n      tag_216\n      swap2\n      swap1\n      tag_172\n      jump\t// in\n    tag_216:\n        /* \"contracts/ERC4626Vault.sol\":2962:2980  uint x = y / 2 + 1 */\n      swap1\n      pop\n        /* \"contracts/ERC4626Vault.sol\":2994:3083  while (x < z) {... */\n    tag_217:\n        /* \"contracts/ERC4626Vault.sol\":3005:3006  z */\n      dup2\n        /* \"contracts/ERC4626Vault.sol\":3001:3002  x */\n      dup2\n        /* \"contracts/ERC4626Vault.sol\":3001:3006  x < z */\n      lt\n        /* \"contracts/ERC4626Vault.sol\":2994:3083  while (x < z) {... */\n      iszero\n      tag_218\n      jumpi\n        /* \"contracts/ERC4626Vault.sol\":3030:3031  x */\n      dup1\n        /* \"contracts/ERC4626Vault.sol\":3026:3031  z = x */\n      swap2\n      pop\n        /* \"contracts/ERC4626Vault.sol\":3067:3068  2 */\n      0x02\n        /* \"contracts/ERC4626Vault.sol\":3062:3063  x */\n      dup2\n        /* \"contracts/ERC4626Vault.sol\":3058:3059  x */\n      dup3\n        /* \"contracts/ERC4626Vault.sol\":3054:3055  y */\n      dup6\n        /* \"contracts/ERC4626Vault.sol\":3054:3059  y / x */\n      tag_219\n      swap2\n      swap1\n      tag_120\n      jump\t// in\n    tag_219:\n        /* \"contracts/ERC4626Vault.sol\":3054:3063  y / x + x */\n      tag_220\n      swap2\n      swap1\n      tag_172\n      jump\t// in\n    tag_220:\n        /* \"contracts/ERC4626Vault.sol\":3053:3068  (y / x + x) / 2 */\n      tag_221\n      swap2\n      swap1\n      tag_120\n      jump\t// in\n    tag_221:\n        /* \"contracts/ERC4626Vault.sol\":3049:3068  x = (y / x + x) / 2 */\n      swap1\n      pop\n        /* \"contracts/ERC4626Vault.sol\":2994:3083  while (x < z) {... */\n      jump(tag_217)\n    tag_218:\n        /* \"contracts/ERC4626Vault.sol\":2929:3093  {... */\n      pop\n        /* \"contracts/ERC4626Vault.sol\":2918:3141  if (y > 3) {... */\n      jump(tag_222)\n    tag_214:\n        /* \"contracts/ERC4626Vault.sol\":3108:3109  0 */\n      0x00\n        /* \"contracts/ERC4626Vault.sol\":3103:3104  y */\n      dup3\n        /* \"contracts/ERC4626Vault.sol\":3103:3109  y != 0 */\n      eq\n        /* \"contracts/ERC4626Vault.sol\":3099:3141  if (y != 0) {... */\n      tag_223\n      jumpi\n        /* \"contracts/ERC4626Vault.sol\":3129:3130  1 */\n      0x01\n        /* \"contracts/ERC4626Vault.sol\":3125:3130  z = 1 */\n      swap1\n      pop\n        /* \"contracts/ERC4626Vault.sol\":3099:3141  if (y != 0) {... */\n    tag_223:\n        /* \"contracts/ERC4626Vault.sol\":2918:3141  if (y > 3) {... */\n    tag_222:\n        /* \"contracts/ERC4626Vault.sol\":2856:3165  function sqrt(uint y) private pure returns (uint z) {... */\n      swap2\n      swap1\n      pop\n      jump\t// out\n        /* \"contracts/ERC4626Vault.sol\":3244:3338  function min(uint x, uint y) private pure returns (uint) {... */\n    tag_170:\n        /* \"contracts/ERC4626Vault.sol\":3295:3299  uint */\n      0x00\n        /* \"contracts/ERC4626Vault.sol\":3322:3323  y */\n      dup2\n        /* \"contracts/ERC4626Vault.sol\":3318:3319  x */\n      dup4\n        /* \"contracts/ERC4626Vault.sol\":3318:3323  x < y */\n      lt\n        /* \"contracts/ERC4626Vault.sol\":3318:3331  x < y ? x : y */\n      tag_225\n      jumpi\n        /* \"contracts/ERC4626Vault.sol\":3330:3331  y */\n      dup2\n        /* \"contracts/ERC4626Vault.sol\":3318:3331  x < y ? x : y */\n      jump(tag_226)\n    tag_225:\n        /* \"contracts/ERC4626Vault.sol\":3326:3327  x */\n      dup3\n        /* \"contracts/ERC4626Vault.sol\":3318:3331  x < y ? x : y */\n    tag_226:\n        /* \"contracts/ERC4626Vault.sol\":3311:3331  return x < y ? x : y */\n      swap1\n      pop\n        /* \"contracts/ERC4626Vault.sol\":3244:3338  function min(uint x, uint y) private pure returns (uint) {... */\n      swap3\n      swap2\n      pop\n      pop\n      jump\t// out\n        /* \"@openzeppelin/contracts/token/ERC20/ERC20.sol\":7721:7929  function _mint(address account, uint256 value) internal {... */\n    tag_175:\n        /* \"@openzeppelin/contracts/token/ERC20/ERC20.sol\":7810:7811  0 */\n      0x00\n        /* \"@openzeppelin/contracts/token/ERC20/ERC20.sol\":7791:7812  account == address(0) */\n      0xffffffffffffffffffffffffffffffffffffffff\n      and\n        /* \"@openzeppelin/contracts/token/ERC20/ERC20.sol\":7791:7798  account */\n      dup3\n        /* \"@openzeppelin/contracts/token/ERC20/ERC20.sol\":7791:7812  account == address(0) */\n      0xffffffffffffffffffffffffffffffffffffffff\n      and\n      sub\n        /* \"@openzeppelin/contracts/token/ERC20/ERC20.sol\":7787:7878  if (account == address(0)) {... */\n      tag_228\n      jumpi\n        /* \"@openzeppelin/contracts/token/ERC20/ERC20.sol\":7864:7865  0 */\n      0x00\n        /* \"@openzeppelin/contracts/token/ERC20/ERC20.sol\":7835:7867  ERC20InvalidReceiver(address(0)) */\n      mload(0x40)\n      0xec442f0500000000000000000000000000000000000000000000000000000000\n      dup2\n      mstore\n      0x04\n      add\n      tag_229\n      swap2\n      swap1\n      tag_192\n      jump\t// in\n    tag_229:\n      mload(0x40)\n      dup1\n      swap2\n      sub\n      swap1\n      revert\n        /* \"@openzeppelin/contracts/token/ERC20/ERC20.sol\":7787:7878  if (account == address(0)) {... */\n    tag_228:\n        /* \"@openzeppelin/contracts/token/ERC20/ERC20.sol\":7887:7922  _update(address(0), account, value) */\n      tag_230\n        /* \"@openzeppelin/contracts/token/ERC20/ERC20.sol\":7903:7904  0 */\n      0x00\n        /* \"@openzeppelin/contracts/token/ERC20/ERC20.sol\":7907:7914  account */\n      dup4\n        /* \"@openzeppelin/contracts/token/ERC20/ERC20.sol\":7916:7921  value */\n      dup4\n        /* \"@openzeppelin/contracts/token/ERC20/ERC20.sol\":7887:7894  _update */\n      tag_196\n        /* \"@openzeppelin/contracts/token/ERC20/ERC20.sol\":7887:7922  _update(address(0), account, value) */\n      jump\t// in\n    tag_230:\n        /* \"@openzeppelin/contracts/token/ERC20/ERC20.sol\":7721:7929  function _mint(address account, uint256 value) internal {... */\n      pop\n      pop\n      jump\t// out\n        /* \"@openzeppelin/contracts/token/ERC20/ERC20.sol\":9949:10381  function _approve(address owner, address spender, uint256 value, bool emitEvent) internal virtual {... */\n    tag_181:\n        /* \"@openzeppelin/contracts/token/ERC20/ERC20.sol\":10078:10079  0 */\n      0x00\n        /* \"@openzeppelin/contracts/token/ERC20/ERC20.sol\":10061:10080  owner == address(0) */\n      0xffffffffffffffffffffffffffffffffffffffff\n      and\n        /* \"@openzeppelin/contracts/token/ERC20/ERC20.sol\":10061:10066  owner */\n      dup5\n        /* \"@openzeppelin/contracts/token/ERC20/ERC20.sol\":10061:10080  owner == address(0) */\n      0xffffffffffffffffffffffffffffffffffffffff\n      and\n      sub\n        /* \"@openzeppelin/contracts/token/ERC20/ERC20.sol\":10057:10146  if (owner == address(0)) {... */\n      tag_232\n      jumpi\n        /* \"@openzeppelin/contracts/token/ERC20/ERC20.sol\":10132:10133  0 */\n      0x00\n        /* \"@openzeppelin/contracts/token/ERC20/ERC20.sol\":10103:10135  ERC20InvalidApprover(address(0)) */\n      mload(0x40)\n      0xe602df0500000000000000000000000000000000000000000000000000000000\n      dup2\n      mstore\n      0x04\n      add\n      tag_233\n      swap2\n      swap1\n      tag_192\n      jump\t// in\n    tag_233:\n      mload(0x40)\n      dup1\n      swap2\n      sub\n      swap1\n      revert\n        /* \"@openzeppelin/contracts/token/ERC20/ERC20.sol\":10057:10146  if (owner == address(0)) {... */\n    tag_232:\n        /* \"@openzeppelin/contracts/token/ERC20/ERC20.sol\":10178:10179  0 */\n      0x00\n        /* \"@openzeppelin/contracts/token/ERC20/ERC20.sol\":10159:10180  spender == address(0) */\n      0xffffffffffffffffffffffffffffffffffffffff\n      and\n        /* \"@openzeppelin/contracts/token/ERC20/ERC20.sol\":10159:10166  spender */\n      dup4\n        /* \"@openzeppelin/contracts/token/ERC20/ERC20.sol\":10159:10180  spender == address(0) */\n      0xffffffffffffffffffffffffffffffffffffffff\n      and\n      sub\n        /* \"@openzeppelin/contracts/token/ERC20/ERC20.sol\":10155:10245  if (spender == address(0)) {... */\n      tag_234\n      jumpi\n        /* \"@openzeppelin/contracts/token/ERC20/ERC20.sol\":10231:10232  0 */\n      0x00\n        /* \"@openzeppelin/contracts/token/ERC20/ERC20.sol\":10203:10234  ERC20InvalidSpender(address(0)) */\n      mload(0x40)\n      0x94280d6200000000000000000000000000000000000000000000000000000000\n      dup2\n      mstore\n      0x04\n      add\n      tag_235\n      swap2\n      swap1\n      tag_192\n      jump\t// in\n    tag_235:\n      mload(0x40)\n      dup1\n      swap2\n      sub\n      swap1\n      revert\n        /* \"@openzeppelin/contracts/token/ERC20/ERC20.sol\":10155:10245  if (spender == address(0)) {... */\n    tag_234:\n        /* \"@openzeppelin/contracts/token/ERC20/ERC20.sol\":10284:10289  value */\n      dup2\n        /* \"@openzeppelin/contracts/token/ERC20/ERC20.sol\":10254:10265  _allowances */\n      0x01\n        /* \"@openzeppelin/contracts/token/ERC20/ERC20.sol\":10254:10272  _allowances[owner] */\n      0x00\n        /* \"@openzeppelin/contracts/token/ERC20/ERC20.sol\":10266:10271  owner */\n      dup7\n        /* \"@openzeppelin/contracts/token/ERC20/ERC20.sol\":10254:10272  _allowances[owner] */\n      0xffffffffffffffffffffffffffffffffffffffff\n      and\n      0xffffffffffffffffffffffffffffffffffffffff\n      and\n      dup2\n      mstore\n      0x20\n      add\n      swap1\n      dup2\n      mstore\n      0x20\n      add\n      0x00\n      keccak256\n        /* \"@openzeppelin/contracts/token/ERC20/ERC20.sol\":10254:10281  _allowances[owner][spender] */\n      0x00\n        /* \"@openzeppelin/contracts/token/ERC20/ERC20.sol\":10273:10280  spender */\n      dup6\n        /* \"@openzeppelin/contracts/token/ERC20/ERC20.sol\":10254:10281  _allowances[owner][spender] */\n      0xffffffffffffffffffffffffffffffffffffffff\n      and\n      0xffffffffffffffffffffffffffffffffffffffff\n      and\n      dup2\n      mstore\n      0x20\n      add\n      swap1\n      dup2\n      mstore\n      0x20\n      add\n      0x00\n      keccak256\n        /* \"@openzeppelin/contracts/token/ERC20/ERC20.sol\":10254:10289  _allowances[owner][spender] = value */\n      dup2\n      swap1\n      sstore\n      pop\n        /* \"@openzeppelin/contracts/token/ERC20/ERC20.sol\":10303:10312  emitEvent */\n      dup1\n        /* \"@openzeppelin/contracts/token/ERC20/ERC20.sol\":10299:10375  if (emitEvent) {... */\n      iszero\n      tag_236\n      jumpi\n        /* \"@openzeppelin/contracts/token/ERC20/ERC20.sol\":10349:10356  spender */\n      dup3\n        /* \"@openzeppelin/contracts/token/ERC20/ERC20.sol\":10333:10364  Approval(owner, spender, value) */\n      0xffffffffffffffffffffffffffffffffffffffff\n      and\n        /* \"@openzeppelin/contracts/token/ERC20/ERC20.sol\":10342:10347  owner */\n      dup5\n        /* \"@openzeppelin/contracts/token/ERC20/ERC20.sol\":10333:10364  Approval(owner, spender, value) */\n      0xffffffffffffffffffffffffffffffffffffffff\n      and\n      0x8c5be1e5ebec7d5bd14f71427d1e84f3dd0314c0f7b2291e5b200ac8c7c3b925\n        /* \"@openzeppelin/contracts/token/ERC20/ERC20.sol\":10358:10363  value */\n      dup5\n        /* \"@openzeppelin/contracts/token/ERC20/ERC20.sol\":10333:10364  Approval(owner, spender, value) */\n      mload(0x40)\n      tag_237\n      swap2\n      swap1\n      tag_29\n      jump\t// in\n    tag_237:\n      mload(0x40)\n      dup1\n      swap2\n      sub\n      swap1\n      log3\n        /* \"@openzeppelin/contracts/token/ERC20/ERC20.sol\":10299:10375  if (emitEvent) {... */\n    tag_236:\n        /* \"@openzeppelin/contracts/token/ERC20/ERC20.sol\":9949:10381  function _approve(address owner, address spender, uint256 value, bool emitEvent) internal virtual {... */\n      pop\n      pop\n      pop\n      pop\n      jump\t// out\n        /* \"@openzeppelin/contracts/token/ERC20/ERC20.sol\":6271:7378  function _update(address from, address to, uint256 value) internal virtual {... */\n    tag_196:\n        /* \"@openzeppelin/contracts/token/ERC20/ERC20.sol\":6376:6377  0 */\n      0x00\n        /* \"@openzeppelin/contracts/token/ERC20/ERC20.sol\":6360:6378  from == address(0) */\n      0xffffffffffffffffffffffffffffffffffffffff\n      and\n        /* \"@openzeppelin/contracts/token/ERC20/ERC20.sol\":6360:6364  from */\n      dup4\n        /* \"@openzeppelin/contracts/token/ERC20/ERC20.sol\":6360:6378  from == address(0) */\n      0xffffffffffffffffffffffffffffffffffffffff\n      and\n      sub\n        /* \"@openzeppelin/contracts/token/ERC20/ERC20.sol\":6356:6896  if (from == address(0)) {... */\n      tag_239\n      jumpi\n        /* \"@openzeppelin/contracts/token/ERC20/ERC20.sol\":6512:6517  value */\n      dup1\n        /* \"@openzeppelin/contracts/token/ERC20/ERC20.sol\":6496:6508  _totalSupply */\n      0x02\n      0x00\n        /* \"@openzeppelin/contracts/token/ERC20/ERC20.sol\":6496:6517  _totalSupply += value */\n      dup3\n      dup3\n      sload\n      tag_240\n      swap2\n      swap1\n      tag_172\n      jump\t// in\n    tag_240:\n      swap3\n      pop\n      pop\n      dup2\n      swap1\n      sstore\n      pop\n        /* \"@openzeppelin/contracts/token/ERC20/ERC20.sol\":6356:6896  if (from == address(0)) {... */\n      jump(tag_241)\n    tag_239:\n        /* \"@openzeppelin/contracts/token/ERC20/ERC20.sol\":6548:6567  uint256 fromBalance */\n      0x00\n        /* \"@openzeppelin/contracts/token/ERC20/ERC20.sol\":6570:6579  _balances */\n      dup1\n        /* \"@openzeppelin/contracts/token/ERC20/ERC20.sol\":6570:6585  _balances[from] */\n      0x00\n        /* \"@openzeppelin/contracts/token/ERC20/ERC20.sol\":6580:6584  from */\n      dup6\n        /* \"@openzeppelin/contracts/token/ERC20/ERC20.sol\":6570:6585  _balances[from] */\n      0xffffffffffffffffffffffffffffffffffffffff\n      and\n      0xffffffffffffffffffffffffffffffffffffffff\n      and\n      dup2\n      mstore\n      0x20\n      add\n      swap1\n      dup2\n      mstore\n      0x20\n      add\n      0x00\n      keccak256\n      sload\n        /* \"@openzeppelin/contracts/token/ERC20/ERC20.sol\":6548:6585  uint256 fromBalance = _balances[from] */\n      swap1\n      pop\n        /* \"@openzeppelin/contracts/token/ERC20/ERC20.sol\":6617:6622  value */\n      dup2\n        /* \"@openzeppelin/contracts/token/ERC20/ERC20.sol\":6603:6614  fromBalance */\n      dup2\n        /* \"@openzeppelin/contracts/token/ERC20/ERC20.sol\":6603:6622  fromBalance < value */\n      lt\n        /* \"@openzeppelin/contracts/token/ERC20/ERC20.sol\":6599:6714  if (fromBalance < value) {... */\n      iszero\n      tag_242\n      jumpi\n        /* \"@openzeppelin/contracts/token/ERC20/ERC20.sol\":6674:6678  from */\n      dup4\n        /* \"@openzeppelin/contracts/token/ERC20/ERC20.sol\":6680:6691  fromBalance */\n      dup2\n        /* \"@openzeppelin/contracts/token/ERC20/ERC20.sol\":6693:6698  value */\n      dup4\n        /* \"@openzeppelin/contracts/token/ERC20/ERC20.sol\":6649:6699  ERC20InsufficientBalance(from, fromBalance, value) */\n      mload(0x40)\n      0xe450d38c00000000000000000000000000000000000000000000000000000000\n      dup2\n      mstore\n      0x04\n      add\n      tag_243\n      swap4\n      swap3\n      swap2\n      swap1\n      tag_187\n      jump\t// in\n    tag_243:\n      mload(0x40)\n      dup1\n      swap2\n      sub\n      swap1\n      revert\n        /* \"@openzeppelin/contracts/token/ERC20/ERC20.sol\":6599:6714  if (fromBalance < value) {... */\n    tag_242:\n        /* \"@openzeppelin/contracts/token/ERC20/ERC20.sol\":6866:6871  value */\n      dup2\n        /* \"@openzeppelin/contracts/token/ERC20/ERC20.sol\":6852:6863  fromBalance */\n      dup2\n        /* \"@openzeppelin/contracts/token/ERC20/ERC20.sol\":6852:6871  fromBalance - value */\n      sub\n        /* \"@openzeppelin/contracts/token/ERC20/ERC20.sol\":6834:6843  _balances */\n      0x00\n        /* \"@openzeppelin/contracts/token/ERC20/ERC20.sol\":6834:6849  _balances[from] */\n      dup1\n        /* \"@openzeppelin/contracts/token/ERC20/ERC20.sol\":6844:6848  from */\n      dup7\n        /* \"@openzeppelin/contracts/token/ERC20/ERC20.sol\":6834:6849  _balances[from] */\n      0xffffffffffffffffffffffffffffffffffffffff\n      and\n      0xffffffffffffffffffffffffffffffffffffffff\n      and\n      dup2\n      mstore\n      0x20\n      add\n      swap1\n      dup2\n      mstore\n      0x20\n      add\n      0x00\n      keccak256\n        /* \"@openzeppelin/contracts/token/ERC20/ERC20.sol\":6834:6871  _balances[from] = fromBalance - value */\n      dup2\n      swap1\n      sstore\n      pop\n        /* \"@openzeppelin/contracts/token/ERC20/ERC20.sol\":6534:6896  {... */\n      pop\n        /* \"@openzeppelin/contracts/token/ERC20/ERC20.sol\":6356:6896  if (from == address(0)) {... */\n    tag_241:\n        /* \"@openzeppelin/contracts/token/ERC20/ERC20.sol\":6924:6925  0 */\n      0x00\n        /* \"@openzeppelin/contracts/token/ERC20/ERC20.sol\":6910:6926  to == address(0) */\n      0xffffffffffffffffffffffffffffffffffffffff\n      and\n        /* \"@openzeppelin/contracts/token/ERC20/ERC20.sol\":6910:6912  to */\n      dup3\n        /* \"@openzeppelin/contracts/token/ERC20/ERC20.sol\":6910:6926  to == address(0) */\n      0xffffffffffffffffffffffffffffffffffffffff\n      and\n      sub\n        /* \"@openzeppelin/contracts/token/ERC20/ERC20.sol\":6906:7331  if (to == address(0)) {... */\n      tag_244\n      jumpi\n        /* \"@openzeppelin/contracts/token/ERC20/ERC20.sol\":7089:7094  value */\n      dup1\n        /* \"@openzeppelin/contracts/token/ERC20/ERC20.sol\":7073:7085  _totalSupply */\n      0x02\n      0x00\n        /* \"@openzeppelin/contracts/token/ERC20/ERC20.sol\":7073:7094  _totalSupply -= value */\n      dup3\n      dup3\n      sload\n      sub\n      swap3\n      pop\n      pop\n      dup2\n      swap1\n      sstore\n      pop\n        /* \"@openzeppelin/contracts/token/ERC20/ERC20.sol\":6906:7331  if (to == address(0)) {... */\n      jump(tag_245)\n    tag_244:\n        /* \"@openzeppelin/contracts/token/ERC20/ERC20.sol\":7301:7306  value */\n      dup1\n        /* \"@openzeppelin/contracts/token/ERC20/ERC20.sol\":7284:7293  _balances */\n      0x00\n        /* \"@openzeppelin/contracts/token/ERC20/ERC20.sol\":7284:7297  _balances[to] */\n      dup1\n        /* \"@openzeppelin/contracts/token/ERC20/ERC20.sol\":7294:7296  to */\n      dup5\n        /* \"@openzeppelin/contracts/token/ERC20/ERC20.sol\":7284:7297  _balances[to] */\n      0xffffffffffffffffffffffffffffffffffffffff\n      and\n      0xffffffffffffffffffffffffffffffffffffffff\n      and\n      dup2\n      mstore\n      0x20\n      add\n      swap1\n      dup2\n      mstore\n      0x20\n      add\n      0x00\n      keccak256\n      0x00\n        /* \"@openzeppelin/contracts/token/ERC20/ERC20.sol\":7284:7306  _balances[to] += value */\n      dup3\n      dup3\n      sload\n      add\n      swap3\n      pop\n      pop\n      dup2\n      swap1\n      sstore\n      pop\n        /* \"@openzeppelin/contracts/token/ERC20/ERC20.sol\":6906:7331  if (to == address(0)) {... */\n    tag_245:\n        /* \"@openzeppelin/contracts/token/ERC20/ERC20.sol\":7361:7363  to */\n      dup2\n        /* \"@openzeppelin/contracts/token/ERC20/ERC20.sol\":7346:7371  Transfer(from, to, value) */\n      0xffffffffffffffffffffffffffffffffffffffff\n      and\n        /* \"@openzeppelin/contracts/token/ERC20/ERC20.sol\":7355:7359  from */\n      dup4\n        /* \"@openzeppelin/contracts/token/ERC20/ERC20.sol\":7346:7371  Transfer(from, to, value) */\n      0xffffffffffffffffffffffffffffffffffffffff\n      and\n      0xddf252ad1be2c89b69c2b068fc378daa952ba7f163c4a11628f55a4df523b3ef\n        /* \"@openzeppelin/contracts/token/ERC20/ERC20.sol\":7365:7370  value */\n      dup4\n        /* \"@openzeppelin/contracts/token/ERC20/ERC20.sol\":7346:7371  Transfer(from, to, value) */\n      mload(0x40)\n      tag_246\n      swap2\n      swap1\n      tag_29\n      jump\t// in\n    tag_246:\n      mload(0x40)\n      dup1\n      swap2\n      sub\n      swap1\n      log3\n        /* \"@openzeppelin/contracts/token/ERC20/ERC20.sol\":6271:7378  function _update(address from, address to, uint256 value) internal virtual {... */\n      pop\n      pop\n      pop\n      jump\t// out\n        /* \"@openzeppelin/contracts/token/ERC20/utils/SafeERC20.sol\":4059:4688  function _callOptionalReturn(IERC20 token, bytes memory data) private {... */\n    tag_207:\n        /* \"@openzeppelin/contracts/token/ERC20/utils/SafeERC20.sol\":4478:4501  bytes memory returndata */\n      0x00\n        /* \"@openzeppelin/contracts/token/ERC20/utils/SafeERC20.sol\":4504:4537  address(token).functionCall(data) */\n      tag_248\n        /* \"@openzeppelin/contracts/token/ERC20/utils/SafeERC20.sol\":4532:4536  data */\n      dup3\n        /* \"@openzeppelin/contracts/token/ERC20/utils/SafeERC20.sol\":4512:4517  token */\n      dup5\n        /* \"@openzeppelin/contracts/token/ERC20/utils/SafeERC20.sol\":4504:4531  address(token).functionCall */\n      0xffffffffffffffffffffffffffffffffffffffff\n      and\n      tag_249\n      swap1\n        /* \"@openzeppelin/contracts/token/ERC20/utils/SafeERC20.sol\":4504:4537  address(token).functionCall(data) */\n      swap2\n      swap1\n      0xffffffff\n      and\n      jump\t// in\n    tag_248:\n        /* \"@openzeppelin/contracts/token/ERC20/utils/SafeERC20.sol\":4478:4537  bytes memory returndata = address(token).functionCall(data) */\n      swap1\n      pop\n        /* \"@openzeppelin/contracts/token/ERC20/utils/SafeERC20.sol\":4572:4573  0 */\n      0x00\n        /* \"@openzeppelin/contracts/token/ERC20/utils/SafeERC20.sol\":4551:4561  returndata */\n      dup2\n        /* \"@openzeppelin/contracts/token/ERC20/utils/SafeERC20.sol\":4551:4568  returndata.length */\n      mload\n        /* \"@openzeppelin/contracts/token/ERC20/utils/SafeERC20.sol\":4551:4573  returndata.length != 0 */\n      eq\n      iszero\n        /* \"@openzeppelin/contracts/token/ERC20/utils/SafeERC20.sol\":4551:4608  returndata.length != 0 && !abi.decode(returndata, (bool)) */\n      dup1\n      iszero\n      tag_250\n      jumpi\n      pop\n        /* \"@openzeppelin/contracts/token/ERC20/utils/SafeERC20.sol\":4589:4599  returndata */\n      dup1\n        /* \"@openzeppelin/contracts/token/ERC20/utils/SafeERC20.sol\":4578:4608  abi.decode(returndata, (bool)) */\n      dup1\n      0x20\n      add\n      swap1\n      mload\n      dup2\n      add\n      swap1\n      tag_251\n      swap2\n      swap1\n      tag_252\n      jump\t// in\n    tag_251:\n        /* \"@openzeppelin/contracts/token/ERC20/utils/SafeERC20.sol\":4577:4608  !abi.decode(returndata, (bool)) */\n      iszero\n        /* \"@openzeppelin/contracts/token/ERC20/utils/SafeERC20.sol\":4551:4608  returndata.length != 0 && !abi.decode(returndata, (bool)) */\n    tag_250:\n        /* \"@openzeppelin/contracts/token/ERC20/utils/SafeERC20.sol\":4547:4682  if (returndata.length != 0 && !abi.decode(returndata, (bool))) {... */\n      iszero\n      tag_253\n      jumpi\n        /* \"@openzeppelin/contracts/token/ERC20/utils/SafeERC20.sol\":4664:4669  token */\n      dup3\n        /* \"@openzeppelin/contracts/token/ERC20/utils/SafeERC20.sol\":4631:4671  SafeERC20FailedOperation(address(token)) */\n      mload(0x40)\n      0x5274afe700000000000000000000000000000000000000000000000000000000\n      dup2\n      mstore\n      0x04\n      add\n      tag_254\n      swap2\n      swap1\n      tag_192\n      jump\t// in\n    tag_254:\n      mload(0x40)\n      dup1\n      swap2\n      sub\n      swap1\n      revert\n        /* \"@openzeppelin/contracts/token/ERC20/utils/SafeERC20.sol\":4547:4682  if (returndata.length != 0 && !abi.decode(returndata, (bool))) {... */\n    tag_253:\n        /* \"@openzeppelin/contracts/token/ERC20/utils/SafeERC20.sol\":4129:4688  {... */\n      pop\n        /* \"@openzeppelin/contracts/token/ERC20/utils/SafeERC20.sol\":4059:4688  function _callOptionalReturn(IERC20 token, bytes memory data) private {... */\n      pop\n      pop\n      jump\t// out\n        /* \"@openzeppelin/contracts/utils/Address.sol\":2705:2856  function functionCall(address target, bytes memory data) internal returns (bytes memory) {... */\n    tag_249:\n        /* \"@openzeppelin/contracts/utils/Address.sol\":2780:2792  bytes memory */\n      0x60\n        /* \"@openzeppelin/contracts/utils/Address.sol\":2811:2849  functionCallWithValue(target, data, 0) */\n      tag_256\n        /* \"@openzeppelin/contracts/utils/Address.sol\":2833:2839  target */\n      dup4\n        /* \"@openzeppelin/contracts/utils/Address.sol\":2841:2845  data */\n      dup4\n        /* \"@openzeppelin/contracts/utils/Address.sol\":2847:2848  0 */\n      0x00\n        /* \"@openzeppelin/contracts/utils/Address.sol\":2811:2832  functionCallWithValue */\n      tag_257\n        /* \"@openzeppelin/contracts/utils/Address.sol\":2811:2849  functionCallWithValue(target, data, 0) */\n      jump\t// in\n    tag_256:\n        /* \"@openzeppelin/contracts/utils/Address.sol\":2804:2849  return functionCallWithValue(target, data, 0) */\n      swap1\n      pop\n        /* \"@openzeppelin/contracts/utils/Address.sol\":2705:2856  function functionCall(address target, bytes memory data) internal returns (bytes memory) {... */\n      swap3\n      swap2\n      pop\n      pop\n      jump\t// out\n        /* \"@openzeppelin/contracts/utils/Address.sol\":3180:3572  function functionCallWithValue(address target, bytes memory data, uint256 value) internal returns (bytes memory) {... */\n    tag_257:\n        /* \"@openzeppelin/contracts/utils/Address.sol\":3279:3291  bytes memory */\n      0x60\n        /* \"@openzeppelin/contracts/utils/Address.sol\":3331:3336  value */\n      dup2\n        /* \"@openzeppelin/contracts/utils/Address.sol\":3307:3328  address(this).balance */\n      selfbalance\n        /* \"@openzeppelin/contracts/utils/Address.sol\":3307:3336  address(this).balance < value */\n      lt\n        /* \"@openzeppelin/contracts/utils/Address.sol\":3303:3411  if (address(this).balance < value) {... */\n      iszero\n      tag_259\n      jumpi\n        /* \"@openzeppelin/contracts/utils/Address.sol\":3394:3398  this */\n      address\n        /* \"@openzeppelin/contracts/utils/Address.sol\":3359:3400  AddressInsufficientBalance(address(this)) */\n      mload(0x40)\n      0xcd78605900000000000000000000000000000000000000000000000000000000\n      dup2\n      mstore\n      0x04\n      add\n      tag_260\n      swap2\n      swap1\n      tag_192\n      jump\t// in\n    tag_260:\n      mload(0x40)\n      dup1\n      swap2\n      sub\n      swap1\n      revert\n        /* \"@openzeppelin/contracts/utils/Address.sol\":3303:3411  if (address(this).balance < value) {... */\n    tag_259:\n        /* \"@openzeppelin/contracts/utils/Address.sol\":3421:3433  bool success */\n      0x00\n        /* \"@openzeppelin/contracts/utils/Address.sol\":3435:3458  bytes memory returndata */\n      dup1\n        /* \"@openzeppelin/contracts/utils/Address.sol\":3462:3468  target */\n      dup6\n        /* \"@openzeppelin/contracts/utils/Address.sol\":3462:3473  target.call */\n      0xffffffffffffffffffffffffffffffffffffffff\n      and\n        /* \"@openzeppelin/contracts/utils/Address.sol\":3481:3486  value */\n      dup5\n        /* \"@openzeppelin/contracts/utils/Address.sol\":3488:3492  data */\n      dup7\n        /* \"@openzeppelin/contracts/utils/Address.sol\":3462:3493  target.call{value: value}(data) */\n      mload(0x40)\n      tag_261\n      swap2\n      swap1\n      tag_262\n      jump\t// in\n    tag_261:\n      0x00\n      mload(0x40)\n      dup1\n      dup4\n      sub\n      dup2\n      dup6\n      dup8\n      gas\n      call\n      swap3\n      pop\n      pop\n      pop\n      returndatasize\n      dup1\n      0x00\n      dup2\n      eq\n      tag_265\n      jumpi\n      mload(0x40)\n      swap2\n      pop\n      and(add(returndatasize, 0x3f), not(0x1f))\n      dup3\n      add\n      0x40\n      mstore\n      returndatasize\n      dup3\n      mstore\n      returndatasize\n      0x00\n      0x20\n      dup5\n      add\n      returndatacopy\n      jump(tag_264)\n    tag_265:\n      0x60\n      swap2\n      pop\n    tag_264:\n      pop\n        /* \"@openzeppelin/contracts/utils/Address.sol\":3420:3493  (bool success, bytes memory returndata) = target.call{value: value}(data) */\n      swap2\n      pop\n      swap2\n      pop\n        /* \"@openzeppelin/contracts/utils/Address.sol\":3510:3565  verifyCallResultFromTarget(target, success, returndata) */\n      tag_266\n        /* \"@openzeppelin/contracts/utils/Address.sol\":3537:3543  target */\n      dup7\n        /* \"@openzeppelin/contracts/utils/Address.sol\":3545:3552  success */\n      dup4\n        /* \"@openzeppelin/contracts/utils/Address.sol\":3554:3564  returndata */\n      dup4\n        /* \"@openzeppelin/contracts/utils/Address.sol\":3510:3536  verifyCallResultFromTarget */\n      tag_267\n        /* \"@openzeppelin/contracts/utils/Address.sol\":3510:3565  verifyCallResultFromTarget(target, success, returndata) */\n      jump\t// in\n    tag_266:\n        /* \"@openzeppelin/contracts/utils/Address.sol\":3503:3565  return verifyCallResultFromTarget(target, success, returndata) */\n      swap3\n      pop\n      pop\n      pop\n        /* \"@openzeppelin/contracts/utils/Address.sol\":3180:3572  function functionCallWithValue(address target, bytes memory data, uint256 value) internal returns (bytes memory) {... */\n      swap4\n      swap3\n      pop\n      pop\n      pop\n      jump\t// out\n        /* \"@openzeppelin/contracts/utils/Address.sol\":4625:5207  function verifyCallResultFromTarget(... */\n    tag_267:\n        /* \"@openzeppelin/contracts/utils/Address.sol\":4769:4781  bytes memory */\n      0x60\n        /* \"@openzeppelin/contracts/utils/Address.sol\":4798:4805  success */\n      dup3\n        /* \"@openzeppelin/contracts/utils/Address.sol\":4793:5201  if (!success) {... */\n      tag_269\n      jumpi\n        /* \"@openzeppelin/contracts/utils/Address.sol\":4821:4840  _revert(returndata) */\n      tag_270\n        /* \"@openzeppelin/contracts/utils/Address.sol\":4829:4839  returndata */\n      dup3\n        /* \"@openzeppelin/contracts/utils/Address.sol\":4821:4828  _revert */\n      tag_271\n        /* \"@openzeppelin/contracts/utils/Address.sol\":4821:4840  _revert(returndata) */\n      jump\t// in\n    tag_270:\n        /* \"@openzeppelin/contracts/utils/Address.sol\":4793:5201  if (!success) {... */\n      jump(tag_272)\n    tag_269:\n        /* \"@openzeppelin/contracts/utils/Address.sol\":5066:5067  0 */\n      0x00\n        /* \"@openzeppelin/contracts/utils/Address.sol\":5045:5055  returndata */\n      dup3\n        /* \"@openzeppelin/contracts/utils/Address.sol\":5045:5062  returndata.length */\n      mload\n        /* \"@openzeppelin/contracts/utils/Address.sol\":5045:5067  returndata.length == 0 */\n      eq\n        /* \"@openzeppelin/contracts/utils/Address.sol\":5045:5094  returndata.length == 0 && target.code.length == 0 */\n      dup1\n      iszero\n      tag_273\n      jumpi\n      pop\n        /* \"@openzeppelin/contracts/utils/Address.sol\":5093:5094  0 */\n      0x00\n        /* \"@openzeppelin/contracts/utils/Address.sol\":5071:5077  target */\n      dup5\n        /* \"@openzeppelin/contracts/utils/Address.sol\":5071:5089  target.code.length */\n      0xffffffffffffffffffffffffffffffffffffffff\n      and\n      extcodesize\n        /* \"@openzeppelin/contracts/utils/Address.sol\":5071:5094  target.code.length == 0 */\n      eq\n        /* \"@openzeppelin/contracts/utils/Address.sol\":5045:5094  returndata.length == 0 && target.code.length == 0 */\n    tag_273:\n        /* \"@openzeppelin/contracts/utils/Address.sol\":5041:5160  if (returndata.length == 0 && target.code.length == 0) {... */\n      iszero\n      tag_274\n      jumpi\n        /* \"@openzeppelin/contracts/utils/Address.sol\":5138:5144  target */\n      dup4\n        /* \"@openzeppelin/contracts/utils/Address.sol\":5121:5145  AddressEmptyCode(target) */\n      mload(0x40)\n      0x9996b31500000000000000000000000000000000000000000000000000000000\n      dup2\n      mstore\n      0x04\n      add\n      tag_275\n      swap2\n      swap1\n      tag_192\n      jump\t// in\n    tag_275:\n      mload(0x40)\n      dup1\n      swap2\n      sub\n      swap1\n      revert\n        /* \"@openzeppelin/contracts/utils/Address.sol\":5041:5160  if (returndata.length == 0 && target.code.length == 0) {... */\n    tag_274:\n        /* \"@openzeppelin/contracts/utils/Address.sol\":5180:5190  returndata */\n      dup2\n        /* \"@openzeppelin/contracts/utils/Address.sol\":5173:5190  return returndata */\n      swap1\n      pop\n      jump(tag_268)\n        /* \"@openzeppelin/contracts/utils/Address.sol\":4793:5201  if (!success) {... */\n    tag_272:\n        /* \"@openzeppelin/contracts/utils/Address.sol\":4625:5207  function verifyCallResultFromTarget(... */\n    tag_268:\n      swap4\n      swap3\n      pop\n      pop\n      pop\n      jump\t// out\n        /* \"@openzeppelin/contracts/utils/Address.sol\":5743:6259  function _revert(bytes memory returndata) private pure {... */\n    tag_271:\n        /* \"@openzeppelin/contracts/utils/Address.sol\":5894:5895  0 */\n      0x00\n        /* \"@openzeppelin/contracts/utils/Address.sol\":5874:5884  returndata */\n      dup2\n        /* \"@openzeppelin/contracts/utils/Address.sol\":5874:5891  returndata.length */\n      mload\n        /* \"@openzeppelin/contracts/utils/Address.sol\":5874:5895  returndata.length > 0 */\n      gt\n        /* \"@openzeppelin/contracts/utils/Address.sol\":5870:6253  if (returndata.length > 0) {... */\n      iszero\n      tag_277\n      jumpi\n        /* \"@openzeppelin/contracts/utils/Address.sol\":6102:6112  returndata */\n      dup1\n        /* \"@openzeppelin/contracts/utils/Address.sol\":6096:6113  mload(returndata) */\n      mload\n        /* \"@openzeppelin/contracts/utils/Address.sol\":6158:6173  returndata_size */\n      dup1\n        /* \"@openzeppelin/contracts/utils/Address.sol\":6145:6155  returndata */\n      dup3\n        /* \"@openzeppelin/contracts/utils/Address.sol\":6141:6143  32 */\n      0x20\n        /* \"@openzeppelin/contracts/utils/Address.sol\":6137:6156  add(32, returndata) */\n      add\n        /* \"@openzeppelin/contracts/utils/Address.sol\":6130:6174  revert(add(32, returndata), returndata_size) */\n      revert\n        /* \"@openzeppelin/contracts/utils/Address.sol\":5870:6253  if (returndata.length > 0) {... */\n    tag_277:\n        /* \"@openzeppelin/contracts/utils/Address.sol\":6225:6242  FailedInnerCall() */\n      mload(0x40)\n      0x1425ea4200000000000000000000000000000000000000000000000000000000\n      dup2\n      mstore\n      0x04\n      add\n      mload(0x40)\n      dup1\n      swap2\n      sub\n      swap1\n      revert\n        /* \"#utility.yul\":7:84   */\n    tag_279:\n        /* \"#utility.yul\":44:51   */\n      0x00\n        /* \"#utility.yul\":73:78   */\n      dup2\n        /* \"#utility.yul\":62:78   */\n      swap1\n      pop\n        /* \"#utility.yul\":7:84   */\n      swap2\n      swap1\n      pop\n      jump\t// out\n        /* \"#utility.yul\":90:208   */\n    tag_280:\n        /* \"#utility.yul\":177:201   */\n      tag_320\n        /* \"#utility.yul\":195:200   */\n      dup2\n        /* \"#utility.yul\":177:201   */\n      tag_279\n      jump\t// in\n    tag_320:\n        /* \"#utility.yul\":172:175   */\n      dup3\n        /* \"#utility.yul\":165:202   */\n      mstore\n        /* \"#utility.yul\":90:208   */\n      pop\n      pop\n      jump\t// out\n        /* \"#utility.yul\":214:546   */\n    tag_25:\n        /* \"#utility.yul\":335:339   */\n      0x00\n        /* \"#utility.yul\":373:375   */\n      0x40\n        /* \"#utility.yul\":362:371   */\n      dup3\n        /* \"#utility.yul\":358:376   */\n      add\n        /* \"#utility.yul\":350:376   */\n      swap1\n      pop\n        /* \"#utility.yul\":386:457   */\n      tag_322\n        /* \"#utility.yul\":454:455   */\n      0x00\n        /* \"#utility.yul\":443:452   */\n      dup4\n        /* \"#utility.yul\":439:456   */\n      add\n        /* \"#utility.yul\":430:436   */\n      dup6\n        /* \"#utility.yul\":386:457   */\n      tag_280\n      jump\t// in\n    tag_322:\n        /* \"#utility.yul\":467:539   */\n      tag_323\n        /* \"#utility.yul\":535:537   */\n      0x20\n        /* \"#utility.yul\":524:533   */\n      dup4\n        /* \"#utility.yul\":520:538   */\n      add\n        /* \"#utility.yul\":511:517   */\n      dup5\n        /* \"#utility.yul\":467:539   */\n      tag_280\n      jump\t// in\n    tag_323:\n        /* \"#utility.yul\":214:546   */\n      swap4\n      swap3\n      pop\n      pop\n      pop\n      jump\t// out\n        /* \"#utility.yul\":552:774   */\n    tag_29:\n        /* \"#utility.yul\":645:649   */\n      0x00\n        /* \"#utility.yul\":683:685   */\n      0x20\n        /* \"#utility.yul\":672:681   */\n      dup3\n        /* \"#utility.yul\":668:686   */\n      add\n        /* \"#utility.yul\":660:686   */\n      swap1\n      pop\n        /* \"#utility.yul\":696:767   */\n      tag_325\n        /* \"#utility.yul\":764:765   */\n      0x00\n        /* \"#utility.yul\":753:762   */\n      dup4\n        /* \"#utility.yul\":749:766   */\n      add\n        /* \"#utility.yul\":740:746   */\n      dup5\n        /* \"#utility.yul\":696:767   */\n      tag_280\n      jump\t// in\n    tag_325:\n        /* \"#utility.yul\":552:774   */\n      swap3\n      swap2\n      pop\n      pop\n      jump\t// out\n        /* \"#utility.yul\":780:879   */\n    tag_281:\n        /* \"#utility.yul\":832:838   */\n      0x00\n        /* \"#utility.yul\":866:871   */\n      dup2\n        /* \"#utility.yul\":860:872   */\n      mload\n        /* \"#utility.yul\":850:872   */\n      swap1\n      pop\n        /* \"#utility.yul\":780:879   */\n      swap2\n      swap1\n      pop\n      jump\t// out\n        /* \"#utility.yul\":885:1054   */\n    tag_282:\n        /* \"#utility.yul\":969:980   */\n      0x00\n        /* \"#utility.yul\":1003:1009   */\n      dup3\n        /* \"#utility.yul\":998:1001   */\n      dup3\n        /* \"#utility.yul\":991:1010   */\n      mstore\n        /* \"#utility.yul\":1043:1047   */\n      0x20\n        /* \"#utility.yul\":1038:1041   */\n      dup3\n        /* \"#utility.yul\":1034:1048   */\n      add\n        /* \"#utility.yul\":1019:1048   */\n      swap1\n      pop\n        /* \"#utility.yul\":885:1054   */\n      swap3\n      swap2\n      pop\n      pop\n      jump\t// out\n        /* \"#utility.yul\":1060:1199   */\n    tag_283:\n        /* \"#utility.yul\":1149:1155   */\n      dup3\n        /* \"#utility.yul\":1144:1147   */\n      dup2\n        /* \"#utility.yul\":1139:1142   */\n      dup4\n        /* \"#utility.yul\":1133:1156   */\n      mcopy\n        /* \"#utility.yul\":1190:1191   */\n      0x00\n        /* \"#utility.yul\":1181:1187   */\n      dup4\n        /* \"#utility.yul\":1176:1179   */\n      dup4\n        /* \"#utility.yul\":1172:1188   */\n      add\n        /* \"#utility.yul\":1165:1192   */\n      mstore\n        /* \"#utility.yul\":1060:1199   */\n      pop\n      pop\n      pop\n      jump\t// out\n        /* \"#utility.yul\":1205:1307   */\n    tag_284:\n        /* \"#utility.yul\":1246:1252   */\n      0x00\n        /* \"#utility.yul\":1297:1299   */\n      0x1f\n        /* \"#utility.yul\":1293:1300   */\n      not\n        /* \"#utility.yul\":1288:1290   */\n      0x1f\n        /* \"#utility.yul\":1281:1286   */\n      dup4\n        /* \"#utility.yul\":1277:1291   */\n      add\n        /* \"#utility.yul\":1273:1301   */\n      and\n        /* \"#utility.yul\":1263:1301   */\n      swap1\n      pop\n        /* \"#utility.yul\":1205:1307   */\n      swap2\n      swap1\n      pop\n      jump\t// out\n        /* \"#utility.yul\":1313:1690   */\n    tag_285:\n        /* \"#utility.yul\":1401:1404   */\n      0x00\n        /* \"#utility.yul\":1429:1468   */\n      tag_331\n        /* \"#utility.yul\":1462:1467   */\n      dup3\n        /* \"#utility.yul\":1429:1468   */\n      tag_281\n      jump\t// in\n    tag_331:\n        /* \"#utility.yul\":1484:1555   */\n      tag_332\n        /* \"#utility.yul\":1548:1554   */\n      dup2\n        /* \"#utility.yul\":1543:1546   */\n      dup6\n        /* \"#utility.yul\":1484:1555   */\n      tag_282\n      jump\t// in\n    tag_332:\n        /* \"#utility.yul\":1477:1555   */\n      swap4\n      pop\n        /* \"#utility.yul\":1564:1629   */\n      tag_333\n        /* \"#utility.yul\":1622:1628   */\n      dup2\n        /* \"#utility.yul\":1617:1620   */\n      dup6\n        /* \"#utility.yul\":1610:1614   */\n      0x20\n        /* \"#utility.yul\":1603:1608   */\n      dup7\n        /* \"#utility.yul\":1599:1615   */\n      add\n        /* \"#utility.yul\":1564:1629   */\n      tag_283\n      jump\t// in\n    tag_333:\n        /* \"#utility.yul\":1654:1683   */\n      tag_334\n        /* \"#utility.yul\":1676:1682   */\n      dup2\n        /* \"#utility.yul\":1654:1683   */\n      tag_284\n      jump\t// in\n    tag_334:\n        /* \"#utility.yul\":1649:1652   */\n      dup5\n        /* \"#utility.yul\":1645:1684   */\n      add\n        /* \"#utility.yul\":1638:1684   */\n      swap2\n      pop\n        /* \"#utility.yul\":1405:1690   */\n      pop\n        /* \"#utility.yul\":1313:1690   */\n      swap3\n      swap2\n      pop\n      pop\n      jump\t// out\n        /* \"#utility.yul\":1696:2009   */\n    tag_33:\n        /* \"#utility.yul\":1809:1813   */\n      0x00\n        /* \"#utility.yul\":1847:1849   */\n      0x20\n        /* \"#utility.yul\":1836:1845   */\n      dup3\n        /* \"#utility.yul\":1832:1850   */\n      add\n        /* \"#utility.yul\":1824:1850   */\n      swap1\n      pop\n        /* \"#utility.yul\":1896:1905   */\n      dup2\n        /* \"#utility.yul\":1890:1894   */\n      dup2\n        /* \"#utility.yul\":1886:1906   */\n      sub\n        /* \"#utility.yul\":1882:1883   */\n      0x00\n        /* \"#utility.yul\":1871:1880   */\n      dup4\n        /* \"#utility.yul\":1867:1884   */\n      add\n        /* \"#utility.yul\":1860:1907   */\n      mstore\n        /* \"#utility.yul\":1924:2002   */\n      tag_336\n        /* \"#utility.yul\":1997:2001   */\n      dup2\n        /* \"#utility.yul\":1988:1994   */\n      dup5\n        /* \"#utility.yul\":1924:2002   */\n      tag_285\n      jump\t// in\n    tag_336:\n        /* \"#utility.yul\":1916:2002   */\n      swap1\n      pop\n        /* \"#utility.yul\":1696:2009   */\n      swap3\n      swap2\n      pop\n      pop\n      jump\t// out\n        /* \"#utility.yul\":2096:2213   */\n    tag_287:\n        /* \"#utility.yul\":2205:2206   */\n      0x00\n        /* \"#utility.yul\":2202:2203   */\n      dup1\n        /* \"#utility.yul\":2195:2207   */\n      revert\n        /* \"#utility.yul\":2342:2468   */\n    tag_289:\n        /* \"#utility.yul\":2379:2386   */\n      0x00\n        /* \"#utility.yul\":2419:2461   */\n      0xffffffffffffffffffffffffffffffffffffffff\n        /* \"#utility.yul\":2412:2417   */\n      dup3\n        /* \"#utility.yul\":2408:2462   */\n      and\n        /* \"#utility.yul\":2397:2462   */\n      swap1\n      pop\n        /* \"#utility.yul\":2342:2468   */\n      swap2\n      swap1\n      pop\n      jump\t// out\n        /* \"#utility.yul\":2474:2570   */\n    tag_290:\n        /* \"#utility.yul\":2511:2518   */\n      0x00\n        /* \"#utility.yul\":2540:2564   */\n      tag_342\n        /* \"#utility.yul\":2558:2563   */\n      dup3\n        /* \"#utility.yul\":2540:2564   */\n      tag_289\n      jump\t// in\n    tag_342:\n        /* \"#utility.yul\":2529:2564   */\n      swap1\n      pop\n        /* \"#utility.yul\":2474:2570   */\n      swap2\n      swap1\n      pop\n      jump\t// out\n        /* \"#utility.yul\":2576:2698   */\n    tag_291:\n        /* \"#utility.yul\":2649:2673   */\n      tag_344\n        /* \"#utility.yul\":2667:2672   */\n      dup2\n        /* \"#utility.yul\":2649:2673   */\n      tag_290\n      jump\t// in\n    tag_344:\n        /* \"#utility.yul\":2642:2647   */\n      dup2\n        /* \"#utility.yul\":2639:2674   */\n      eq\n        /* \"#utility.yul\":2629:2692   */\n      tag_345\n      jumpi\n        /* \"#utility.yul\":2688:2689   */\n      0x00\n        /* \"#utility.yul\":2685:2686   */\n      dup1\n        /* \"#utility.yul\":2678:2690   */\n      revert\n        /* \"#utility.yul\":2629:2692   */\n    tag_345:\n        /* \"#utility.yul\":2576:2698   */\n      pop\n      jump\t// out\n        /* \"#utility.yul\":2704:2843   */\n    tag_292:\n        /* \"#utility.yul\":2750:2755   */\n      0x00\n        /* \"#utility.yul\":2788:2794   */\n      dup2\n        /* \"#utility.yul\":2775:2795   */\n      calldataload\n        /* \"#utility.yul\":2766:2795   */\n      swap1\n      pop\n        /* \"#utility.yul\":2804:2837   */\n      tag_347\n        /* \"#utility.yul\":2831:2836   */\n      dup2\n        /* \"#utility.yul\":2804:2837   */\n      tag_291\n      jump\t// in\n    tag_347:\n        /* \"#utility.yul\":2704:2843   */\n      swap3\n      swap2\n      pop\n      pop\n      jump\t// out\n        /* \"#utility.yul\":2849:2971   */\n    tag_293:\n        /* \"#utility.yul\":2922:2946   */\n      tag_349\n        /* \"#utility.yul\":2940:2945   */\n      dup2\n        /* \"#utility.yul\":2922:2946   */\n      tag_279\n      jump\t// in\n    tag_349:\n        /* \"#utility.yul\":2915:2920   */\n      dup2\n        /* \"#utility.yul\":2912:2947   */\n      eq\n        /* \"#utility.yul\":2902:2965   */\n      tag_350\n      jumpi\n        /* \"#utility.yul\":2961:2962   */\n      0x00\n        /* \"#utility.yul\":2958:2959   */\n      dup1\n        /* \"#utility.yul\":2951:2963   */\n      revert\n        /* \"#utility.yul\":2902:2965   */\n    tag_350:\n        /* \"#utility.yul\":2849:2971   */\n      pop\n      jump\t// out\n        /* \"#utility.yul\":2977:3116   */\n    tag_294:\n        /* \"#utility.yul\":3023:3028   */\n      0x00\n        /* \"#utility.yul\":3061:3067   */\n      dup2\n        /* \"#utility.yul\":3048:3068   */\n      calldataload\n        /* \"#utility.yul\":3039:3068   */\n      swap1\n      pop\n        /* \"#utility.yul\":3077:3110   */\n      tag_352\n        /* \"#utility.yul\":3104:3109   */\n      dup2\n        /* \"#utility.yul\":3077:3110   */\n      tag_293\n      jump\t// in\n    tag_352:\n        /* \"#utility.yul\":2977:3116   */\n      swap3\n      swap2\n      pop\n      pop\n      jump\t// out\n        /* \"#utility.yul\":3122:3596   */\n    tag_36:\n        /* \"#utility.yul\":3190:3196   */\n      0x00\n        /* \"#utility.yul\":3198:3204   */\n      dup1\n        /* \"#utility.yul\":3247:3249   */\n      0x40\n        /* \"#utility.yul\":3235:3244   */\n      dup4\n        /* \"#utility.yul\":3226:3233   */\n      dup6\n        /* \"#utility.yul\":3222:3245   */\n      sub\n        /* \"#utility.yul\":3218:3250   */\n      slt\n        /* \"#utility.yul\":3215:3334   */\n      iszero\n      tag_354\n      jumpi\n        /* \"#utility.yul\":3253:3332   */\n      tag_355\n      tag_287\n      jump\t// in\n    tag_355:\n        /* \"#utility.yul\":3215:3334   */\n    tag_354:\n        /* \"#utility.yul\":3373:3374   */\n      0x00\n        /* \"#utility.yul\":3398:3451   */\n      tag_356\n        /* \"#utility.yul\":3443:3450   */\n      dup6\n        /* \"#utility.yul\":3434:3440   */\n      dup3\n        /* \"#utility.yul\":3423:3432   */\n      dup7\n        /* \"#utility.yul\":3419:3441   */\n      add\n        /* \"#utility.yul\":3398:3451   */\n      tag_292\n      jump\t// in\n    tag_356:\n        /* \"#utility.yul\":3388:3451   */\n      swap3\n      pop\n        /* \"#utility.yul\":3344:3461   */\n      pop\n        /* \"#utility.yul\":3500:3502   */\n      0x20\n        /* \"#utility.yul\":3526:3579   */\n      tag_357\n        /* \"#utility.yul\":3571:3578   */\n      dup6\n        /* \"#utility.yul\":3562:3568   */\n      dup3\n        /* \"#utility.yul\":3551:3560   */\n      dup7\n        /* \"#utility.yul\":3547:3569   */\n      add\n        /* \"#utility.yul\":3526:3579   */\n      tag_294\n      jump\t// in\n    tag_357:\n        /* \"#utility.yul\":3516:3579   */\n      swap2\n      pop\n        /* \"#utility.yul\":3471:3589   */\n      pop\n        /* \"#utility.yul\":3122:3596   */\n      swap3\n      pop\n      swap3\n      swap1\n      pop\n      jump\t// out\n        /* \"#utility.yul\":3602:3692   */\n    tag_295:\n        /* \"#utility.yul\":3636:3643   */\n      0x00\n        /* \"#utility.yul\":3679:3684   */\n      dup2\n        /* \"#utility.yul\":3672:3685   */\n      iszero\n        /* \"#utility.yul\":3665:3686   */\n      iszero\n        /* \"#utility.yul\":3654:3686   */\n      swap1\n      pop\n        /* \"#utility.yul\":3602:3692   */\n      swap2\n      swap1\n      pop\n      jump\t// out\n        /* \"#utility.yul\":3698:3807   */\n    tag_296:\n        /* \"#utility.yul\":3779:3800   */\n      tag_360\n        /* \"#utility.yul\":3794:3799   */\n      dup2\n        /* \"#utility.yul\":3779:3800   */\n      tag_295\n      jump\t// in\n    tag_360:\n        /* \"#utility.yul\":3774:3777   */\n      dup3\n        /* \"#utility.yul\":3767:3801   */\n      mstore\n        /* \"#utility.yul\":3698:3807   */\n      pop\n      pop\n      jump\t// out\n        /* \"#utility.yul\":3813:4023   */\n    tag_39:\n        /* \"#utility.yul\":3900:3904   */\n      0x00\n        /* \"#utility.yul\":3938:3940   */\n      0x20\n        /* \"#utility.yul\":3927:3936   */\n      dup3\n        /* \"#utility.yul\":3923:3941   */\n      add\n        /* \"#utility.yul\":3915:3941   */\n      swap1\n      pop\n        /* \"#utility.yul\":3951:4016   */\n      tag_362\n        /* \"#utility.yul\":4013:4014   */\n      0x00\n        /* \"#utility.yul\":4002:4011   */\n      dup4\n        /* \"#utility.yul\":3998:4015   */\n      add\n        /* \"#utility.yul\":3989:3995   */\n      dup5\n        /* \"#utility.yul\":3951:4016   */\n      tag_296\n      jump\t// in\n    tag_362:\n        /* \"#utility.yul\":3813:4023   */\n      swap3\n      swap2\n      pop\n      pop\n      jump\t// out\n        /* \"#utility.yul\":4029:4089   */\n    tag_297:\n        /* \"#utility.yul\":4057:4060   */\n      0x00\n        /* \"#utility.yul\":4078:4083   */\n      dup2\n        /* \"#utility.yul\":4071:4083   */\n      swap1\n      pop\n        /* \"#utility.yul\":4029:4089   */\n      swap2\n      swap1\n      pop\n      jump\t// out\n        /* \"#utility.yul\":4095:4237   */\n    tag_298:\n        /* \"#utility.yul\":4145:4154   */\n      0x00\n        /* \"#utility.yul\":4178:4231   */\n      tag_365\n        /* \"#utility.yul\":4196:4230   */\n      tag_366\n        /* \"#utility.yul\":4205:4229   */\n      tag_367\n        /* \"#utility.yul\":4223:4228   */\n      dup5\n        /* \"#utility.yul\":4205:4229   */\n      tag_289\n      jump\t// in\n    tag_367:\n        /* \"#utility.yul\":4196:4230   */\n      tag_297\n      jump\t// in\n    tag_366:\n        /* \"#utility.yul\":4178:4231   */\n      tag_289\n      jump\t// in\n    tag_365:\n        /* \"#utility.yul\":4165:4231   */\n      swap1\n      pop\n        /* \"#utility.yul\":4095:4237   */\n      swap2\n      swap1\n      pop\n      jump\t// out\n        /* \"#utility.yul\":4243:4369   */\n    tag_299:\n        /* \"#utility.yul\":4293:4302   */\n      0x00\n        /* \"#utility.yul\":4326:4363   */\n      tag_369\n        /* \"#utility.yul\":4357:4362   */\n      dup3\n        /* \"#utility.yul\":4326:4363   */\n      tag_298\n      jump\t// in\n    tag_369:\n        /* \"#utility.yul\":4313:4363   */\n      swap1\n      pop\n        /* \"#utility.yul\":4243:4369   */\n      swap2\n      swap1\n      pop\n      jump\t// out\n        /* \"#utility.yul\":4375:4515   */\n    tag_300:\n        /* \"#utility.yul\":4439:4448   */\n      0x00\n        /* \"#utility.yul\":4472:4509   */\n      tag_371\n        /* \"#utility.yul\":4503:4508   */\n      dup3\n        /* \"#utility.yul\":4472:4509   */\n      tag_299\n      jump\t// in\n    tag_371:\n        /* \"#utility.yul\":4459:4509   */\n      swap1\n      pop\n        /* \"#utility.yul\":4375:4515   */\n      swap2\n      swap1\n      pop\n      jump\t// out\n        /* \"#utility.yul\":4521:4680   */\n    tag_301:\n        /* \"#utility.yul\":4622:4673   */\n      tag_373\n        /* \"#utility.yul\":4667:4672   */\n      dup2\n        /* \"#utility.yul\":4622:4673   */\n      tag_300\n      jump\t// in\n    tag_373:\n        /* \"#utility.yul\":4617:4620   */\n      dup3\n        /* \"#utility.yul\":4610:4674   */\n      mstore\n        /* \"#utility.yul\":4521:4680   */\n      pop\n      pop\n      jump\t// out\n        /* \"#utility.yul\":4686:4936   */\n    tag_43:\n        /* \"#utility.yul\":4793:4797   */\n      0x00\n        /* \"#utility.yul\":4831:4833   */\n      0x20\n        /* \"#utility.yul\":4820:4829   */\n      dup3\n        /* \"#utility.yul\":4816:4834   */\n      add\n        /* \"#utility.yul\":4808:4834   */\n      swap1\n      pop\n        /* \"#utility.yul\":4844:4929   */\n      tag_375\n        /* \"#utility.yul\":4926:4927   */\n      0x00\n        /* \"#utility.yul\":4915:4924   */\n      dup4\n        /* \"#utility.yul\":4911:4928   */\n      add\n        /* \"#utility.yul\":4902:4908   */\n      dup5\n        /* \"#utility.yul\":4844:4929   */\n      tag_301\n      jump\t// in\n    tag_375:\n        /* \"#utility.yul\":4686:4936   */\n      swap3\n      swap2\n      pop\n      pop\n      jump\t// out\n        /* \"#utility.yul\":4942:5561   */\n    tag_49:\n        /* \"#utility.yul\":5019:5025   */\n      0x00\n        /* \"#utility.yul\":5027:5033   */\n      dup1\n        /* \"#utility.yul\":5035:5041   */\n      0x00\n        /* \"#utility.yul\":5084:5086   */\n      0x60\n        /* \"#utility.yul\":5072:5081   */\n      dup5\n        /* \"#utility.yul\":5063:5070   */\n      dup7\n        /* \"#utility.yul\":5059:5082   */\n      sub\n        /* \"#utility.yul\":5055:5087   */\n      slt\n        /* \"#utility.yul\":5052:5171   */\n      iszero\n      tag_377\n      jumpi\n        /* \"#utility.yul\":5090:5169   */\n      tag_378\n      tag_287\n      jump\t// in\n    tag_378:\n        /* \"#utility.yul\":5052:5171   */\n    tag_377:\n        /* \"#utility.yul\":5210:5211   */\n      0x00\n        /* \"#utility.yul\":5235:5288   */\n      tag_379\n        /* \"#utility.yul\":5280:5287   */\n      dup7\n        /* \"#utility.yul\":5271:5277   */\n      dup3\n        /* \"#utility.yul\":5260:5269   */\n      dup8\n        /* \"#utility.yul\":5256:5278   */\n      add\n        /* \"#utility.yul\":5235:5288   */\n      tag_292\n      jump\t// in\n    tag_379:\n        /* \"#utility.yul\":5225:5288   */\n      swap4\n      pop\n        /* \"#utility.yul\":5181:5298   */\n      pop\n        /* \"#utility.yul\":5337:5339   */\n      0x20\n        /* \"#utility.yul\":5363:5416   */\n      tag_380\n        /* \"#utility.yul\":5408:5415   */\n      dup7\n        /* \"#utility.yul\":5399:5405   */\n      dup3\n        /* \"#utility.yul\":5388:5397   */\n      dup8\n        /* \"#utility.yul\":5384:5406   */\n      add\n        /* \"#utility.yul\":5363:5416   */\n      tag_292\n      jump\t// in\n    tag_380:\n        /* \"#utility.yul\":5353:5416   */\n      swap3\n      pop\n        /* \"#utility.yul\":5308:5426   */\n      pop\n        /* \"#utility.yul\":5465:5467   */\n      0x40\n        /* \"#utility.yul\":5491:5544   */\n      tag_381\n        /* \"#utility.yul\":5536:5543   */\n      dup7\n        /* \"#utility.yul\":5527:5533   */\n      dup3\n        /* \"#utility.yul\":5516:5525   */\n      dup8\n        /* \"#utility.yul\":5512:5534   */\n      add\n        /* \"#utility.yul\":5491:5544   */\n      tag_294\n      jump\t// in\n    tag_381:\n        /* \"#utility.yul\":5481:5544   */\n      swap2\n      pop\n        /* \"#utility.yul\":5436:5554   */\n      pop\n        /* \"#utility.yul\":4942:5561   */\n      swap3\n      pop\n      swap3\n      pop\n      swap3\n      jump\t// out\n        /* \"#utility.yul\":5567:5896   */\n    tag_54:\n        /* \"#utility.yul\":5626:5632   */\n      0x00\n        /* \"#utility.yul\":5675:5677   */\n      0x20\n        /* \"#utility.yul\":5663:5672   */\n      dup3\n        /* \"#utility.yul\":5654:5661   */\n      dup5\n        /* \"#utility.yul\":5650:5673   */\n      sub\n        /* \"#utility.yul\":5646:5678   */\n      slt\n        /* \"#utility.yul\":5643:5762   */\n      iszero\n      tag_383\n      jumpi\n        /* \"#utility.yul\":5681:5760   */\n      tag_384\n      tag_287\n      jump\t// in\n    tag_384:\n        /* \"#utility.yul\":5643:5762   */\n    tag_383:\n        /* \"#utility.yul\":5801:5802   */\n      0x00\n        /* \"#utility.yul\":5826:5879   */\n      tag_385\n        /* \"#utility.yul\":5871:5878   */\n      dup5\n        /* \"#utility.yul\":5862:5868   */\n      dup3\n        /* \"#utility.yul\":5851:5860   */\n      dup6\n        /* \"#utility.yul\":5847:5869   */\n      add\n        /* \"#utility.yul\":5826:5879   */\n      tag_294\n      jump\t// in\n    tag_385:\n        /* \"#utility.yul\":5816:5879   */\n      swap2\n      pop\n        /* \"#utility.yul\":5772:5889   */\n      pop\n        /* \"#utility.yul\":5567:5896   */\n      swap3\n      swap2\n      pop\n      pop\n      jump\t// out\n        /* \"#utility.yul\":5902:5988   */\n    tag_302:\n        /* \"#utility.yul\":5937:5944   */\n      0x00\n        /* \"#utility.yul\":5977:5981   */\n      0xff\n        /* \"#utility.yul\":5970:5975   */\n      dup3\n        /* \"#utility.yul\":5966:5982   */\n      and\n        /* \"#utility.yul\":5955:5982   */\n      swap1\n      pop\n        /* \"#utility.yul\":5902:5988   */\n      swap2\n      swap1\n      pop\n      jump\t// out\n        /* \"#utility.yul\":5994:6106   */\n    tag_303:\n        /* \"#utility.yul\":6077:6099   */\n      tag_388\n        /* \"#utility.yul\":6093:6098   */\n      dup2\n        /* \"#utility.yul\":6077:6099   */\n      tag_302\n      jump\t// in\n    tag_388:\n        /* \"#utility.yul\":6072:6075   */\n      dup3\n        /* \"#utility.yul\":6065:6100   */\n      mstore\n        /* \"#utility.yul\":5994:6106   */\n      pop\n      pop\n      jump\t// out\n        /* \"#utility.yul\":6112:6326   */\n    tag_60:\n        /* \"#utility.yul\":6201:6205   */\n      0x00\n        /* \"#utility.yul\":6239:6241   */\n      0x20\n        /* \"#utility.yul\":6228:6237   */\n      dup3\n        /* \"#utility.yul\":6224:6242   */\n      add\n        /* \"#utility.yul\":6216:6242   */\n      swap1\n      pop\n        /* \"#utility.yul\":6252:6319   */\n      tag_390\n        /* \"#utility.yul\":6316:6317   */\n      0x00\n        /* \"#utility.yul\":6305:6314   */\n      dup4\n        /* \"#utility.yul\":6301:6318   */\n      add\n        /* \"#utility.yul\":6292:6298   */\n      dup5\n        /* \"#utility.yul\":6252:6319   */\n      tag_303\n      jump\t// in\n    tag_390:\n        /* \"#utility.yul\":6112:6326   */\n      swap3\n      swap2\n      pop\n      pop\n      jump\t// out\n        /* \"#utility.yul\":6332:6661   */\n    tag_63:\n        /* \"#utility.yul\":6391:6397   */\n      0x00\n        /* \"#utility.yul\":6440:6442   */\n      0x20\n        /* \"#utility.yul\":6428:6437   */\n      dup3\n        /* \"#utility.yul\":6419:6426   */\n      dup5\n        /* \"#utility.yul\":6415:6438   */\n      sub\n        /* \"#utility.yul\":6411:6443   */\n      slt\n        /* \"#utility.yul\":6408:6527   */\n      iszero\n      tag_392\n      jumpi\n        /* \"#utility.yul\":6446:6525   */\n      tag_393\n      tag_287\n      jump\t// in\n    tag_393:\n        /* \"#utility.yul\":6408:6527   */\n    tag_392:\n        /* \"#utility.yul\":6566:6567   */\n      0x00\n        /* \"#utility.yul\":6591:6644   */\n      tag_394\n        /* \"#utility.yul\":6636:6643   */\n      dup5\n        /* \"#utility.yul\":6627:6633   */\n      dup3\n        /* \"#utility.yul\":6616:6625   */\n      dup6\n        /* \"#utility.yul\":6612:6634   */\n      add\n        /* \"#utility.yul\":6591:6644   */\n      tag_292\n      jump\t// in\n    tag_394:\n        /* \"#utility.yul\":6581:6644   */\n      swap2\n      pop\n        /* \"#utility.yul\":6537:6654   */\n      pop\n        /* \"#utility.yul\":6332:6661   */\n      swap3\n      swap2\n      pop\n      pop\n      jump\t// out\n        /* \"#utility.yul\":6667:7141   */\n    tag_81:\n        /* \"#utility.yul\":6735:6741   */\n      0x00\n        /* \"#utility.yul\":6743:6749   */\n      dup1\n        /* \"#utility.yul\":6792:6794   */\n      0x40\n        /* \"#utility.yul\":6780:6789   */\n      dup4\n        /* \"#utility.yul\":6771:6778   */\n      dup6\n        /* \"#utility.yul\":6767:6790   */\n      sub\n        /* \"#utility.yul\":6763:6795   */\n      slt\n        /* \"#utility.yul\":6760:6879   */\n      iszero\n      tag_396\n      jumpi\n        /* \"#utility.yul\":6798:6877   */\n      tag_397\n      tag_287\n      jump\t// in\n    tag_397:\n        /* \"#utility.yul\":6760:6879   */\n    tag_396:\n        /* \"#utility.yul\":6918:6919   */\n      0x00\n        /* \"#utility.yul\":6943:6996   */\n      tag_398\n        /* \"#utility.yul\":6988:6995   */\n      dup6\n        /* \"#utility.yul\":6979:6985   */\n      dup3\n        /* \"#utility.yul\":6968:6977   */\n      dup7\n        /* \"#utility.yul\":6964:6986   */\n      add\n        /* \"#utility.yul\":6943:6996   */\n      tag_292\n      jump\t// in\n    tag_398:\n        /* \"#utility.yul\":6933:6996   */\n      swap3\n      pop\n        /* \"#utility.yul\":6889:7006   */\n      pop\n        /* \"#utility.yul\":7045:7047   */\n      0x20\n        /* \"#utility.yul\":7071:7124   */\n      tag_399\n        /* \"#utility.yul\":7116:7123   */\n      dup6\n        /* \"#utility.yul\":7107:7113   */\n      dup3\n        /* \"#utility.yul\":7096:7105   */\n      dup7\n        /* \"#utility.yul\":7092:7114   */\n      add\n        /* \"#utility.yul\":7071:7124   */\n      tag_292\n      jump\t// in\n    tag_399:\n        /* \"#utility.yul\":7061:7124   */\n      swap2\n      pop\n        /* \"#utility.yul\":7016:7134   */\n      pop\n        /* \"#utility.yul\":6667:7141   */\n      swap3\n      pop\n      swap3\n      swap1\n      pop\n      jump\t// out\n        /* \"#utility.yul\":7147:7621   */\n    tag_86:\n        /* \"#utility.yul\":7215:7221   */\n      0x00\n        /* \"#utility.yul\":7223:7229   */\n      dup1\n        /* \"#utility.yul\":7272:7274   */\n      0x40\n        /* \"#utility.yul\":7260:7269   */\n      dup4\n        /* \"#utility.yul\":7251:7258   */\n      dup6\n        /* \"#utility.yul\":7247:7270   */\n      sub\n        /* \"#utility.yul\":7243:7275   */\n      slt\n        /* \"#utility.yul\":7240:7359   */\n      iszero\n      tag_401\n      jumpi\n        /* \"#utility.yul\":7278:7357   */\n      tag_402\n      tag_287\n      jump\t// in\n    tag_402:\n        /* \"#utility.yul\":7240:7359   */\n    tag_401:\n        /* \"#utility.yul\":7398:7399   */\n      0x00\n        /* \"#utility.yul\":7423:7476   */\n      tag_403\n        /* \"#utility.yul\":7468:7475   */\n      dup6\n        /* \"#utility.yul\":7459:7465   */\n      dup3\n        /* \"#utility.yul\":7448:7457   */\n      dup7\n        /* \"#utility.yul\":7444:7466   */\n      add\n        /* \"#utility.yul\":7423:7476   */\n      tag_294\n      jump\t// in\n    tag_403:\n        /* \"#utility.yul\":7413:7476   */\n      swap3\n      pop\n        /* \"#utility.yul\":7369:7486   */\n      pop\n        /* \"#utility.yul\":7525:7527   */\n      0x20\n        /* \"#utility.yul\":7551:7604   */\n      tag_404\n        /* \"#utility.yul\":7596:7603   */\n      dup6\n        /* \"#utility.yul\":7587:7593   */\n      dup3\n        /* \"#utility.yul\":7576:7585   */\n      dup7\n        /* \"#utility.yul\":7572:7594   */\n      add\n        /* \"#utility.yul\":7551:7604   */\n      tag_294\n      jump\t// in\n    tag_404:\n        /* \"#utility.yul\":7541:7604   */\n      swap2\n      pop\n        /* \"#utility.yul\":7496:7614   */\n      pop\n        /* \"#utility.yul\":7147:7621   */\n      swap3\n      pop\n      swap3\n      swap1\n      pop\n      jump\t// out\n        /* \"#utility.yul\":7627:7807   */\n    tag_304:\n        /* \"#utility.yul\":7675:7752   */\n      0x4e487b7100000000000000000000000000000000000000000000000000000000\n        /* \"#utility.yul\":7672:7673   */\n      0x00\n        /* \"#utility.yul\":7665:7753   */\n      mstore\n        /* \"#utility.yul\":7772:7776   */\n      0x22\n        /* \"#utility.yul\":7769:7770   */\n      0x04\n        /* \"#utility.yul\":7762:7777   */\n      mstore\n        /* \"#utility.yul\":7796:7800   */\n      0x24\n        /* \"#utility.yul\":7793:7794   */\n      0x00\n        /* \"#utility.yul\":7786:7801   */\n      revert\n        /* \"#utility.yul\":7813:8133   */\n    tag_92:\n        /* \"#utility.yul\":7857:7863   */\n      0x00\n        /* \"#utility.yul\":7894:7895   */\n      0x02\n        /* \"#utility.yul\":7888:7892   */\n      dup3\n        /* \"#utility.yul\":7884:7896   */\n      div\n        /* \"#utility.yul\":7874:7896   */\n      swap1\n      pop\n        /* \"#utility.yul\":7941:7942   */\n      0x01\n        /* \"#utility.yul\":7935:7939   */\n      dup3\n        /* \"#utility.yul\":7931:7943   */\n      and\n        /* \"#utility.yul\":7962:7980   */\n      dup1\n        /* \"#utility.yul\":7952:8033   */\n      tag_407\n      jumpi\n        /* \"#utility.yul\":8018:8022   */\n      0x7f\n        /* \"#utility.yul\":8010:8016   */\n      dup3\n        /* \"#utility.yul\":8006:8023   */\n      and\n        /* \"#utility.yul\":7996:8023   */\n      swap2\n      pop\n        /* \"#utility.yul\":7952:8033   */\n    tag_407:\n        /* \"#utility.yul\":8080:8082   */\n      0x20\n        /* \"#utility.yul\":8072:8078   */\n      dup3\n        /* \"#utility.yul\":8069:8083   */\n      lt\n        /* \"#utility.yul\":8049:8067   */\n      dup2\n        /* \"#utility.yul\":8046:8084   */\n      sub\n        /* \"#utility.yul\":8043:8127   */\n      tag_408\n      jumpi\n        /* \"#utility.yul\":8099:8117   */\n      tag_409\n      tag_304\n      jump\t// in\n    tag_409:\n        /* \"#utility.yul\":8043:8127   */\n    tag_408:\n        /* \"#utility.yul\":7864:8133   */\n      pop\n        /* \"#utility.yul\":7813:8133   */\n      swap2\n      swap1\n      pop\n      jump\t// out\n        /* \"#utility.yul\":8139:8309   */\n    tag_305:\n        /* \"#utility.yul\":8279:8301   */\n      0x496e76616c696420736861726520616d6f756e74000000000000000000000000\n        /* \"#utility.yul\":8275:8276   */\n      0x00\n        /* \"#utility.yul\":8267:8273   */\n      dup3\n        /* \"#utility.yul\":8263:8277   */\n      add\n        /* \"#utility.yul\":8256:8302   */\n      mstore\n        /* \"#utility.yul\":8139:8309   */\n      pop\n      jump\t// out\n        /* \"#utility.yul\":8315:8681   */\n    tag_306:\n        /* \"#utility.yul\":8457:8460   */\n      0x00\n        /* \"#utility.yul\":8478:8545   */\n      tag_412\n        /* \"#utility.yul\":8542:8544   */\n      0x14\n        /* \"#utility.yul\":8537:8540   */\n      dup4\n        /* \"#utility.yul\":8478:8545   */\n      tag_282\n      jump\t// in\n    tag_412:\n        /* \"#utility.yul\":8471:8545   */\n      swap2\n      pop\n        /* \"#utility.yul\":8554:8647   */\n      tag_413\n        /* \"#utility.yul\":8643:8646   */\n      dup3\n        /* \"#utility.yul\":8554:8647   */\n      tag_305\n      jump\t// in\n    tag_413:\n        /* \"#utility.yul\":8672:8674   */\n      0x20\n        /* \"#utility.yul\":8667:8670   */\n      dup3\n        /* \"#utility.yul\":8663:8675   */\n      add\n        /* \"#utility.yul\":8656:8675   */\n      swap1\n      pop\n        /* \"#utility.yul\":8315:8681   */\n      swap2\n      swap1\n      pop\n      jump\t// out\n        /* \"#utility.yul\":8687:9106   */\n    tag_115:\n        /* \"#utility.yul\":8853:8857   */\n      0x00\n        /* \"#utility.yul\":8891:8893   */\n      0x20\n        /* \"#utility.yul\":8880:8889   */\n      dup3\n        /* \"#utility.yul\":8876:8894   */\n      add\n        /* \"#utility.yul\":8868:8894   */\n      swap1\n      pop\n        /* \"#utility.yul\":8940:8949   */\n      dup2\n        /* \"#utility.yul\":8934:8938   */\n      dup2\n        /* \"#utility.yul\":8930:8950   */\n      sub\n        /* \"#utility.yul\":8926:8927   */\n      0x00\n        /* \"#utility.yul\":8915:8924   */\n      dup4\n        /* \"#utility.yul\":8911:8928   */\n      add\n        /* \"#utility.yul\":8904:8951   */\n      mstore\n        /* \"#utility.yul\":8968:9099   */\n      tag_415\n        /* \"#utility.yul\":9094:9098   */\n      dup2\n        /* \"#utility.yul\":8968:9099   */\n      tag_306\n      jump\t// in\n    tag_415:\n        /* \"#utility.yul\":8960:9099   */\n      swap1\n      pop\n        /* \"#utility.yul\":8687:9106   */\n      swap2\n      swap1\n      pop\n      jump\t// out\n        /* \"#utility.yul\":9112:9292   */\n    tag_307:\n        /* \"#utility.yul\":9160:9237   */\n      0x4e487b7100000000000000000000000000000000000000000000000000000000\n        /* \"#utility.yul\":9157:9158   */\n      0x00\n        /* \"#utility.yul\":9150:9238   */\n      mstore\n        /* \"#utility.yul\":9257:9261   */\n      0x11\n        /* \"#utility.yul\":9254:9255   */\n      0x04\n        /* \"#utility.yul\":9247:9262   */\n      mstore\n        /* \"#utility.yul\":9281:9285   */\n      0x24\n        /* \"#utility.yul\":9278:9279   */\n      0x00\n        /* \"#utility.yul\":9271:9286   */\n      revert\n        /* \"#utility.yul\":9298:9708   */\n    tag_118:\n        /* \"#utility.yul\":9338:9345   */\n      0x00\n        /* \"#utility.yul\":9361:9381   */\n      tag_418\n        /* \"#utility.yul\":9379:9380   */\n      dup3\n        /* \"#utility.yul\":9361:9381   */\n      tag_279\n      jump\t// in\n    tag_418:\n        /* \"#utility.yul\":9356:9381   */\n      swap2\n      pop\n        /* \"#utility.yul\":9395:9415   */\n      tag_419\n        /* \"#utility.yul\":9413:9414   */\n      dup4\n        /* \"#utility.yul\":9395:9415   */\n      tag_279\n      jump\t// in\n    tag_419:\n        /* \"#utility.yul\":9390:9415   */\n      swap3\n      pop\n        /* \"#utility.yul\":9450:9451   */\n      dup3\n        /* \"#utility.yul\":9447:9448   */\n      dup3\n        /* \"#utility.yul\":9443:9452   */\n      mul\n        /* \"#utility.yul\":9472:9502   */\n      tag_420\n        /* \"#utility.yul\":9490:9501   */\n      dup2\n        /* \"#utility.yul\":9472:9502   */\n      tag_279\n      jump\t// in\n    tag_420:\n        /* \"#utility.yul\":9461:9502   */\n      swap2\n      pop\n        /* \"#utility.yul\":9651:9652   */\n      dup3\n        /* \"#utility.yul\":9642:9649   */\n      dup3\n        /* \"#utility.yul\":9638:9653   */\n      div\n        /* \"#utility.yul\":9635:9636   */\n      dup5\n        /* \"#utility.yul\":9632:9654   */\n      eq\n        /* \"#utility.yul\":9612:9613   */\n      dup4\n        /* \"#utility.yul\":9605:9614   */\n      iszero\n        /* \"#utility.yul\":9585:9668   */\n      or\n        /* \"#utility.yul\":9562:9701   */\n      tag_421\n      jumpi\n        /* \"#utility.yul\":9681:9699   */\n      tag_422\n      tag_307\n      jump\t// in\n    tag_422:\n        /* \"#utility.yul\":9562:9701   */\n    tag_421:\n        /* \"#utility.yul\":9346:9708   */\n      pop\n        /* \"#utility.yul\":9298:9708   */\n      swap3\n      swap2\n      pop\n      pop\n      jump\t// out\n        /* \"#utility.yul\":9714:9894   */\n    tag_308:\n        /* \"#utility.yul\":9762:9839   */\n      0x4e487b7100000000000000000000000000000000000000000000000000000000\n        /* \"#utility.yul\":9759:9760   */\n      0x00\n        /* \"#utility.yul\":9752:9840   */\n      mstore\n        /* \"#utility.yul\":9859:9863   */\n      0x12\n        /* \"#utility.yul\":9856:9857   */\n      0x04\n        /* \"#utility.yul\":9849:9864   */\n      mstore\n        /* \"#utility.yul\":9883:9887   */\n      0x24\n        /* \"#utility.yul\":9880:9881   */\n      0x00\n        /* \"#utility.yul\":9873:9888   */\n      revert\n        /* \"#utility.yul\":9900:10085   */\n    tag_120:\n        /* \"#utility.yul\":9940:9941   */\n      0x00\n        /* \"#utility.yul\":9957:9977   */\n      tag_425\n        /* \"#utility.yul\":9975:9976   */\n      dup3\n        /* \"#utility.yul\":9957:9977   */\n      tag_279\n      jump\t// in\n    tag_425:\n        /* \"#utility.yul\":9952:9977   */\n      swap2\n      pop\n        /* \"#utility.yul\":9991:10011   */\n      tag_426\n        /* \"#utility.yul\":10009:10010   */\n      dup4\n        /* \"#utility.yul\":9991:10011   */\n      tag_279\n      jump\t// in\n    tag_426:\n        /* \"#utility.yul\":9986:10011   */\n      swap3\n      pop\n        /* \"#utility.yul\":10030:10031   */\n      dup3\n        /* \"#utility.yul\":10020:10055   */\n      tag_427\n      jumpi\n        /* \"#utility.yul\":10035:10053   */\n      tag_428\n      tag_308\n      jump\t// in\n    tag_428:\n        /* \"#utility.yul\":10020:10055   */\n    tag_427:\n        /* \"#utility.yul\":10077:10078   */\n      dup3\n        /* \"#utility.yul\":10074:10075   */\n      dup3\n        /* \"#utility.yul\":10070:10079   */\n      div\n        /* \"#utility.yul\":10065:10079   */\n      swap1\n      pop\n        /* \"#utility.yul\":9900:10085   */\n      swap3\n      swap2\n      pop\n      pop\n      jump\t// out\n        /* \"#utility.yul\":10091:10285   */\n    tag_126:\n        /* \"#utility.yul\":10131:10135   */\n      0x00\n        /* \"#utility.yul\":10151:10171   */\n      tag_430\n        /* \"#utility.yul\":10169:10170   */\n      dup3\n        /* \"#utility.yul\":10151:10171   */\n      tag_279\n      jump\t// in\n    tag_430:\n        /* \"#utility.yul\":10146:10171   */\n      swap2\n      pop\n        /* \"#utility.yul\":10185:10205   */\n      tag_431\n        /* \"#utility.yul\":10203:10204   */\n      dup4\n        /* \"#utility.yul\":10185:10205   */\n      tag_279\n      jump\t// in\n    tag_431:\n        /* \"#utility.yul\":10180:10205   */\n      swap3\n      pop\n        /* \"#utility.yul\":10229:10230   */\n      dup3\n        /* \"#utility.yul\":10226:10227   */\n      dup3\n        /* \"#utility.yul\":10222:10231   */\n      sub\n        /* \"#utility.yul\":10214:10231   */\n      swap1\n      pop\n        /* \"#utility.yul\":10253:10254   */\n      dup2\n        /* \"#utility.yul\":10247:10251   */\n      dup2\n        /* \"#utility.yul\":10244:10255   */\n      gt\n        /* \"#utility.yul\":10241:10278   */\n      iszero\n      tag_432\n      jumpi\n        /* \"#utility.yul\":10258:10276   */\n      tag_433\n      tag_307\n      jump\t// in\n    tag_433:\n        /* \"#utility.yul\":10241:10278   */\n    tag_432:\n        /* \"#utility.yul\":10091:10285   */\n      swap3\n      swap2\n      pop\n      pop\n      jump\t// out\n        /* \"#utility.yul\":10291:10733   */\n    tag_132:\n        /* \"#utility.yul\":10440:10444   */\n      0x00\n        /* \"#utility.yul\":10478:10480   */\n      0x60\n        /* \"#utility.yul\":10467:10476   */\n      dup3\n        /* \"#utility.yul\":10463:10481   */\n      add\n        /* \"#utility.yul\":10455:10481   */\n      swap1\n      pop\n        /* \"#utility.yul\":10491:10562   */\n      tag_435\n        /* \"#utility.yul\":10559:10560   */\n      0x00\n        /* \"#utility.yul\":10548:10557   */\n      dup4\n        /* \"#utility.yul\":10544:10561   */\n      add\n        /* \"#utility.yul\":10535:10541   */\n      dup7\n        /* \"#utility.yul\":10491:10562   */\n      tag_280\n      jump\t// in\n    tag_435:\n        /* \"#utility.yul\":10572:10644   */\n      tag_436\n        /* \"#utility.yul\":10640:10642   */\n      0x20\n        /* \"#utility.yul\":10629:10638   */\n      dup4\n        /* \"#utility.yul\":10625:10643   */\n      add\n        /* \"#utility.yul\":10616:10622   */\n      dup6\n        /* \"#utility.yul\":10572:10644   */\n      tag_280\n      jump\t// in\n    tag_436:\n        /* \"#utility.yul\":10654:10726   */\n      tag_437\n        /* \"#utility.yul\":10722:10724   */\n      0x40\n        /* \"#utility.yul\":10711:10720   */\n      dup4\n        /* \"#utility.yul\":10707:10725   */\n      add\n        /* \"#utility.yul\":10698:10704   */\n      dup5\n        /* \"#utility.yul\":10654:10726   */\n      tag_280\n      jump\t// in\n    tag_437:\n        /* \"#utility.yul\":10291:10733   */\n      swap5\n      swap4\n      pop\n      pop\n      pop\n      pop\n      jump\t// out\n        /* \"#utility.yul\":10739:10904   */\n    tag_309:\n        /* \"#utility.yul\":10879:10896   */\n      0x496e76616c696420616d6f756e74730000000000000000000000000000000000\n        /* \"#utility.yul\":10875:10876   */\n      0x00\n        /* \"#utility.yul\":10867:10873   */\n      dup3\n        /* \"#utility.yul\":10863:10877   */\n      add\n        /* \"#utility.yul\":10856:10897   */\n      mstore\n        /* \"#utility.yul\":10739:10904   */\n      pop\n      jump\t// out\n        /* \"#utility.yul\":10910:11276   */\n    tag_310:\n        /* \"#utility.yul\":11052:11055   */\n      0x00\n        /* \"#utility.yul\":11073:11140   */\n      tag_440\n        /* \"#utility.yul\":11137:11139   */\n      0x0f\n        /* \"#utility.yul\":11132:11135   */\n      dup4\n        /* \"#utility.yul\":11073:11140   */\n      tag_282\n      jump\t// in\n    tag_440:\n        /* \"#utility.yul\":11066:11140   */\n      swap2\n      pop\n        /* \"#utility.yul\":11149:11242   */\n      tag_441\n        /* \"#utility.yul\":11238:11241   */\n      dup3\n        /* \"#utility.yul\":11149:11242   */\n      tag_309\n      jump\t// in\n    tag_441:\n        /* \"#utility.yul\":11267:11269   */\n      0x20\n        /* \"#utility.yul\":11262:11265   */\n      dup3\n        /* \"#utility.yul\":11258:11270   */\n      add\n        /* \"#utility.yul\":11251:11270   */\n      swap1\n      pop\n        /* \"#utility.yul\":10910:11276   */\n      swap2\n      swap1\n      pop\n      jump\t// out\n        /* \"#utility.yul\":11282:11701   */\n    tag_153:\n        /* \"#utility.yul\":11448:11452   */\n      0x00\n        /* \"#utility.yul\":11486:11488   */\n      0x20\n        /* \"#utility.yul\":11475:11484   */\n      dup3\n        /* \"#utility.yul\":11471:11489   */\n      add\n        /* \"#utility.yul\":11463:11489   */\n      swap1\n      pop\n        /* \"#utility.yul\":11535:11544   */\n      dup2\n        /* \"#utility.yul\":11529:11533   */\n      dup2\n        /* \"#utility.yul\":11525:11545   */\n      sub\n        /* \"#utility.yul\":11521:11522   */\n      0x00\n        /* \"#utility.yul\":11510:11519   */\n      dup4\n        /* \"#utility.yul\":11506:11523   */\n      add\n        /* \"#utility.yul\":11499:11546   */\n      mstore\n        /* \"#utility.yul\":11563:11694   */\n      tag_443\n        /* \"#utility.yul\":11689:11693   */\n      dup2\n        /* \"#utility.yul\":11563:11694   */\n      tag_310\n      jump\t// in\n    tag_443:\n        /* \"#utility.yul\":11555:11694   */\n      swap1\n      pop\n        /* \"#utility.yul\":11282:11701   */\n      swap2\n      swap1\n      pop\n      jump\t// out\n        /* \"#utility.yul\":11707:11898   */\n    tag_172:\n        /* \"#utility.yul\":11747:11750   */\n      0x00\n        /* \"#utility.yul\":11766:11786   */\n      tag_445\n        /* \"#utility.yul\":11784:11785   */\n      dup3\n        /* \"#utility.yul\":11766:11786   */\n      tag_279\n      jump\t// in\n    tag_445:\n        /* \"#utility.yul\":11761:11786   */\n      swap2\n      pop\n        /* \"#utility.yul\":11800:11820   */\n      tag_446\n        /* \"#utility.yul\":11818:11819   */\n      dup4\n        /* \"#utility.yul\":11800:11820   */\n      tag_279\n      jump\t// in\n    tag_446:\n        /* \"#utility.yul\":11795:11820   */\n      swap3\n      pop\n        /* \"#utility.yul\":11843:11844   */\n      dup3\n        /* \"#utility.yul\":11840:11841   */\n      dup3\n        /* \"#utility.yul\":11836:11845   */\n      add\n        /* \"#utility.yul\":11829:11845   */\n      swap1\n      pop\n        /* \"#utility.yul\":11864:11867   */\n      dup1\n        /* \"#utility.yul\":11861:11862   */\n      dup3\n        /* \"#utility.yul\":11858:11868   */\n      gt\n        /* \"#utility.yul\":11855:11891   */\n      iszero\n      tag_447\n      jumpi\n        /* \"#utility.yul\":11871:11889   */\n      tag_448\n      tag_307\n      jump\t// in\n    tag_448:\n        /* \"#utility.yul\":11855:11891   */\n    tag_447:\n        /* \"#utility.yul\":11707:11898   */\n      swap3\n      swap2\n      pop\n      pop\n      jump\t// out\n        /* \"#utility.yul\":11904:12022   */\n    tag_311:\n        /* \"#utility.yul\":11991:12015   */\n      tag_450\n        /* \"#utility.yul\":12009:12014   */\n      dup2\n        /* \"#utility.yul\":11991:12015   */\n      tag_290\n      jump\t// in\n    tag_450:\n        /* \"#utility.yul\":11986:11989   */\n      dup3\n        /* \"#utility.yul\":11979:12016   */\n      mstore\n        /* \"#utility.yul\":11904:12022   */\n      pop\n      pop\n      jump\t// out\n        /* \"#utility.yul\":12028:12470   */\n    tag_187:\n        /* \"#utility.yul\":12177:12181   */\n      0x00\n        /* \"#utility.yul\":12215:12217   */\n      0x60\n        /* \"#utility.yul\":12204:12213   */\n      dup3\n        /* \"#utility.yul\":12200:12218   */\n      add\n        /* \"#utility.yul\":12192:12218   */\n      swap1\n      pop\n        /* \"#utility.yul\":12228:12299   */\n      tag_452\n        /* \"#utility.yul\":12296:12297   */\n      0x00\n        /* \"#utility.yul\":12285:12294   */\n      dup4\n        /* \"#utility.yul\":12281:12298   */\n      add\n        /* \"#utility.yul\":12272:12278   */\n      dup7\n        /* \"#utility.yul\":12228:12299   */\n      tag_311\n      jump\t// in\n    tag_452:\n        /* \"#utility.yul\":12309:12381   */\n      tag_453\n        /* \"#utility.yul\":12377:12379   */\n      0x20\n        /* \"#utility.yul\":12366:12375   */\n      dup4\n        /* \"#utility.yul\":12362:12380   */\n      add\n        /* \"#utility.yul\":12353:12359   */\n      dup6\n        /* \"#utility.yul\":12309:12381   */\n      tag_280\n      jump\t// in\n    tag_453:\n        /* \"#utility.yul\":12391:12463   */\n      tag_454\n        /* \"#utility.yul\":12459:12461   */\n      0x40\n        /* \"#utility.yul\":12448:12457   */\n      dup4\n        /* \"#utility.yul\":12444:12462   */\n      add\n        /* \"#utility.yul\":12435:12441   */\n      dup5\n        /* \"#utility.yul\":12391:12463   */\n      tag_280\n      jump\t// in\n    tag_454:\n        /* \"#utility.yul\":12028:12470   */\n      swap5\n      swap4\n      pop\n      pop\n      pop\n      pop\n      jump\t// out\n        /* \"#utility.yul\":12476:12698   */\n    tag_192:\n        /* \"#utility.yul\":12569:12573   */\n      0x00\n        /* \"#utility.yul\":12607:12609   */\n      0x20\n        /* \"#utility.yul\":12596:12605   */\n      dup3\n        /* \"#utility.yul\":12592:12610   */\n      add\n        /* \"#utility.yul\":12584:12610   */\n      swap1\n      pop\n        /* \"#utility.yul\":12620:12691   */\n      tag_456\n        /* \"#utility.yul\":12688:12689   */\n      0x00\n        /* \"#utility.yul\":12677:12686   */\n      dup4\n        /* \"#utility.yul\":12673:12690   */\n      add\n        /* \"#utility.yul\":12664:12670   */\n      dup5\n        /* \"#utility.yul\":12620:12691   */\n      tag_311\n      jump\t// in\n    tag_456:\n        /* \"#utility.yul\":12476:12698   */\n      swap3\n      swap2\n      pop\n      pop\n      jump\t// out\n        /* \"#utility.yul\":12704:13036   */\n    tag_206:\n        /* \"#utility.yul\":12825:12829   */\n      0x00\n        /* \"#utility.yul\":12863:12865   */\n      0x40\n        /* \"#utility.yul\":12852:12861   */\n      dup3\n        /* \"#utility.yul\":12848:12866   */\n      add\n        /* \"#utility.yul\":12840:12866   */\n      swap1\n      pop\n        /* \"#utility.yul\":12876:12947   */\n      tag_458\n        /* \"#utility.yul\":12944:12945   */\n      0x00\n        /* \"#utility.yul\":12933:12942   */\n      dup4\n        /* \"#utility.yul\":12929:12946   */\n      add\n        /* \"#utility.yul\":12920:12926   */\n      dup6\n        /* \"#utility.yul\":12876:12947   */\n      tag_311\n      jump\t// in\n    tag_458:\n        /* \"#utility.yul\":12957:13029   */\n      tag_459\n        /* \"#utility.yul\":13025:13027   */\n      0x20\n        /* \"#utility.yul\":13014:13023   */\n      dup4\n        /* \"#utility.yul\":13010:13028   */\n      add\n        /* \"#utility.yul\":13001:13007   */\n      dup5\n        /* \"#utility.yul\":12957:13029   */\n      tag_280\n      jump\t// in\n    tag_459:\n        /* \"#utility.yul\":12704:13036   */\n      swap4\n      swap3\n      pop\n      pop\n      pop\n      jump\t// out\n        /* \"#utility.yul\":13042:13484   */\n    tag_212:\n        /* \"#utility.yul\":13191:13195   */\n      0x00\n        /* \"#utility.yul\":13229:13231   */\n      0x60\n        /* \"#utility.yul\":13218:13227   */\n      dup3\n        /* \"#utility.yul\":13214:13232   */\n      add\n        /* \"#utility.yul\":13206:13232   */\n      swap1\n      pop\n        /* \"#utility.yul\":13242:13313   */\n      tag_461\n        /* \"#utility.yul\":13310:13311   */\n      0x00\n        /* \"#utility.yul\":13299:13308   */\n      dup4\n        /* \"#utility.yul\":13295:13312   */\n      add\n        /* \"#utility.yul\":13286:13292   */\n      dup7\n        /* \"#utility.yul\":13242:13313   */\n      tag_311\n      jump\t// in\n    tag_461:\n        /* \"#utility.yul\":13323:13395   */\n      tag_462\n        /* \"#utility.yul\":13391:13393   */\n      0x20\n        /* \"#utility.yul\":13380:13389   */\n      dup4\n        /* \"#utility.yul\":13376:13394   */\n      add\n        /* \"#utility.yul\":13367:13373   */\n      dup6\n        /* \"#utility.yul\":13323:13395   */\n      tag_311\n      jump\t// in\n    tag_462:\n        /* \"#utility.yul\":13405:13477   */\n      tag_463\n        /* \"#utility.yul\":13473:13475   */\n      0x40\n        /* \"#utility.yul\":13462:13471   */\n      dup4\n        /* \"#utility.yul\":13458:13476   */\n      add\n        /* \"#utility.yul\":13449:13455   */\n      dup5\n        /* \"#utility.yul\":13405:13477   */\n      tag_280\n      jump\t// in\n    tag_463:\n        /* \"#utility.yul\":13042:13484   */\n      swap5\n      swap4\n      pop\n      pop\n      pop\n      pop\n      jump\t// out\n        /* \"#utility.yul\":13490:13606   */\n    tag_312:\n        /* \"#utility.yul\":13560:13581   */\n      tag_465\n        /* \"#utility.yul\":13575:13580   */\n      dup2\n        /* \"#utility.yul\":13560:13581   */\n      tag_295\n      jump\t// in\n    tag_465:\n        /* \"#utility.yul\":13553:13558   */\n      dup2\n        /* \"#utility.yul\":13550:13582   */\n      eq\n        /* \"#utility.yul\":13540:13600   */\n      tag_466\n      jumpi\n        /* \"#utility.yul\":13596:13597   */\n      0x00\n        /* \"#utility.yul\":13593:13594   */\n      dup1\n        /* \"#utility.yul\":13586:13598   */\n      revert\n        /* \"#utility.yul\":13540:13600   */\n    tag_466:\n        /* \"#utility.yul\":13490:13606   */\n      pop\n      jump\t// out\n        /* \"#utility.yul\":13612:13749   */\n    tag_313:\n        /* \"#utility.yul\":13666:13671   */\n      0x00\n        /* \"#utility.yul\":13697:13703   */\n      dup2\n        /* \"#utility.yul\":13691:13704   */\n      mload\n        /* \"#utility.yul\":13682:13704   */\n      swap1\n      pop\n        /* \"#utility.yul\":13713:13743   */\n      tag_468\n        /* \"#utility.yul\":13737:13742   */\n      dup2\n        /* \"#utility.yul\":13713:13743   */\n      tag_312\n      jump\t// in\n    tag_468:\n        /* \"#utility.yul\":13612:13749   */\n      swap3\n      swap2\n      pop\n      pop\n      jump\t// out\n        /* \"#utility.yul\":13755:14100   */\n    tag_252:\n        /* \"#utility.yul\":13822:13828   */\n      0x00\n        /* \"#utility.yul\":13871:13873   */\n      0x20\n        /* \"#utility.yul\":13859:13868   */\n      dup3\n        /* \"#utility.yul\":13850:13857   */\n      dup5\n        /* \"#utility.yul\":13846:13869   */\n      sub\n        /* \"#utility.yul\":13842:13874   */\n      slt\n        /* \"#utility.yul\":13839:13958   */\n      iszero\n      tag_470\n      jumpi\n        /* \"#utility.yul\":13877:13956   */\n      tag_471\n      tag_287\n      jump\t// in\n    tag_471:\n        /* \"#utility.yul\":13839:13958   */\n    tag_470:\n        /* \"#utility.yul\":13997:13998   */\n      0x00\n        /* \"#utility.yul\":14022:14083   */\n      tag_472\n        /* \"#utility.yul\":14075:14082   */\n      dup5\n        /* \"#utility.yul\":14066:14072   */\n      dup3\n        /* \"#utility.yul\":14055:14064   */\n      dup6\n        /* \"#utility.yul\":14051:14073   */\n      add\n        /* \"#utility.yul\":14022:14083   */\n      tag_313\n      jump\t// in\n    tag_472:\n        /* \"#utility.yul\":14012:14083   */\n      swap2\n      pop\n        /* \"#utility.yul\":13968:14093   */\n      pop\n        /* \"#utility.yul\":13755:14100   */\n      swap3\n      swap2\n      pop\n      pop\n      jump\t// out\n        /* \"#utility.yul\":14106:14204   */\n    tag_314:\n        /* \"#utility.yul\":14157:14163   */\n      0x00\n        /* \"#utility.yul\":14191:14196   */\n      dup2\n        /* \"#utility.yul\":14185:14197   */\n      mload\n        /* \"#utility.yul\":14175:14197   */\n      swap1\n      pop\n        /* \"#utility.yul\":14106:14204   */\n      swap2\n      swap1\n      pop\n      jump\t// out\n        /* \"#utility.yul\":14210:14357   */\n    tag_315:\n        /* \"#utility.yul\":14311:14322   */\n      0x00\n        /* \"#utility.yul\":14348:14351   */\n      dup2\n        /* \"#utility.yul\":14333:14351   */\n      swap1\n      pop\n        /* \"#utility.yul\":14210:14357   */\n      swap3\n      swap2\n      pop\n      pop\n      jump\t// out\n        /* \"#utility.yul\":14363:14749   */\n    tag_316:\n        /* \"#utility.yul\":14467:14470   */\n      0x00\n        /* \"#utility.yul\":14495:14533   */\n      tag_476\n        /* \"#utility.yul\":14527:14532   */\n      dup3\n        /* \"#utility.yul\":14495:14533   */\n      tag_314\n      jump\t// in\n    tag_476:\n        /* \"#utility.yul\":14549:14637   */\n      tag_477\n        /* \"#utility.yul\":14630:14636   */\n      dup2\n        /* \"#utility.yul\":14625:14628   */\n      dup6\n        /* \"#utility.yul\":14549:14637   */\n      tag_315\n      jump\t// in\n    tag_477:\n        /* \"#utility.yul\":14542:14637   */\n      swap4\n      pop\n        /* \"#utility.yul\":14646:14711   */\n      tag_478\n        /* \"#utility.yul\":14704:14710   */\n      dup2\n        /* \"#utility.yul\":14699:14702   */\n      dup6\n        /* \"#utility.yul\":14692:14696   */\n      0x20\n        /* \"#utility.yul\":14685:14690   */\n      dup7\n        /* \"#utility.yul\":14681:14697   */\n      add\n        /* \"#utility.yul\":14646:14711   */\n      tag_283\n      jump\t// in\n    tag_478:\n        /* \"#utility.yul\":14736:14742   */\n      dup1\n        /* \"#utility.yul\":14731:14734   */\n      dup5\n        /* \"#utility.yul\":14727:14743   */\n      add\n        /* \"#utility.yul\":14720:14743   */\n      swap2\n      pop\n        /* \"#utility.yul\":14471:14749   */\n      pop\n        /* \"#utility.yul\":14363:14749   */\n      swap3\n      swap2\n      pop\n      pop\n      jump\t// out\n        /* \"#utility.yul\":14755:15026   */\n    tag_262:\n        /* \"#utility.yul\":14885:14888   */\n      0x00\n        /* \"#utility.yul\":14907:15000   */\n      tag_480\n        /* \"#utility.yul\":14996:14999   */\n      dup3\n        /* \"#utility.yul\":14987:14993   */\n      dup5\n        /* \"#utility.yul\":14907:15000   */\n      tag_316\n      jump\t// in\n    tag_480:\n        /* \"#utility.yul\":14900:15000   */\n      swap2\n      pop\n        /* \"#utility.yul\":15017:15020   */\n      dup2\n        /* \"#utility.yul\":15010:15020   */\n      swap1\n      pop\n        /* \"#utility.yul\":14755:15026   */\n      swap3\n      swap2\n      pop\n      pop\n      jump\t// out\n\n    auxdata: 0xa2646970667358221220ac1fbd6d690ef7196695b1b9e0ada3cb31cc88e775fc629936fb1553d916502064736f6c634300081a0033\n}\n",
				"bytecode": {
					"linkReferences": {},
					"object": "60c060405234801561000f575f80fd5b5060405161218438038061218483398181016040528101906100319190610194565b6040518060400160405280601381526020017f45524334363236205661756c7420546f6b656e000000000000000000000000008152506040518060400160405280600981526020017f5641554c5434363236000000000000000000000000000000000000000000000081525081600390816100ac919061040c565b5080600490816100bc919061040c565b50505060016005819055508173ffffffffffffffffffffffffffffffffffffffff1660808173ffffffffffffffffffffffffffffffffffffffff16815250508073ffffffffffffffffffffffffffffffffffffffff1660a08173ffffffffffffffffffffffffffffffffffffffff168152505050506104db565b5f80fd5b5f73ffffffffffffffffffffffffffffffffffffffff82169050919050565b5f6101638261013a565b9050919050565b61017381610159565b811461017d575f80fd5b50565b5f8151905061018e8161016a565b92915050565b5f80604083850312156101aa576101a9610136565b5b5f6101b785828601610180565b92505060206101c885828601610180565b9150509250929050565b5f81519050919050565b7f4e487b71000000000000000000000000000000000000000000000000000000005f52604160045260245ffd5b7f4e487b71000000000000000000000000000000000000000000000000000000005f52602260045260245ffd5b5f600282049050600182168061024d57607f821691505b6020821081036102605761025f610209565b5b50919050565b5f819050815f5260205f209050919050565b5f6020601f8301049050919050565b5f82821b905092915050565b5f600883026102c27fffffffffffffffffffffffffffffffffffffffffffffffffffffffffffffffff82610287565b6102cc8683610287565b95508019841693508086168417925050509392505050565b5f819050919050565b5f819050919050565b5f61031061030b610306846102e4565b6102ed565b6102e4565b9050919050565b5f819050919050565b610329836102f6565b61033d61033582610317565b848454610293565b825550505050565b5f90565b610351610345565b61035c818484610320565b505050565b5b8181101561037f576103745f82610349565b600181019050610362565b5050565b601f8211156103c45761039581610266565b61039e84610278565b810160208510156103ad578190505b6103c16103b985610278565b830182610361565b50505b505050565b5f82821c905092915050565b5f6103e45f19846008026103c9565b1980831691505092915050565b5f6103fc83836103d5565b9150826002028217905092915050565b610415826101d2565b67ffffffffffffffff81111561042e5761042d6101dc565b5b6104388254610236565b610443828285610383565b5f60209050601f831160018114610474575f8415610462578287015190505b61046c85826103f1565b8655506104d3565b601f19841661048286610266565b5f5b828110156104a957848901518255600182019150602085019450602081019050610484565b868310156104c657848901516104c2601f8916826103d5565b8355505b6001600288020188555050505b505050505050565b60805160a051611c6c6105185f395f818161059e01528181610749015261089801525f818161042c01528181610553015261084b0152611c6c5ff3fe608060405234801561000f575f80fd5b50600436106100fe575f3560e01c8063313ce56711610095578063a9059cbb11610064578063a9059cbb146102b4578063d21220a7146102e4578063dd62ed3e14610302578063e2bbb15814610332576100fe565b8063313ce5671461022a57806370a082311461024857806395d89b4114610278578063a6e6185514610296576100fe565b80630dfe1681116100d15780630dfe16811461018d57806318160ddd146101ab57806323b872dd146101c95780632e1a7d4d146101f9576100fe565b806301e1d1141461010257806302d2cec41461012157806306fdde031461013f578063095ea7b31461015d575b5f80fd5b61010a610362565b6040516101189291906114a8565b60405180910390f35b610129610372565b60405161013691906114cf565b60405180910390f35b610147610378565b6040516101549190611558565b60405180910390f35b61017760048036038101906101729190611600565b610408565b6040516101849190611658565b60405180910390f35b61019561042a565b6040516101a291906116cc565b60405180910390f35b6101b361044e565b6040516101c091906114cf565b60405180910390f35b6101e360048036038101906101de91906116e5565b610457565b6040516101f09190611658565b60405180910390f35b610213600480360381019061020e9190611735565b610485565b6040516102219291906114a8565b60405180910390f35b610232610642565b60405161023f919061177b565b60405180910390f35b610262600480360381019061025d9190611794565b61064a565b60405161026f91906114cf565b60405180910390f35b61028061068f565b60405161028d9190611558565b60405180910390f35b61029e61071f565b6040516102ab91906114cf565b60405180910390f35b6102ce60048036038101906102c99190611600565b610725565b6040516102db9190611658565b60405180910390f35b6102ec610747565b6040516102f991906116cc565b60405180910390f35b61031c600480360381019061031791906117bf565b61076b565b60405161032991906114cf565b60405180910390f35b61034c600480360381019061034791906117fd565b6107ed565b60405161035991906114cf565b60405180910390f35b5f80600654915060075490509091565b60075481565b60606003805461038790611868565b80601f01602080910402602001604051908101604052809291908181526020018280546103b390611868565b80156103fe5780601f106103d5576101008083540402835291602001916103fe565b820191905f5260205f20905b8154815290600101906020018083116103e157829003601f168201915b5050505050905090565b5f806104126109eb565b905061041f8185856109f2565b600191505092915050565b7f000000000000000000000000000000000000000000000000000000000000000081565b5f600254905090565b5f806104616109eb565b905061046e858285610a04565b610479858585610a96565b60019150509392505050565b5f8061048f610b86565b5f83116104d1576040517f08c379a00000000000000000000000000000000000000000000000000000000081526004016104c8906118e2565b60405180910390fd5b5f6104da61044e565b905080600654856104eb919061192d565b6104f5919061199b565b92508060075485610506919061192d565b610510919061199b565b915061051c3385610bcc565b8260065f82825461052d91906119cb565b925050819055508160075f82825461054591906119cb565b9250508190555061059733847f000000000000000000000000000000000000000000000000000000000000000073ffffffffffffffffffffffffffffffffffffffff16610c4b9092919063ffffffff16565b6105e233837f000000000000000000000000000000000000000000000000000000000000000073ffffffffffffffffffffffffffffffffffffffff16610c4b9092919063ffffffff16565b3373ffffffffffffffffffffffffffffffffffffffff167f02f25270a4d87bea75db541cdfe559334a275b4a233520ed6c0a2429667cca9485858560405161062c939291906119fe565b60405180910390a25061063d610cca565b915091565b5f6012905090565b5f805f8373ffffffffffffffffffffffffffffffffffffffff1673ffffffffffffffffffffffffffffffffffffffff1681526020019081526020015f20549050919050565b60606004805461069e90611868565b80601f01602080910402602001604051908101604052809291908181526020018280546106ca90611868565b80156107155780601f106106ec57610100808354040283529160200191610715565b820191905f5260205f20905b8154815290600101906020018083116106f857829003601f168201915b5050505050905090565b60065481565b5f8061072f6109eb565b905061073c818585610a96565b600191505092915050565b7f000000000000000000000000000000000000000000000000000000000000000081565b5f60015f8473ffffffffffffffffffffffffffffffffffffffff1673ffffffffffffffffffffffffffffffffffffffff1681526020019081526020015f205f8373ffffffffffffffffffffffffffffffffffffffff1673ffffffffffffffffffffffffffffffffffffffff1681526020019081526020015f2054905092915050565b5f6107f6610b86565b5f8311801561080457505f82115b610843576040517f08c379a000000000000000000000000000000000000000000000000000000000815260040161083a90611a7d565b60405180910390fd5b6108903330857f000000000000000000000000000000000000000000000000000000000000000073ffffffffffffffffffffffffffffffffffffffff16610cd4909392919063ffffffff16565b6108dd3330847f000000000000000000000000000000000000000000000000000000000000000073ffffffffffffffffffffffffffffffffffffffff16610cd4909392919063ffffffff16565b5f6108e661044e565b03610906576108ff82846108fa919061192d565b610d56565b9050610951565b61094e60065461091461044e565b8561091f919061192d565b610929919061199b565b60075461093461044e565b8561093f919061192d565b610949919061199b565b610dcd565b90505b8260065f8282546109629190611a9b565b925050819055508160075f82825461097a9190611a9b565b9250508190555061098b3382610de5565b3373ffffffffffffffffffffffffffffffffffffffff167f36af321ec8d3c75236829c5317affd40ddb308863a1236d2d277a4025cccee1e8484846040516109d5939291906119fe565b60405180910390a26109e5610cca565b92915050565b5f33905090565b6109ff8383836001610e64565b505050565b5f610a0f848461076b565b90507fffffffffffffffffffffffffffffffffffffffffffffffffffffffffffffffff8114610a905781811015610a81578281836040517ffb8f41b2000000000000000000000000000000000000000000000000000000008152600401610a7893929190611add565b60405180910390fd5b610a8f84848484035f610e64565b5b50505050565b5f73ffffffffffffffffffffffffffffffffffffffff168373ffffffffffffffffffffffffffffffffffffffff1603610b06575f6040517f96c6fd1e000000000000000000000000000000000000000000000000000000008152600401610afd9190611b12565b60405180910390fd5b5f73ffffffffffffffffffffffffffffffffffffffff168273ffffffffffffffffffffffffffffffffffffffff1603610b76575f6040517fec442f05000000000000000000000000000000000000000000000000000000008152600401610b6d9190611b12565b60405180910390fd5b610b81838383611033565b505050565b600260055403610bc2576040517f3ee5aeb500000000000000000000000000000000000000000000000000000000815260040160405180910390fd5b6002600581905550565b5f73ffffffffffffffffffffffffffffffffffffffff168273ffffffffffffffffffffffffffffffffffffffff1603610c3c575f6040517f96c6fd1e000000000000000000000000000000000000000000000000000000008152600401610c339190611b12565b60405180910390fd5b610c47825f83611033565b5050565b610cc5838473ffffffffffffffffffffffffffffffffffffffff1663a9059cbb8585604051602401610c7e929190611b2b565b604051602081830303815290604052915060e01b6020820180517bffffffffffffffffffffffffffffffffffffffffffffffffffffffff838183161783525050505061124c565b505050565b6001600581905550565b610d50848573ffffffffffffffffffffffffffffffffffffffff166323b872dd868686604051602401610d0993929190611b52565b604051602081830303815290604052915060e01b6020820180517bffffffffffffffffffffffffffffffffffffffffffffffffffffffff838183161783525050505061124c565b50505050565b5f6003821115610dbb578190505f6001600284610d73919061199b565b610d7d9190611a9b565b90505b81811015610db5578091506002818285610d9a919061199b565b610da49190611a9b565b610dae919061199b565b9050610d80565b50610dc8565b5f8214610dc757600190505b5b919050565b5f818310610ddb5781610ddd565b825b905092915050565b5f73ffffffffffffffffffffffffffffffffffffffff168273ffffffffffffffffffffffffffffffffffffffff1603610e55575f6040517fec442f05000000000000000000000000000000000000000000000000000000008152600401610e4c9190611b12565b60405180910390fd5b610e605f8383611033565b5050565b5f73ffffffffffffffffffffffffffffffffffffffff168473ffffffffffffffffffffffffffffffffffffffff1603610ed4575f6040517fe602df05000000000000000000000000000000000000000000000000000000008152600401610ecb9190611b12565b60405180910390fd5b5f73ffffffffffffffffffffffffffffffffffffffff168373ffffffffffffffffffffffffffffffffffffffff1603610f44575f6040517f94280d62000000000000000000000000000000000000000000000000000000008152600401610f3b9190611b12565b60405180910390fd5b8160015f8673ffffffffffffffffffffffffffffffffffffffff1673ffffffffffffffffffffffffffffffffffffffff1681526020019081526020015f205f8573ffffffffffffffffffffffffffffffffffffffff1673ffffffffffffffffffffffffffffffffffffffff1681526020019081526020015f2081905550801561102d578273ffffffffffffffffffffffffffffffffffffffff168473ffffffffffffffffffffffffffffffffffffffff167f8c5be1e5ebec7d5bd14f71427d1e84f3dd0314c0f7b2291e5b200ac8c7c3b9258460405161102491906114cf565b60405180910390a35b50505050565b5f73ffffffffffffffffffffffffffffffffffffffff168373ffffffffffffffffffffffffffffffffffffffff1603611083578060025f8282546110779190611a9b565b92505081905550611151565b5f805f8573ffffffffffffffffffffffffffffffffffffffff1673ffffffffffffffffffffffffffffffffffffffff1681526020019081526020015f205490508181101561110c578381836040517fe450d38c00000000000000000000000000000000000000000000000000000000815260040161110393929190611add565b60405180910390fd5b8181035f808673ffffffffffffffffffffffffffffffffffffffff1673ffffffffffffffffffffffffffffffffffffffff1681526020019081526020015f2081905550505b5f73ffffffffffffffffffffffffffffffffffffffff168273ffffffffffffffffffffffffffffffffffffffff1603611198578060025f82825403925050819055506111e2565b805f808473ffffffffffffffffffffffffffffffffffffffff1673ffffffffffffffffffffffffffffffffffffffff1681526020019081526020015f205f82825401925050819055505b8173ffffffffffffffffffffffffffffffffffffffff168373ffffffffffffffffffffffffffffffffffffffff167fddf252ad1be2c89b69c2b068fc378daa952ba7f163c4a11628f55a4df523b3ef8360405161123f91906114cf565b60405180910390a3505050565b5f611276828473ffffffffffffffffffffffffffffffffffffffff166112e190919063ffffffff16565b90505f81511415801561129a5750808060200190518101906112989190611bb1565b155b156112dc57826040517f5274afe70000000000000000000000000000000000000000000000000000000081526004016112d39190611b12565b60405180910390fd5b505050565b60606112ee83835f6112f6565b905092915050565b60608147101561133d57306040517fcd7860590000000000000000000000000000000000000000000000000000000081526004016113349190611b12565b60405180910390fd5b5f808573ffffffffffffffffffffffffffffffffffffffff1684866040516113659190611c20565b5f6040518083038185875af1925050503d805f811461139f576040519150601f19603f3d011682016040523d82523d5f602084013e6113a4565b606091505b50915091506113b48683836113bf565b925050509392505050565b6060826113d4576113cf8261144c565b611444565b5f82511480156113fa57505f8473ffffffffffffffffffffffffffffffffffffffff163b145b1561143c57836040517f9996b3150000000000000000000000000000000000000000000000000000000081526004016114339190611b12565b60405180910390fd5b819050611445565b5b9392505050565b5f8151111561145e5780518082602001fd5b6040517f1425ea4200000000000000000000000000000000000000000000000000000000815260040160405180910390fd5b5f819050919050565b6114a281611490565b82525050565b5f6040820190506114bb5f830185611499565b6114c86020830184611499565b9392505050565b5f6020820190506114e25f830184611499565b92915050565b5f81519050919050565b5f82825260208201905092915050565b8281835e5f83830152505050565b5f601f19601f8301169050919050565b5f61152a826114e8565b61153481856114f2565b9350611544818560208601611502565b61154d81611510565b840191505092915050565b5f6020820190508181035f8301526115708184611520565b905092915050565b5f80fd5b5f73ffffffffffffffffffffffffffffffffffffffff82169050919050565b5f6115a58261157c565b9050919050565b6115b58161159b565b81146115bf575f80fd5b50565b5f813590506115d0816115ac565b92915050565b6115df81611490565b81146115e9575f80fd5b50565b5f813590506115fa816115d6565b92915050565b5f806040838503121561161657611615611578565b5b5f611623858286016115c2565b9250506020611634858286016115ec565b9150509250929050565b5f8115159050919050565b6116528161163e565b82525050565b5f60208201905061166b5f830184611649565b92915050565b5f819050919050565b5f61169461168f61168a8461157c565b611671565b61157c565b9050919050565b5f6116a58261167a565b9050919050565b5f6116b68261169b565b9050919050565b6116c6816116ac565b82525050565b5f6020820190506116df5f8301846116bd565b92915050565b5f805f606084860312156116fc576116fb611578565b5b5f611709868287016115c2565b935050602061171a868287016115c2565b925050604061172b868287016115ec565b9150509250925092565b5f6020828403121561174a57611749611578565b5b5f611757848285016115ec565b91505092915050565b5f60ff82169050919050565b61177581611760565b82525050565b5f60208201905061178e5f83018461176c565b92915050565b5f602082840312156117a9576117a8611578565b5b5f6117b6848285016115c2565b91505092915050565b5f80604083850312156117d5576117d4611578565b5b5f6117e2858286016115c2565b92505060206117f3858286016115c2565b9150509250929050565b5f806040838503121561181357611812611578565b5b5f611820858286016115ec565b9250506020611831858286016115ec565b9150509250929050565b7f4e487b71000000000000000000000000000000000000000000000000000000005f52602260045260245ffd5b5f600282049050600182168061187f57607f821691505b6020821081036118925761189161183b565b5b50919050565b7f496e76616c696420736861726520616d6f756e740000000000000000000000005f82015250565b5f6118cc6014836114f2565b91506118d782611898565b602082019050919050565b5f6020820190508181035f8301526118f9816118c0565b9050919050565b7f4e487b71000000000000000000000000000000000000000000000000000000005f52601160045260245ffd5b5f61193782611490565b915061194283611490565b925082820261195081611490565b9150828204841483151761196757611966611900565b5b5092915050565b7f4e487b71000000000000000000000000000000000000000000000000000000005f52601260045260245ffd5b5f6119a582611490565b91506119b083611490565b9250826119c0576119bf61196e565b5b828204905092915050565b5f6119d582611490565b91506119e083611490565b92508282039050818111156119f8576119f7611900565b5b92915050565b5f606082019050611a115f830186611499565b611a1e6020830185611499565b611a2b6040830184611499565b949350505050565b7f496e76616c696420616d6f756e747300000000000000000000000000000000005f82015250565b5f611a67600f836114f2565b9150611a7282611a33565b602082019050919050565b5f6020820190508181035f830152611a9481611a5b565b9050919050565b5f611aa582611490565b9150611ab083611490565b9250828201905080821115611ac857611ac7611900565b5b92915050565b611ad78161159b565b82525050565b5f606082019050611af05f830186611ace565b611afd6020830185611499565b611b0a6040830184611499565b949350505050565b5f602082019050611b255f830184611ace565b92915050565b5f604082019050611b3e5f830185611ace565b611b4b6020830184611499565b9392505050565b5f606082019050611b655f830186611ace565b611b726020830185611ace565b611b7f6040830184611499565b949350505050565b611b908161163e565b8114611b9a575f80fd5b50565b5f81519050611bab81611b87565b92915050565b5f60208284031215611bc657611bc5611578565b5b5f611bd384828501611b9d565b91505092915050565b5f81519050919050565b5f81905092915050565b5f611bfa82611bdc565b611c048185611be6565b9350611c14818560208601611502565b80840191505092915050565b5f611c2b8284611bf0565b91508190509291505056fea2646970667358221220ac1fbd6d690ef7196695b1b9e0ada3cb31cc88e775fc629936fb1553d916502064736f6c634300081a0033",
					"opcodes": "PUSH1 0xC0 PUSH1 0x40 MSTORE CALLVALUE DUP1 ISZERO PUSH2 0xF JUMPI PUSH0 DUP1 REVERT JUMPDEST POP PUSH1 0x40 MLOAD PUSH2 0x2184 CODESIZE SUB DUP1 PUSH2 0x2184 DUP4 CODECOPY DUP2 DUP2 ADD PUSH1 0x40 MSTORE DUP2 ADD SWAP1 PUSH2 0x31 SWAP2 SWAP1 PUSH2 0x194 JUMP JUMPDEST PUSH1 0x40 MLOAD DUP1 PUSH1 0x40 ADD PUSH1 0x40 MSTORE DUP1 PUSH1 0x13 DUP2 MSTORE PUSH1 0x20 ADD PUSH32 0x45524334363236205661756C7420546F6B656E00000000000000000000000000 DUP2 MSTORE POP PUSH1 0x40 MLOAD DUP1 PUSH1 0x40 ADD PUSH1 0x40 MSTORE DUP1 PUSH1 0x9 DUP2 MSTORE PUSH1 0x20 ADD PUSH32 0x5641554C54343632360000000000000000000000000000000000000000000000 DUP2 MSTORE POP DUP2 PUSH1 0x3 SWAP1 DUP2 PUSH2 0xAC SWAP2 SWAP1 PUSH2 0x40C JUMP JUMPDEST POP DUP1 PUSH1 0x4 SWAP1 DUP2 PUSH2 0xBC SWAP2 SWAP1 PUSH2 0x40C JUMP JUMPDEST POP POP POP PUSH1 0x1 PUSH1 0x5 DUP2 SWAP1 SSTORE POP DUP2 PUSH20 0xFFFFFFFFFFFFFFFFFFFFFFFFFFFFFFFFFFFFFFFF AND PUSH1 0x80 DUP2 PUSH20 0xFFFFFFFFFFFFFFFFFFFFFFFFFFFFFFFFFFFFFFFF AND DUP2 MSTORE POP POP DUP1 PUSH20 0xFFFFFFFFFFFFFFFFFFFFFFFFFFFFFFFFFFFFFFFF AND PUSH1 0xA0 DUP2 PUSH20 0xFFFFFFFFFFFFFFFFFFFFFFFFFFFFFFFFFFFFFFFF AND DUP2 MSTORE POP POP POP POP PUSH2 0x4DB JUMP JUMPDEST PUSH0 DUP1 REVERT JUMPDEST PUSH0 PUSH20 0xFFFFFFFFFFFFFFFFFFFFFFFFFFFFFFFFFFFFFFFF DUP3 AND SWAP1 POP SWAP2 SWAP1 POP JUMP JUMPDEST PUSH0 PUSH2 0x163 DUP3 PUSH2 0x13A JUMP JUMPDEST SWAP1 POP SWAP2 SWAP1 POP JUMP JUMPDEST PUSH2 0x173 DUP2 PUSH2 0x159 JUMP JUMPDEST DUP2 EQ PUSH2 0x17D JUMPI PUSH0 DUP1 REVERT JUMPDEST POP JUMP JUMPDEST PUSH0 DUP2 MLOAD SWAP1 POP PUSH2 0x18E DUP2 PUSH2 0x16A JUMP JUMPDEST SWAP3 SWAP2 POP POP JUMP JUMPDEST PUSH0 DUP1 PUSH1 0x40 DUP4 DUP6 SUB SLT ISZERO PUSH2 0x1AA JUMPI PUSH2 0x1A9 PUSH2 0x136 JUMP JUMPDEST JUMPDEST PUSH0 PUSH2 0x1B7 DUP6 DUP3 DUP7 ADD PUSH2 0x180 JUMP JUMPDEST SWAP3 POP POP PUSH1 0x20 PUSH2 0x1C8 DUP6 DUP3 DUP7 ADD PUSH2 0x180 JUMP JUMPDEST SWAP2 POP POP SWAP3 POP SWAP3 SWAP1 POP JUMP JUMPDEST PUSH0 DUP2 MLOAD SWAP1 POP SWAP2 SWAP1 POP JUMP JUMPDEST PUSH32 0x4E487B7100000000000000000000000000000000000000000000000000000000 PUSH0 MSTORE PUSH1 0x41 PUSH1 0x4 MSTORE PUSH1 0x24 PUSH0 REVERT JUMPDEST PUSH32 0x4E487B7100000000000000000000000000000000000000000000000000000000 PUSH0 MSTORE PUSH1 0x22 PUSH1 0x4 MSTORE PUSH1 0x24 PUSH0 REVERT JUMPDEST PUSH0 PUSH1 0x2 DUP3 DIV SWAP1 POP PUSH1 0x1 DUP3 AND DUP1 PUSH2 0x24D JUMPI PUSH1 0x7F DUP3 AND SWAP2 POP JUMPDEST PUSH1 0x20 DUP3 LT DUP2 SUB PUSH2 0x260 JUMPI PUSH2 0x25F PUSH2 0x209 JUMP JUMPDEST JUMPDEST POP SWAP2 SWAP1 POP JUMP JUMPDEST PUSH0 DUP2 SWAP1 POP DUP2 PUSH0 MSTORE PUSH1 0x20 PUSH0 KECCAK256 SWAP1 POP SWAP2 SWAP1 POP JUMP JUMPDEST PUSH0 PUSH1 0x20 PUSH1 0x1F DUP4 ADD DIV SWAP1 POP SWAP2 SWAP1 POP JUMP JUMPDEST PUSH0 DUP3 DUP3 SHL SWAP1 POP SWAP3 SWAP2 POP POP JUMP JUMPDEST PUSH0 PUSH1 0x8 DUP4 MUL PUSH2 0x2C2 PUSH32 0xFFFFFFFFFFFFFFFFFFFFFFFFFFFFFFFFFFFFFFFFFFFFFFFFFFFFFFFFFFFFFFFF DUP3 PUSH2 0x287 JUMP JUMPDEST PUSH2 0x2CC DUP7 DUP4 PUSH2 0x287 JUMP JUMPDEST SWAP6 POP DUP1 NOT DUP5 AND SWAP4 POP DUP1 DUP7 AND DUP5 OR SWAP3 POP POP POP SWAP4 SWAP3 POP POP POP JUMP JUMPDEST PUSH0 DUP2 SWAP1 POP SWAP2 SWAP1 POP JUMP JUMPDEST PUSH0 DUP2 SWAP1 POP SWAP2 SWAP1 POP JUMP JUMPDEST PUSH0 PUSH2 0x310 PUSH2 0x30B PUSH2 0x306 DUP5 PUSH2 0x2E4 JUMP JUMPDEST PUSH2 0x2ED JUMP JUMPDEST PUSH2 0x2E4 JUMP JUMPDEST SWAP1 POP SWAP2 SWAP1 POP JUMP JUMPDEST PUSH0 DUP2 SWAP1 POP SWAP2 SWAP1 POP JUMP JUMPDEST PUSH2 0x329 DUP4 PUSH2 0x2F6 JUMP JUMPDEST PUSH2 0x33D PUSH2 0x335 DUP3 PUSH2 0x317 JUMP JUMPDEST DUP5 DUP5 SLOAD PUSH2 0x293 JUMP JUMPDEST DUP3 SSTORE POP POP POP POP JUMP JUMPDEST PUSH0 SWAP1 JUMP JUMPDEST PUSH2 0x351 PUSH2 0x345 JUMP JUMPDEST PUSH2 0x35C DUP2 DUP5 DUP5 PUSH2 0x320 JUMP JUMPDEST POP POP POP JUMP JUMPDEST JUMPDEST DUP2 DUP2 LT ISZERO PUSH2 0x37F JUMPI PUSH2 0x374 PUSH0 DUP3 PUSH2 0x349 JUMP JUMPDEST PUSH1 0x1 DUP2 ADD SWAP1 POP PUSH2 0x362 JUMP JUMPDEST POP POP JUMP JUMPDEST PUSH1 0x1F DUP3 GT ISZERO PUSH2 0x3C4 JUMPI PUSH2 0x395 DUP2 PUSH2 0x266 JUMP JUMPDEST PUSH2 0x39E DUP5 PUSH2 0x278 JUMP JUMPDEST DUP2 ADD PUSH1 0x20 DUP6 LT ISZERO PUSH2 0x3AD JUMPI DUP2 SWAP1 POP JUMPDEST PUSH2 0x3C1 PUSH2 0x3B9 DUP6 PUSH2 0x278 JUMP JUMPDEST DUP4 ADD DUP3 PUSH2 0x361 JUMP JUMPDEST POP POP JUMPDEST POP POP POP JUMP JUMPDEST PUSH0 DUP3 DUP3 SHR SWAP1 POP SWAP3 SWAP2 POP POP JUMP JUMPDEST PUSH0 PUSH2 0x3E4 PUSH0 NOT DUP5 PUSH1 0x8 MUL PUSH2 0x3C9 JUMP JUMPDEST NOT DUP1 DUP4 AND SWAP2 POP POP SWAP3 SWAP2 POP POP JUMP JUMPDEST PUSH0 PUSH2 0x3FC DUP4 DUP4 PUSH2 0x3D5 JUMP JUMPDEST SWAP2 POP DUP3 PUSH1 0x2 MUL DUP3 OR SWAP1 POP SWAP3 SWAP2 POP POP JUMP JUMPDEST PUSH2 0x415 DUP3 PUSH2 0x1D2 JUMP JUMPDEST PUSH8 0xFFFFFFFFFFFFFFFF DUP2 GT ISZERO PUSH2 0x42E JUMPI PUSH2 0x42D PUSH2 0x1DC JUMP JUMPDEST JUMPDEST PUSH2 0x438 DUP3 SLOAD PUSH2 0x236 JUMP JUMPDEST PUSH2 0x443 DUP3 DUP3 DUP6 PUSH2 0x383 JUMP JUMPDEST PUSH0 PUSH1 0x20 SWAP1 POP PUSH1 0x1F DUP4 GT PUSH1 0x1 DUP2 EQ PUSH2 0x474 JUMPI PUSH0 DUP5 ISZERO PUSH2 0x462 JUMPI DUP3 DUP8 ADD MLOAD SWAP1 POP JUMPDEST PUSH2 0x46C DUP6 DUP3 PUSH2 0x3F1 JUMP JUMPDEST DUP7 SSTORE POP PUSH2 0x4D3 JUMP JUMPDEST PUSH1 0x1F NOT DUP5 AND PUSH2 0x482 DUP7 PUSH2 0x266 JUMP JUMPDEST PUSH0 JUMPDEST DUP3 DUP2 LT ISZERO PUSH2 0x4A9 JUMPI DUP5 DUP10 ADD MLOAD DUP3 SSTORE PUSH1 0x1 DUP3 ADD SWAP2 POP PUSH1 0x20 DUP6 ADD SWAP5 POP PUSH1 0x20 DUP2 ADD SWAP1 POP PUSH2 0x484 JUMP JUMPDEST DUP7 DUP4 LT ISZERO PUSH2 0x4C6 JUMPI DUP5 DUP10 ADD MLOAD PUSH2 0x4C2 PUSH1 0x1F DUP10 AND DUP3 PUSH2 0x3D5 JUMP JUMPDEST DUP4 SSTORE POP JUMPDEST PUSH1 0x1 PUSH1 0x2 DUP9 MUL ADD DUP9 SSTORE POP POP POP JUMPDEST POP POP POP POP POP POP JUMP JUMPDEST PUSH1 0x80 MLOAD PUSH1 0xA0 MLOAD PUSH2 0x1C6C PUSH2 0x518 PUSH0 CODECOPY PUSH0 DUP2 DUP2 PUSH2 0x59E ADD MSTORE DUP2 DUP2 PUSH2 0x749 ADD MSTORE PUSH2 0x898 ADD MSTORE PUSH0 DUP2 DUP2 PUSH2 0x42C ADD MSTORE DUP2 DUP2 PUSH2 0x553 ADD MSTORE PUSH2 0x84B ADD MSTORE PUSH2 0x1C6C PUSH0 RETURN INVALID PUSH1 0x80 PUSH1 0x40 MSTORE CALLVALUE DUP1 ISZERO PUSH2 0xF JUMPI PUSH0 DUP1 REVERT JUMPDEST POP PUSH1 0x4 CALLDATASIZE LT PUSH2 0xFE JUMPI PUSH0 CALLDATALOAD PUSH1 0xE0 SHR DUP1 PUSH4 0x313CE567 GT PUSH2 0x95 JUMPI DUP1 PUSH4 0xA9059CBB GT PUSH2 0x64 JUMPI DUP1 PUSH4 0xA9059CBB EQ PUSH2 0x2B4 JUMPI DUP1 PUSH4 0xD21220A7 EQ PUSH2 0x2E4 JUMPI DUP1 PUSH4 0xDD62ED3E EQ PUSH2 0x302 JUMPI DUP1 PUSH4 0xE2BBB158 EQ PUSH2 0x332 JUMPI PUSH2 0xFE JUMP JUMPDEST DUP1 PUSH4 0x313CE567 EQ PUSH2 0x22A JUMPI DUP1 PUSH4 0x70A08231 EQ PUSH2 0x248 JUMPI DUP1 PUSH4 0x95D89B41 EQ PUSH2 0x278 JUMPI DUP1 PUSH4 0xA6E61855 EQ PUSH2 0x296 JUMPI PUSH2 0xFE JUMP JUMPDEST DUP1 PUSH4 0xDFE1681 GT PUSH2 0xD1 JUMPI DUP1 PUSH4 0xDFE1681 EQ PUSH2 0x18D JUMPI DUP1 PUSH4 0x18160DDD EQ PUSH2 0x1AB JUMPI DUP1 PUSH4 0x23B872DD EQ PUSH2 0x1C9 JUMPI DUP1 PUSH4 0x2E1A7D4D EQ PUSH2 0x1F9 JUMPI PUSH2 0xFE JUMP JUMPDEST DUP1 PUSH4 0x1E1D114 EQ PUSH2 0x102 JUMPI DUP1 PUSH4 0x2D2CEC4 EQ PUSH2 0x121 JUMPI DUP1 PUSH4 0x6FDDE03 EQ PUSH2 0x13F JUMPI DUP1 PUSH4 0x95EA7B3 EQ PUSH2 0x15D JUMPI JUMPDEST PUSH0 DUP1 REVERT JUMPDEST PUSH2 0x10A PUSH2 0x362 JUMP JUMPDEST PUSH1 0x40 MLOAD PUSH2 0x118 SWAP3 SWAP2 SWAP1 PUSH2 0x14A8 JUMP JUMPDEST PUSH1 0x40 MLOAD DUP1 SWAP2 SUB SWAP1 RETURN JUMPDEST PUSH2 0x129 PUSH2 0x372 JUMP JUMPDEST PUSH1 0x40 MLOAD PUSH2 0x136 SWAP2 SWAP1 PUSH2 0x14CF JUMP JUMPDEST PUSH1 0x40 MLOAD DUP1 SWAP2 SUB SWAP1 RETURN JUMPDEST PUSH2 0x147 PUSH2 0x378 JUMP JUMPDEST PUSH1 0x40 MLOAD PUSH2 0x154 SWAP2 SWAP1 PUSH2 0x1558 JUMP JUMPDEST PUSH1 0x40 MLOAD DUP1 SWAP2 SUB SWAP1 RETURN JUMPDEST PUSH2 0x177 PUSH1 0x4 DUP1 CALLDATASIZE SUB DUP2 ADD SWAP1 PUSH2 0x172 SWAP2 SWAP1 PUSH2 0x1600 JUMP JUMPDEST PUSH2 0x408 JUMP JUMPDEST PUSH1 0x40 MLOAD PUSH2 0x184 SWAP2 SWAP1 PUSH2 0x1658 JUMP JUMPDEST PUSH1 0x40 MLOAD DUP1 SWAP2 SUB SWAP1 RETURN JUMPDEST PUSH2 0x195 PUSH2 0x42A JUMP JUMPDEST PUSH1 0x40 MLOAD PUSH2 0x1A2 SWAP2 SWAP1 PUSH2 0x16CC JUMP JUMPDEST PUSH1 0x40 MLOAD DUP1 SWAP2 SUB SWAP1 RETURN JUMPDEST PUSH2 0x1B3 PUSH2 0x44E JUMP JUMPDEST PUSH1 0x40 MLOAD PUSH2 0x1C0 SWAP2 SWAP1 PUSH2 0x14CF JUMP JUMPDEST PUSH1 0x40 MLOAD DUP1 SWAP2 SUB SWAP1 RETURN JUMPDEST PUSH2 0x1E3 PUSH1 0x4 DUP1 CALLDATASIZE SUB DUP2 ADD SWAP1 PUSH2 0x1DE SWAP2 SWAP1 PUSH2 0x16E5 JUMP JUMPDEST PUSH2 0x457 JUMP JUMPDEST PUSH1 0x40 MLOAD PUSH2 0x1F0 SWAP2 SWAP1 PUSH2 0x1658 JUMP JUMPDEST PUSH1 0x40 MLOAD DUP1 SWAP2 SUB SWAP1 RETURN JUMPDEST PUSH2 0x213 PUSH1 0x4 DUP1 CALLDATASIZE SUB DUP2 ADD SWAP1 PUSH2 0x20E SWAP2 SWAP1 PUSH2 0x1735 JUMP JUMPDEST PUSH2 0x485 JUMP JUMPDEST PUSH1 0x40 MLOAD PUSH2 0x221 SWAP3 SWAP2 SWAP1 PUSH2 0x14A8 JUMP JUMPDEST PUSH1 0x40 MLOAD DUP1 SWAP2 SUB SWAP1 RETURN JUMPDEST PUSH2 0x232 PUSH2 0x642 JUMP JUMPDEST PUSH1 0x40 MLOAD PUSH2 0x23F SWAP2 SWAP1 PUSH2 0x177B JUMP JUMPDEST PUSH1 0x40 MLOAD DUP1 SWAP2 SUB SWAP1 RETURN JUMPDEST PUSH2 0x262 PUSH1 0x4 DUP1 CALLDATASIZE SUB DUP2 ADD SWAP1 PUSH2 0x25D SWAP2 SWAP1 PUSH2 0x1794 JUMP JUMPDEST PUSH2 0x64A JUMP JUMPDEST PUSH1 0x40 MLOAD PUSH2 0x26F SWAP2 SWAP1 PUSH2 0x14CF JUMP JUMPDEST PUSH1 0x40 MLOAD DUP1 SWAP2 SUB SWAP1 RETURN JUMPDEST PUSH2 0x280 PUSH2 0x68F JUMP JUMPDEST PUSH1 0x40 MLOAD PUSH2 0x28D SWAP2 SWAP1 PUSH2 0x1558 JUMP JUMPDEST PUSH1 0x40 MLOAD DUP1 SWAP2 SUB SWAP1 RETURN JUMPDEST PUSH2 0x29E PUSH2 0x71F JUMP JUMPDEST PUSH1 0x40 MLOAD PUSH2 0x2AB SWAP2 SWAP1 PUSH2 0x14CF JUMP JUMPDEST PUSH1 0x40 MLOAD DUP1 SWAP2 SUB SWAP1 RETURN JUMPDEST PUSH2 0x2CE PUSH1 0x4 DUP1 CALLDATASIZE SUB DUP2 ADD SWAP1 PUSH2 0x2C9 SWAP2 SWAP1 PUSH2 0x1600 JUMP JUMPDEST PUSH2 0x725 JUMP JUMPDEST PUSH1 0x40 MLOAD PUSH2 0x2DB SWAP2 SWAP1 PUSH2 0x1658 JUMP JUMPDEST PUSH1 0x40 MLOAD DUP1 SWAP2 SUB SWAP1 RETURN JUMPDEST PUSH2 0x2EC PUSH2 0x747 JUMP JUMPDEST PUSH1 0x40 MLOAD PUSH2 0x2F9 SWAP2 SWAP1 PUSH2 0x16CC JUMP JUMPDEST PUSH1 0x40 MLOAD DUP1 SWAP2 SUB SWAP1 RETURN JUMPDEST PUSH2 0x31C PUSH1 0x4 DUP1 CALLDATASIZE SUB DUP2 ADD SWAP1 PUSH2 0x317 SWAP2 SWAP1 PUSH2 0x17BF JUMP JUMPDEST PUSH2 0x76B JUMP JUMPDEST PUSH1 0x40 MLOAD PUSH2 0x329 SWAP2 SWAP1 PUSH2 0x14CF JUMP JUMPDEST PUSH1 0x40 MLOAD DUP1 SWAP2 SUB SWAP1 RETURN JUMPDEST PUSH2 0x34C PUSH1 0x4 DUP1 CALLDATASIZE SUB DUP2 ADD SWAP1 PUSH2 0x347 SWAP2 SWAP1 PUSH2 0x17FD JUMP JUMPDEST PUSH2 0x7ED JUMP JUMPDEST PUSH1 0x40 MLOAD PUSH2 0x359 SWAP2 SWAP1 PUSH2 0x14CF JUMP JUMPDEST PUSH1 0x40 MLOAD DUP1 SWAP2 SUB SWAP1 RETURN JUMPDEST PUSH0 DUP1 PUSH1 0x6 SLOAD SWAP2 POP PUSH1 0x7 SLOAD SWAP1 POP SWAP1 SWAP2 JUMP JUMPDEST PUSH1 0x7 SLOAD DUP2 JUMP JUMPDEST PUSH1 0x60 PUSH1 0x3 DUP1 SLOAD PUSH2 0x387 SWAP1 PUSH2 0x1868 JUMP JUMPDEST DUP1 PUSH1 0x1F ADD PUSH1 0x20 DUP1 SWAP2 DIV MUL PUSH1 0x20 ADD PUSH1 0x40 MLOAD SWAP1 DUP2 ADD PUSH1 0x40 MSTORE DUP1 SWAP3 SWAP2 SWAP1 DUP2 DUP2 MSTORE PUSH1 0x20 ADD DUP3 DUP1 SLOAD PUSH2 0x3B3 SWAP1 PUSH2 0x1868 JUMP JUMPDEST DUP1 ISZERO PUSH2 0x3FE JUMPI DUP1 PUSH1 0x1F LT PUSH2 0x3D5 JUMPI PUSH2 0x100 DUP1 DUP4 SLOAD DIV MUL DUP4 MSTORE SWAP2 PUSH1 0x20 ADD SWAP2 PUSH2 0x3FE JUMP JUMPDEST DUP3 ADD SWAP2 SWAP1 PUSH0 MSTORE PUSH1 0x20 PUSH0 KECCAK256 SWAP1 JUMPDEST DUP2 SLOAD DUP2 MSTORE SWAP1 PUSH1 0x1 ADD SWAP1 PUSH1 0x20 ADD DUP1 DUP4 GT PUSH2 0x3E1 JUMPI DUP3 SWAP1 SUB PUSH1 0x1F AND DUP3 ADD SWAP2 JUMPDEST POP POP POP POP POP SWAP1 POP SWAP1 JUMP JUMPDEST PUSH0 DUP1 PUSH2 0x412 PUSH2 0x9EB JUMP JUMPDEST SWAP1 POP PUSH2 0x41F DUP2 DUP6 DUP6 PUSH2 0x9F2 JUMP JUMPDEST PUSH1 0x1 SWAP2 POP POP SWAP3 SWAP2 POP POP JUMP JUMPDEST PUSH32 0x0 DUP2 JUMP JUMPDEST PUSH0 PUSH1 0x2 SLOAD SWAP1 POP SWAP1 JUMP JUMPDEST PUSH0 DUP1 PUSH2 0x461 PUSH2 0x9EB JUMP JUMPDEST SWAP1 POP PUSH2 0x46E DUP6 DUP3 DUP6 PUSH2 0xA04 JUMP JUMPDEST PUSH2 0x479 DUP6 DUP6 DUP6 PUSH2 0xA96 JUMP JUMPDEST PUSH1 0x1 SWAP2 POP POP SWAP4 SWAP3 POP POP POP JUMP JUMPDEST PUSH0 DUP1 PUSH2 0x48F PUSH2 0xB86 JUMP JUMPDEST PUSH0 DUP4 GT PUSH2 0x4D1 JUMPI PUSH1 0x40 MLOAD PUSH32 0x8C379A000000000000000000000000000000000000000000000000000000000 DUP2 MSTORE PUSH1 0x4 ADD PUSH2 0x4C8 SWAP1 PUSH2 0x18E2 JUMP JUMPDEST PUSH1 0x40 MLOAD DUP1 SWAP2 SUB SWAP1 REVERT JUMPDEST PUSH0 PUSH2 0x4DA PUSH2 0x44E JUMP JUMPDEST SWAP1 POP DUP1 PUSH1 0x6 SLOAD DUP6 PUSH2 0x4EB SWAP2 SWAP1 PUSH2 0x192D JUMP JUMPDEST PUSH2 0x4F5 SWAP2 SWAP1 PUSH2 0x199B JUMP JUMPDEST SWAP3 POP DUP1 PUSH1 0x7 SLOAD DUP6 PUSH2 0x506 SWAP2 SWAP1 PUSH2 0x192D JUMP JUMPDEST PUSH2 0x510 SWAP2 SWAP1 PUSH2 0x199B JUMP JUMPDEST SWAP2 POP PUSH2 0x51C CALLER DUP6 PUSH2 0xBCC JUMP JUMPDEST DUP3 PUSH1 0x6 PUSH0 DUP3 DUP3 SLOAD PUSH2 0x52D SWAP2 SWAP1 PUSH2 0x19CB JUMP JUMPDEST SWAP3 POP POP DUP2 SWAP1 SSTORE POP DUP2 PUSH1 0x7 PUSH0 DUP3 DUP3 SLOAD PUSH2 0x545 SWAP2 SWAP1 PUSH2 0x19CB JUMP JUMPDEST SWAP3 POP POP DUP2 SWAP1 SSTORE POP PUSH2 0x597 CALLER DUP5 PUSH32 0x0 PUSH20 0xFFFFFFFFFFFFFFFFFFFFFFFFFFFFFFFFFFFFFFFF AND PUSH2 0xC4B SWAP1 SWAP3 SWAP2 SWAP1 PUSH4 0xFFFFFFFF AND JUMP JUMPDEST PUSH2 0x5E2 CALLER DUP4 PUSH32 0x0 PUSH20 0xFFFFFFFFFFFFFFFFFFFFFFFFFFFFFFFFFFFFFFFF AND PUSH2 0xC4B SWAP1 SWAP3 SWAP2 SWAP1 PUSH4 0xFFFFFFFF AND JUMP JUMPDEST CALLER PUSH20 0xFFFFFFFFFFFFFFFFFFFFFFFFFFFFFFFFFFFFFFFF AND PUSH32 0x2F25270A4D87BEA75DB541CDFE559334A275B4A233520ED6C0A2429667CCA94 DUP6 DUP6 DUP6 PUSH1 0x40 MLOAD PUSH2 0x62C SWAP4 SWAP3 SWAP2 SWAP1 PUSH2 0x19FE JUMP JUMPDEST PUSH1 0x40 MLOAD DUP1 SWAP2 SUB SWAP1 LOG2 POP PUSH2 0x63D PUSH2 0xCCA JUMP JUMPDEST SWAP2 POP SWAP2 JUMP JUMPDEST PUSH0 PUSH1 0x12 SWAP1 POP SWAP1 JUMP JUMPDEST PUSH0 DUP1 PUSH0 DUP4 PUSH20 0xFFFFFFFFFFFFFFFFFFFFFFFFFFFFFFFFFFFFFFFF AND PUSH20 0xFFFFFFFFFFFFFFFFFFFFFFFFFFFFFFFFFFFFFFFF AND DUP2 MSTORE PUSH1 0x20 ADD SWAP1 DUP2 MSTORE PUSH1 0x20 ADD PUSH0 KECCAK256 SLOAD SWAP1 POP SWAP2 SWAP1 POP JUMP JUMPDEST PUSH1 0x60 PUSH1 0x4 DUP1 SLOAD PUSH2 0x69E SWAP1 PUSH2 0x1868 JUMP JUMPDEST DUP1 PUSH1 0x1F ADD PUSH1 0x20 DUP1 SWAP2 DIV MUL PUSH1 0x20 ADD PUSH1 0x40 MLOAD SWAP1 DUP2 ADD PUSH1 0x40 MSTORE DUP1 SWAP3 SWAP2 SWAP1 DUP2 DUP2 MSTORE PUSH1 0x20 ADD DUP3 DUP1 SLOAD PUSH2 0x6CA SWAP1 PUSH2 0x1868 JUMP JUMPDEST DUP1 ISZERO PUSH2 0x715 JUMPI DUP1 PUSH1 0x1F LT PUSH2 0x6EC JUMPI PUSH2 0x100 DUP1 DUP4 SLOAD DIV MUL DUP4 MSTORE SWAP2 PUSH1 0x20 ADD SWAP2 PUSH2 0x715 JUMP JUMPDEST DUP3 ADD SWAP2 SWAP1 PUSH0 MSTORE PUSH1 0x20 PUSH0 KECCAK256 SWAP1 JUMPDEST DUP2 SLOAD DUP2 MSTORE SWAP1 PUSH1 0x1 ADD SWAP1 PUSH1 0x20 ADD DUP1 DUP4 GT PUSH2 0x6F8 JUMPI DUP3 SWAP1 SUB PUSH1 0x1F AND DUP3 ADD SWAP2 JUMPDEST POP POP POP POP POP SWAP1 POP SWAP1 JUMP JUMPDEST PUSH1 0x6 SLOAD DUP2 JUMP JUMPDEST PUSH0 DUP1 PUSH2 0x72F PUSH2 0x9EB JUMP JUMPDEST SWAP1 POP PUSH2 0x73C DUP2 DUP6 DUP6 PUSH2 0xA96 JUMP JUMPDEST PUSH1 0x1 SWAP2 POP POP SWAP3 SWAP2 POP POP JUMP JUMPDEST PUSH32 0x0 DUP2 JUMP JUMPDEST PUSH0 PUSH1 0x1 PUSH0 DUP5 PUSH20 0xFFFFFFFFFFFFFFFFFFFFFFFFFFFFFFFFFFFFFFFF AND PUSH20 0xFFFFFFFFFFFFFFFFFFFFFFFFFFFFFFFFFFFFFFFF AND DUP2 MSTORE PUSH1 0x20 ADD SWAP1 DUP2 MSTORE PUSH1 0x20 ADD PUSH0 KECCAK256 PUSH0 DUP4 PUSH20 0xFFFFFFFFFFFFFFFFFFFFFFFFFFFFFFFFFFFFFFFF AND PUSH20 0xFFFFFFFFFFFFFFFFFFFFFFFFFFFFFFFFFFFFFFFF AND DUP2 MSTORE PUSH1 0x20 ADD SWAP1 DUP2 MSTORE PUSH1 0x20 ADD PUSH0 KECCAK256 SLOAD SWAP1 POP SWAP3 SWAP2 POP POP JUMP JUMPDEST PUSH0 PUSH2 0x7F6 PUSH2 0xB86 JUMP JUMPDEST PUSH0 DUP4 GT DUP1 ISZERO PUSH2 0x804 JUMPI POP PUSH0 DUP3 GT JUMPDEST PUSH2 0x843 JUMPI PUSH1 0x40 MLOAD PUSH32 0x8C379A000000000000000000000000000000000000000000000000000000000 DUP2 MSTORE PUSH1 0x4 ADD PUSH2 0x83A SWAP1 PUSH2 0x1A7D JUMP JUMPDEST PUSH1 0x40 MLOAD DUP1 SWAP2 SUB SWAP1 REVERT JUMPDEST PUSH2 0x890 CALLER ADDRESS DUP6 PUSH32 0x0 PUSH20 0xFFFFFFFFFFFFFFFFFFFFFFFFFFFFFFFFFFFFFFFF AND PUSH2 0xCD4 SWAP1 SWAP4 SWAP3 SWAP2 SWAP1 PUSH4 0xFFFFFFFF AND JUMP JUMPDEST PUSH2 0x8DD CALLER ADDRESS DUP5 PUSH32 0x0 PUSH20 0xFFFFFFFFFFFFFFFFFFFFFFFFFFFFFFFFFFFFFFFF AND PUSH2 0xCD4 SWAP1 SWAP4 SWAP3 SWAP2 SWAP1 PUSH4 0xFFFFFFFF AND JUMP JUMPDEST PUSH0 PUSH2 0x8E6 PUSH2 0x44E JUMP JUMPDEST SUB PUSH2 0x906 JUMPI PUSH2 0x8FF DUP3 DUP5 PUSH2 0x8FA SWAP2 SWAP1 PUSH2 0x192D JUMP JUMPDEST PUSH2 0xD56 JUMP JUMPDEST SWAP1 POP PUSH2 0x951 JUMP JUMPDEST PUSH2 0x94E PUSH1 0x6 SLOAD PUSH2 0x914 PUSH2 0x44E JUMP JUMPDEST DUP6 PUSH2 0x91F SWAP2 SWAP1 PUSH2 0x192D JUMP JUMPDEST PUSH2 0x929 SWAP2 SWAP1 PUSH2 0x199B JUMP JUMPDEST PUSH1 0x7 SLOAD PUSH2 0x934 PUSH2 0x44E JUMP JUMPDEST DUP6 PUSH2 0x93F SWAP2 SWAP1 PUSH2 0x192D JUMP JUMPDEST PUSH2 0x949 SWAP2 SWAP1 PUSH2 0x199B JUMP JUMPDEST PUSH2 0xDCD JUMP JUMPDEST SWAP1 POP JUMPDEST DUP3 PUSH1 0x6 PUSH0 DUP3 DUP3 SLOAD PUSH2 0x962 SWAP2 SWAP1 PUSH2 0x1A9B JUMP JUMPDEST SWAP3 POP POP DUP2 SWAP1 SSTORE POP DUP2 PUSH1 0x7 PUSH0 DUP3 DUP3 SLOAD PUSH2 0x97A SWAP2 SWAP1 PUSH2 0x1A9B JUMP JUMPDEST SWAP3 POP POP DUP2 SWAP1 SSTORE POP PUSH2 0x98B CALLER DUP3 PUSH2 0xDE5 JUMP JUMPDEST CALLER PUSH20 0xFFFFFFFFFFFFFFFFFFFFFFFFFFFFFFFFFFFFFFFF AND PUSH32 0x36AF321EC8D3C75236829C5317AFFD40DDB308863A1236D2D277A4025CCCEE1E DUP5 DUP5 DUP5 PUSH1 0x40 MLOAD PUSH2 0x9D5 SWAP4 SWAP3 SWAP2 SWAP1 PUSH2 0x19FE JUMP JUMPDEST PUSH1 0x40 MLOAD DUP1 SWAP2 SUB SWAP1 LOG2 PUSH2 0x9E5 PUSH2 0xCCA JUMP JUMPDEST SWAP3 SWAP2 POP POP JUMP JUMPDEST PUSH0 CALLER SWAP1 POP SWAP1 JUMP JUMPDEST PUSH2 0x9FF DUP4 DUP4 DUP4 PUSH1 0x1 PUSH2 0xE64 JUMP JUMPDEST POP POP POP JUMP JUMPDEST PUSH0 PUSH2 0xA0F DUP5 DUP5 PUSH2 0x76B JUMP JUMPDEST SWAP1 POP PUSH32 0xFFFFFFFFFFFFFFFFFFFFFFFFFFFFFFFFFFFFFFFFFFFFFFFFFFFFFFFFFFFFFFFF DUP2 EQ PUSH2 0xA90 JUMPI DUP2 DUP2 LT ISZERO PUSH2 0xA81 JUMPI DUP3 DUP2 DUP4 PUSH1 0x40 MLOAD PUSH32 0xFB8F41B200000000000000000000000000000000000000000000000000000000 DUP2 MSTORE PUSH1 0x4 ADD PUSH2 0xA78 SWAP4 SWAP3 SWAP2 SWAP1 PUSH2 0x1ADD JUMP JUMPDEST PUSH1 0x40 MLOAD DUP1 SWAP2 SUB SWAP1 REVERT JUMPDEST PUSH2 0xA8F DUP5 DUP5 DUP5 DUP5 SUB PUSH0 PUSH2 0xE64 JUMP JUMPDEST JUMPDEST POP POP POP POP JUMP JUMPDEST PUSH0 PUSH20 0xFFFFFFFFFFFFFFFFFFFFFFFFFFFFFFFFFFFFFFFF AND DUP4 PUSH20 0xFFFFFFFFFFFFFFFFFFFFFFFFFFFFFFFFFFFFFFFF AND SUB PUSH2 0xB06 JUMPI PUSH0 PUSH1 0x40 MLOAD PUSH32 0x96C6FD1E00000000000000000000000000000000000000000000000000000000 DUP2 MSTORE PUSH1 0x4 ADD PUSH2 0xAFD SWAP2 SWAP1 PUSH2 0x1B12 JUMP JUMPDEST PUSH1 0x40 MLOAD DUP1 SWAP2 SUB SWAP1 REVERT JUMPDEST PUSH0 PUSH20 0xFFFFFFFFFFFFFFFFFFFFFFFFFFFFFFFFFFFFFFFF AND DUP3 PUSH20 0xFFFFFFFFFFFFFFFFFFFFFFFFFFFFFFFFFFFFFFFF AND SUB PUSH2 0xB76 JUMPI PUSH0 PUSH1 0x40 MLOAD PUSH32 0xEC442F0500000000000000000000000000000000000000000000000000000000 DUP2 MSTORE PUSH1 0x4 ADD PUSH2 0xB6D SWAP2 SWAP1 PUSH2 0x1B12 JUMP JUMPDEST PUSH1 0x40 MLOAD DUP1 SWAP2 SUB SWAP1 REVERT JUMPDEST PUSH2 0xB81 DUP4 DUP4 DUP4 PUSH2 0x1033 JUMP JUMPDEST POP POP POP JUMP JUMPDEST PUSH1 0x2 PUSH1 0x5 SLOAD SUB PUSH2 0xBC2 JUMPI PUSH1 0x40 MLOAD PUSH32 0x3EE5AEB500000000000000000000000000000000000000000000000000000000 DUP2 MSTORE PUSH1 0x4 ADD PUSH1 0x40 MLOAD DUP1 SWAP2 SUB SWAP1 REVERT JUMPDEST PUSH1 0x2 PUSH1 0x5 DUP2 SWAP1 SSTORE POP JUMP JUMPDEST PUSH0 PUSH20 0xFFFFFFFFFFFFFFFFFFFFFFFFFFFFFFFFFFFFFFFF AND DUP3 PUSH20 0xFFFFFFFFFFFFFFFFFFFFFFFFFFFFFFFFFFFFFFFF AND SUB PUSH2 0xC3C JUMPI PUSH0 PUSH1 0x40 MLOAD PUSH32 0x96C6FD1E00000000000000000000000000000000000000000000000000000000 DUP2 MSTORE PUSH1 0x4 ADD PUSH2 0xC33 SWAP2 SWAP1 PUSH2 0x1B12 JUMP JUMPDEST PUSH1 0x40 MLOAD DUP1 SWAP2 SUB SWAP1 REVERT JUMPDEST PUSH2 0xC47 DUP3 PUSH0 DUP4 PUSH2 0x1033 JUMP JUMPDEST POP POP JUMP JUMPDEST PUSH2 0xCC5 DUP4 DUP5 PUSH20 0xFFFFFFFFFFFFFFFFFFFFFFFFFFFFFFFFFFFFFFFF AND PUSH4 0xA9059CBB DUP6 DUP6 PUSH1 0x40 MLOAD PUSH1 0x24 ADD PUSH2 0xC7E SWAP3 SWAP2 SWAP1 PUSH2 0x1B2B JUMP JUMPDEST PUSH1 0x40 MLOAD PUSH1 0x20 DUP2 DUP4 SUB SUB DUP2 MSTORE SWAP1 PUSH1 0x40 MSTORE SWAP2 POP PUSH1 0xE0 SHL PUSH1 0x20 DUP3 ADD DUP1 MLOAD PUSH28 0xFFFFFFFFFFFFFFFFFFFFFFFFFFFFFFFFFFFFFFFFFFFFFFFFFFFFFFFF DUP4 DUP2 DUP4 AND OR DUP4 MSTORE POP POP POP POP PUSH2 0x124C JUMP JUMPDEST POP POP POP JUMP JUMPDEST PUSH1 0x1 PUSH1 0x5 DUP2 SWAP1 SSTORE POP JUMP JUMPDEST PUSH2 0xD50 DUP5 DUP6 PUSH20 0xFFFFFFFFFFFFFFFFFFFFFFFFFFFFFFFFFFFFFFFF AND PUSH4 0x23B872DD DUP7 DUP7 DUP7 PUSH1 0x40 MLOAD PUSH1 0x24 ADD PUSH2 0xD09 SWAP4 SWAP3 SWAP2 SWAP1 PUSH2 0x1B52 JUMP JUMPDEST PUSH1 0x40 MLOAD PUSH1 0x20 DUP2 DUP4 SUB SUB DUP2 MSTORE SWAP1 PUSH1 0x40 MSTORE SWAP2 POP PUSH1 0xE0 SHL PUSH1 0x20 DUP3 ADD DUP1 MLOAD PUSH28 0xFFFFFFFFFFFFFFFFFFFFFFFFFFFFFFFFFFFFFFFFFFFFFFFFFFFFFFFF DUP4 DUP2 DUP4 AND OR DUP4 MSTORE POP POP POP POP PUSH2 0x124C JUMP JUMPDEST POP POP POP POP JUMP JUMPDEST PUSH0 PUSH1 0x3 DUP3 GT ISZERO PUSH2 0xDBB JUMPI DUP2 SWAP1 POP PUSH0 PUSH1 0x1 PUSH1 0x2 DUP5 PUSH2 0xD73 SWAP2 SWAP1 PUSH2 0x199B JUMP JUMPDEST PUSH2 0xD7D SWAP2 SWAP1 PUSH2 0x1A9B JUMP JUMPDEST SWAP1 POP JUMPDEST DUP2 DUP2 LT ISZERO PUSH2 0xDB5 JUMPI DUP1 SWAP2 POP PUSH1 0x2 DUP2 DUP3 DUP6 PUSH2 0xD9A SWAP2 SWAP1 PUSH2 0x199B JUMP JUMPDEST PUSH2 0xDA4 SWAP2 SWAP1 PUSH2 0x1A9B JUMP JUMPDEST PUSH2 0xDAE SWAP2 SWAP1 PUSH2 0x199B JUMP JUMPDEST SWAP1 POP PUSH2 0xD80 JUMP JUMPDEST POP PUSH2 0xDC8 JUMP JUMPDEST PUSH0 DUP3 EQ PUSH2 0xDC7 JUMPI PUSH1 0x1 SWAP1 POP JUMPDEST JUMPDEST SWAP2 SWAP1 POP JUMP JUMPDEST PUSH0 DUP2 DUP4 LT PUSH2 0xDDB JUMPI DUP2 PUSH2 0xDDD JUMP JUMPDEST DUP3 JUMPDEST SWAP1 POP SWAP3 SWAP2 POP POP JUMP JUMPDEST PUSH0 PUSH20 0xFFFFFFFFFFFFFFFFFFFFFFFFFFFFFFFFFFFFFFFF AND DUP3 PUSH20 0xFFFFFFFFFFFFFFFFFFFFFFFFFFFFFFFFFFFFFFFF AND SUB PUSH2 0xE55 JUMPI PUSH0 PUSH1 0x40 MLOAD PUSH32 0xEC442F0500000000000000000000000000000000000000000000000000000000 DUP2 MSTORE PUSH1 0x4 ADD PUSH2 0xE4C SWAP2 SWAP1 PUSH2 0x1B12 JUMP JUMPDEST PUSH1 0x40 MLOAD DUP1 SWAP2 SUB SWAP1 REVERT JUMPDEST PUSH2 0xE60 PUSH0 DUP4 DUP4 PUSH2 0x1033 JUMP JUMPDEST POP POP JUMP JUMPDEST PUSH0 PUSH20 0xFFFFFFFFFFFFFFFFFFFFFFFFFFFFFFFFFFFFFFFF AND DUP5 PUSH20 0xFFFFFFFFFFFFFFFFFFFFFFFFFFFFFFFFFFFFFFFF AND SUB PUSH2 0xED4 JUMPI PUSH0 PUSH1 0x40 MLOAD PUSH32 0xE602DF0500000000000000000000000000000000000000000000000000000000 DUP2 MSTORE PUSH1 0x4 ADD PUSH2 0xECB SWAP2 SWAP1 PUSH2 0x1B12 JUMP JUMPDEST PUSH1 0x40 MLOAD DUP1 SWAP2 SUB SWAP1 REVERT JUMPDEST PUSH0 PUSH20 0xFFFFFFFFFFFFFFFFFFFFFFFFFFFFFFFFFFFFFFFF AND DUP4 PUSH20 0xFFFFFFFFFFFFFFFFFFFFFFFFFFFFFFFFFFFFFFFF AND SUB PUSH2 0xF44 JUMPI PUSH0 PUSH1 0x40 MLOAD PUSH32 0x94280D6200000000000000000000000000000000000000000000000000000000 DUP2 MSTORE PUSH1 0x4 ADD PUSH2 0xF3B SWAP2 SWAP1 PUSH2 0x1B12 JUMP JUMPDEST PUSH1 0x40 MLOAD DUP1 SWAP2 SUB SWAP1 REVERT JUMPDEST DUP2 PUSH1 0x1 PUSH0 DUP7 PUSH20 0xFFFFFFFFFFFFFFFFFFFFFFFFFFFFFFFFFFFFFFFF AND PUSH20 0xFFFFFFFFFFFFFFFFFFFFFFFFFFFFFFFFFFFFFFFF AND DUP2 MSTORE PUSH1 0x20 ADD SWAP1 DUP2 MSTORE PUSH1 0x20 ADD PUSH0 KECCAK256 PUSH0 DUP6 PUSH20 0xFFFFFFFFFFFFFFFFFFFFFFFFFFFFFFFFFFFFFFFF AND PUSH20 0xFFFFFFFFFFFFFFFFFFFFFFFFFFFFFFFFFFFFFFFF AND DUP2 MSTORE PUSH1 0x20 ADD SWAP1 DUP2 MSTORE PUSH1 0x20 ADD PUSH0 KECCAK256 DUP2 SWAP1 SSTORE POP DUP1 ISZERO PUSH2 0x102D JUMPI DUP3 PUSH20 0xFFFFFFFFFFFFFFFFFFFFFFFFFFFFFFFFFFFFFFFF AND DUP5 PUSH20 0xFFFFFFFFFFFFFFFFFFFFFFFFFFFFFFFFFFFFFFFF AND PUSH32 0x8C5BE1E5EBEC7D5BD14F71427D1E84F3DD0314C0F7B2291E5B200AC8C7C3B925 DUP5 PUSH1 0x40 MLOAD PUSH2 0x1024 SWAP2 SWAP1 PUSH2 0x14CF JUMP JUMPDEST PUSH1 0x40 MLOAD DUP1 SWAP2 SUB SWAP1 LOG3 JUMPDEST POP POP POP POP JUMP JUMPDEST PUSH0 PUSH20 0xFFFFFFFFFFFFFFFFFFFFFFFFFFFFFFFFFFFFFFFF AND DUP4 PUSH20 0xFFFFFFFFFFFFFFFFFFFFFFFFFFFFFFFFFFFFFFFF AND SUB PUSH2 0x1083 JUMPI DUP1 PUSH1 0x2 PUSH0 DUP3 DUP3 SLOAD PUSH2 0x1077 SWAP2 SWAP1 PUSH2 0x1A9B JUMP JUMPDEST SWAP3 POP POP DUP2 SWAP1 SSTORE POP PUSH2 0x1151 JUMP JUMPDEST PUSH0 DUP1 PUSH0 DUP6 PUSH20 0xFFFFFFFFFFFFFFFFFFFFFFFFFFFFFFFFFFFFFFFF AND PUSH20 0xFFFFFFFFFFFFFFFFFFFFFFFFFFFFFFFFFFFFFFFF AND DUP2 MSTORE PUSH1 0x20 ADD SWAP1 DUP2 MSTORE PUSH1 0x20 ADD PUSH0 KECCAK256 SLOAD SWAP1 POP DUP2 DUP2 LT ISZERO PUSH2 0x110C JUMPI DUP4 DUP2 DUP4 PUSH1 0x40 MLOAD PUSH32 0xE450D38C00000000000000000000000000000000000000000000000000000000 DUP2 MSTORE PUSH1 0x4 ADD PUSH2 0x1103 SWAP4 SWAP3 SWAP2 SWAP1 PUSH2 0x1ADD JUMP JUMPDEST PUSH1 0x40 MLOAD DUP1 SWAP2 SUB SWAP1 REVERT JUMPDEST DUP2 DUP2 SUB PUSH0 DUP1 DUP7 PUSH20 0xFFFFFFFFFFFFFFFFFFFFFFFFFFFFFFFFFFFFFFFF AND PUSH20 0xFFFFFFFFFFFFFFFFFFFFFFFFFFFFFFFFFFFFFFFF AND DUP2 MSTORE PUSH1 0x20 ADD SWAP1 DUP2 MSTORE PUSH1 0x20 ADD PUSH0 KECCAK256 DUP2 SWAP1 SSTORE POP POP JUMPDEST PUSH0 PUSH20 0xFFFFFFFFFFFFFFFFFFFFFFFFFFFFFFFFFFFFFFFF AND DUP3 PUSH20 0xFFFFFFFFFFFFFFFFFFFFFFFFFFFFFFFFFFFFFFFF AND SUB PUSH2 0x1198 JUMPI DUP1 PUSH1 0x2 PUSH0 DUP3 DUP3 SLOAD SUB SWAP3 POP POP DUP2 SWAP1 SSTORE POP PUSH2 0x11E2 JUMP JUMPDEST DUP1 PUSH0 DUP1 DUP5 PUSH20 0xFFFFFFFFFFFFFFFFFFFFFFFFFFFFFFFFFFFFFFFF AND PUSH20 0xFFFFFFFFFFFFFFFFFFFFFFFFFFFFFFFFFFFFFFFF AND DUP2 MSTORE PUSH1 0x20 ADD SWAP1 DUP2 MSTORE PUSH1 0x20 ADD PUSH0 KECCAK256 PUSH0 DUP3 DUP3 SLOAD ADD SWAP3 POP POP DUP2 SWAP1 SSTORE POP JUMPDEST DUP2 PUSH20 0xFFFFFFFFFFFFFFFFFFFFFFFFFFFFFFFFFFFFFFFF AND DUP4 PUSH20 0xFFFFFFFFFFFFFFFFFFFFFFFFFFFFFFFFFFFFFFFF AND PUSH32 0xDDF252AD1BE2C89B69C2B068FC378DAA952BA7F163C4A11628F55A4DF523B3EF DUP4 PUSH1 0x40 MLOAD PUSH2 0x123F SWAP2 SWAP1 PUSH2 0x14CF JUMP JUMPDEST PUSH1 0x40 MLOAD DUP1 SWAP2 SUB SWAP1 LOG3 POP POP POP JUMP JUMPDEST PUSH0 PUSH2 0x1276 DUP3 DUP5 PUSH20 0xFFFFFFFFFFFFFFFFFFFFFFFFFFFFFFFFFFFFFFFF AND PUSH2 0x12E1 SWAP1 SWAP2 SWAP1 PUSH4 0xFFFFFFFF AND JUMP JUMPDEST SWAP1 POP PUSH0 DUP2 MLOAD EQ ISZERO DUP1 ISZERO PUSH2 0x129A JUMPI POP DUP1 DUP1 PUSH1 0x20 ADD SWAP1 MLOAD DUP2 ADD SWAP1 PUSH2 0x1298 SWAP2 SWAP1 PUSH2 0x1BB1 JUMP JUMPDEST ISZERO JUMPDEST ISZERO PUSH2 0x12DC JUMPI DUP3 PUSH1 0x40 MLOAD PUSH32 0x5274AFE700000000000000000000000000000000000000000000000000000000 DUP2 MSTORE PUSH1 0x4 ADD PUSH2 0x12D3 SWAP2 SWAP1 PUSH2 0x1B12 JUMP JUMPDEST PUSH1 0x40 MLOAD DUP1 SWAP2 SUB SWAP1 REVERT JUMPDEST POP POP POP JUMP JUMPDEST PUSH1 0x60 PUSH2 0x12EE DUP4 DUP4 PUSH0 PUSH2 0x12F6 JUMP JUMPDEST SWAP1 POP SWAP3 SWAP2 POP POP JUMP JUMPDEST PUSH1 0x60 DUP2 SELFBALANCE LT ISZERO PUSH2 0x133D JUMPI ADDRESS PUSH1 0x40 MLOAD PUSH32 0xCD78605900000000000000000000000000000000000000000000000000000000 DUP2 MSTORE PUSH1 0x4 ADD PUSH2 0x1334 SWAP2 SWAP1 PUSH2 0x1B12 JUMP JUMPDEST PUSH1 0x40 MLOAD DUP1 SWAP2 SUB SWAP1 REVERT JUMPDEST PUSH0 DUP1 DUP6 PUSH20 0xFFFFFFFFFFFFFFFFFFFFFFFFFFFFFFFFFFFFFFFF AND DUP5 DUP7 PUSH1 0x40 MLOAD PUSH2 0x1365 SWAP2 SWAP1 PUSH2 0x1C20 JUMP JUMPDEST PUSH0 PUSH1 0x40 MLOAD DUP1 DUP4 SUB DUP2 DUP6 DUP8 GAS CALL SWAP3 POP POP POP RETURNDATASIZE DUP1 PUSH0 DUP2 EQ PUSH2 0x139F JUMPI PUSH1 0x40 MLOAD SWAP2 POP PUSH1 0x1F NOT PUSH1 0x3F RETURNDATASIZE ADD AND DUP3 ADD PUSH1 0x40 MSTORE RETURNDATASIZE DUP3 MSTORE RETURNDATASIZE PUSH0 PUSH1 0x20 DUP5 ADD RETURNDATACOPY PUSH2 0x13A4 JUMP JUMPDEST PUSH1 0x60 SWAP2 POP JUMPDEST POP SWAP2 POP SWAP2 POP PUSH2 0x13B4 DUP7 DUP4 DUP4 PUSH2 0x13BF JUMP JUMPDEST SWAP3 POP POP POP SWAP4 SWAP3 POP POP POP JUMP JUMPDEST PUSH1 0x60 DUP3 PUSH2 0x13D4 JUMPI PUSH2 0x13CF DUP3 PUSH2 0x144C JUMP JUMPDEST PUSH2 0x1444 JUMP JUMPDEST PUSH0 DUP3 MLOAD EQ DUP1 ISZERO PUSH2 0x13FA JUMPI POP PUSH0 DUP5 PUSH20 0xFFFFFFFFFFFFFFFFFFFFFFFFFFFFFFFFFFFFFFFF AND EXTCODESIZE EQ JUMPDEST ISZERO PUSH2 0x143C JUMPI DUP4 PUSH1 0x40 MLOAD PUSH32 0x9996B31500000000000000000000000000000000000000000000000000000000 DUP2 MSTORE PUSH1 0x4 ADD PUSH2 0x1433 SWAP2 SWAP1 PUSH2 0x1B12 JUMP JUMPDEST PUSH1 0x40 MLOAD DUP1 SWAP2 SUB SWAP1 REVERT JUMPDEST DUP2 SWAP1 POP PUSH2 0x1445 JUMP JUMPDEST JUMPDEST SWAP4 SWAP3 POP POP POP JUMP JUMPDEST PUSH0 DUP2 MLOAD GT ISZERO PUSH2 0x145E JUMPI DUP1 MLOAD DUP1 DUP3 PUSH1 0x20 ADD REVERT JUMPDEST PUSH1 0x40 MLOAD PUSH32 0x1425EA4200000000000000000000000000000000000000000000000000000000 DUP2 MSTORE PUSH1 0x4 ADD PUSH1 0x40 MLOAD DUP1 SWAP2 SUB SWAP1 REVERT JUMPDEST PUSH0 DUP2 SWAP1 POP SWAP2 SWAP1 POP JUMP JUMPDEST PUSH2 0x14A2 DUP2 PUSH2 0x1490 JUMP JUMPDEST DUP3 MSTORE POP POP JUMP JUMPDEST PUSH0 PUSH1 0x40 DUP3 ADD SWAP1 POP PUSH2 0x14BB PUSH0 DUP4 ADD DUP6 PUSH2 0x1499 JUMP JUMPDEST PUSH2 0x14C8 PUSH1 0x20 DUP4 ADD DUP5 PUSH2 0x1499 JUMP JUMPDEST SWAP4 SWAP3 POP POP POP JUMP JUMPDEST PUSH0 PUSH1 0x20 DUP3 ADD SWAP1 POP PUSH2 0x14E2 PUSH0 DUP4 ADD DUP5 PUSH2 0x1499 JUMP JUMPDEST SWAP3 SWAP2 POP POP JUMP JUMPDEST PUSH0 DUP2 MLOAD SWAP1 POP SWAP2 SWAP1 POP JUMP JUMPDEST PUSH0 DUP3 DUP3 MSTORE PUSH1 0x20 DUP3 ADD SWAP1 POP SWAP3 SWAP2 POP POP JUMP JUMPDEST DUP3 DUP2 DUP4 MCOPY PUSH0 DUP4 DUP4 ADD MSTORE POP POP POP JUMP JUMPDEST PUSH0 PUSH1 0x1F NOT PUSH1 0x1F DUP4 ADD AND SWAP1 POP SWAP2 SWAP1 POP JUMP JUMPDEST PUSH0 PUSH2 0x152A DUP3 PUSH2 0x14E8 JUMP JUMPDEST PUSH2 0x1534 DUP2 DUP6 PUSH2 0x14F2 JUMP JUMPDEST SWAP4 POP PUSH2 0x1544 DUP2 DUP6 PUSH1 0x20 DUP7 ADD PUSH2 0x1502 JUMP JUMPDEST PUSH2 0x154D DUP2 PUSH2 0x1510 JUMP JUMPDEST DUP5 ADD SWAP2 POP POP SWAP3 SWAP2 POP POP JUMP JUMPDEST PUSH0 PUSH1 0x20 DUP3 ADD SWAP1 POP DUP2 DUP2 SUB PUSH0 DUP4 ADD MSTORE PUSH2 0x1570 DUP2 DUP5 PUSH2 0x1520 JUMP JUMPDEST SWAP1 POP SWAP3 SWAP2 POP POP JUMP JUMPDEST PUSH0 DUP1 REVERT JUMPDEST PUSH0 PUSH20 0xFFFFFFFFFFFFFFFFFFFFFFFFFFFFFFFFFFFFFFFF DUP3 AND SWAP1 POP SWAP2 SWAP1 POP JUMP JUMPDEST PUSH0 PUSH2 0x15A5 DUP3 PUSH2 0x157C JUMP JUMPDEST SWAP1 POP SWAP2 SWAP1 POP JUMP JUMPDEST PUSH2 0x15B5 DUP2 PUSH2 0x159B JUMP JUMPDEST DUP2 EQ PUSH2 0x15BF JUMPI PUSH0 DUP1 REVERT JUMPDEST POP JUMP JUMPDEST PUSH0 DUP2 CALLDATALOAD SWAP1 POP PUSH2 0x15D0 DUP2 PUSH2 0x15AC JUMP JUMPDEST SWAP3 SWAP2 POP POP JUMP JUMPDEST PUSH2 0x15DF DUP2 PUSH2 0x1490 JUMP JUMPDEST DUP2 EQ PUSH2 0x15E9 JUMPI PUSH0 DUP1 REVERT JUMPDEST POP JUMP JUMPDEST PUSH0 DUP2 CALLDATALOAD SWAP1 POP PUSH2 0x15FA DUP2 PUSH2 0x15D6 JUMP JUMPDEST SWAP3 SWAP2 POP POP JUMP JUMPDEST PUSH0 DUP1 PUSH1 0x40 DUP4 DUP6 SUB SLT ISZERO PUSH2 0x1616 JUMPI PUSH2 0x1615 PUSH2 0x1578 JUMP JUMPDEST JUMPDEST PUSH0 PUSH2 0x1623 DUP6 DUP3 DUP7 ADD PUSH2 0x15C2 JUMP JUMPDEST SWAP3 POP POP PUSH1 0x20 PUSH2 0x1634 DUP6 DUP3 DUP7 ADD PUSH2 0x15EC JUMP JUMPDEST SWAP2 POP POP SWAP3 POP SWAP3 SWAP1 POP JUMP JUMPDEST PUSH0 DUP2 ISZERO ISZERO SWAP1 POP SWAP2 SWAP1 POP JUMP JUMPDEST PUSH2 0x1652 DUP2 PUSH2 0x163E JUMP JUMPDEST DUP3 MSTORE POP POP JUMP JUMPDEST PUSH0 PUSH1 0x20 DUP3 ADD SWAP1 POP PUSH2 0x166B PUSH0 DUP4 ADD DUP5 PUSH2 0x1649 JUMP JUMPDEST SWAP3 SWAP2 POP POP JUMP JUMPDEST PUSH0 DUP2 SWAP1 POP SWAP2 SWAP1 POP JUMP JUMPDEST PUSH0 PUSH2 0x1694 PUSH2 0x168F PUSH2 0x168A DUP5 PUSH2 0x157C JUMP JUMPDEST PUSH2 0x1671 JUMP JUMPDEST PUSH2 0x157C JUMP JUMPDEST SWAP1 POP SWAP2 SWAP1 POP JUMP JUMPDEST PUSH0 PUSH2 0x16A5 DUP3 PUSH2 0x167A JUMP JUMPDEST SWAP1 POP SWAP2 SWAP1 POP JUMP JUMPDEST PUSH0 PUSH2 0x16B6 DUP3 PUSH2 0x169B JUMP JUMPDEST SWAP1 POP SWAP2 SWAP1 POP JUMP JUMPDEST PUSH2 0x16C6 DUP2 PUSH2 0x16AC JUMP JUMPDEST DUP3 MSTORE POP POP JUMP JUMPDEST PUSH0 PUSH1 0x20 DUP3 ADD SWAP1 POP PUSH2 0x16DF PUSH0 DUP4 ADD DUP5 PUSH2 0x16BD JUMP JUMPDEST SWAP3 SWAP2 POP POP JUMP JUMPDEST PUSH0 DUP1 PUSH0 PUSH1 0x60 DUP5 DUP7 SUB SLT ISZERO PUSH2 0x16FC JUMPI PUSH2 0x16FB PUSH2 0x1578 JUMP JUMPDEST JUMPDEST PUSH0 PUSH2 0x1709 DUP7 DUP3 DUP8 ADD PUSH2 0x15C2 JUMP JUMPDEST SWAP4 POP POP PUSH1 0x20 PUSH2 0x171A DUP7 DUP3 DUP8 ADD PUSH2 0x15C2 JUMP JUMPDEST SWAP3 POP POP PUSH1 0x40 PUSH2 0x172B DUP7 DUP3 DUP8 ADD PUSH2 0x15EC JUMP JUMPDEST SWAP2 POP POP SWAP3 POP SWAP3 POP SWAP3 JUMP JUMPDEST PUSH0 PUSH1 0x20 DUP3 DUP5 SUB SLT ISZERO PUSH2 0x174A JUMPI PUSH2 0x1749 PUSH2 0x1578 JUMP JUMPDEST JUMPDEST PUSH0 PUSH2 0x1757 DUP5 DUP3 DUP6 ADD PUSH2 0x15EC JUMP JUMPDEST SWAP2 POP POP SWAP3 SWAP2 POP POP JUMP JUMPDEST PUSH0 PUSH1 0xFF DUP3 AND SWAP1 POP SWAP2 SWAP1 POP JUMP JUMPDEST PUSH2 0x1775 DUP2 PUSH2 0x1760 JUMP JUMPDEST DUP3 MSTORE POP POP JUMP JUMPDEST PUSH0 PUSH1 0x20 DUP3 ADD SWAP1 POP PUSH2 0x178E PUSH0 DUP4 ADD DUP5 PUSH2 0x176C JUMP JUMPDEST SWAP3 SWAP2 POP POP JUMP JUMPDEST PUSH0 PUSH1 0x20 DUP3 DUP5 SUB SLT ISZERO PUSH2 0x17A9 JUMPI PUSH2 0x17A8 PUSH2 0x1578 JUMP JUMPDEST JUMPDEST PUSH0 PUSH2 0x17B6 DUP5 DUP3 DUP6 ADD PUSH2 0x15C2 JUMP JUMPDEST SWAP2 POP POP SWAP3 SWAP2 POP POP JUMP JUMPDEST PUSH0 DUP1 PUSH1 0x40 DUP4 DUP6 SUB SLT ISZERO PUSH2 0x17D5 JUMPI PUSH2 0x17D4 PUSH2 0x1578 JUMP JUMPDEST JUMPDEST PUSH0 PUSH2 0x17E2 DUP6 DUP3 DUP7 ADD PUSH2 0x15C2 JUMP JUMPDEST SWAP3 POP POP PUSH1 0x20 PUSH2 0x17F3 DUP6 DUP3 DUP7 ADD PUSH2 0x15C2 JUMP JUMPDEST SWAP2 POP POP SWAP3 POP SWAP3 SWAP1 POP JUMP JUMPDEST PUSH0 DUP1 PUSH1 0x40 DUP4 DUP6 SUB SLT ISZERO PUSH2 0x1813 JUMPI PUSH2 0x1812 PUSH2 0x1578 JUMP JUMPDEST JUMPDEST PUSH0 PUSH2 0x1820 DUP6 DUP3 DUP7 ADD PUSH2 0x15EC JUMP JUMPDEST SWAP3 POP POP PUSH1 0x20 PUSH2 0x1831 DUP6 DUP3 DUP7 ADD PUSH2 0x15EC JUMP JUMPDEST SWAP2 POP POP SWAP3 POP SWAP3 SWAP1 POP JUMP JUMPDEST PUSH32 0x4E487B7100000000000000000000000000000000000000000000000000000000 PUSH0 MSTORE PUSH1 0x22 PUSH1 0x4 MSTORE PUSH1 0x24 PUSH0 REVERT JUMPDEST PUSH0 PUSH1 0x2 DUP3 DIV SWAP1 POP PUSH1 0x1 DUP3 AND DUP1 PUSH2 0x187F JUMPI PUSH1 0x7F DUP3 AND SWAP2 POP JUMPDEST PUSH1 0x20 DUP3 LT DUP2 SUB PUSH2 0x1892 JUMPI PUSH2 0x1891 PUSH2 0x183B JUMP JUMPDEST JUMPDEST POP SWAP2 SWAP1 POP JUMP JUMPDEST PUSH32 0x496E76616C696420736861726520616D6F756E74000000000000000000000000 PUSH0 DUP3 ADD MSTORE POP JUMP JUMPDEST PUSH0 PUSH2 0x18CC PUSH1 0x14 DUP4 PUSH2 0x14F2 JUMP JUMPDEST SWAP2 POP PUSH2 0x18D7 DUP3 PUSH2 0x1898 JUMP JUMPDEST PUSH1 0x20 DUP3 ADD SWAP1 POP SWAP2 SWAP1 POP JUMP JUMPDEST PUSH0 PUSH1 0x20 DUP3 ADD SWAP1 POP DUP2 DUP2 SUB PUSH0 DUP4 ADD MSTORE PUSH2 0x18F9 DUP2 PUSH2 0x18C0 JUMP JUMPDEST SWAP1 POP SWAP2 SWAP1 POP JUMP JUMPDEST PUSH32 0x4E487B7100000000000000000000000000000000000000000000000000000000 PUSH0 MSTORE PUSH1 0x11 PUSH1 0x4 MSTORE PUSH1 0x24 PUSH0 REVERT JUMPDEST PUSH0 PUSH2 0x1937 DUP3 PUSH2 0x1490 JUMP JUMPDEST SWAP2 POP PUSH2 0x1942 DUP4 PUSH2 0x1490 JUMP JUMPDEST SWAP3 POP DUP3 DUP3 MUL PUSH2 0x1950 DUP2 PUSH2 0x1490 JUMP JUMPDEST SWAP2 POP DUP3 DUP3 DIV DUP5 EQ DUP4 ISZERO OR PUSH2 0x1967 JUMPI PUSH2 0x1966 PUSH2 0x1900 JUMP JUMPDEST JUMPDEST POP SWAP3 SWAP2 POP POP JUMP JUMPDEST PUSH32 0x4E487B7100000000000000000000000000000000000000000000000000000000 PUSH0 MSTORE PUSH1 0x12 PUSH1 0x4 MSTORE PUSH1 0x24 PUSH0 REVERT JUMPDEST PUSH0 PUSH2 0x19A5 DUP3 PUSH2 0x1490 JUMP JUMPDEST SWAP2 POP PUSH2 0x19B0 DUP4 PUSH2 0x1490 JUMP JUMPDEST SWAP3 POP DUP3 PUSH2 0x19C0 JUMPI PUSH2 0x19BF PUSH2 0x196E JUMP JUMPDEST JUMPDEST DUP3 DUP3 DIV SWAP1 POP SWAP3 SWAP2 POP POP JUMP JUMPDEST PUSH0 PUSH2 0x19D5 DUP3 PUSH2 0x1490 JUMP JUMPDEST SWAP2 POP PUSH2 0x19E0 DUP4 PUSH2 0x1490 JUMP JUMPDEST SWAP3 POP DUP3 DUP3 SUB SWAP1 POP DUP2 DUP2 GT ISZERO PUSH2 0x19F8 JUMPI PUSH2 0x19F7 PUSH2 0x1900 JUMP JUMPDEST JUMPDEST SWAP3 SWAP2 POP POP JUMP JUMPDEST PUSH0 PUSH1 0x60 DUP3 ADD SWAP1 POP PUSH2 0x1A11 PUSH0 DUP4 ADD DUP7 PUSH2 0x1499 JUMP JUMPDEST PUSH2 0x1A1E PUSH1 0x20 DUP4 ADD DUP6 PUSH2 0x1499 JUMP JUMPDEST PUSH2 0x1A2B PUSH1 0x40 DUP4 ADD DUP5 PUSH2 0x1499 JUMP JUMPDEST SWAP5 SWAP4 POP POP POP POP JUMP JUMPDEST PUSH32 0x496E76616C696420616D6F756E74730000000000000000000000000000000000 PUSH0 DUP3 ADD MSTORE POP JUMP JUMPDEST PUSH0 PUSH2 0x1A67 PUSH1 0xF DUP4 PUSH2 0x14F2 JUMP JUMPDEST SWAP2 POP PUSH2 0x1A72 DUP3 PUSH2 0x1A33 JUMP JUMPDEST PUSH1 0x20 DUP3 ADD SWAP1 POP SWAP2 SWAP1 POP JUMP JUMPDEST PUSH0 PUSH1 0x20 DUP3 ADD SWAP1 POP DUP2 DUP2 SUB PUSH0 DUP4 ADD MSTORE PUSH2 0x1A94 DUP2 PUSH2 0x1A5B JUMP JUMPDEST SWAP1 POP SWAP2 SWAP1 POP JUMP JUMPDEST PUSH0 PUSH2 0x1AA5 DUP3 PUSH2 0x1490 JUMP JUMPDEST SWAP2 POP PUSH2 0x1AB0 DUP4 PUSH2 0x1490 JUMP JUMPDEST SWAP3 POP DUP3 DUP3 ADD SWAP1 POP DUP1 DUP3 GT ISZERO PUSH2 0x1AC8 JUMPI PUSH2 0x1AC7 PUSH2 0x1900 JUMP JUMPDEST JUMPDEST SWAP3 SWAP2 POP POP JUMP JUMPDEST PUSH2 0x1AD7 DUP2 PUSH2 0x159B JUMP JUMPDEST DUP3 MSTORE POP POP JUMP JUMPDEST PUSH0 PUSH1 0x60 DUP3 ADD SWAP1 POP PUSH2 0x1AF0 PUSH0 DUP4 ADD DUP7 PUSH2 0x1ACE JUMP JUMPDEST PUSH2 0x1AFD PUSH1 0x20 DUP4 ADD DUP6 PUSH2 0x1499 JUMP JUMPDEST PUSH2 0x1B0A PUSH1 0x40 DUP4 ADD DUP5 PUSH2 0x1499 JUMP JUMPDEST SWAP5 SWAP4 POP POP POP POP JUMP JUMPDEST PUSH0 PUSH1 0x20 DUP3 ADD SWAP1 POP PUSH2 0x1B25 PUSH0 DUP4 ADD DUP5 PUSH2 0x1ACE JUMP JUMPDEST SWAP3 SWAP2 POP POP JUMP JUMPDEST PUSH0 PUSH1 0x40 DUP3 ADD SWAP1 POP PUSH2 0x1B3E PUSH0 DUP4 ADD DUP6 PUSH2 0x1ACE JUMP JUMPDEST PUSH2 0x1B4B PUSH1 0x20 DUP4 ADD DUP5 PUSH2 0x1499 JUMP JUMPDEST SWAP4 SWAP3 POP POP POP JUMP JUMPDEST PUSH0 PUSH1 0x60 DUP3 ADD SWAP1 POP PUSH2 0x1B65 PUSH0 DUP4 ADD DUP7 PUSH2 0x1ACE JUMP JUMPDEST PUSH2 0x1B72 PUSH1 0x20 DUP4 ADD DUP6 PUSH2 0x1ACE JUMP JUMPDEST PUSH2 0x1B7F PUSH1 0x40 DUP4 ADD DUP5 PUSH2 0x1499 JUMP JUMPDEST SWAP5 SWAP4 POP POP POP POP JUMP JUMPDEST PUSH2 0x1B90 DUP2 PUSH2 0x163E JUMP JUMPDEST DUP2 EQ PUSH2 0x1B9A JUMPI PUSH0 DUP1 REVERT JUMPDEST POP JUMP JUMPDEST PUSH0 DUP2 MLOAD SWAP1 POP PUSH2 0x1BAB DUP2 PUSH2 0x1B87 JUMP JUMPDEST SWAP3 SWAP2 POP POP JUMP JUMPDEST PUSH0 PUSH1 0x20 DUP3 DUP5 SUB SLT ISZERO PUSH2 0x1BC6 JUMPI PUSH2 0x1BC5 PUSH2 0x1578 JUMP JUMPDEST JUMPDEST PUSH0 PUSH2 0x1BD3 DUP5 DUP3 DUP6 ADD PUSH2 0x1B9D JUMP JUMPDEST SWAP2 POP POP SWAP3 SWAP2 POP POP JUMP JUMPDEST PUSH0 DUP2 MLOAD SWAP1 POP SWAP2 SWAP1 POP JUMP JUMPDEST PUSH0 DUP2 SWAP1 POP SWAP3 SWAP2 POP POP JUMP JUMPDEST PUSH0 PUSH2 0x1BFA DUP3 PUSH2 0x1BDC JUMP JUMPDEST PUSH2 0x1C04 DUP2 DUP6 PUSH2 0x1BE6 JUMP JUMPDEST SWAP4 POP PUSH2 0x1C14 DUP2 DUP6 PUSH1 0x20 DUP7 ADD PUSH2 0x1502 JUMP JUMPDEST DUP1 DUP5 ADD SWAP2 POP POP SWAP3 SWAP2 POP POP JUMP JUMPDEST PUSH0 PUSH2 0x1C2B DUP3 DUP5 PUSH2 0x1BF0 JUMP JUMPDEST SWAP2 POP DUP2 SWAP1 POP SWAP3 SWAP2 POP POP JUMP INVALID LOG2 PUSH5 0x6970667358 0x22 SLT KECCAK256 0xAC 0x1F 0xBD PUSH14 0x690EF7196695B1B9E0ADA3CB31CC DUP9 0xE7 PUSH22 0xFC629936FB1553D916502064736F6C634300081A0033 "
				},
				"gasEstimates": {
					"creation": {
						"codeDepositCost": "1455200",
						"executionCost": "infinite",
						"totalCost": "infinite"
					},
					"external": {
						"allowance(address,address)": "infinite",
						"approve(address,uint256)": "infinite",
						"balanceOf(address)": "2874",
						"decimals()": "361",
						"deposit(uint256,uint256)": "infinite",
						"name()": "infinite",
						"symbol()": "infinite",
						"token0()": "infinite",
						"token1()": "infinite",
						"totalAssets()": "infinite",
						"totalAssets0()": "2514",
						"totalAssets1()": "2471",
						"totalSupply()": "2477",
						"transfer(address,uint256)": "infinite",
						"transferFrom(address,address,uint256)": "infinite",
						"withdraw(uint256)": "infinite"
					},
					"internal": {
						"min(uint256,uint256)": "63",
						"sqrt(uint256)": "infinite"
					}
				},
				"methodIdentifiers": {
					"allowance(address,address)": "dd62ed3e",
					"approve(address,uint256)": "095ea7b3",
					"balanceOf(address)": "70a08231",
					"decimals()": "313ce567",
					"deposit(uint256,uint256)": "e2bbb158",
					"name()": "06fdde03",
					"symbol()": "95d89b41",
					"token0()": "0dfe1681",
					"token1()": "d21220a7",
					"totalAssets()": "01e1d114",
					"totalAssets0()": "a6e61855",
					"totalAssets1()": "02d2cec4",
					"totalSupply()": "18160ddd",
					"transfer(address,uint256)": "a9059cbb",
					"transferFrom(address,address,uint256)": "23b872dd",
					"withdraw(uint256)": "2e1a7d4d"
				}
			},
			"storageLayout": {
				"storage": [
					{
						"astId": 159,
						"contract": "contracts/ERC4626Vault.sol:ERC4626Vault",
						"label": "_balances",
						"offset": 0,
						"slot": "0",
						"type": "t_mapping(t_address,t_uint256)"
					},
					{
						"astId": 165,
						"contract": "contracts/ERC4626Vault.sol:ERC4626Vault",
						"label": "_allowances",
						"offset": 0,
						"slot": "1",
						"type": "t_mapping(t_address,t_mapping(t_address,t_uint256))"
					},
					{
						"astId": 167,
						"contract": "contracts/ERC4626Vault.sol:ERC4626Vault",
						"label": "_totalSupply",
						"offset": 0,
						"slot": "2",
						"type": "t_uint256"
					},
					{
						"astId": 169,
						"contract": "contracts/ERC4626Vault.sol:ERC4626Vault",
						"label": "_name",
						"offset": 0,
						"slot": "3",
						"type": "t_string_storage"
					},
					{
						"astId": 171,
						"contract": "contracts/ERC4626Vault.sol:ERC4626Vault",
						"label": "_symbol",
						"offset": 0,
						"slot": "4",
						"type": "t_string_storage"
					},
					{
						"astId": 1375,
						"contract": "contracts/ERC4626Vault.sol:ERC4626Vault",
						"label": "_status",
						"offset": 0,
						"slot": "5",
						"type": "t_uint256"
					},
					{
						"astId": 1455,
						"contract": "contracts/ERC4626Vault.sol:ERC4626Vault",
						"label": "totalAssets0",
						"offset": 0,
						"slot": "6",
						"type": "t_uint256"
					},
					{
						"astId": 1457,
						"contract": "contracts/ERC4626Vault.sol:ERC4626Vault",
						"label": "totalAssets1",
						"offset": 0,
						"slot": "7",
						"type": "t_uint256"
					}
				],
				"types": {
					"t_address": {
						"encoding": "inplace",
						"label": "address",
						"numberOfBytes": "20"
					},
					"t_mapping(t_address,t_mapping(t_address,t_uint256))": {
						"encoding": "mapping",
						"key": "t_address",
						"label": "mapping(address => mapping(address => uint256))",
						"numberOfBytes": "32",
						"value": "t_mapping(t_address,t_uint256)"
					},
					"t_mapping(t_address,t_uint256)": {
						"encoding": "mapping",
						"key": "t_address",
						"label": "mapping(address => uint256)",
						"numberOfBytes": "32",
						"value": "t_uint256"
					},
					"t_string_storage": {
						"encoding": "bytes",
						"label": "string",
						"numberOfBytes": "32"
					},
					"t_uint256": {
						"encoding": "inplace",
						"label": "uint256",
						"numberOfBytes": "32"
					}
				}
			},
			"userdoc": {
				"kind": "user",
				"methods": {
					"deposit(uint256,uint256)": {
						"notice": "Deposit tokens into the vault and receive vault shares"
					},
					"totalAssets()": {
						"notice": "Calculate the total value of assets in the vault"
					},
					"withdraw(uint256)": {
						"notice": "Withdraw tokens by burning shares"
					}
				},
				"version": 1
			}
		}
	}
}