{
	"data": {
		"bytecode": {
			"linkReferences": {},
			"object": "60c060405234801561000f575f80fd5b506040516122c43803806122c483398181016040528101906100319190610201565b855f806101000a81548173ffffffffffffffffffffffffffffffffffffffff021916908373ffffffffffffffffffffffffffffffffffffffff1602179055508460015f6101000a81548173ffffffffffffffffffffffffffffffffffffffff021916908373ffffffffffffffffffffffffffffffffffffffff1602179055508360025f6101000a81548173ffffffffffffffffffffffffffffffffffffffff021916908373ffffffffffffffffffffffffffffffffffffffff1602179055508260035f6101000a81548173ffffffffffffffffffffffffffffffffffffffff021916908373ffffffffffffffffffffffffffffffffffffffff1602179055508173ffffffffffffffffffffffffffffffffffffffff1660808173ffffffffffffffffffffffffffffffffffffffff16815250508073ffffffffffffffffffffffffffffffffffffffff1660a08173ffffffffffffffffffffffffffffffffffffffff168152505050505050505061028a565b5f80fd5b5f73ffffffffffffffffffffffffffffffffffffffff82169050919050565b5f6101d0826101a7565b9050919050565b6101e0816101c6565b81146101ea575f80fd5b50565b5f815190506101fb816101d7565b92915050565b5f805f805f8060c0878903121561021b5761021a6101a3565b5b5f61022889828a016101ed565b965050602061023989828a016101ed565b955050604061024a89828a016101ed565b945050606061025b89828a016101ed565b935050608061026c89828a016101ed565b92505060a061027d89828a016101ed565b9150509295509295509295565b60805160a051611fbe6103065f395f81816106ca0152818161079d015281816108b501528181610c8701528181610e0701528181610f0b015261102901525f8181610457015281816106a90152818161075201528181610a2701528181610c6601528181610dba01528181610e4e01526110080152611fbe5ff3fe608060405234801561000f575f80fd5b50600436106100a7575f3560e01c8063b5f4d38c1161006f578063b5f4d38c1461013d578063e2bbb15814610147578063ee99205c14610163578063f7c618c114610181578063f887ea401461019f578063fbfa77cf146101bd576100a7565b8063078b0fb7146100ab5780630fc63d10146100db5780632e1a7d4d146100f9578063372500ab146101155780635f64b55b1461011f575b5f80fd5b6100c560048036038101906100c091906116d6565b6101db565b6040516100d29190611719565b60405180910390f35b6100e3610455565b6040516100f09190611741565b60405180910390f35b610113600480360381019061010e9190611784565b610479565b005b61011d6107e9565b005b6101276108b3565b6040516101349190611741565b60405180910390f35b6101456108d7565b005b610161600480360381019061015c91906117af565b610db2565b005b61016b611294565b6040516101789190611848565b60405180910390f35b6101896112b9565b6040516101969190611881565b60405180910390f35b6101a76112de565b6040516101b491906118ba565b60405180910390f35b6101c5611303565b6040516101d291906118f3565b60405180910390f35b5f805f8054906101000a900473ffffffffffffffffffffffffffffffffffffffff1673ffffffffffffffffffffffffffffffffffffffff166370a08231846040518263ffffffff1660e01b81526004016102359190611741565b602060405180830381865afa158015610250573d5f803e3d5ffd5b505050506040513d601f19601f820116820180604052508101906102749190611920565b90505f805f9054906101000a900473ffffffffffffffffffffffffffffffffffffffff1673ffffffffffffffffffffffffffffffffffffffff166318160ddd6040518163ffffffff1660e01b8152600401602060405180830381865afa1580156102e0573d5f803e3d5ffd5b505050506040513d601f19601f820116820180604052508101906103049190611920565b90505f60025f9054906101000a900473ffffffffffffffffffffffffffffffffffffffff1673ffffffffffffffffffffffffffffffffffffffff166370a08231306040518263ffffffff1660e01b81526004016103619190611741565b602060405180830381865afa15801561037c573d5f803e3d5ffd5b505050506040513d601f19601f820116820180604052508101906103a09190611920565b90505f60025f9054906101000a900473ffffffffffffffffffffffffffffffffffffffff1673ffffffffffffffffffffffffffffffffffffffff1663e627f2db6040518163ffffffff1660e01b8152600401602060405180830381865afa15801561040d573d5f803e3d5ffd5b505050506040513d601f19601f820116820180604052508101906104319190611920565b90508281856104409190611978565b61044a91906119e6565b945050505050919050565b7f000000000000000000000000000000000000000000000000000000000000000081565b5f805f8054906101000a900473ffffffffffffffffffffffffffffffffffffffff1673ffffffffffffffffffffffffffffffffffffffff16632e1a7d4d846040518263ffffffff1660e01b81526004016104d39190611719565b60408051808303815f875af11580156104ee573d5f803e3d5ffd5b505050506040513d601f19601f820116820180604052508101906105129190611a16565b915091505f81836105239190611a54565b905060025f9054906101000a900473ffffffffffffffffffffffffffffffffffffffff1673ffffffffffffffffffffffffffffffffffffffff16632e17de78826040518263ffffffff1660e01b815260040161057f9190611719565b5f604051808303815f87803b158015610596575f80fd5b505af11580156105a8573d5f803e3d5ffd5b505050505f8054906101000a900473ffffffffffffffffffffffffffffffffffffffff1673ffffffffffffffffffffffffffffffffffffffff1663095ea7b360015f9054906101000a900473ffffffffffffffffffffffffffffffffffffffff16836040518363ffffffff1660e01b8152600401610627929190611a87565b6020604051808303815f875af1158015610643573d5f803e3d5ffd5b505050506040513d601f19601f820116820180604052508101906106679190611ae3565b505f8060015f9054906101000a900473ffffffffffffffffffffffffffffffffffffffff1673ffffffffffffffffffffffffffffffffffffffff1663d752fab27f00000000000000000000000000000000000000000000000000000000000000007f0000000000000000000000000000000000000000000000000000000000000000866040518463ffffffff1660e01b815260040161070893929190611b0e565b60408051808303815f875af1158015610723573d5f803e3d5ffd5b505050506040513d601f19601f820116820180604052508101906107479190611a16565b9150915061079633837f000000000000000000000000000000000000000000000000000000000000000073ffffffffffffffffffffffffffffffffffffffff166113269092919063ffffffff16565b6107e133827f000000000000000000000000000000000000000000000000000000000000000073ffffffffffffffffffffffffffffffffffffffff166113269092919063ffffffff16565b505050505050565b5f3073ffffffffffffffffffffffffffffffffffffffff1663078b0fb7336040518263ffffffff1660e01b81526004016108239190611741565b602060405180830381865afa15801561083e573d5f803e3d5ffd5b505050506040513d601f19601f820116820180604052508101906108629190611920565b90506108b0338260035f9054906101000a900473ffffffffffffffffffffffffffffffffffffffff1673ffffffffffffffffffffffffffffffffffffffff166113269092919063ffffffff16565b50565b7f000000000000000000000000000000000000000000000000000000000000000081565b5f60025f9054906101000a900473ffffffffffffffffffffffffffffffffffffffff1673ffffffffffffffffffffffffffffffffffffffff1663372500ab6040518163ffffffff1660e01b81526004016020604051808303815f875af1158015610943573d5f803e3d5ffd5b505050506040513d601f19601f820116820180604052508101906109679190611920565b90505f600267ffffffffffffffff81111561098557610984611b43565b5b6040519080825280602002602001820160405280156109b35781602001602082028036833780820191505090505b50905060035f9054906101000a900473ffffffffffffffffffffffffffffffffffffffff16815f815181106109eb576109ea611b70565b5b602002602001019073ffffffffffffffffffffffffffffffffffffffff16908173ffffffffffffffffffffffffffffffffffffffff16815250507f000000000000000000000000000000000000000000000000000000000000000081600181518110610a5a57610a59611b70565b5b602002602001019073ffffffffffffffffffffffffffffffffffffffff16908173ffffffffffffffffffffffffffffffffffffffff168152505060035f9054906101000a900473ffffffffffffffffffffffffffffffffffffffff1673ffffffffffffffffffffffffffffffffffffffff1663095ea7b360015f9054906101000a900473ffffffffffffffffffffffffffffffffffffffff16846040518363ffffffff1660e01b8152600401610b11929190611a87565b6020604051808303815f875af1158015610b2d573d5f803e3d5ffd5b505050506040513d601f19601f82011682018060405250810190610b519190611ae3565b505f60015f9054906101000a900473ffffffffffffffffffffffffffffffffffffffff1673ffffffffffffffffffffffffffffffffffffffff166386818f26845f856040518463ffffffff1660e01b8152600401610bb193929190611c8d565b5f604051808303815f875af1158015610bcc573d5f803e3d5ffd5b505050506040513d5f823e3d601f19601f82011682018060405250810190610bf49190611dec565b90505f81600181518110610c0b57610c0a611b70565b5b602002602001015190505f8185610c229190611e33565b90505f805f60015f9054906101000a900473ffffffffffffffffffffffffffffffffffffffff1673ffffffffffffffffffffffffffffffffffffffff1663cf6c62ea7f00000000000000000000000000000000000000000000000000000000000000007f000000000000000000000000000000000000000000000000000000000000000088886040518563ffffffff1660e01b8152600401610cc79493929190611e66565b6060604051808303815f875af1158015610ce3573d5f803e3d5ffd5b505050506040513d601f19601f82011682018060405250810190610d079190611ea9565b9250925092505f8054906101000a900473ffffffffffffffffffffffffffffffffffffffff1673ffffffffffffffffffffffffffffffffffffffff1663e2bbb15884846040518363ffffffff1660e01b8152600401610d67929190611ef9565b6020604051808303815f875af1158015610d83573d5f803e3d5ffd5b505050506040513d601f19601f82011682018060405250810190610da79190611920565b505050505050505050565b610dff3330847f000000000000000000000000000000000000000000000000000000000000000073ffffffffffffffffffffffffffffffffffffffff166113a5909392919063ffffffff16565b610e4c3330837f000000000000000000000000000000000000000000000000000000000000000073ffffffffffffffffffffffffffffffffffffffff166113a5909392919063ffffffff16565b7f000000000000000000000000000000000000000000000000000000000000000073ffffffffffffffffffffffffffffffffffffffff1663095ea7b360015f9054906101000a900473ffffffffffffffffffffffffffffffffffffffff16846040518363ffffffff1660e01b8152600401610ec8929190611a87565b6020604051808303815f875af1158015610ee4573d5f803e3d5ffd5b505050506040513d601f19601f82011682018060405250810190610f089190611ae3565b507f000000000000000000000000000000000000000000000000000000000000000073ffffffffffffffffffffffffffffffffffffffff1663095ea7b360015f9054906101000a900473ffffffffffffffffffffffffffffffffffffffff16836040518363ffffffff1660e01b8152600401610f85929190611a87565b6020604051808303815f875af1158015610fa1573d5f803e3d5ffd5b505050506040513d601f19601f82011682018060405250810190610fc59190611ae3565b505f805f60015f9054906101000a900473ffffffffffffffffffffffffffffffffffffffff1673ffffffffffffffffffffffffffffffffffffffff1663cf6c62ea7f00000000000000000000000000000000000000000000000000000000000000007f000000000000000000000000000000000000000000000000000000000000000088886040518563ffffffff1660e01b81526004016110699493929190611e66565b6060604051808303815f875af1158015611085573d5f803e3d5ffd5b505050506040513d601f19601f820116820180604052508101906110a99190611ea9565b9250925092505f8054906101000a900473ffffffffffffffffffffffffffffffffffffffff1673ffffffffffffffffffffffffffffffffffffffff1663e2bbb15884846040518363ffffffff1660e01b8152600401611109929190611ef9565b6020604051808303815f875af1158015611125573d5f803e3d5ffd5b505050506040513d601f19601f820116820180604052508101906111499190611920565b505f8054906101000a900473ffffffffffffffffffffffffffffffffffffffff1673ffffffffffffffffffffffffffffffffffffffff1663095ea7b360025f9054906101000a900473ffffffffffffffffffffffffffffffffffffffff16836040518363ffffffff1660e01b81526004016111c5929190611a87565b6020604051808303815f875af11580156111e1573d5f803e3d5ffd5b505050506040513d601f19601f820116820180604052508101906112059190611ae3565b5060025f9054906101000a900473ffffffffffffffffffffffffffffffffffffffff1673ffffffffffffffffffffffffffffffffffffffff1663a694fc3a826040518263ffffffff1660e01b81526004016112609190611719565b5f604051808303815f87803b158015611277575f80fd5b505af1158015611289573d5f803e3d5ffd5b505050505050505050565b60025f9054906101000a900473ffffffffffffffffffffffffffffffffffffffff1681565b60035f9054906101000a900473ffffffffffffffffffffffffffffffffffffffff1681565b60015f9054906101000a900473ffffffffffffffffffffffffffffffffffffffff1681565b5f8054906101000a900473ffffffffffffffffffffffffffffffffffffffff1681565b6113a0838473ffffffffffffffffffffffffffffffffffffffff1663a9059cbb8585604051602401611359929190611a87565b604051602081830303815290604052915060e01b6020820180517bffffffffffffffffffffffffffffffffffffffffffffffffffffffff8381831617835250505050611427565b505050565b611421848573ffffffffffffffffffffffffffffffffffffffff166323b872dd8686866040516024016113da93929190611b0e565b604051602081830303815290604052915060e01b6020820180517bffffffffffffffffffffffffffffffffffffffffffffffffffffffff8381831617835250505050611427565b50505050565b5f611451828473ffffffffffffffffffffffffffffffffffffffff166114bc90919063ffffffff16565b90505f8151141580156114755750808060200190518101906114739190611ae3565b155b156114b757826040517f5274afe70000000000000000000000000000000000000000000000000000000081526004016114ae9190611741565b60405180910390fd5b505050565b60606114c983835f6114d1565b905092915050565b60608147101561151857306040517fcd78605900000000000000000000000000000000000000000000000000000000815260040161150f9190611741565b60405180910390fd5b5f808573ffffffffffffffffffffffffffffffffffffffff1684866040516115409190611f72565b5f6040518083038185875af1925050503d805f811461157a576040519150601f19603f3d011682016040523d82523d5f602084013e61157f565b606091505b509150915061158f86838361159a565b925050509392505050565b6060826115af576115aa82611627565b61161f565b5f82511480156115d557505f8473ffffffffffffffffffffffffffffffffffffffff163b145b1561161757836040517f9996b31500000000000000000000000000000000000000000000000000000000815260040161160e9190611741565b60405180910390fd5b819050611620565b5b9392505050565b5f815111156116395780518082602001fd5b6040517f1425ea4200000000000000000000000000000000000000000000000000000000815260040160405180910390fd5b5f604051905090565b5f80fd5b5f80fd5b5f73ffffffffffffffffffffffffffffffffffffffff82169050919050565b5f6116a58261167c565b9050919050565b6116b58161169b565b81146116bf575f80fd5b50565b5f813590506116d0816116ac565b92915050565b5f602082840312156116eb576116ea611674565b5b5f6116f8848285016116c2565b91505092915050565b5f819050919050565b61171381611701565b82525050565b5f60208201905061172c5f83018461170a565b92915050565b61173b8161169b565b82525050565b5f6020820190506117545f830184611732565b92915050565b61176381611701565b811461176d575f80fd5b50565b5f8135905061177e8161175a565b92915050565b5f6020828403121561179957611798611674565b5b5f6117a684828501611770565b91505092915050565b5f80604083850312156117c5576117c4611674565b5b5f6117d285828601611770565b92505060206117e385828601611770565b9150509250929050565b5f819050919050565b5f61181061180b6118068461167c565b6117ed565b61167c565b9050919050565b5f611821826117f6565b9050919050565b5f61183282611817565b9050919050565b61184281611828565b82525050565b5f60208201905061185b5f830184611839565b92915050565b5f61186b82611817565b9050919050565b61187b81611861565b82525050565b5f6020820190506118945f830184611872565b92915050565b5f6118a482611817565b9050919050565b6118b48161189a565b82525050565b5f6020820190506118cd5f8301846118ab565b92915050565b5f6118dd82611817565b9050919050565b6118ed816118d3565b82525050565b5f6020820190506119065f8301846118e4565b92915050565b5f8151905061191a8161175a565b92915050565b5f6020828403121561193557611934611674565b5b5f6119428482850161190c565b91505092915050565b7f4e487b71000000000000000000000000000000000000000000000000000000005f52601160045260245ffd5b5f61198282611701565b915061198d83611701565b925082820261199b81611701565b915082820484148315176119b2576119b161194b565b5b5092915050565b7f4e487b71000000000000000000000000000000000000000000000000000000005f52601260045260245ffd5b5f6119f082611701565b91506119fb83611701565b925082611a0b57611a0a6119b9565b5b828204905092915050565b5f8060408385031215611a2c57611a2b611674565b5b5f611a398582860161190c565b9250506020611a4a8582860161190c565b9150509250929050565b5f611a5e82611701565b9150611a6983611701565b9250828201905080821115611a8157611a8061194b565b5b92915050565b5f604082019050611a9a5f830185611732565b611aa7602083018461170a565b9392505050565b5f8115159050919050565b611ac281611aae565b8114611acc575f80fd5b50565b5f81519050611add81611ab9565b92915050565b5f60208284031215611af857611af7611674565b5b5f611b0584828501611acf565b91505092915050565b5f606082019050611b215f830186611732565b611b2e6020830185611732565b611b3b604083018461170a565b949350505050565b7f4e487b71000000000000000000000000000000000000000000000000000000005f52604160045260245ffd5b7f4e487b71000000000000000000000000000000000000000000000000000000005f52603260045260245ffd5b5f819050919050565b5f611bc0611bbb611bb684611b9d565b6117ed565b611701565b9050919050565b611bd081611ba6565b82525050565b5f81519050919050565b5f82825260208201905092915050565b5f819050602082019050919050565b611c088161169b565b82525050565b5f611c198383611bff565b60208301905092915050565b5f602082019050919050565b5f611c3b82611bd6565b611c458185611be0565b9350611c5083611bf0565b805f5b83811015611c80578151611c678882611c0e565b9750611c7283611c25565b925050600181019050611c53565b5085935050505092915050565b5f606082019050611ca05f83018661170a565b611cad6020830185611bc7565b8181036040830152611cbf8184611c31565b9050949350505050565b5f80fd5b5f601f19601f8301169050919050565b611ce682611ccd565b810181811067ffffffffffffffff82111715611d0557611d04611b43565b5b80604052505050565b5f611d1761166b565b9050611d238282611cdd565b919050565b5f67ffffffffffffffff821115611d4257611d41611b43565b5b602082029050602081019050919050565b5f80fd5b5f611d69611d6484611d28565b611d0e565b90508083825260208201905060208402830185811115611d8c57611d8b611d53565b5b835b81811015611db55780611da1888261190c565b845260208401935050602081019050611d8e565b5050509392505050565b5f82601f830112611dd357611dd2611cc9565b5b8151611de3848260208601611d57565b91505092915050565b5f60208284031215611e0157611e00611674565b5b5f82015167ffffffffffffffff811115611e1e57611e1d611678565b5b611e2a84828501611dbf565b91505092915050565b5f611e3d82611701565b9150611e4883611701565b9250828203905081811115611e6057611e5f61194b565b5b92915050565b5f608082019050611e795f830187611732565b611e866020830186611732565b611e93604083018561170a565b611ea0606083018461170a565b95945050505050565b5f805f60608486031215611ec057611ebf611674565b5b5f611ecd8682870161190c565b9350506020611ede8682870161190c565b9250506040611eef8682870161190c565b9150509250925092565b5f604082019050611f0c5f83018561170a565b611f19602083018461170a565b9392505050565b5f81519050919050565b5f81905092915050565b8281835e5f83830152505050565b5f611f4c82611f20565b611f568185611f2a565b9350611f66818560208601611f34565b80840191505092915050565b5f611f7d8284611f42565b91508190509291505056fea26469706673582212202c63fbc534890196b564d282d29cbe984c271da2c007cc1c96622d57fd86177564736f6c634300081a0033",
			"opcodes": "PUSH1 0xC0 PUSH1 0x40 MSTORE CALLVALUE DUP1 ISZERO PUSH2 0xF JUMPI PUSH0 DUP1 REVERT JUMPDEST POP PUSH1 0x40 MLOAD PUSH2 0x22C4 CODESIZE SUB DUP1 PUSH2 0x22C4 DUP4 CODECOPY DUP2 DUP2 ADD PUSH1 0x40 MSTORE DUP2 ADD SWAP1 PUSH2 0x31 SWAP2 SWAP1 PUSH2 0x201 JUMP JUMPDEST DUP6 PUSH0 DUP1 PUSH2 0x100 EXP DUP2 SLOAD DUP2 PUSH20 0xFFFFFFFFFFFFFFFFFFFFFFFFFFFFFFFFFFFFFFFF MUL NOT AND SWAP1 DUP4 PUSH20 0xFFFFFFFFFFFFFFFFFFFFFFFFFFFFFFFFFFFFFFFF AND MUL OR SWAP1 SSTORE POP DUP5 PUSH1 0x1 PUSH0 PUSH2 0x100 EXP DUP2 SLOAD DUP2 PUSH20 0xFFFFFFFFFFFFFFFFFFFFFFFFFFFFFFFFFFFFFFFF MUL NOT AND SWAP1 DUP4 PUSH20 0xFFFFFFFFFFFFFFFFFFFFFFFFFFFFFFFFFFFFFFFF AND MUL OR SWAP1 SSTORE POP DUP4 PUSH1 0x2 PUSH0 PUSH2 0x100 EXP DUP2 SLOAD DUP2 PUSH20 0xFFFFFFFFFFFFFFFFFFFFFFFFFFFFFFFFFFFFFFFF MUL NOT AND SWAP1 DUP4 PUSH20 0xFFFFFFFFFFFFFFFFFFFFFFFFFFFFFFFFFFFFFFFF AND MUL OR SWAP1 SSTORE POP DUP3 PUSH1 0x3 PUSH0 PUSH2 0x100 EXP DUP2 SLOAD DUP2 PUSH20 0xFFFFFFFFFFFFFFFFFFFFFFFFFFFFFFFFFFFFFFFF MUL NOT AND SWAP1 DUP4 PUSH20 0xFFFFFFFFFFFFFFFFFFFFFFFFFFFFFFFFFFFFFFFF AND MUL OR SWAP1 SSTORE POP DUP2 PUSH20 0xFFFFFFFFFFFFFFFFFFFFFFFFFFFFFFFFFFFFFFFF AND PUSH1 0x80 DUP2 PUSH20 0xFFFFFFFFFFFFFFFFFFFFFFFFFFFFFFFFFFFFFFFF AND DUP2 MSTORE POP POP DUP1 PUSH20 0xFFFFFFFFFFFFFFFFFFFFFFFFFFFFFFFFFFFFFFFF AND PUSH1 0xA0 DUP2 PUSH20 0xFFFFFFFFFFFFFFFFFFFFFFFFFFFFFFFFFFFFFFFF AND DUP2 MSTORE POP POP POP POP POP POP POP POP PUSH2 0x28A JUMP JUMPDEST PUSH0 DUP1 REVERT JUMPDEST PUSH0 PUSH20 0xFFFFFFFFFFFFFFFFFFFFFFFFFFFFFFFFFFFFFFFF DUP3 AND SWAP1 POP SWAP2 SWAP1 POP JUMP JUMPDEST PUSH0 PUSH2 0x1D0 DUP3 PUSH2 0x1A7 JUMP JUMPDEST SWAP1 POP SWAP2 SWAP1 POP JUMP JUMPDEST PUSH2 0x1E0 DUP2 PUSH2 0x1C6 JUMP JUMPDEST DUP2 EQ PUSH2 0x1EA JUMPI PUSH0 DUP1 REVERT JUMPDEST POP JUMP JUMPDEST PUSH0 DUP2 MLOAD SWAP1 POP PUSH2 0x1FB DUP2 PUSH2 0x1D7 JUMP JUMPDEST SWAP3 SWAP2 POP POP JUMP JUMPDEST PUSH0 DUP1 PUSH0 DUP1 PUSH0 DUP1 PUSH1 0xC0 DUP8 DUP10 SUB SLT ISZERO PUSH2 0x21B JUMPI PUSH2 0x21A PUSH2 0x1A3 JUMP JUMPDEST JUMPDEST PUSH0 PUSH2 0x228 DUP10 DUP3 DUP11 ADD PUSH2 0x1ED JUMP JUMPDEST SWAP7 POP POP PUSH1 0x20 PUSH2 0x239 DUP10 DUP3 DUP11 ADD PUSH2 0x1ED JUMP JUMPDEST SWAP6 POP POP PUSH1 0x40 PUSH2 0x24A DUP10 DUP3 DUP11 ADD PUSH2 0x1ED JUMP JUMPDEST SWAP5 POP POP PUSH1 0x60 PUSH2 0x25B DUP10 DUP3 DUP11 ADD PUSH2 0x1ED JUMP JUMPDEST SWAP4 POP POP PUSH1 0x80 PUSH2 0x26C DUP10 DUP3 DUP11 ADD PUSH2 0x1ED JUMP JUMPDEST SWAP3 POP POP PUSH1 0xA0 PUSH2 0x27D DUP10 DUP3 DUP11 ADD PUSH2 0x1ED JUMP JUMPDEST SWAP2 POP POP SWAP3 SWAP6 POP SWAP3 SWAP6 POP SWAP3 SWAP6 JUMP JUMPDEST PUSH1 0x80 MLOAD PUSH1 0xA0 MLOAD PUSH2 0x1FBE PUSH2 0x306 PUSH0 CODECOPY PUSH0 DUP2 DUP2 PUSH2 0x6CA ADD MSTORE DUP2 DUP2 PUSH2 0x79D ADD MSTORE DUP2 DUP2 PUSH2 0x8B5 ADD MSTORE DUP2 DUP2 PUSH2 0xC87 ADD MSTORE DUP2 DUP2 PUSH2 0xE07 ADD MSTORE DUP2 DUP2 PUSH2 0xF0B ADD MSTORE PUSH2 0x1029 ADD MSTORE PUSH0 DUP2 DUP2 PUSH2 0x457 ADD MSTORE DUP2 DUP2 PUSH2 0x6A9 ADD MSTORE DUP2 DUP2 PUSH2 0x752 ADD MSTORE DUP2 DUP2 PUSH2 0xA27 ADD MSTORE DUP2 DUP2 PUSH2 0xC66 ADD MSTORE DUP2 DUP2 PUSH2 0xDBA ADD MSTORE DUP2 DUP2 PUSH2 0xE4E ADD MSTORE PUSH2 0x1008 ADD MSTORE PUSH2 0x1FBE PUSH0 RETURN INVALID PUSH1 0x80 PUSH1 0x40 MSTORE CALLVALUE DUP1 ISZERO PUSH2 0xF JUMPI PUSH0 DUP1 REVERT JUMPDEST POP PUSH1 0x4 CALLDATASIZE LT PUSH2 0xA7 JUMPI PUSH0 CALLDATALOAD PUSH1 0xE0 SHR DUP1 PUSH4 0xB5F4D38C GT PUSH2 0x6F JUMPI DUP1 PUSH4 0xB5F4D38C EQ PUSH2 0x13D JUMPI DUP1 PUSH4 0xE2BBB158 EQ PUSH2 0x147 JUMPI DUP1 PUSH4 0xEE99205C EQ PUSH2 0x163 JUMPI DUP1 PUSH4 0xF7C618C1 EQ PUSH2 0x181 JUMPI DUP1 PUSH4 0xF887EA40 EQ PUSH2 0x19F JUMPI DUP1 PUSH4 0xFBFA77CF EQ PUSH2 0x1BD JUMPI PUSH2 0xA7 JUMP JUMPDEST DUP1 PUSH4 0x78B0FB7 EQ PUSH2 0xAB JUMPI DUP1 PUSH4 0xFC63D10 EQ PUSH2 0xDB JUMPI DUP1 PUSH4 0x2E1A7D4D EQ PUSH2 0xF9 JUMPI DUP1 PUSH4 0x372500AB EQ PUSH2 0x115 JUMPI DUP1 PUSH4 0x5F64B55B EQ PUSH2 0x11F JUMPI JUMPDEST PUSH0 DUP1 REVERT JUMPDEST PUSH2 0xC5 PUSH1 0x4 DUP1 CALLDATASIZE SUB DUP2 ADD SWAP1 PUSH2 0xC0 SWAP2 SWAP1 PUSH2 0x16D6 JUMP JUMPDEST PUSH2 0x1DB JUMP JUMPDEST PUSH1 0x40 MLOAD PUSH2 0xD2 SWAP2 SWAP1 PUSH2 0x1719 JUMP JUMPDEST PUSH1 0x40 MLOAD DUP1 SWAP2 SUB SWAP1 RETURN JUMPDEST PUSH2 0xE3 PUSH2 0x455 JUMP JUMPDEST PUSH1 0x40 MLOAD PUSH2 0xF0 SWAP2 SWAP1 PUSH2 0x1741 JUMP JUMPDEST PUSH1 0x40 MLOAD DUP1 SWAP2 SUB SWAP1 RETURN JUMPDEST PUSH2 0x113 PUSH1 0x4 DUP1 CALLDATASIZE SUB DUP2 ADD SWAP1 PUSH2 0x10E SWAP2 SWAP1 PUSH2 0x1784 JUMP JUMPDEST PUSH2 0x479 JUMP JUMPDEST STOP JUMPDEST PUSH2 0x11D PUSH2 0x7E9 JUMP JUMPDEST STOP JUMPDEST PUSH2 0x127 PUSH2 0x8B3 JUMP JUMPDEST PUSH1 0x40 MLOAD PUSH2 0x134 SWAP2 SWAP1 PUSH2 0x1741 JUMP JUMPDEST PUSH1 0x40 MLOAD DUP1 SWAP2 SUB SWAP1 RETURN JUMPDEST PUSH2 0x145 PUSH2 0x8D7 JUMP JUMPDEST STOP JUMPDEST PUSH2 0x161 PUSH1 0x4 DUP1 CALLDATASIZE SUB DUP2 ADD SWAP1 PUSH2 0x15C SWAP2 SWAP1 PUSH2 0x17AF JUMP JUMPDEST PUSH2 0xDB2 JUMP JUMPDEST STOP JUMPDEST PUSH2 0x16B PUSH2 0x1294 JUMP JUMPDEST PUSH1 0x40 MLOAD PUSH2 0x178 SWAP2 SWAP1 PUSH2 0x1848 JUMP JUMPDEST PUSH1 0x40 MLOAD DUP1 SWAP2 SUB SWAP1 RETURN JUMPDEST PUSH2 0x189 PUSH2 0x12B9 JUMP JUMPDEST PUSH1 0x40 MLOAD PUSH2 0x196 SWAP2 SWAP1 PUSH2 0x1881 JUMP JUMPDEST PUSH1 0x40 MLOAD DUP1 SWAP2 SUB SWAP1 RETURN JUMPDEST PUSH2 0x1A7 PUSH2 0x12DE JUMP JUMPDEST PUSH1 0x40 MLOAD PUSH2 0x1B4 SWAP2 SWAP1 PUSH2 0x18BA JUMP JUMPDEST PUSH1 0x40 MLOAD DUP1 SWAP2 SUB SWAP1 RETURN JUMPDEST PUSH2 0x1C5 PUSH2 0x1303 JUMP JUMPDEST PUSH1 0x40 MLOAD PUSH2 0x1D2 SWAP2 SWAP1 PUSH2 0x18F3 JUMP JUMPDEST PUSH1 0x40 MLOAD DUP1 SWAP2 SUB SWAP1 RETURN JUMPDEST PUSH0 DUP1 PUSH0 DUP1 SLOAD SWAP1 PUSH2 0x100 EXP SWAP1 DIV PUSH20 0xFFFFFFFFFFFFFFFFFFFFFFFFFFFFFFFFFFFFFFFF AND PUSH20 0xFFFFFFFFFFFFFFFFFFFFFFFFFFFFFFFFFFFFFFFF AND PUSH4 0x70A08231 DUP5 PUSH1 0x40 MLOAD DUP3 PUSH4 0xFFFFFFFF AND PUSH1 0xE0 SHL DUP2 MSTORE PUSH1 0x4 ADD PUSH2 0x235 SWAP2 SWAP1 PUSH2 0x1741 JUMP JUMPDEST PUSH1 0x20 PUSH1 0x40 MLOAD DUP1 DUP4 SUB DUP2 DUP7 GAS STATICCALL ISZERO DUP1 ISZERO PUSH2 0x250 JUMPI RETURNDATASIZE PUSH0 DUP1 RETURNDATACOPY RETURNDATASIZE PUSH0 REVERT JUMPDEST POP POP POP POP PUSH1 0x40 MLOAD RETURNDATASIZE PUSH1 0x1F NOT PUSH1 0x1F DUP3 ADD AND DUP3 ADD DUP1 PUSH1 0x40 MSTORE POP DUP2 ADD SWAP1 PUSH2 0x274 SWAP2 SWAP1 PUSH2 0x1920 JUMP JUMPDEST SWAP1 POP PUSH0 DUP1 PUSH0 SWAP1 SLOAD SWAP1 PUSH2 0x100 EXP SWAP1 DIV PUSH20 0xFFFFFFFFFFFFFFFFFFFFFFFFFFFFFFFFFFFFFFFF AND PUSH20 0xFFFFFFFFFFFFFFFFFFFFFFFFFFFFFFFFFFFFFFFF AND PUSH4 0x18160DDD PUSH1 0x40 MLOAD DUP2 PUSH4 0xFFFFFFFF AND PUSH1 0xE0 SHL DUP2 MSTORE PUSH1 0x4 ADD PUSH1 0x20 PUSH1 0x40 MLOAD DUP1 DUP4 SUB DUP2 DUP7 GAS STATICCALL ISZERO DUP1 ISZERO PUSH2 0x2E0 JUMPI RETURNDATASIZE PUSH0 DUP1 RETURNDATACOPY RETURNDATASIZE PUSH0 REVERT JUMPDEST POP POP POP POP PUSH1 0x40 MLOAD RETURNDATASIZE PUSH1 0x1F NOT PUSH1 0x1F DUP3 ADD AND DUP3 ADD DUP1 PUSH1 0x40 MSTORE POP DUP2 ADD SWAP1 PUSH2 0x304 SWAP2 SWAP1 PUSH2 0x1920 JUMP JUMPDEST SWAP1 POP PUSH0 PUSH1 0x2 PUSH0 SWAP1 SLOAD SWAP1 PUSH2 0x100 EXP SWAP1 DIV PUSH20 0xFFFFFFFFFFFFFFFFFFFFFFFFFFFFFFFFFFFFFFFF AND PUSH20 0xFFFFFFFFFFFFFFFFFFFFFFFFFFFFFFFFFFFFFFFF AND PUSH4 0x70A08231 ADDRESS PUSH1 0x40 MLOAD DUP3 PUSH4 0xFFFFFFFF AND PUSH1 0xE0 SHL DUP2 MSTORE PUSH1 0x4 ADD PUSH2 0x361 SWAP2 SWAP1 PUSH2 0x1741 JUMP JUMPDEST PUSH1 0x20 PUSH1 0x40 MLOAD DUP1 DUP4 SUB DUP2 DUP7 GAS STATICCALL ISZERO DUP1 ISZERO PUSH2 0x37C JUMPI RETURNDATASIZE PUSH0 DUP1 RETURNDATACOPY RETURNDATASIZE PUSH0 REVERT JUMPDEST POP POP POP POP PUSH1 0x40 MLOAD RETURNDATASIZE PUSH1 0x1F NOT PUSH1 0x1F DUP3 ADD AND DUP3 ADD DUP1 PUSH1 0x40 MSTORE POP DUP2 ADD SWAP1 PUSH2 0x3A0 SWAP2 SWAP1 PUSH2 0x1920 JUMP JUMPDEST SWAP1 POP PUSH0 PUSH1 0x2 PUSH0 SWAP1 SLOAD SWAP1 PUSH2 0x100 EXP SWAP1 DIV PUSH20 0xFFFFFFFFFFFFFFFFFFFFFFFFFFFFFFFFFFFFFFFF AND PUSH20 0xFFFFFFFFFFFFFFFFFFFFFFFFFFFFFFFFFFFFFFFF AND PUSH4 0xE627F2DB PUSH1 0x40 MLOAD DUP2 PUSH4 0xFFFFFFFF AND PUSH1 0xE0 SHL DUP2 MSTORE PUSH1 0x4 ADD PUSH1 0x20 PUSH1 0x40 MLOAD DUP1 DUP4 SUB DUP2 DUP7 GAS STATICCALL ISZERO DUP1 ISZERO PUSH2 0x40D JUMPI RETURNDATASIZE PUSH0 DUP1 RETURNDATACOPY RETURNDATASIZE PUSH0 REVERT JUMPDEST POP POP POP POP PUSH1 0x40 MLOAD RETURNDATASIZE PUSH1 0x1F NOT PUSH1 0x1F DUP3 ADD AND DUP3 ADD DUP1 PUSH1 0x40 MSTORE POP DUP2 ADD SWAP1 PUSH2 0x431 SWAP2 SWAP1 PUSH2 0x1920 JUMP JUMPDEST SWAP1 POP DUP3 DUP2 DUP6 PUSH2 0x440 SWAP2 SWAP1 PUSH2 0x1978 JUMP JUMPDEST PUSH2 0x44A SWAP2 SWAP1 PUSH2 0x19E6 JUMP JUMPDEST SWAP5 POP POP POP POP POP SWAP2 SWAP1 POP JUMP JUMPDEST PUSH32 0x0 DUP2 JUMP JUMPDEST PUSH0 DUP1 PUSH0 DUP1 SLOAD SWAP1 PUSH2 0x100 EXP SWAP1 DIV PUSH20 0xFFFFFFFFFFFFFFFFFFFFFFFFFFFFFFFFFFFFFFFF AND PUSH20 0xFFFFFFFFFFFFFFFFFFFFFFFFFFFFFFFFFFFFFFFF AND PUSH4 0x2E1A7D4D DUP5 PUSH1 0x40 MLOAD DUP3 PUSH4 0xFFFFFFFF AND PUSH1 0xE0 SHL DUP2 MSTORE PUSH1 0x4 ADD PUSH2 0x4D3 SWAP2 SWAP1 PUSH2 0x1719 JUMP JUMPDEST PUSH1 0x40 DUP1 MLOAD DUP1 DUP4 SUB DUP2 PUSH0 DUP8 GAS CALL ISZERO DUP1 ISZERO PUSH2 0x4EE JUMPI RETURNDATASIZE PUSH0 DUP1 RETURNDATACOPY RETURNDATASIZE PUSH0 REVERT JUMPDEST POP POP POP POP PUSH1 0x40 MLOAD RETURNDATASIZE PUSH1 0x1F NOT PUSH1 0x1F DUP3 ADD AND DUP3 ADD DUP1 PUSH1 0x40 MSTORE POP DUP2 ADD SWAP1 PUSH2 0x512 SWAP2 SWAP1 PUSH2 0x1A16 JUMP JUMPDEST SWAP2 POP SWAP2 POP PUSH0 DUP2 DUP4 PUSH2 0x523 SWAP2 SWAP1 PUSH2 0x1A54 JUMP JUMPDEST SWAP1 POP PUSH1 0x2 PUSH0 SWAP1 SLOAD SWAP1 PUSH2 0x100 EXP SWAP1 DIV PUSH20 0xFFFFFFFFFFFFFFFFFFFFFFFFFFFFFFFFFFFFFFFF AND PUSH20 0xFFFFFFFFFFFFFFFFFFFFFFFFFFFFFFFFFFFFFFFF AND PUSH4 0x2E17DE78 DUP3 PUSH1 0x40 MLOAD DUP3 PUSH4 0xFFFFFFFF AND PUSH1 0xE0 SHL DUP2 MSTORE PUSH1 0x4 ADD PUSH2 0x57F SWAP2 SWAP1 PUSH2 0x1719 JUMP JUMPDEST PUSH0 PUSH1 0x40 MLOAD DUP1 DUP4 SUB DUP2 PUSH0 DUP8 DUP1 EXTCODESIZE ISZERO DUP1 ISZERO PUSH2 0x596 JUMPI PUSH0 DUP1 REVERT JUMPDEST POP GAS CALL ISZERO DUP1 ISZERO PUSH2 0x5A8 JUMPI RETURNDATASIZE PUSH0 DUP1 RETURNDATACOPY RETURNDATASIZE PUSH0 REVERT JUMPDEST POP POP POP POP PUSH0 DUP1 SLOAD SWAP1 PUSH2 0x100 EXP SWAP1 DIV PUSH20 0xFFFFFFFFFFFFFFFFFFFFFFFFFFFFFFFFFFFFFFFF AND PUSH20 0xFFFFFFFFFFFFFFFFFFFFFFFFFFFFFFFFFFFFFFFF AND PUSH4 0x95EA7B3 PUSH1 0x1 PUSH0 SWAP1 SLOAD SWAP1 PUSH2 0x100 EXP SWAP1 DIV PUSH20 0xFFFFFFFFFFFFFFFFFFFFFFFFFFFFFFFFFFFFFFFF AND DUP4 PUSH1 0x40 MLOAD DUP4 PUSH4 0xFFFFFFFF AND PUSH1 0xE0 SHL DUP2 MSTORE PUSH1 0x4 ADD PUSH2 0x627 SWAP3 SWAP2 SWAP1 PUSH2 0x1A87 JUMP JUMPDEST PUSH1 0x20 PUSH1 0x40 MLOAD DUP1 DUP4 SUB DUP2 PUSH0 DUP8 GAS CALL ISZERO DUP1 ISZERO PUSH2 0x643 JUMPI RETURNDATASIZE PUSH0 DUP1 RETURNDATACOPY RETURNDATASIZE PUSH0 REVERT JUMPDEST POP POP POP POP PUSH1 0x40 MLOAD RETURNDATASIZE PUSH1 0x1F NOT PUSH1 0x1F DUP3 ADD AND DUP3 ADD DUP1 PUSH1 0x40 MSTORE POP DUP2 ADD SWAP1 PUSH2 0x667 SWAP2 SWAP1 PUSH2 0x1AE3 JUMP JUMPDEST POP PUSH0 DUP1 PUSH1 0x1 PUSH0 SWAP1 SLOAD SWAP1 PUSH2 0x100 EXP SWAP1 DIV PUSH20 0xFFFFFFFFFFFFFFFFFFFFFFFFFFFFFFFFFFFFFFFF AND PUSH20 0xFFFFFFFFFFFFFFFFFFFFFFFFFFFFFFFFFFFFFFFF AND PUSH4 0xD752FAB2 PUSH32 0x0 PUSH32 0x0 DUP7 PUSH1 0x40 MLOAD DUP5 PUSH4 0xFFFFFFFF AND PUSH1 0xE0 SHL DUP2 MSTORE PUSH1 0x4 ADD PUSH2 0x708 SWAP4 SWAP3 SWAP2 SWAP1 PUSH2 0x1B0E JUMP JUMPDEST PUSH1 0x40 DUP1 MLOAD DUP1 DUP4 SUB DUP2 PUSH0 DUP8 GAS CALL ISZERO DUP1 ISZERO PUSH2 0x723 JUMPI RETURNDATASIZE PUSH0 DUP1 RETURNDATACOPY RETURNDATASIZE PUSH0 REVERT JUMPDEST POP POP POP POP PUSH1 0x40 MLOAD RETURNDATASIZE PUSH1 0x1F NOT PUSH1 0x1F DUP3 ADD AND DUP3 ADD DUP1 PUSH1 0x40 MSTORE POP DUP2 ADD SWAP1 PUSH2 0x747 SWAP2 SWAP1 PUSH2 0x1A16 JUMP JUMPDEST SWAP2 POP SWAP2 POP PUSH2 0x796 CALLER DUP4 PUSH32 0x0 PUSH20 0xFFFFFFFFFFFFFFFFFFFFFFFFFFFFFFFFFFFFFFFF AND PUSH2 0x1326 SWAP1 SWAP3 SWAP2 SWAP1 PUSH4 0xFFFFFFFF AND JUMP JUMPDEST PUSH2 0x7E1 CALLER DUP3 PUSH32 0x0 PUSH20 0xFFFFFFFFFFFFFFFFFFFFFFFFFFFFFFFFFFFFFFFF AND PUSH2 0x1326 SWAP1 SWAP3 SWAP2 SWAP1 PUSH4 0xFFFFFFFF AND JUMP JUMPDEST POP POP POP POP POP POP JUMP JUMPDEST PUSH0 ADDRESS PUSH20 0xFFFFFFFFFFFFFFFFFFFFFFFFFFFFFFFFFFFFFFFF AND PUSH4 0x78B0FB7 CALLER PUSH1 0x40 MLOAD DUP3 PUSH4 0xFFFFFFFF AND PUSH1 0xE0 SHL DUP2 MSTORE PUSH1 0x4 ADD PUSH2 0x823 SWAP2 SWAP1 PUSH2 0x1741 JUMP JUMPDEST PUSH1 0x20 PUSH1 0x40 MLOAD DUP1 DUP4 SUB DUP2 DUP7 GAS STATICCALL ISZERO DUP1 ISZERO PUSH2 0x83E JUMPI RETURNDATASIZE PUSH0 DUP1 RETURNDATACOPY RETURNDATASIZE PUSH0 REVERT JUMPDEST POP POP POP POP PUSH1 0x40 MLOAD RETURNDATASIZE PUSH1 0x1F NOT PUSH1 0x1F DUP3 ADD AND DUP3 ADD DUP1 PUSH1 0x40 MSTORE POP DUP2 ADD SWAP1 PUSH2 0x862 SWAP2 SWAP1 PUSH2 0x1920 JUMP JUMPDEST SWAP1 POP PUSH2 0x8B0 CALLER DUP3 PUSH1 0x3 PUSH0 SWAP1 SLOAD SWAP1 PUSH2 0x100 EXP SWAP1 DIV PUSH20 0xFFFFFFFFFFFFFFFFFFFFFFFFFFFFFFFFFFFFFFFF AND PUSH20 0xFFFFFFFFFFFFFFFFFFFFFFFFFFFFFFFFFFFFFFFF AND PUSH2 0x1326 SWAP1 SWAP3 SWAP2 SWAP1 PUSH4 0xFFFFFFFF AND JUMP JUMPDEST POP JUMP JUMPDEST PUSH32 0x0 DUP2 JUMP JUMPDEST PUSH0 PUSH1 0x2 PUSH0 SWAP1 SLOAD SWAP1 PUSH2 0x100 EXP SWAP1 DIV PUSH20 0xFFFFFFFFFFFFFFFFFFFFFFFFFFFFFFFFFFFFFFFF AND PUSH20 0xFFFFFFFFFFFFFFFFFFFFFFFFFFFFFFFFFFFFFFFF AND PUSH4 0x372500AB PUSH1 0x40 MLOAD DUP2 PUSH4 0xFFFFFFFF AND PUSH1 0xE0 SHL DUP2 MSTORE PUSH1 0x4 ADD PUSH1 0x20 PUSH1 0x40 MLOAD DUP1 DUP4 SUB DUP2 PUSH0 DUP8 GAS CALL ISZERO DUP1 ISZERO PUSH2 0x943 JUMPI RETURNDATASIZE PUSH0 DUP1 RETURNDATACOPY RETURNDATASIZE PUSH0 REVERT JUMPDEST POP POP POP POP PUSH1 0x40 MLOAD RETURNDATASIZE PUSH1 0x1F NOT PUSH1 0x1F DUP3 ADD AND DUP3 ADD DUP1 PUSH1 0x40 MSTORE POP DUP2 ADD SWAP1 PUSH2 0x967 SWAP2 SWAP1 PUSH2 0x1920 JUMP JUMPDEST SWAP1 POP PUSH0 PUSH1 0x2 PUSH8 0xFFFFFFFFFFFFFFFF DUP2 GT ISZERO PUSH2 0x985 JUMPI PUSH2 0x984 PUSH2 0x1B43 JUMP JUMPDEST JUMPDEST PUSH1 0x40 MLOAD SWAP1 DUP1 DUP3 MSTORE DUP1 PUSH1 0x20 MUL PUSH1 0x20 ADD DUP3 ADD PUSH1 0x40 MSTORE DUP1 ISZERO PUSH2 0x9B3 JUMPI DUP2 PUSH1 0x20 ADD PUSH1 0x20 DUP3 MUL DUP1 CALLDATASIZE DUP4 CALLDATACOPY DUP1 DUP3 ADD SWAP2 POP POP SWAP1 POP JUMPDEST POP SWAP1 POP PUSH1 0x3 PUSH0 SWAP1 SLOAD SWAP1 PUSH2 0x100 EXP SWAP1 DIV PUSH20 0xFFFFFFFFFFFFFFFFFFFFFFFFFFFFFFFFFFFFFFFF AND DUP2 PUSH0 DUP2 MLOAD DUP2 LT PUSH2 0x9EB JUMPI PUSH2 0x9EA PUSH2 0x1B70 JUMP JUMPDEST JUMPDEST PUSH1 0x20 MUL PUSH1 0x20 ADD ADD SWAP1 PUSH20 0xFFFFFFFFFFFFFFFFFFFFFFFFFFFFFFFFFFFFFFFF AND SWAP1 DUP2 PUSH20 0xFFFFFFFFFFFFFFFFFFFFFFFFFFFFFFFFFFFFFFFF AND DUP2 MSTORE POP POP PUSH32 0x0 DUP2 PUSH1 0x1 DUP2 MLOAD DUP2 LT PUSH2 0xA5A JUMPI PUSH2 0xA59 PUSH2 0x1B70 JUMP JUMPDEST JUMPDEST PUSH1 0x20 MUL PUSH1 0x20 ADD ADD SWAP1 PUSH20 0xFFFFFFFFFFFFFFFFFFFFFFFFFFFFFFFFFFFFFFFF AND SWAP1 DUP2 PUSH20 0xFFFFFFFFFFFFFFFFFFFFFFFFFFFFFFFFFFFFFFFF AND DUP2 MSTORE POP POP PUSH1 0x3 PUSH0 SWAP1 SLOAD SWAP1 PUSH2 0x100 EXP SWAP1 DIV PUSH20 0xFFFFFFFFFFFFFFFFFFFFFFFFFFFFFFFFFFFFFFFF AND PUSH20 0xFFFFFFFFFFFFFFFFFFFFFFFFFFFFFFFFFFFFFFFF AND PUSH4 0x95EA7B3 PUSH1 0x1 PUSH0 SWAP1 SLOAD SWAP1 PUSH2 0x100 EXP SWAP1 DIV PUSH20 0xFFFFFFFFFFFFFFFFFFFFFFFFFFFFFFFFFFFFFFFF AND DUP5 PUSH1 0x40 MLOAD DUP4 PUSH4 0xFFFFFFFF AND PUSH1 0xE0 SHL DUP2 MSTORE PUSH1 0x4 ADD PUSH2 0xB11 SWAP3 SWAP2 SWAP1 PUSH2 0x1A87 JUMP JUMPDEST PUSH1 0x20 PUSH1 0x40 MLOAD DUP1 DUP4 SUB DUP2 PUSH0 DUP8 GAS CALL ISZERO DUP1 ISZERO PUSH2 0xB2D JUMPI RETURNDATASIZE PUSH0 DUP1 RETURNDATACOPY RETURNDATASIZE PUSH0 REVERT JUMPDEST POP POP POP POP PUSH1 0x40 MLOAD RETURNDATASIZE PUSH1 0x1F NOT PUSH1 0x1F DUP3 ADD AND DUP3 ADD DUP1 PUSH1 0x40 MSTORE POP DUP2 ADD SWAP1 PUSH2 0xB51 SWAP2 SWAP1 PUSH2 0x1AE3 JUMP JUMPDEST POP PUSH0 PUSH1 0x1 PUSH0 SWAP1 SLOAD SWAP1 PUSH2 0x100 EXP SWAP1 DIV PUSH20 0xFFFFFFFFFFFFFFFFFFFFFFFFFFFFFFFFFFFFFFFF AND PUSH20 0xFFFFFFFFFFFFFFFFFFFFFFFFFFFFFFFFFFFFFFFF AND PUSH4 0x86818F26 DUP5 PUSH0 DUP6 PUSH1 0x40 MLOAD DUP5 PUSH4 0xFFFFFFFF AND PUSH1 0xE0 SHL DUP2 MSTORE PUSH1 0x4 ADD PUSH2 0xBB1 SWAP4 SWAP3 SWAP2 SWAP1 PUSH2 0x1C8D JUMP JUMPDEST PUSH0 PUSH1 0x40 MLOAD DUP1 DUP4 SUB DUP2 PUSH0 DUP8 GAS CALL ISZERO DUP1 ISZERO PUSH2 0xBCC JUMPI RETURNDATASIZE PUSH0 DUP1 RETURNDATACOPY RETURNDATASIZE PUSH0 REVERT JUMPDEST POP POP POP POP PUSH1 0x40 MLOAD RETURNDATASIZE PUSH0 DUP3 RETURNDATACOPY RETURNDATASIZE PUSH1 0x1F NOT PUSH1 0x1F DUP3 ADD AND DUP3 ADD DUP1 PUSH1 0x40 MSTORE POP DUP2 ADD SWAP1 PUSH2 0xBF4 SWAP2 SWAP1 PUSH2 0x1DEC JUMP JUMPDEST SWAP1 POP PUSH0 DUP2 PUSH1 0x1 DUP2 MLOAD DUP2 LT PUSH2 0xC0B JUMPI PUSH2 0xC0A PUSH2 0x1B70 JUMP JUMPDEST JUMPDEST PUSH1 0x20 MUL PUSH1 0x20 ADD ADD MLOAD SWAP1 POP PUSH0 DUP2 DUP6 PUSH2 0xC22 SWAP2 SWAP1 PUSH2 0x1E33 JUMP JUMPDEST SWAP1 POP PUSH0 DUP1 PUSH0 PUSH1 0x1 PUSH0 SWAP1 SLOAD SWAP1 PUSH2 0x100 EXP SWAP1 DIV PUSH20 0xFFFFFFFFFFFFFFFFFFFFFFFFFFFFFFFFFFFFFFFF AND PUSH20 0xFFFFFFFFFFFFFFFFFFFFFFFFFFFFFFFFFFFFFFFF AND PUSH4 0xCF6C62EA PUSH32 0x0 PUSH32 0x0 DUP9 DUP9 PUSH1 0x40 MLOAD DUP6 PUSH4 0xFFFFFFFF AND PUSH1 0xE0 SHL DUP2 MSTORE PUSH1 0x4 ADD PUSH2 0xCC7 SWAP5 SWAP4 SWAP3 SWAP2 SWAP1 PUSH2 0x1E66 JUMP JUMPDEST PUSH1 0x60 PUSH1 0x40 MLOAD DUP1 DUP4 SUB DUP2 PUSH0 DUP8 GAS CALL ISZERO DUP1 ISZERO PUSH2 0xCE3 JUMPI RETURNDATASIZE PUSH0 DUP1 RETURNDATACOPY RETURNDATASIZE PUSH0 REVERT JUMPDEST POP POP POP POP PUSH1 0x40 MLOAD RETURNDATASIZE PUSH1 0x1F NOT PUSH1 0x1F DUP3 ADD AND DUP3 ADD DUP1 PUSH1 0x40 MSTORE POP DUP2 ADD SWAP1 PUSH2 0xD07 SWAP2 SWAP1 PUSH2 0x1EA9 JUMP JUMPDEST SWAP3 POP SWAP3 POP SWAP3 POP PUSH0 DUP1 SLOAD SWAP1 PUSH2 0x100 EXP SWAP1 DIV PUSH20 0xFFFFFFFFFFFFFFFFFFFFFFFFFFFFFFFFFFFFFFFF AND PUSH20 0xFFFFFFFFFFFFFFFFFFFFFFFFFFFFFFFFFFFFFFFF AND PUSH4 0xE2BBB158 DUP5 DUP5 PUSH1 0x40 MLOAD DUP4 PUSH4 0xFFFFFFFF AND PUSH1 0xE0 SHL DUP2 MSTORE PUSH1 0x4 ADD PUSH2 0xD67 SWAP3 SWAP2 SWAP1 PUSH2 0x1EF9 JUMP JUMPDEST PUSH1 0x20 PUSH1 0x40 MLOAD DUP1 DUP4 SUB DUP2 PUSH0 DUP8 GAS CALL ISZERO DUP1 ISZERO PUSH2 0xD83 JUMPI RETURNDATASIZE PUSH0 DUP1 RETURNDATACOPY RETURNDATASIZE PUSH0 REVERT JUMPDEST POP POP POP POP PUSH1 0x40 MLOAD RETURNDATASIZE PUSH1 0x1F NOT PUSH1 0x1F DUP3 ADD AND DUP3 ADD DUP1 PUSH1 0x40 MSTORE POP DUP2 ADD SWAP1 PUSH2 0xDA7 SWAP2 SWAP1 PUSH2 0x1920 JUMP JUMPDEST POP POP POP POP POP POP POP POP POP JUMP JUMPDEST PUSH2 0xDFF CALLER ADDRESS DUP5 PUSH32 0x0 PUSH20 0xFFFFFFFFFFFFFFFFFFFFFFFFFFFFFFFFFFFFFFFF AND PUSH2 0x13A5 SWAP1 SWAP4 SWAP3 SWAP2 SWAP1 PUSH4 0xFFFFFFFF AND JUMP JUMPDEST PUSH2 0xE4C CALLER ADDRESS DUP4 PUSH32 0x0 PUSH20 0xFFFFFFFFFFFFFFFFFFFFFFFFFFFFFFFFFFFFFFFF AND PUSH2 0x13A5 SWAP1 SWAP4 SWAP3 SWAP2 SWAP1 PUSH4 0xFFFFFFFF AND JUMP JUMPDEST PUSH32 0x0 PUSH20 0xFFFFFFFFFFFFFFFFFFFFFFFFFFFFFFFFFFFFFFFF AND PUSH4 0x95EA7B3 PUSH1 0x1 PUSH0 SWAP1 SLOAD SWAP1 PUSH2 0x100 EXP SWAP1 DIV PUSH20 0xFFFFFFFFFFFFFFFFFFFFFFFFFFFFFFFFFFFFFFFF AND DUP5 PUSH1 0x40 MLOAD DUP4 PUSH4 0xFFFFFFFF AND PUSH1 0xE0 SHL DUP2 MSTORE PUSH1 0x4 ADD PUSH2 0xEC8 SWAP3 SWAP2 SWAP1 PUSH2 0x1A87 JUMP JUMPDEST PUSH1 0x20 PUSH1 0x40 MLOAD DUP1 DUP4 SUB DUP2 PUSH0 DUP8 GAS CALL ISZERO DUP1 ISZERO PUSH2 0xEE4 JUMPI RETURNDATASIZE PUSH0 DUP1 RETURNDATACOPY RETURNDATASIZE PUSH0 REVERT JUMPDEST POP POP POP POP PUSH1 0x40 MLOAD RETURNDATASIZE PUSH1 0x1F NOT PUSH1 0x1F DUP3 ADD AND DUP3 ADD DUP1 PUSH1 0x40 MSTORE POP DUP2 ADD SWAP1 PUSH2 0xF08 SWAP2 SWAP1 PUSH2 0x1AE3 JUMP JUMPDEST POP PUSH32 0x0 PUSH20 0xFFFFFFFFFFFFFFFFFFFFFFFFFFFFFFFFFFFFFFFF AND PUSH4 0x95EA7B3 PUSH1 0x1 PUSH0 SWAP1 SLOAD SWAP1 PUSH2 0x100 EXP SWAP1 DIV PUSH20 0xFFFFFFFFFFFFFFFFFFFFFFFFFFFFFFFFFFFFFFFF AND DUP4 PUSH1 0x40 MLOAD DUP4 PUSH4 0xFFFFFFFF AND PUSH1 0xE0 SHL DUP2 MSTORE PUSH1 0x4 ADD PUSH2 0xF85 SWAP3 SWAP2 SWAP1 PUSH2 0x1A87 JUMP JUMPDEST PUSH1 0x20 PUSH1 0x40 MLOAD DUP1 DUP4 SUB DUP2 PUSH0 DUP8 GAS CALL ISZERO DUP1 ISZERO PUSH2 0xFA1 JUMPI RETURNDATASIZE PUSH0 DUP1 RETURNDATACOPY RETURNDATASIZE PUSH0 REVERT JUMPDEST POP POP POP POP PUSH1 0x40 MLOAD RETURNDATASIZE PUSH1 0x1F NOT PUSH1 0x1F DUP3 ADD AND DUP3 ADD DUP1 PUSH1 0x40 MSTORE POP DUP2 ADD SWAP1 PUSH2 0xFC5 SWAP2 SWAP1 PUSH2 0x1AE3 JUMP JUMPDEST POP PUSH0 DUP1 PUSH0 PUSH1 0x1 PUSH0 SWAP1 SLOAD SWAP1 PUSH2 0x100 EXP SWAP1 DIV PUSH20 0xFFFFFFFFFFFFFFFFFFFFFFFFFFFFFFFFFFFFFFFF AND PUSH20 0xFFFFFFFFFFFFFFFFFFFFFFFFFFFFFFFFFFFFFFFF AND PUSH4 0xCF6C62EA PUSH32 0x0 PUSH32 0x0 DUP9 DUP9 PUSH1 0x40 MLOAD DUP6 PUSH4 0xFFFFFFFF AND PUSH1 0xE0 SHL DUP2 MSTORE PUSH1 0x4 ADD PUSH2 0x1069 SWAP5 SWAP4 SWAP3 SWAP2 SWAP1 PUSH2 0x1E66 JUMP JUMPDEST PUSH1 0x60 PUSH1 0x40 MLOAD DUP1 DUP4 SUB DUP2 PUSH0 DUP8 GAS CALL ISZERO DUP1 ISZERO PUSH2 0x1085 JUMPI RETURNDATASIZE PUSH0 DUP1 RETURNDATACOPY RETURNDATASIZE PUSH0 REVERT JUMPDEST POP POP POP POP PUSH1 0x40 MLOAD RETURNDATASIZE PUSH1 0x1F NOT PUSH1 0x1F DUP3 ADD AND DUP3 ADD DUP1 PUSH1 0x40 MSTORE POP DUP2 ADD SWAP1 PUSH2 0x10A9 SWAP2 SWAP1 PUSH2 0x1EA9 JUMP JUMPDEST SWAP3 POP SWAP3 POP SWAP3 POP PUSH0 DUP1 SLOAD SWAP1 PUSH2 0x100 EXP SWAP1 DIV PUSH20 0xFFFFFFFFFFFFFFFFFFFFFFFFFFFFFFFFFFFFFFFF AND PUSH20 0xFFFFFFFFFFFFFFFFFFFFFFFFFFFFFFFFFFFFFFFF AND PUSH4 0xE2BBB158 DUP5 DUP5 PUSH1 0x40 MLOAD DUP4 PUSH4 0xFFFFFFFF AND PUSH1 0xE0 SHL DUP2 MSTORE PUSH1 0x4 ADD PUSH2 0x1109 SWAP3 SWAP2 SWAP1 PUSH2 0x1EF9 JUMP JUMPDEST PUSH1 0x20 PUSH1 0x40 MLOAD DUP1 DUP4 SUB DUP2 PUSH0 DUP8 GAS CALL ISZERO DUP1 ISZERO PUSH2 0x1125 JUMPI RETURNDATASIZE PUSH0 DUP1 RETURNDATACOPY RETURNDATASIZE PUSH0 REVERT JUMPDEST POP POP POP POP PUSH1 0x40 MLOAD RETURNDATASIZE PUSH1 0x1F NOT PUSH1 0x1F DUP3 ADD AND DUP3 ADD DUP1 PUSH1 0x40 MSTORE POP DUP2 ADD SWAP1 PUSH2 0x1149 SWAP2 SWAP1 PUSH2 0x1920 JUMP JUMPDEST POP PUSH0 DUP1 SLOAD SWAP1 PUSH2 0x100 EXP SWAP1 DIV PUSH20 0xFFFFFFFFFFFFFFFFFFFFFFFFFFFFFFFFFFFFFFFF AND PUSH20 0xFFFFFFFFFFFFFFFFFFFFFFFFFFFFFFFFFFFFFFFF AND PUSH4 0x95EA7B3 PUSH1 0x2 PUSH0 SWAP1 SLOAD SWAP1 PUSH2 0x100 EXP SWAP1 DIV PUSH20 0xFFFFFFFFFFFFFFFFFFFFFFFFFFFFFFFFFFFFFFFF AND DUP4 PUSH1 0x40 MLOAD DUP4 PUSH4 0xFFFFFFFF AND PUSH1 0xE0 SHL DUP2 MSTORE PUSH1 0x4 ADD PUSH2 0x11C5 SWAP3 SWAP2 SWAP1 PUSH2 0x1A87 JUMP JUMPDEST PUSH1 0x20 PUSH1 0x40 MLOAD DUP1 DUP4 SUB DUP2 PUSH0 DUP8 GAS CALL ISZERO DUP1 ISZERO PUSH2 0x11E1 JUMPI RETURNDATASIZE PUSH0 DUP1 RETURNDATACOPY RETURNDATASIZE PUSH0 REVERT JUMPDEST POP POP POP POP PUSH1 0x40 MLOAD RETURNDATASIZE PUSH1 0x1F NOT PUSH1 0x1F DUP3 ADD AND DUP3 ADD DUP1 PUSH1 0x40 MSTORE POP DUP2 ADD SWAP1 PUSH2 0x1205 SWAP2 SWAP1 PUSH2 0x1AE3 JUMP JUMPDEST POP PUSH1 0x2 PUSH0 SWAP1 SLOAD SWAP1 PUSH2 0x100 EXP SWAP1 DIV PUSH20 0xFFFFFFFFFFFFFFFFFFFFFFFFFFFFFFFFFFFFFFFF AND PUSH20 0xFFFFFFFFFFFFFFFFFFFFFFFFFFFFFFFFFFFFFFFF AND PUSH4 0xA694FC3A DUP3 PUSH1 0x40 MLOAD DUP3 PUSH4 0xFFFFFFFF AND PUSH1 0xE0 SHL DUP2 MSTORE PUSH1 0x4 ADD PUSH2 0x1260 SWAP2 SWAP1 PUSH2 0x1719 JUMP JUMPDEST PUSH0 PUSH1 0x40 MLOAD DUP1 DUP4 SUB DUP2 PUSH0 DUP8 DUP1 EXTCODESIZE ISZERO DUP1 ISZERO PUSH2 0x1277 JUMPI PUSH0 DUP1 REVERT JUMPDEST POP GAS CALL ISZERO DUP1 ISZERO PUSH2 0x1289 JUMPI RETURNDATASIZE PUSH0 DUP1 RETURNDATACOPY RETURNDATASIZE PUSH0 REVERT JUMPDEST POP POP POP POP POP POP POP POP POP JUMP JUMPDEST PUSH1 0x2 PUSH0 SWAP1 SLOAD SWAP1 PUSH2 0x100 EXP SWAP1 DIV PUSH20 0xFFFFFFFFFFFFFFFFFFFFFFFFFFFFFFFFFFFFFFFF AND DUP2 JUMP JUMPDEST PUSH1 0x3 PUSH0 SWAP1 SLOAD SWAP1 PUSH2 0x100 EXP SWAP1 DIV PUSH20 0xFFFFFFFFFFFFFFFFFFFFFFFFFFFFFFFFFFFFFFFF AND DUP2 JUMP JUMPDEST PUSH1 0x1 PUSH0 SWAP1 SLOAD SWAP1 PUSH2 0x100 EXP SWAP1 DIV PUSH20 0xFFFFFFFFFFFFFFFFFFFFFFFFFFFFFFFFFFFFFFFF AND DUP2 JUMP JUMPDEST PUSH0 DUP1 SLOAD SWAP1 PUSH2 0x100 EXP SWAP1 DIV PUSH20 0xFFFFFFFFFFFFFFFFFFFFFFFFFFFFFFFFFFFFFFFF AND DUP2 JUMP JUMPDEST PUSH2 0x13A0 DUP4 DUP5 PUSH20 0xFFFFFFFFFFFFFFFFFFFFFFFFFFFFFFFFFFFFFFFF AND PUSH4 0xA9059CBB DUP6 DUP6 PUSH1 0x40 MLOAD PUSH1 0x24 ADD PUSH2 0x1359 SWAP3 SWAP2 SWAP1 PUSH2 0x1A87 JUMP JUMPDEST PUSH1 0x40 MLOAD PUSH1 0x20 DUP2 DUP4 SUB SUB DUP2 MSTORE SWAP1 PUSH1 0x40 MSTORE SWAP2 POP PUSH1 0xE0 SHL PUSH1 0x20 DUP3 ADD DUP1 MLOAD PUSH28 0xFFFFFFFFFFFFFFFFFFFFFFFFFFFFFFFFFFFFFFFFFFFFFFFFFFFFFFFF DUP4 DUP2 DUP4 AND OR DUP4 MSTORE POP POP POP POP PUSH2 0x1427 JUMP JUMPDEST POP POP POP JUMP JUMPDEST PUSH2 0x1421 DUP5 DUP6 PUSH20 0xFFFFFFFFFFFFFFFFFFFFFFFFFFFFFFFFFFFFFFFF AND PUSH4 0x23B872DD DUP7 DUP7 DUP7 PUSH1 0x40 MLOAD PUSH1 0x24 ADD PUSH2 0x13DA SWAP4 SWAP3 SWAP2 SWAP1 PUSH2 0x1B0E JUMP JUMPDEST PUSH1 0x40 MLOAD PUSH1 0x20 DUP2 DUP4 SUB SUB DUP2 MSTORE SWAP1 PUSH1 0x40 MSTORE SWAP2 POP PUSH1 0xE0 SHL PUSH1 0x20 DUP3 ADD DUP1 MLOAD PUSH28 0xFFFFFFFFFFFFFFFFFFFFFFFFFFFFFFFFFFFFFFFFFFFFFFFFFFFFFFFF DUP4 DUP2 DUP4 AND OR DUP4 MSTORE POP POP POP POP PUSH2 0x1427 JUMP JUMPDEST POP POP POP POP JUMP JUMPDEST PUSH0 PUSH2 0x1451 DUP3 DUP5 PUSH20 0xFFFFFFFFFFFFFFFFFFFFFFFFFFFFFFFFFFFFFFFF AND PUSH2 0x14BC SWAP1 SWAP2 SWAP1 PUSH4 0xFFFFFFFF AND JUMP JUMPDEST SWAP1 POP PUSH0 DUP2 MLOAD EQ ISZERO DUP1 ISZERO PUSH2 0x1475 JUMPI POP DUP1 DUP1 PUSH1 0x20 ADD SWAP1 MLOAD DUP2 ADD SWAP1 PUSH2 0x1473 SWAP2 SWAP1 PUSH2 0x1AE3 JUMP JUMPDEST ISZERO JUMPDEST ISZERO PUSH2 0x14B7 JUMPI DUP3 PUSH1 0x40 MLOAD PUSH32 0x5274AFE700000000000000000000000000000000000000000000000000000000 DUP2 MSTORE PUSH1 0x4 ADD PUSH2 0x14AE SWAP2 SWAP1 PUSH2 0x1741 JUMP JUMPDEST PUSH1 0x40 MLOAD DUP1 SWAP2 SUB SWAP1 REVERT JUMPDEST POP POP POP JUMP JUMPDEST PUSH1 0x60 PUSH2 0x14C9 DUP4 DUP4 PUSH0 PUSH2 0x14D1 JUMP JUMPDEST SWAP1 POP SWAP3 SWAP2 POP POP JUMP JUMPDEST PUSH1 0x60 DUP2 SELFBALANCE LT ISZERO PUSH2 0x1518 JUMPI ADDRESS PUSH1 0x40 MLOAD PUSH32 0xCD78605900000000000000000000000000000000000000000000000000000000 DUP2 MSTORE PUSH1 0x4 ADD PUSH2 0x150F SWAP2 SWAP1 PUSH2 0x1741 JUMP JUMPDEST PUSH1 0x40 MLOAD DUP1 SWAP2 SUB SWAP1 REVERT JUMPDEST PUSH0 DUP1 DUP6 PUSH20 0xFFFFFFFFFFFFFFFFFFFFFFFFFFFFFFFFFFFFFFFF AND DUP5 DUP7 PUSH1 0x40 MLOAD PUSH2 0x1540 SWAP2 SWAP1 PUSH2 0x1F72 JUMP JUMPDEST PUSH0 PUSH1 0x40 MLOAD DUP1 DUP4 SUB DUP2 DUP6 DUP8 GAS CALL SWAP3 POP POP POP RETURNDATASIZE DUP1 PUSH0 DUP2 EQ PUSH2 0x157A JUMPI PUSH1 0x40 MLOAD SWAP2 POP PUSH1 0x1F NOT PUSH1 0x3F RETURNDATASIZE ADD AND DUP3 ADD PUSH1 0x40 MSTORE RETURNDATASIZE DUP3 MSTORE RETURNDATASIZE PUSH0 PUSH1 0x20 DUP5 ADD RETURNDATACOPY PUSH2 0x157F JUMP JUMPDEST PUSH1 0x60 SWAP2 POP JUMPDEST POP SWAP2 POP SWAP2 POP PUSH2 0x158F DUP7 DUP4 DUP4 PUSH2 0x159A JUMP JUMPDEST SWAP3 POP POP POP SWAP4 SWAP3 POP POP POP JUMP JUMPDEST PUSH1 0x60 DUP3 PUSH2 0x15AF JUMPI PUSH2 0x15AA DUP3 PUSH2 0x1627 JUMP JUMPDEST PUSH2 0x161F JUMP JUMPDEST PUSH0 DUP3 MLOAD EQ DUP1 ISZERO PUSH2 0x15D5 JUMPI POP PUSH0 DUP5 PUSH20 0xFFFFFFFFFFFFFFFFFFFFFFFFFFFFFFFFFFFFFFFF AND EXTCODESIZE EQ JUMPDEST ISZERO PUSH2 0x1617 JUMPI DUP4 PUSH1 0x40 MLOAD PUSH32 0x9996B31500000000000000000000000000000000000000000000000000000000 DUP2 MSTORE PUSH1 0x4 ADD PUSH2 0x160E SWAP2 SWAP1 PUSH2 0x1741 JUMP JUMPDEST PUSH1 0x40 MLOAD DUP1 SWAP2 SUB SWAP1 REVERT JUMPDEST DUP2 SWAP1 POP PUSH2 0x1620 JUMP JUMPDEST JUMPDEST SWAP4 SWAP3 POP POP POP JUMP JUMPDEST PUSH0 DUP2 MLOAD GT ISZERO PUSH2 0x1639 JUMPI DUP1 MLOAD DUP1 DUP3 PUSH1 0x20 ADD REVERT JUMPDEST PUSH1 0x40 MLOAD PUSH32 0x1425EA4200000000000000000000000000000000000000000000000000000000 DUP2 MSTORE PUSH1 0x4 ADD PUSH1 0x40 MLOAD DUP1 SWAP2 SUB SWAP1 REVERT JUMPDEST PUSH0 PUSH1 0x40 MLOAD SWAP1 POP SWAP1 JUMP JUMPDEST PUSH0 DUP1 REVERT JUMPDEST PUSH0 DUP1 REVERT JUMPDEST PUSH0 PUSH20 0xFFFFFFFFFFFFFFFFFFFFFFFFFFFFFFFFFFFFFFFF DUP3 AND SWAP1 POP SWAP2 SWAP1 POP JUMP JUMPDEST PUSH0 PUSH2 0x16A5 DUP3 PUSH2 0x167C JUMP JUMPDEST SWAP1 POP SWAP2 SWAP1 POP JUMP JUMPDEST PUSH2 0x16B5 DUP2 PUSH2 0x169B JUMP JUMPDEST DUP2 EQ PUSH2 0x16BF JUMPI PUSH0 DUP1 REVERT JUMPDEST POP JUMP JUMPDEST PUSH0 DUP2 CALLDATALOAD SWAP1 POP PUSH2 0x16D0 DUP2 PUSH2 0x16AC JUMP JUMPDEST SWAP3 SWAP2 POP POP JUMP JUMPDEST PUSH0 PUSH1 0x20 DUP3 DUP5 SUB SLT ISZERO PUSH2 0x16EB JUMPI PUSH2 0x16EA PUSH2 0x1674 JUMP JUMPDEST JUMPDEST PUSH0 PUSH2 0x16F8 DUP5 DUP3 DUP6 ADD PUSH2 0x16C2 JUMP JUMPDEST SWAP2 POP POP SWAP3 SWAP2 POP POP JUMP JUMPDEST PUSH0 DUP2 SWAP1 POP SWAP2 SWAP1 POP JUMP JUMPDEST PUSH2 0x1713 DUP2 PUSH2 0x1701 JUMP JUMPDEST DUP3 MSTORE POP POP JUMP JUMPDEST PUSH0 PUSH1 0x20 DUP3 ADD SWAP1 POP PUSH2 0x172C PUSH0 DUP4 ADD DUP5 PUSH2 0x170A JUMP JUMPDEST SWAP3 SWAP2 POP POP JUMP JUMPDEST PUSH2 0x173B DUP2 PUSH2 0x169B JUMP JUMPDEST DUP3 MSTORE POP POP JUMP JUMPDEST PUSH0 PUSH1 0x20 DUP3 ADD SWAP1 POP PUSH2 0x1754 PUSH0 DUP4 ADD DUP5 PUSH2 0x1732 JUMP JUMPDEST SWAP3 SWAP2 POP POP JUMP JUMPDEST PUSH2 0x1763 DUP2 PUSH2 0x1701 JUMP JUMPDEST DUP2 EQ PUSH2 0x176D JUMPI PUSH0 DUP1 REVERT JUMPDEST POP JUMP JUMPDEST PUSH0 DUP2 CALLDATALOAD SWAP1 POP PUSH2 0x177E DUP2 PUSH2 0x175A JUMP JUMPDEST SWAP3 SWAP2 POP POP JUMP JUMPDEST PUSH0 PUSH1 0x20 DUP3 DUP5 SUB SLT ISZERO PUSH2 0x1799 JUMPI PUSH2 0x1798 PUSH2 0x1674 JUMP JUMPDEST JUMPDEST PUSH0 PUSH2 0x17A6 DUP5 DUP3 DUP6 ADD PUSH2 0x1770 JUMP JUMPDEST SWAP2 POP POP SWAP3 SWAP2 POP POP JUMP JUMPDEST PUSH0 DUP1 PUSH1 0x40 DUP4 DUP6 SUB SLT ISZERO PUSH2 0x17C5 JUMPI PUSH2 0x17C4 PUSH2 0x1674 JUMP JUMPDEST JUMPDEST PUSH0 PUSH2 0x17D2 DUP6 DUP3 DUP7 ADD PUSH2 0x1770 JUMP JUMPDEST SWAP3 POP POP PUSH1 0x20 PUSH2 0x17E3 DUP6 DUP3 DUP7 ADD PUSH2 0x1770 JUMP JUMPDEST SWAP2 POP POP SWAP3 POP SWAP3 SWAP1 POP JUMP JUMPDEST PUSH0 DUP2 SWAP1 POP SWAP2 SWAP1 POP JUMP JUMPDEST PUSH0 PUSH2 0x1810 PUSH2 0x180B PUSH2 0x1806 DUP5 PUSH2 0x167C JUMP JUMPDEST PUSH2 0x17ED JUMP JUMPDEST PUSH2 0x167C JUMP JUMPDEST SWAP1 POP SWAP2 SWAP1 POP JUMP JUMPDEST PUSH0 PUSH2 0x1821 DUP3 PUSH2 0x17F6 JUMP JUMPDEST SWAP1 POP SWAP2 SWAP1 POP JUMP JUMPDEST PUSH0 PUSH2 0x1832 DUP3 PUSH2 0x1817 JUMP JUMPDEST SWAP1 POP SWAP2 SWAP1 POP JUMP JUMPDEST PUSH2 0x1842 DUP2 PUSH2 0x1828 JUMP JUMPDEST DUP3 MSTORE POP POP JUMP JUMPDEST PUSH0 PUSH1 0x20 DUP3 ADD SWAP1 POP PUSH2 0x185B PUSH0 DUP4 ADD DUP5 PUSH2 0x1839 JUMP JUMPDEST SWAP3 SWAP2 POP POP JUMP JUMPDEST PUSH0 PUSH2 0x186B DUP3 PUSH2 0x1817 JUMP JUMPDEST SWAP1 POP SWAP2 SWAP1 POP JUMP JUMPDEST PUSH2 0x187B DUP2 PUSH2 0x1861 JUMP JUMPDEST DUP3 MSTORE POP POP JUMP JUMPDEST PUSH0 PUSH1 0x20 DUP3 ADD SWAP1 POP PUSH2 0x1894 PUSH0 DUP4 ADD DUP5 PUSH2 0x1872 JUMP JUMPDEST SWAP3 SWAP2 POP POP JUMP JUMPDEST PUSH0 PUSH2 0x18A4 DUP3 PUSH2 0x1817 JUMP JUMPDEST SWAP1 POP SWAP2 SWAP1 POP JUMP JUMPDEST PUSH2 0x18B4 DUP2 PUSH2 0x189A JUMP JUMPDEST DUP3 MSTORE POP POP JUMP JUMPDEST PUSH0 PUSH1 0x20 DUP3 ADD SWAP1 POP PUSH2 0x18CD PUSH0 DUP4 ADD DUP5 PUSH2 0x18AB JUMP JUMPDEST SWAP3 SWAP2 POP POP JUMP JUMPDEST PUSH0 PUSH2 0x18DD DUP3 PUSH2 0x1817 JUMP JUMPDEST SWAP1 POP SWAP2 SWAP1 POP JUMP JUMPDEST PUSH2 0x18ED DUP2 PUSH2 0x18D3 JUMP JUMPDEST DUP3 MSTORE POP POP JUMP JUMPDEST PUSH0 PUSH1 0x20 DUP3 ADD SWAP1 POP PUSH2 0x1906 PUSH0 DUP4 ADD DUP5 PUSH2 0x18E4 JUMP JUMPDEST SWAP3 SWAP2 POP POP JUMP JUMPDEST PUSH0 DUP2 MLOAD SWAP1 POP PUSH2 0x191A DUP2 PUSH2 0x175A JUMP JUMPDEST SWAP3 SWAP2 POP POP JUMP JUMPDEST PUSH0 PUSH1 0x20 DUP3 DUP5 SUB SLT ISZERO PUSH2 0x1935 JUMPI PUSH2 0x1934 PUSH2 0x1674 JUMP JUMPDEST JUMPDEST PUSH0 PUSH2 0x1942 DUP5 DUP3 DUP6 ADD PUSH2 0x190C JUMP JUMPDEST SWAP2 POP POP SWAP3 SWAP2 POP POP JUMP JUMPDEST PUSH32 0x4E487B7100000000000000000000000000000000000000000000000000000000 PUSH0 MSTORE PUSH1 0x11 PUSH1 0x4 MSTORE PUSH1 0x24 PUSH0 REVERT JUMPDEST PUSH0 PUSH2 0x1982 DUP3 PUSH2 0x1701 JUMP JUMPDEST SWAP2 POP PUSH2 0x198D DUP4 PUSH2 0x1701 JUMP JUMPDEST SWAP3 POP DUP3 DUP3 MUL PUSH2 0x199B DUP2 PUSH2 0x1701 JUMP JUMPDEST SWAP2 POP DUP3 DUP3 DIV DUP5 EQ DUP4 ISZERO OR PUSH2 0x19B2 JUMPI PUSH2 0x19B1 PUSH2 0x194B JUMP JUMPDEST JUMPDEST POP SWAP3 SWAP2 POP POP JUMP JUMPDEST PUSH32 0x4E487B7100000000000000000000000000000000000000000000000000000000 PUSH0 MSTORE PUSH1 0x12 PUSH1 0x4 MSTORE PUSH1 0x24 PUSH0 REVERT JUMPDEST PUSH0 PUSH2 0x19F0 DUP3 PUSH2 0x1701 JUMP JUMPDEST SWAP2 POP PUSH2 0x19FB DUP4 PUSH2 0x1701 JUMP JUMPDEST SWAP3 POP DUP3 PUSH2 0x1A0B JUMPI PUSH2 0x1A0A PUSH2 0x19B9 JUMP JUMPDEST JUMPDEST DUP3 DUP3 DIV SWAP1 POP SWAP3 SWAP2 POP POP JUMP JUMPDEST PUSH0 DUP1 PUSH1 0x40 DUP4 DUP6 SUB SLT ISZERO PUSH2 0x1A2C JUMPI PUSH2 0x1A2B PUSH2 0x1674 JUMP JUMPDEST JUMPDEST PUSH0 PUSH2 0x1A39 DUP6 DUP3 DUP7 ADD PUSH2 0x190C JUMP JUMPDEST SWAP3 POP POP PUSH1 0x20 PUSH2 0x1A4A DUP6 DUP3 DUP7 ADD PUSH2 0x190C JUMP JUMPDEST SWAP2 POP POP SWAP3 POP SWAP3 SWAP1 POP JUMP JUMPDEST PUSH0 PUSH2 0x1A5E DUP3 PUSH2 0x1701 JUMP JUMPDEST SWAP2 POP PUSH2 0x1A69 DUP4 PUSH2 0x1701 JUMP JUMPDEST SWAP3 POP DUP3 DUP3 ADD SWAP1 POP DUP1 DUP3 GT ISZERO PUSH2 0x1A81 JUMPI PUSH2 0x1A80 PUSH2 0x194B JUMP JUMPDEST JUMPDEST SWAP3 SWAP2 POP POP JUMP JUMPDEST PUSH0 PUSH1 0x40 DUP3 ADD SWAP1 POP PUSH2 0x1A9A PUSH0 DUP4 ADD DUP6 PUSH2 0x1732 JUMP JUMPDEST PUSH2 0x1AA7 PUSH1 0x20 DUP4 ADD DUP5 PUSH2 0x170A JUMP JUMPDEST SWAP4 SWAP3 POP POP POP JUMP JUMPDEST PUSH0 DUP2 ISZERO ISZERO SWAP1 POP SWAP2 SWAP1 POP JUMP JUMPDEST PUSH2 0x1AC2 DUP2 PUSH2 0x1AAE JUMP JUMPDEST DUP2 EQ PUSH2 0x1ACC JUMPI PUSH0 DUP1 REVERT JUMPDEST POP JUMP JUMPDEST PUSH0 DUP2 MLOAD SWAP1 POP PUSH2 0x1ADD DUP2 PUSH2 0x1AB9 JUMP JUMPDEST SWAP3 SWAP2 POP POP JUMP JUMPDEST PUSH0 PUSH1 0x20 DUP3 DUP5 SUB SLT ISZERO PUSH2 0x1AF8 JUMPI PUSH2 0x1AF7 PUSH2 0x1674 JUMP JUMPDEST JUMPDEST PUSH0 PUSH2 0x1B05 DUP5 DUP3 DUP6 ADD PUSH2 0x1ACF JUMP JUMPDEST SWAP2 POP POP SWAP3 SWAP2 POP POP JUMP JUMPDEST PUSH0 PUSH1 0x60 DUP3 ADD SWAP1 POP PUSH2 0x1B21 PUSH0 DUP4 ADD DUP7 PUSH2 0x1732 JUMP JUMPDEST PUSH2 0x1B2E PUSH1 0x20 DUP4 ADD DUP6 PUSH2 0x1732 JUMP JUMPDEST PUSH2 0x1B3B PUSH1 0x40 DUP4 ADD DUP5 PUSH2 0x170A JUMP JUMPDEST SWAP5 SWAP4 POP POP POP POP JUMP JUMPDEST PUSH32 0x4E487B7100000000000000000000000000000000000000000000000000000000 PUSH0 MSTORE PUSH1 0x41 PUSH1 0x4 MSTORE PUSH1 0x24 PUSH0 REVERT JUMPDEST PUSH32 0x4E487B7100000000000000000000000000000000000000000000000000000000 PUSH0 MSTORE PUSH1 0x32 PUSH1 0x4 MSTORE PUSH1 0x24 PUSH0 REVERT JUMPDEST PUSH0 DUP2 SWAP1 POP SWAP2 SWAP1 POP JUMP JUMPDEST PUSH0 PUSH2 0x1BC0 PUSH2 0x1BBB PUSH2 0x1BB6 DUP5 PUSH2 0x1B9D JUMP JUMPDEST PUSH2 0x17ED JUMP JUMPDEST PUSH2 0x1701 JUMP JUMPDEST SWAP1 POP SWAP2 SWAP1 POP JUMP JUMPDEST PUSH2 0x1BD0 DUP2 PUSH2 0x1BA6 JUMP JUMPDEST DUP3 MSTORE POP POP JUMP JUMPDEST PUSH0 DUP2 MLOAD SWAP1 POP SWAP2 SWAP1 POP JUMP JUMPDEST PUSH0 DUP3 DUP3 MSTORE PUSH1 0x20 DUP3 ADD SWAP1 POP SWAP3 SWAP2 POP POP JUMP JUMPDEST PUSH0 DUP2 SWAP1 POP PUSH1 0x20 DUP3 ADD SWAP1 POP SWAP2 SWAP1 POP JUMP JUMPDEST PUSH2 0x1C08 DUP2 PUSH2 0x169B JUMP JUMPDEST DUP3 MSTORE POP POP JUMP JUMPDEST PUSH0 PUSH2 0x1C19 DUP4 DUP4 PUSH2 0x1BFF JUMP JUMPDEST PUSH1 0x20 DUP4 ADD SWAP1 POP SWAP3 SWAP2 POP POP JUMP JUMPDEST PUSH0 PUSH1 0x20 DUP3 ADD SWAP1 POP SWAP2 SWAP1 POP JUMP JUMPDEST PUSH0 PUSH2 0x1C3B DUP3 PUSH2 0x1BD6 JUMP JUMPDEST PUSH2 0x1C45 DUP2 DUP6 PUSH2 0x1BE0 JUMP JUMPDEST SWAP4 POP PUSH2 0x1C50 DUP4 PUSH2 0x1BF0 JUMP JUMPDEST DUP1 PUSH0 JUMPDEST DUP4 DUP2 LT ISZERO PUSH2 0x1C80 JUMPI DUP2 MLOAD PUSH2 0x1C67 DUP9 DUP3 PUSH2 0x1C0E JUMP JUMPDEST SWAP8 POP PUSH2 0x1C72 DUP4 PUSH2 0x1C25 JUMP JUMPDEST SWAP3 POP POP PUSH1 0x1 DUP2 ADD SWAP1 POP PUSH2 0x1C53 JUMP JUMPDEST POP DUP6 SWAP4 POP POP POP POP SWAP3 SWAP2 POP POP JUMP JUMPDEST PUSH0 PUSH1 0x60 DUP3 ADD SWAP1 POP PUSH2 0x1CA0 PUSH0 DUP4 ADD DUP7 PUSH2 0x170A JUMP JUMPDEST PUSH2 0x1CAD PUSH1 0x20 DUP4 ADD DUP6 PUSH2 0x1BC7 JUMP JUMPDEST DUP2 DUP2 SUB PUSH1 0x40 DUP4 ADD MSTORE PUSH2 0x1CBF DUP2 DUP5 PUSH2 0x1C31 JUMP JUMPDEST SWAP1 POP SWAP5 SWAP4 POP POP POP POP JUMP JUMPDEST PUSH0 DUP1 REVERT JUMPDEST PUSH0 PUSH1 0x1F NOT PUSH1 0x1F DUP4 ADD AND SWAP1 POP SWAP2 SWAP1 POP JUMP JUMPDEST PUSH2 0x1CE6 DUP3 PUSH2 0x1CCD JUMP JUMPDEST DUP2 ADD DUP2 DUP2 LT PUSH8 0xFFFFFFFFFFFFFFFF DUP3 GT OR ISZERO PUSH2 0x1D05 JUMPI PUSH2 0x1D04 PUSH2 0x1B43 JUMP JUMPDEST JUMPDEST DUP1 PUSH1 0x40 MSTORE POP POP POP JUMP JUMPDEST PUSH0 PUSH2 0x1D17 PUSH2 0x166B JUMP JUMPDEST SWAP1 POP PUSH2 0x1D23 DUP3 DUP3 PUSH2 0x1CDD JUMP JUMPDEST SWAP2 SWAP1 POP JUMP JUMPDEST PUSH0 PUSH8 0xFFFFFFFFFFFFFFFF DUP3 GT ISZERO PUSH2 0x1D42 JUMPI PUSH2 0x1D41 PUSH2 0x1B43 JUMP JUMPDEST JUMPDEST PUSH1 0x20 DUP3 MUL SWAP1 POP PUSH1 0x20 DUP2 ADD SWAP1 POP SWAP2 SWAP1 POP JUMP JUMPDEST PUSH0 DUP1 REVERT JUMPDEST PUSH0 PUSH2 0x1D69 PUSH2 0x1D64 DUP5 PUSH2 0x1D28 JUMP JUMPDEST PUSH2 0x1D0E JUMP JUMPDEST SWAP1 POP DUP1 DUP4 DUP3 MSTORE PUSH1 0x20 DUP3 ADD SWAP1 POP PUSH1 0x20 DUP5 MUL DUP4 ADD DUP6 DUP2 GT ISZERO PUSH2 0x1D8C JUMPI PUSH2 0x1D8B PUSH2 0x1D53 JUMP JUMPDEST JUMPDEST DUP4 JUMPDEST DUP2 DUP2 LT ISZERO PUSH2 0x1DB5 JUMPI DUP1 PUSH2 0x1DA1 DUP9 DUP3 PUSH2 0x190C JUMP JUMPDEST DUP5 MSTORE PUSH1 0x20 DUP5 ADD SWAP4 POP POP PUSH1 0x20 DUP2 ADD SWAP1 POP PUSH2 0x1D8E JUMP JUMPDEST POP POP POP SWAP4 SWAP3 POP POP POP JUMP JUMPDEST PUSH0 DUP3 PUSH1 0x1F DUP4 ADD SLT PUSH2 0x1DD3 JUMPI PUSH2 0x1DD2 PUSH2 0x1CC9 JUMP JUMPDEST JUMPDEST DUP2 MLOAD PUSH2 0x1DE3 DUP5 DUP3 PUSH1 0x20 DUP7 ADD PUSH2 0x1D57 JUMP JUMPDEST SWAP2 POP POP SWAP3 SWAP2 POP POP JUMP JUMPDEST PUSH0 PUSH1 0x20 DUP3 DUP5 SUB SLT ISZERO PUSH2 0x1E01 JUMPI PUSH2 0x1E00 PUSH2 0x1674 JUMP JUMPDEST JUMPDEST PUSH0 DUP3 ADD MLOAD PUSH8 0xFFFFFFFFFFFFFFFF DUP2 GT ISZERO PUSH2 0x1E1E JUMPI PUSH2 0x1E1D PUSH2 0x1678 JUMP JUMPDEST JUMPDEST PUSH2 0x1E2A DUP5 DUP3 DUP6 ADD PUSH2 0x1DBF JUMP JUMPDEST SWAP2 POP POP SWAP3 SWAP2 POP POP JUMP JUMPDEST PUSH0 PUSH2 0x1E3D DUP3 PUSH2 0x1701 JUMP JUMPDEST SWAP2 POP PUSH2 0x1E48 DUP4 PUSH2 0x1701 JUMP JUMPDEST SWAP3 POP DUP3 DUP3 SUB SWAP1 POP DUP2 DUP2 GT ISZERO PUSH2 0x1E60 JUMPI PUSH2 0x1E5F PUSH2 0x194B JUMP JUMPDEST JUMPDEST SWAP3 SWAP2 POP POP JUMP JUMPDEST PUSH0 PUSH1 0x80 DUP3 ADD SWAP1 POP PUSH2 0x1E79 PUSH0 DUP4 ADD DUP8 PUSH2 0x1732 JUMP JUMPDEST PUSH2 0x1E86 PUSH1 0x20 DUP4 ADD DUP7 PUSH2 0x1732 JUMP JUMPDEST PUSH2 0x1E93 PUSH1 0x40 DUP4 ADD DUP6 PUSH2 0x170A JUMP JUMPDEST PUSH2 0x1EA0 PUSH1 0x60 DUP4 ADD DUP5 PUSH2 0x170A JUMP JUMPDEST SWAP6 SWAP5 POP POP POP POP POP JUMP JUMPDEST PUSH0 DUP1 PUSH0 PUSH1 0x60 DUP5 DUP7 SUB SLT ISZERO PUSH2 0x1EC0 JUMPI PUSH2 0x1EBF PUSH2 0x1674 JUMP JUMPDEST JUMPDEST PUSH0 PUSH2 0x1ECD DUP7 DUP3 DUP8 ADD PUSH2 0x190C JUMP JUMPDEST SWAP4 POP POP PUSH1 0x20 PUSH2 0x1EDE DUP7 DUP3 DUP8 ADD PUSH2 0x190C JUMP JUMPDEST SWAP3 POP POP PUSH1 0x40 PUSH2 0x1EEF DUP7 DUP3 DUP8 ADD PUSH2 0x190C JUMP JUMPDEST SWAP2 POP POP SWAP3 POP SWAP3 POP SWAP3 JUMP JUMPDEST PUSH0 PUSH1 0x40 DUP3 ADD SWAP1 POP PUSH2 0x1F0C PUSH0 DUP4 ADD DUP6 PUSH2 0x170A JUMP JUMPDEST PUSH2 0x1F19 PUSH1 0x20 DUP4 ADD DUP5 PUSH2 0x170A JUMP JUMPDEST SWAP4 SWAP3 POP POP POP JUMP JUMPDEST PUSH0 DUP2 MLOAD SWAP1 POP SWAP2 SWAP1 POP JUMP JUMPDEST PUSH0 DUP2 SWAP1 POP SWAP3 SWAP2 POP POP JUMP JUMPDEST DUP3 DUP2 DUP4 MCOPY PUSH0 DUP4 DUP4 ADD MSTORE POP POP POP JUMP JUMPDEST PUSH0 PUSH2 0x1F4C DUP3 PUSH2 0x1F20 JUMP JUMPDEST PUSH2 0x1F56 DUP2 DUP6 PUSH2 0x1F2A JUMP JUMPDEST SWAP4 POP PUSH2 0x1F66 DUP2 DUP6 PUSH1 0x20 DUP7 ADD PUSH2 0x1F34 JUMP JUMPDEST DUP1 DUP5 ADD SWAP2 POP POP SWAP3 SWAP2 POP POP JUMP JUMPDEST PUSH0 PUSH2 0x1F7D DUP3 DUP5 PUSH2 0x1F42 JUMP JUMPDEST SWAP2 POP DUP2 SWAP1 POP SWAP3 SWAP2 POP POP JUMP INVALID LOG2 PUSH5 0x6970667358 0x22 SLT KECCAK256 0x2C PUSH4 0xFBC53489 ADD SWAP7 0xB5 PUSH5 0xD282D29CBE SWAP9 0x4C 0x27 SAR LOG2 0xC0 SMOD 0xCC SHR SWAP7 PUSH3 0x2D57FD DUP7 OR PUSH22 0x64736F6C634300081A00330000000000000000000000 "
		},
		"gasEstimates": {
			"creation": {
				"codeDepositCost": "1625200",
				"executionCost": "infinite",
				"totalCost": "infinite"
			},
			"external": {
				"claimRewards()": "infinite",
				"deposit(uint256,uint256)": "infinite",
				"getUserRewards(address)": "infinite",
				"reinvestRewards()": "infinite",
				"rewardToken()": "infinite",
				"router()": "infinite",
				"stakingContract()": "infinite",
				"tokenA()": "infinite",
				"tokenB()": "infinite",
				"vault()": "infinite",
				"withdraw(uint256)": "infinite"
			}
		},
		"methodIdentifiers": {
			"claimRewards()": "372500ab",
			"deposit(uint256,uint256)": "e2bbb158",
			"getUserRewards(address)": "078b0fb7",
			"reinvestRewards()": "b5f4d38c",
			"rewardToken()": "f7c618c1",
			"router()": "f887ea40",
			"stakingContract()": "ee99205c",
			"tokenA()": "0fc63d10",
			"tokenB()": "5f64b55b",
			"vault()": "fbfa77cf",
			"withdraw(uint256)": "2e1a7d4d"
		}
	},
	"abi": [
		{
			"inputs": [
				{
					"internalType": "address",
					"name": "_vault",
					"type": "address"
				},
				{
					"internalType": "address",
					"name": "_router",
					"type": "address"
				},
				{
					"internalType": "address",
					"name": "_stakingContract",
					"type": "address"
				},
				{
					"internalType": "address",
					"name": "_rewardToken",
					"type": "address"
				},
				{
					"internalType": "address",
					"name": "_tokenA",
					"type": "address"
				},
				{
					"internalType": "address",
					"name": "_tokenB",
					"type": "address"
				}
			],
			"stateMutability": "nonpayable",
			"type": "constructor"
		},
		{
			"inputs": [
				{
					"internalType": "address",
					"name": "target",
					"type": "address"
				}
			],
			"name": "AddressEmptyCode",
			"type": "error"
		},
		{
			"inputs": [
				{
					"internalType": "address",
					"name": "account",
					"type": "address"
				}
			],
			"name": "AddressInsufficientBalance",
			"type": "error"
		},
		{
			"inputs": [],
			"name": "FailedInnerCall",
			"type": "error"
		},
		{
			"inputs": [
				{
					"internalType": "address",
					"name": "token",
					"type": "address"
				}
			],
			"name": "SafeERC20FailedOperation",
			"type": "error"
		},
		{
			"inputs": [],
			"name": "claimRewards",
			"outputs": [],
			"stateMutability": "nonpayable",
			"type": "function"
		},
		{
			"inputs": [
				{
					"internalType": "uint256",
					"name": "amountA",
					"type": "uint256"
				},
				{
					"internalType": "uint256",
					"name": "amountB",
					"type": "uint256"
				}
			],
			"name": "deposit",
			"outputs": [],
			"stateMutability": "nonpayable",
			"type": "function"
		},
		{
			"inputs": [
				{
					"internalType": "address",
					"name": "user",
					"type": "address"
				}
			],
			"name": "getUserRewards",
			"outputs": [
				{
					"internalType": "uint256",
					"name": "",
					"type": "uint256"
				}
			],
			"stateMutability": "view",
			"type": "function"
		},
		{
			"inputs": [],
			"name": "reinvestRewards",
			"outputs": [],
			"stateMutability": "nonpayable",
			"type": "function"
		},
		{
			"inputs": [],
			"name": "rewardToken",
			"outputs": [
				{
					"internalType": "contract IERC20",
					"name": "",
					"type": "address"
				}
			],
			"stateMutability": "view",
			"type": "function"
		},
		{
			"inputs": [],
			"name": "router",
			"outputs": [
				{
					"internalType": "contract UniswapV2Router",
					"name": "",
					"type": "address"
				}
			],
			"stateMutability": "view",
			"type": "function"
		},
		{
			"inputs": [],
			"name": "stakingContract",
			"outputs": [
				{
					"internalType": "contract CustomStaking",
					"name": "",
					"type": "address"
				}
			],
			"stateMutability": "view",
			"type": "function"
		},
		{
			"inputs": [],
			"name": "tokenA",
			"outputs": [
				{
					"internalType": "address",
					"name": "",
					"type": "address"
				}
			],
			"stateMutability": "view",
			"type": "function"
		},
		{
			"inputs": [],
			"name": "tokenB",
			"outputs": [
				{
					"internalType": "address",
					"name": "",
					"type": "address"
				}
			],
			"stateMutability": "view",
			"type": "function"
		},
		{
			"inputs": [],
			"name": "vault",
			"outputs": [
				{
					"internalType": "contract ERC4626Vault",
					"name": "",
					"type": "address"
				}
			],
			"stateMutability": "view",
			"type": "function"
		},
		{
			"inputs": [
				{
					"internalType": "uint256",
					"name": "shares",
					"type": "uint256"
				}
			],
			"name": "withdraw",
			"outputs": [],
			"stateMutability": "nonpayable",
			"type": "function"
		}
	]
}